{
	"contracts/TrainersIlde.sol": {
		"TrainersIDLE": {
			"abi": [
				{
					"inputs": [
						{
							"internalType": "address",
							"name": "_trainersContract",
							"type": "address"
						}
					],
					"stateMutability": "nonpayable",
					"type": "constructor"
				},
				{
					"anonymous": false,
					"inputs": [
						{
							"indexed": false,
							"internalType": "uint256",
							"name": "",
							"type": "uint256"
						},
						{
							"indexed": false,
							"internalType": "uint256",
							"name": "",
							"type": "uint256"
						}
					],
					"name": "BuyImprovement",
					"type": "event"
				},
				{
					"anonymous": false,
					"inputs": [
						{
							"indexed": false,
							"internalType": "uint256",
							"name": "",
							"type": "uint256"
						},
						{
							"indexed": false,
							"internalType": "uint256",
							"name": "",
							"type": "uint256"
						}
					],
					"name": "CollectIDLEPoints",
					"type": "event"
				},
				{
					"anonymous": false,
					"inputs": [
						{
							"indexed": false,
							"internalType": "uint256",
							"name": "",
							"type": "uint256"
						},
						{
							"indexed": false,
							"internalType": "uint256",
							"name": "",
							"type": "uint256"
						}
					],
					"name": "CollectTransactionPoints",
					"type": "event"
				},
				{
					"anonymous": false,
					"inputs": [
						{
							"indexed": false,
							"internalType": "address",
							"name": "",
							"type": "address"
						},
						{
							"indexed": false,
							"internalType": "uint256",
							"name": "",
							"type": "uint256"
						},
						{
							"indexed": false,
							"internalType": "uint256",
							"name": "",
							"type": "uint256"
						}
					],
					"name": "InjectFeeBalance",
					"type": "event"
				},
				{
					"anonymous": false,
					"inputs": [
						{
							"indexed": false,
							"internalType": "uint256",
							"name": "",
							"type": "uint256"
						},
						{
							"indexed": false,
							"internalType": "uint256",
							"name": "",
							"type": "uint256"
						}
					],
					"name": "Join",
					"type": "event"
				},
				{
					"anonymous": false,
					"inputs": [
						{
							"indexed": true,
							"internalType": "bytes32",
							"name": "role",
							"type": "bytes32"
						},
						{
							"indexed": true,
							"internalType": "bytes32",
							"name": "previousAdminRole",
							"type": "bytes32"
						},
						{
							"indexed": true,
							"internalType": "bytes32",
							"name": "newAdminRole",
							"type": "bytes32"
						}
					],
					"name": "RoleAdminChanged",
					"type": "event"
				},
				{
					"anonymous": false,
					"inputs": [
						{
							"indexed": true,
							"internalType": "bytes32",
							"name": "role",
							"type": "bytes32"
						},
						{
							"indexed": true,
							"internalType": "address",
							"name": "account",
							"type": "address"
						},
						{
							"indexed": true,
							"internalType": "address",
							"name": "sender",
							"type": "address"
						}
					],
					"name": "RoleGranted",
					"type": "event"
				},
				{
					"anonymous": false,
					"inputs": [
						{
							"indexed": true,
							"internalType": "bytes32",
							"name": "role",
							"type": "bytes32"
						},
						{
							"indexed": true,
							"internalType": "address",
							"name": "account",
							"type": "address"
						},
						{
							"indexed": true,
							"internalType": "address",
							"name": "sender",
							"type": "address"
						}
					],
					"name": "RoleRevoked",
					"type": "event"
				},
				{
					"inputs": [],
					"name": "ACTIVE_TRAINER_ERROR",
					"outputs": [
						{
							"internalType": "string",
							"name": "",
							"type": "string"
						}
					],
					"stateMutability": "view",
					"type": "function"
				},
				{
					"inputs": [],
					"name": "CANT_GET_IT",
					"outputs": [
						{
							"internalType": "string",
							"name": "",
							"type": "string"
						}
					],
					"stateMutability": "view",
					"type": "function"
				},
				{
					"inputs": [],
					"name": "DEFAULT_ADMIN_ROLE",
					"outputs": [
						{
							"internalType": "bytes32",
							"name": "",
							"type": "bytes32"
						}
					],
					"stateMutability": "view",
					"type": "function"
				},
				{
					"inputs": [],
					"name": "EXECUTOR",
					"outputs": [
						{
							"internalType": "bytes32",
							"name": "",
							"type": "bytes32"
						}
					],
					"stateMutability": "view",
					"type": "function"
				},
				{
					"inputs": [],
					"name": "MTR_FEE_ERROR",
					"outputs": [
						{
							"internalType": "string",
							"name": "",
							"type": "string"
						}
					],
					"stateMutability": "view",
					"type": "function"
				},
				{
					"inputs": [],
					"name": "OWNER_ERROR",
					"outputs": [
						{
							"internalType": "string",
							"name": "",
							"type": "string"
						}
					],
					"stateMutability": "view",
					"type": "function"
				},
				{
					"inputs": [
						{
							"internalType": "uint256",
							"name": "_trainer",
							"type": "uint256"
						}
					],
					"name": "activationBlock",
					"outputs": [
						{
							"internalType": "uint256",
							"name": "",
							"type": "uint256"
						}
					],
					"stateMutability": "view",
					"type": "function"
				},
				{
					"inputs": [
						{
							"internalType": "address",
							"name": "_e",
							"type": "address"
						},
						{
							"internalType": "uint256",
							"name": "_t",
							"type": "uint256"
						},
						{
							"internalType": "uint256",
							"name": "_i",
							"type": "uint256"
						}
					],
					"name": "buyTrainerImprovement",
					"outputs": [],
					"stateMutability": "nonpayable",
					"type": "function"
				},
				{
					"inputs": [
						{
							"internalType": "uint256",
							"name": "_t",
							"type": "uint256"
						},
						{
							"internalType": "uint256",
							"name": "_i",
							"type": "uint256"
						}
					],
					"name": "canGetItTrainerImprovement",
					"outputs": [
						{
							"internalType": "bool",
							"name": "",
							"type": "bool"
						}
					],
					"stateMutability": "view",
					"type": "function"
				},
				{
					"inputs": [
						{
							"internalType": "address",
							"name": "_e",
							"type": "address"
						},
						{
							"internalType": "uint256",
							"name": "_trainer",
							"type": "uint256"
						}
					],
					"name": "collectIDLEPoints",
					"outputs": [],
					"stateMutability": "nonpayable",
					"type": "function"
				},
				{
					"inputs": [
						{
							"internalType": "address",
							"name": "_e",
							"type": "address"
						},
						{
							"internalType": "uint256",
							"name": "_trainer",
							"type": "uint256"
						}
					],
					"name": "collectTransPoints",
					"outputs": [],
					"stateMutability": "nonpayable",
					"type": "function"
				},
				{
					"inputs": [],
					"name": "config_",
					"outputs": [
						{
							"internalType": "uint8",
							"name": "projectPercentage",
							"type": "uint8"
						},
						{
							"internalType": "uint256",
							"name": "pPerBlock",
							"type": "uint256"
						},
						{
							"internalType": "uint256",
							"name": "pPerTrans",
							"type": "uint256"
						},
						{
							"internalType": "uint256",
							"name": "feeMTR",
							"type": "uint256"
						},
						{
							"internalType": "uint256",
							"name": "startBlock",
							"type": "uint256"
						},
						{
							"internalType": "uint256",
							"name": "maxWinners",
							"type": "uint256"
						}
					],
					"stateMutability": "view",
					"type": "function"
				},
				{
					"inputs": [
						{
							"internalType": "uint256",
							"name": "_to",
							"type": "uint256"
						},
						{
							"internalType": "uint256",
							"name": "_trainer",
							"type": "uint256"
						}
					],
					"name": "getContractData",
					"outputs": [
						{
							"components": [
								{
									"internalType": "bool",
									"name": "trainerIsActive",
									"type": "bool"
								},
								{
									"internalType": "uint256",
									"name": "startBlock",
									"type": "uint256"
								},
								{
									"internalType": "uint256",
									"name": "currentBlock",
									"type": "uint256"
								},
								{
									"internalType": "uint256",
									"name": "userFeesBalance",
									"type": "uint256"
								},
								{
									"internalType": "uint256",
									"name": "takedFees",
									"type": "uint256"
								},
								{
									"internalType": "uint256",
									"name": "rewardsBalance",
									"type": "uint256"
								},
								{
									"internalType": "uint256",
									"name": "availableIdlePoints",
									"type": "uint256"
								},
								{
									"internalType": "uint256",
									"name": "availableTransactionPoints",
									"type": "uint256"
								},
								{
									"components": [
										{
											"internalType": "uint256",
											"name": "mult",
											"type": "uint256"
										},
										{
											"internalType": "uint256",
											"name": "points",
											"type": "uint256"
										}
									],
									"internalType": "struct TrainersIDLE.EntityData",
									"name": "trainerData",
									"type": "tuple"
								},
								{
									"components": [
										{
											"internalType": "uint8",
											"name": "projectPercentage",
											"type": "uint8"
										},
										{
											"internalType": "uint256",
											"name": "pPerBlock",
											"type": "uint256"
										},
										{
											"internalType": "uint256",
											"name": "pPerTrans",
											"type": "uint256"
										},
										{
											"internalType": "uint256",
											"name": "feeMTR",
											"type": "uint256"
										},
										{
											"internalType": "uint256",
											"name": "startBlock",
											"type": "uint256"
										},
										{
											"internalType": "uint256",
											"name": "maxWinners",
											"type": "uint256"
										}
									],
									"internalType": "struct TrainersIDLE.IDLEConfiguration",
									"name": "idleConfig",
									"type": "tuple"
								},
								{
									"components": [
										{
											"internalType": "uint256",
											"name": "value",
											"type": "uint256"
										},
										{
											"internalType": "uint256",
											"name": "mult",
											"type": "uint256"
										}
									],
									"internalType": "struct TrainersIDLE.Improvement[]",
									"name": "tImprovements",
									"type": "tuple[]"
								},
								{
									"internalType": "bool[]",
									"name": "trainerImprovements",
									"type": "bool[]"
								},
								{
									"internalType": "uint8[]",
									"name": "userRewardsPercentage",
									"type": "uint8[]"
								},
								{
									"internalType": "uint256[]",
									"name": "userRewardsValues",
									"type": "uint256[]"
								}
							],
							"internalType": "struct TrainersIDLE.ContractData",
							"name": "",
							"type": "tuple"
						}
					],
					"stateMutability": "view",
					"type": "function"
				},
				{
					"inputs": [
						{
							"internalType": "bytes32",
							"name": "role",
							"type": "bytes32"
						}
					],
					"name": "getRoleAdmin",
					"outputs": [
						{
							"internalType": "bytes32",
							"name": "",
							"type": "bytes32"
						}
					],
					"stateMutability": "view",
					"type": "function"
				},
				{
					"inputs": [],
					"name": "getTakedFees",
					"outputs": [
						{
							"internalType": "uint256",
							"name": "",
							"type": "uint256"
						}
					],
					"stateMutability": "view",
					"type": "function"
				},
				{
					"inputs": [
						{
							"internalType": "uint256",
							"name": "_t",
							"type": "uint256"
						}
					],
					"name": "getTrainerData",
					"outputs": [
						{
							"components": [
								{
									"internalType": "uint256",
									"name": "mult",
									"type": "uint256"
								},
								{
									"internalType": "uint256",
									"name": "points",
									"type": "uint256"
								}
							],
							"internalType": "struct TrainersIDLE.EntityData",
							"name": "",
							"type": "tuple"
						}
					],
					"stateMutability": "view",
					"type": "function"
				},
				{
					"inputs": [
						{
							"internalType": "uint256",
							"name": "_to",
							"type": "uint256"
						},
						{
							"internalType": "uint256",
							"name": "_t",
							"type": "uint256"
						}
					],
					"name": "getTrainerImprovements",
					"outputs": [
						{
							"internalType": "bool[]",
							"name": "",
							"type": "bool[]"
						}
					],
					"stateMutability": "view",
					"type": "function"
				},
				{
					"inputs": [
						{
							"internalType": "uint256",
							"name": "_to",
							"type": "uint256"
						}
					],
					"name": "getTrainersImprovements",
					"outputs": [
						{
							"components": [
								{
									"internalType": "uint256",
									"name": "value",
									"type": "uint256"
								},
								{
									"internalType": "uint256",
									"name": "mult",
									"type": "uint256"
								}
							],
							"internalType": "struct TrainersIDLE.Improvement[]",
							"name": "",
							"type": "tuple[]"
						}
					],
					"stateMutability": "view",
					"type": "function"
				},
				{
					"inputs": [
						{
							"internalType": "address",
							"name": "_e",
							"type": "address"
						}
					],
					"name": "getUserFeesBalance",
					"outputs": [
						{
							"internalType": "uint256",
							"name": "",
							"type": "uint256"
						}
					],
					"stateMutability": "view",
					"type": "function"
				},
				{
					"inputs": [
						{
							"internalType": "uint256",
							"name": "_max",
							"type": "uint256"
						}
					],
					"name": "getUserRewardsValues",
					"outputs": [
						{
							"internalType": "uint256[]",
							"name": "",
							"type": "uint256[]"
						}
					],
					"stateMutability": "view",
					"type": "function"
				},
				{
					"inputs": [
						{
							"internalType": "uint256",
							"name": "_max",
							"type": "uint256"
						}
					],
					"name": "getUsersRewardsPercentages",
					"outputs": [
						{
							"internalType": "uint8[]",
							"name": "",
							"type": "uint8[]"
						}
					],
					"stateMutability": "view",
					"type": "function"
				},
				{
					"inputs": [
						{
							"internalType": "bytes32",
							"name": "role",
							"type": "bytes32"
						},
						{
							"internalType": "address",
							"name": "account",
							"type": "address"
						}
					],
					"name": "grantRole",
					"outputs": [],
					"stateMutability": "nonpayable",
					"type": "function"
				},
				{
					"inputs": [
						{
							"internalType": "uint256",
							"name": "_t",
							"type": "uint256"
						},
						{
							"internalType": "uint256",
							"name": "_i",
							"type": "uint256"
						}
					],
					"name": "hasEnoughtForTrainerI",
					"outputs": [
						{
							"internalType": "bool",
							"name": "",
							"type": "bool"
						}
					],
					"stateMutability": "view",
					"type": "function"
				},
				{
					"inputs": [
						{
							"internalType": "bytes32",
							"name": "role",
							"type": "bytes32"
						},
						{
							"internalType": "address",
							"name": "account",
							"type": "address"
						}
					],
					"name": "hasRole",
					"outputs": [
						{
							"internalType": "bool",
							"name": "",
							"type": "bool"
						}
					],
					"stateMutability": "view",
					"type": "function"
				},
				{
					"inputs": [
						{
							"internalType": "uint256",
							"name": "_trainer",
							"type": "uint256"
						}
					],
					"name": "idleBlocks",
					"outputs": [
						{
							"internalType": "uint256",
							"name": "",
							"type": "uint256"
						}
					],
					"stateMutability": "view",
					"type": "function"
				},
				{
					"inputs": [],
					"name": "injectBalance",
					"outputs": [],
					"stateMutability": "payable",
					"type": "function"
				},
				{
					"inputs": [
						{
							"internalType": "uint256",
							"name": "_trainer",
							"type": "uint256"
						}
					],
					"name": "isActive",
					"outputs": [
						{
							"internalType": "bool",
							"name": "",
							"type": "bool"
						}
					],
					"stateMutability": "view",
					"type": "function"
				},
				{
					"inputs": [
						{
							"internalType": "address",
							"name": "_e",
							"type": "address"
						},
						{
							"internalType": "uint256",
							"name": "_trainer",
							"type": "uint256"
						}
					],
					"name": "joinWithTrainer",
					"outputs": [],
					"stateMutability": "nonpayable",
					"type": "function"
				},
				{
					"inputs": [
						{
							"internalType": "bytes32",
							"name": "role",
							"type": "bytes32"
						},
						{
							"internalType": "address",
							"name": "account",
							"type": "address"
						}
					],
					"name": "renounceRole",
					"outputs": [],
					"stateMutability": "nonpayable",
					"type": "function"
				},
				{
					"inputs": [
						{
							"internalType": "bytes32",
							"name": "role",
							"type": "bytes32"
						},
						{
							"internalType": "address",
							"name": "account",
							"type": "address"
						}
					],
					"name": "revokeRole",
					"outputs": [],
					"stateMutability": "nonpayable",
					"type": "function"
				},
				{
					"inputs": [],
					"name": "sendFeesToExecutor",
					"outputs": [],
					"stateMutability": "nonpayable",
					"type": "function"
				},
				{
					"inputs": [
						{
							"internalType": "address",
							"name": "_e",
							"type": "address"
						}
					],
					"name": "setExecutor",
					"outputs": [],
					"stateMutability": "nonpayable",
					"type": "function"
				},
				{
					"inputs": [
						{
							"internalType": "uint256",
							"name": "_fee",
							"type": "uint256"
						}
					],
					"name": "setMTRFee",
					"outputs": [],
					"stateMutability": "nonpayable",
					"type": "function"
				},
				{
					"inputs": [
						{
							"internalType": "uint256",
							"name": "_i",
							"type": "uint256"
						}
					],
					"name": "setMaxWinners",
					"outputs": [],
					"stateMutability": "nonpayable",
					"type": "function"
				},
				{
					"inputs": [
						{
							"internalType": "uint256",
							"name": "_v",
							"type": "uint256"
						}
					],
					"name": "setPPerBlock",
					"outputs": [],
					"stateMutability": "nonpayable",
					"type": "function"
				},
				{
					"inputs": [
						{
							"internalType": "uint256",
							"name": "_v",
							"type": "uint256"
						}
					],
					"name": "setPPerTrans",
					"outputs": [],
					"stateMutability": "nonpayable",
					"type": "function"
				},
				{
					"inputs": [
						{
							"internalType": "uint8",
							"name": "_p",
							"type": "uint8"
						}
					],
					"name": "setPPercentage",
					"outputs": [],
					"stateMutability": "nonpayable",
					"type": "function"
				},
				{
					"inputs": [
						{
							"internalType": "uint256",
							"name": "_i",
							"type": "uint256"
						},
						{
							"internalType": "uint8",
							"name": "_p",
							"type": "uint8"
						}
					],
					"name": "setRewardsP",
					"outputs": [],
					"stateMutability": "nonpayable",
					"type": "function"
				},
				{
					"inputs": [
						{
							"internalType": "uint256",
							"name": "_i",
							"type": "uint256"
						},
						{
							"internalType": "uint256",
							"name": "_value",
							"type": "uint256"
						},
						{
							"internalType": "uint256",
							"name": "_mult",
							"type": "uint256"
						}
					],
					"name": "setTrainerImprovementValue",
					"outputs": [],
					"stateMutability": "nonpayable",
					"type": "function"
				},
				{
					"inputs": [
						{
							"internalType": "bytes4",
							"name": "interfaceId",
							"type": "bytes4"
						}
					],
					"name": "supportsInterface",
					"outputs": [
						{
							"internalType": "bool",
							"name": "",
							"type": "bool"
						}
					],
					"stateMutability": "view",
					"type": "function"
				},
				{
					"inputs": [
						{
							"internalType": "uint256",
							"name": "_t",
							"type": "uint256"
						},
						{
							"internalType": "uint256",
							"name": "_i",
							"type": "uint256"
						}
					],
					"name": "trainerHadImprovement",
					"outputs": [
						{
							"internalType": "bool",
							"name": "",
							"type": "bool"
						}
					],
					"stateMutability": "view",
					"type": "function"
				},
				{
					"inputs": [],
					"name": "trainers_",
					"outputs": [
						{
							"internalType": "contract IERC721",
							"name": "",
							"type": "address"
						}
					],
					"stateMutability": "view",
					"type": "function"
				},
				{
					"inputs": [
						{
							"internalType": "uint256",
							"name": "_t",
							"type": "uint256"
						}
					],
					"name": "transactionPoints",
					"outputs": [
						{
							"internalType": "uint256",
							"name": "",
							"type": "uint256"
						}
					],
					"stateMutability": "view",
					"type": "function"
				},
				{
					"inputs": [
						{
							"internalType": "uint256",
							"name": "_t",
							"type": "uint256"
						}
					],
					"name": "unlockedIdlePoints",
					"outputs": [
						{
							"internalType": "uint256",
							"name": "",
							"type": "uint256"
						}
					],
					"stateMutability": "view",
					"type": "function"
				}
			],
			"devdoc": {
				"events": {
					"RoleAdminChanged(bytes32,bytes32,bytes32)": {
						"details": "Emitted when `newAdminRole` is set as ``role``'s admin role, replacing `previousAdminRole` `DEFAULT_ADMIN_ROLE` is the starting admin for all roles, despite {RoleAdminChanged} not being emitted signaling this. _Available since v3.1._"
					},
					"RoleGranted(bytes32,address,address)": {
						"details": "Emitted when `account` is granted `role`. `sender` is the account that originated the contract call, an admin role bearer except when using {AccessControl-_setupRole}."
					},
					"RoleRevoked(bytes32,address,address)": {
						"details": "Emitted when `account` is revoked `role`. `sender` is the account that originated the contract call:   - if using `revokeRole`, it is the admin role bearer   - if using `renounceRole`, it is the role bearer (i.e. `account`)"
					}
				},
				"kind": "dev",
				"methods": {
					"getRoleAdmin(bytes32)": {
						"details": "Returns the admin role that controls `role`. See {grantRole} and {revokeRole}. To change a role's admin, use {_setRoleAdmin}."
					},
					"grantRole(bytes32,address)": {
						"details": "Grants `role` to `account`. If `account` had not been already granted `role`, emits a {RoleGranted} event. Requirements: - the caller must have ``role``'s admin role. May emit a {RoleGranted} event."
					},
					"hasRole(bytes32,address)": {
						"details": "Returns `true` if `account` has been granted `role`."
					},
					"renounceRole(bytes32,address)": {
						"details": "Revokes `role` from the calling account. Roles are often managed via {grantRole} and {revokeRole}: this function's purpose is to provide a mechanism for accounts to lose their privileges if they are compromised (such as when a trusted device is misplaced). If the calling account had been revoked `role`, emits a {RoleRevoked} event. Requirements: - the caller must be `account`. May emit a {RoleRevoked} event."
					},
					"revokeRole(bytes32,address)": {
						"details": "Revokes `role` from `account`. If `account` had been granted `role`, emits a {RoleRevoked} event. Requirements: - the caller must have ``role``'s admin role. May emit a {RoleRevoked} event."
					},
					"supportsInterface(bytes4)": {
						"details": "See {IERC165-supportsInterface}."
					}
				},
				"version": 1
			},
			"evm": {
				"assembly": "    /* \"contracts/TrainersIlde.sol\":295:10843  contract TrainersIDLE is AccessControl {... */\n  mstore(0x40, 0x80)\n    /* \"contracts/TrainersIlde.sol\":2373:2568  constructor(address _trainersContract) {... */\n  callvalue\n  dup1\n  iszero\n  tag_1\n  jumpi\n  0x00\n  dup1\n  revert\ntag_1:\n  pop\n  mload(0x40)\n  sub(codesize, bytecodeSize)\n  dup1\n  bytecodeSize\n  dup4\n  codecopy\n  dup2\n  dup2\n  add\n  0x40\n  mstore\n  dup2\n  add\n  swap1\n  tag_2\n  swap2\n  swap1\n  tag_3\n  jump\t// in\ntag_2:\n    /* \"contracts/TrainersIlde.sol\":2423:2467  _grantRole(DEFAULT_ADMIN_ROLE, _msgSender()) */\n  tag_6\n    /* \"@openzeppelin/contracts/access/AccessControl.sol\":2198:2202  0x00 */\n  0x00\n    /* \"contracts/TrainersIlde.sol\":2434:2452  DEFAULT_ADMIN_ROLE */\n  dup1\n  shl\n    /* \"contracts/TrainersIlde.sol\":2454:2466  _msgSender() */\n  tag_7\n    /* \"contracts/TrainersIlde.sol\":2454:2464  _msgSender */\n  shl(0x20, tag_8)\n    /* \"contracts/TrainersIlde.sol\":2454:2466  _msgSender() */\n  0x20\n  shr\n  jump\t// in\ntag_7:\n    /* \"contracts/TrainersIlde.sol\":2423:2433  _grantRole */\n  shl(0x20, tag_9)\n    /* \"contracts/TrainersIlde.sol\":2423:2467  _grantRole(DEFAULT_ADMIN_ROLE, _msgSender()) */\n  0x20\n  shr\n  jump\t// in\ntag_6:\n    /* \"contracts/TrainersIlde.sol\":2498:2515  _trainersContract */\n  dup1\n    /* \"contracts/TrainersIlde.sol\":2478:2487  trainers_ */\n  0x01\n  0x00\n    /* \"contracts/TrainersIlde.sol\":2478:2516  trainers_ = IERC721(_trainersContract) */\n  0x0100\n  exp\n  dup2\n  sload\n  dup2\n  0xffffffffffffffffffffffffffffffffffffffff\n  mul\n  not\n  and\n  swap1\n  dup4\n  0xffffffffffffffffffffffffffffffffffffffff\n  and\n  mul\n  or\n  swap1\n  sstore\n  pop\n    /* \"contracts/TrainersIlde.sol\":2548:2560  block.number */\n  number\n    /* \"contracts/TrainersIlde.sol\":2527:2534  config_ */\n  0x02\n    /* \"contracts/TrainersIlde.sol\":2527:2545  config_.startBlock */\n  0x04\n  add\n    /* \"contracts/TrainersIlde.sol\":2527:2560  config_.startBlock = block.number */\n  dup2\n  swap1\n  sstore\n  pop\n    /* \"contracts/TrainersIlde.sol\":2373:2568  constructor(address _trainersContract) {... */\n  pop\n    /* \"contracts/TrainersIlde.sol\":295:10843  contract TrainersIDLE is AccessControl {... */\n  jump(tag_10)\n    /* \"@openzeppelin/contracts/utils/Context.sol\":655:751  function _msgSender() internal view virtual returns (address) {... */\ntag_8:\n    /* \"@openzeppelin/contracts/utils/Context.sol\":708:715  address */\n  0x00\n    /* \"@openzeppelin/contracts/utils/Context.sol\":734:744  msg.sender */\n  caller\n    /* \"@openzeppelin/contracts/utils/Context.sol\":727:744  return msg.sender */\n  swap1\n  pop\n    /* \"@openzeppelin/contracts/utils/Context.sol\":655:751  function _msgSender() internal view virtual returns (address) {... */\n  swap1\n  jump\t// out\n    /* \"@openzeppelin/contracts/access/AccessControl.sol\":7587:7820  function _grantRole(bytes32 role, address account) internal virtual {... */\ntag_9:\n    /* \"@openzeppelin/contracts/access/AccessControl.sol\":7670:7692  hasRole(role, account) */\n  tag_13\n    /* \"@openzeppelin/contracts/access/AccessControl.sol\":7678:7682  role */\n  dup3\n    /* \"@openzeppelin/contracts/access/AccessControl.sol\":7684:7691  account */\n  dup3\n    /* \"@openzeppelin/contracts/access/AccessControl.sol\":7670:7677  hasRole */\n  shl(0x20, tag_14)\n    /* \"@openzeppelin/contracts/access/AccessControl.sol\":7670:7692  hasRole(role, account) */\n  0x20\n  shr\n  jump\t// in\ntag_13:\n    /* \"@openzeppelin/contracts/access/AccessControl.sol\":7665:7814  if (!hasRole(role, account)) {... */\n  tag_15\n  jumpi\n    /* \"@openzeppelin/contracts/access/AccessControl.sol\":7740:7744  true */\n  0x01\n    /* \"@openzeppelin/contracts/access/AccessControl.sol\":7708:7714  _roles */\n  0x00\n    /* \"@openzeppelin/contracts/access/AccessControl.sol\":7708:7720  _roles[role] */\n  dup1\n    /* \"@openzeppelin/contracts/access/AccessControl.sol\":7715:7719  role */\n  dup5\n    /* \"@openzeppelin/contracts/access/AccessControl.sol\":7708:7720  _roles[role] */\n  dup2\n  mstore\n  0x20\n  add\n  swap1\n  dup2\n  mstore\n  0x20\n  add\n  0x00\n  keccak256\n    /* \"@openzeppelin/contracts/access/AccessControl.sol\":7708:7728  _roles[role].members */\n  0x00\n  add\n    /* \"@openzeppelin/contracts/access/AccessControl.sol\":7708:7737  _roles[role].members[account] */\n  0x00\n    /* \"@openzeppelin/contracts/access/AccessControl.sol\":7729:7736  account */\n  dup4\n    /* \"@openzeppelin/contracts/access/AccessControl.sol\":7708:7737  _roles[role].members[account] */\n  0xffffffffffffffffffffffffffffffffffffffff\n  and\n  0xffffffffffffffffffffffffffffffffffffffff\n  and\n  dup2\n  mstore\n  0x20\n  add\n  swap1\n  dup2\n  mstore\n  0x20\n  add\n  0x00\n  keccak256\n  0x00\n    /* \"@openzeppelin/contracts/access/AccessControl.sol\":7708:7744  _roles[role].members[account] = true */\n  0x0100\n  exp\n  dup2\n  sload\n  dup2\n  0xff\n  mul\n  not\n  and\n  swap1\n  dup4\n  iszero\n  iszero\n  mul\n  or\n  swap1\n  sstore\n  pop\n    /* \"@openzeppelin/contracts/access/AccessControl.sol\":7790:7802  _msgSender() */\n  tag_16\n    /* \"@openzeppelin/contracts/access/AccessControl.sol\":7790:7800  _msgSender */\n  shl(0x20, tag_8)\n    /* \"@openzeppelin/contracts/access/AccessControl.sol\":7790:7802  _msgSender() */\n  0x20\n  shr\n  jump\t// in\ntag_16:\n    /* \"@openzeppelin/contracts/access/AccessControl.sol\":7763:7803  RoleGranted(role, account, _msgSender()) */\n  0xffffffffffffffffffffffffffffffffffffffff\n  and\n    /* \"@openzeppelin/contracts/access/AccessControl.sol\":7781:7788  account */\n  dup2\n    /* \"@openzeppelin/contracts/access/AccessControl.sol\":7763:7803  RoleGranted(role, account, _msgSender()) */\n  0xffffffffffffffffffffffffffffffffffffffff\n  and\n    /* \"@openzeppelin/contracts/access/AccessControl.sol\":7775:7779  role */\n  dup4\n    /* \"@openzeppelin/contracts/access/AccessControl.sol\":7763:7803  RoleGranted(role, account, _msgSender()) */\n  0x2f8788117e7eff1d82e926ec794901d17c78024a50270940304540a733656f0d\n  mload(0x40)\n  mload(0x40)\n  dup1\n  swap2\n  sub\n  swap1\n  log4\n    /* \"@openzeppelin/contracts/access/AccessControl.sol\":7665:7814  if (!hasRole(role, account)) {... */\ntag_15:\n    /* \"@openzeppelin/contracts/access/AccessControl.sol\":7587:7820  function _grantRole(bytes32 role, address account) internal virtual {... */\n  pop\n  pop\n  jump\t// out\n    /* \"@openzeppelin/contracts/access/AccessControl.sol\":3021:3166  function hasRole(bytes32 role, address account) public view virtual override returns (bool) {... */\ntag_14:\n    /* \"@openzeppelin/contracts/access/AccessControl.sol\":3107:3111  bool */\n  0x00\n    /* \"@openzeppelin/contracts/access/AccessControl.sol\":3130:3136  _roles */\n  dup1\n    /* \"@openzeppelin/contracts/access/AccessControl.sol\":3130:3142  _roles[role] */\n  0x00\n    /* \"@openzeppelin/contracts/access/AccessControl.sol\":3137:3141  role */\n  dup5\n    /* \"@openzeppelin/contracts/access/AccessControl.sol\":3130:3142  _roles[role] */\n  dup2\n  mstore\n  0x20\n  add\n  swap1\n  dup2\n  mstore\n  0x20\n  add\n  0x00\n  keccak256\n    /* \"@openzeppelin/contracts/access/AccessControl.sol\":3130:3150  _roles[role].members */\n  0x00\n  add\n    /* \"@openzeppelin/contracts/access/AccessControl.sol\":3130:3159  _roles[role].members[account] */\n  0x00\n    /* \"@openzeppelin/contracts/access/AccessControl.sol\":3151:3158  account */\n  dup4\n    /* \"@openzeppelin/contracts/access/AccessControl.sol\":3130:3159  _roles[role].members[account] */\n  0xffffffffffffffffffffffffffffffffffffffff\n  and\n  0xffffffffffffffffffffffffffffffffffffffff\n  and\n  dup2\n  mstore\n  0x20\n  add\n  swap1\n  dup2\n  mstore\n  0x20\n  add\n  0x00\n  keccak256\n  0x00\n  swap1\n  sload\n  swap1\n  0x0100\n  exp\n  swap1\n  div\n  0xff\n  and\n    /* \"@openzeppelin/contracts/access/AccessControl.sol\":3123:3159  return _roles[role].members[account] */\n  swap1\n  pop\n    /* \"@openzeppelin/contracts/access/AccessControl.sol\":3021:3166  function hasRole(bytes32 role, address account) public view virtual override returns (bool) {... */\n  swap3\n  swap2\n  pop\n  pop\n  jump\t// out\n    /* \"#utility.yul\":88:205   */\ntag_19:\n    /* \"#utility.yul\":197:198   */\n  0x00\n    /* \"#utility.yul\":194:195   */\n  dup1\n    /* \"#utility.yul\":187:199   */\n  revert\n    /* \"#utility.yul\":334:460   */\ntag_21:\n    /* \"#utility.yul\":371:378   */\n  0x00\n    /* \"#utility.yul\":411:453   */\n  0xffffffffffffffffffffffffffffffffffffffff\n    /* \"#utility.yul\":404:409   */\n  dup3\n    /* \"#utility.yul\":400:454   */\n  and\n    /* \"#utility.yul\":389:454   */\n  swap1\n  pop\n    /* \"#utility.yul\":334:460   */\n  swap2\n  swap1\n  pop\n  jump\t// out\n    /* \"#utility.yul\":466:562   */\ntag_22:\n    /* \"#utility.yul\":503:510   */\n  0x00\n    /* \"#utility.yul\":532:556   */\n  tag_31\n    /* \"#utility.yul\":550:555   */\n  dup3\n    /* \"#utility.yul\":532:556   */\n  tag_21\n  jump\t// in\ntag_31:\n    /* \"#utility.yul\":521:556   */\n  swap1\n  pop\n    /* \"#utility.yul\":466:562   */\n  swap2\n  swap1\n  pop\n  jump\t// out\n    /* \"#utility.yul\":568:690   */\ntag_23:\n    /* \"#utility.yul\":641:665   */\n  tag_33\n    /* \"#utility.yul\":659:664   */\n  dup2\n    /* \"#utility.yul\":641:665   */\n  tag_22\n  jump\t// in\ntag_33:\n    /* \"#utility.yul\":634:639   */\n  dup2\n    /* \"#utility.yul\":631:666   */\n  eq\n    /* \"#utility.yul\":621:684   */\n  tag_34\n  jumpi\n    /* \"#utility.yul\":680:681   */\n  0x00\n    /* \"#utility.yul\":677:678   */\n  dup1\n    /* \"#utility.yul\":670:682   */\n  revert\n    /* \"#utility.yul\":621:684   */\ntag_34:\n    /* \"#utility.yul\":568:690   */\n  pop\n  jump\t// out\n    /* \"#utility.yul\":696:839   */\ntag_24:\n    /* \"#utility.yul\":753:758   */\n  0x00\n    /* \"#utility.yul\":784:790   */\n  dup2\n    /* \"#utility.yul\":778:791   */\n  mload\n    /* \"#utility.yul\":769:791   */\n  swap1\n  pop\n    /* \"#utility.yul\":800:833   */\n  tag_36\n    /* \"#utility.yul\":827:832   */\n  dup2\n    /* \"#utility.yul\":800:833   */\n  tag_23\n  jump\t// in\ntag_36:\n    /* \"#utility.yul\":696:839   */\n  swap3\n  swap2\n  pop\n  pop\n  jump\t// out\n    /* \"#utility.yul\":845:1196   */\ntag_3:\n    /* \"#utility.yul\":915:921   */\n  0x00\n    /* \"#utility.yul\":964:966   */\n  0x20\n    /* \"#utility.yul\":952:961   */\n  dup3\n    /* \"#utility.yul\":943:950   */\n  dup5\n    /* \"#utility.yul\":939:962   */\n  sub\n    /* \"#utility.yul\":935:967   */\n  slt\n    /* \"#utility.yul\":932:1051   */\n  iszero\n  tag_38\n  jumpi\n    /* \"#utility.yul\":970:1049   */\n  tag_39\n  tag_19\n  jump\t// in\ntag_39:\n    /* \"#utility.yul\":932:1051   */\ntag_38:\n    /* \"#utility.yul\":1090:1091   */\n  0x00\n    /* \"#utility.yul\":1115:1179   */\n  tag_40\n    /* \"#utility.yul\":1171:1178   */\n  dup5\n    /* \"#utility.yul\":1162:1168   */\n  dup3\n    /* \"#utility.yul\":1151:1160   */\n  dup6\n    /* \"#utility.yul\":1147:1169   */\n  add\n    /* \"#utility.yul\":1115:1179   */\n  tag_24\n  jump\t// in\ntag_40:\n    /* \"#utility.yul\":1105:1179   */\n  swap2\n  pop\n    /* \"#utility.yul\":1061:1189   */\n  pop\n    /* \"#utility.yul\":845:1196   */\n  swap3\n  swap2\n  pop\n  pop\n  jump\t// out\n    /* \"contracts/TrainersIlde.sol\":295:10843  contract TrainersIDLE is AccessControl {... */\ntag_10:\n  dataSize(sub_0)\n  dup1\n  dataOffset(sub_0)\n  0x00\n  codecopy\n  0x00\n  return\nstop\n\nsub_0: assembly {\n        /* \"contracts/TrainersIlde.sol\":295:10843  contract TrainersIDLE is AccessControl {... */\n      mstore(0x40, 0x80)\n      jumpi(tag_1, lt(calldatasize, 0x04))\n      shr(0xe0, calldataload(0x00))\n      dup1\n      0x95652eba\n      gt\n      tag_46\n      jumpi\n      dup1\n      0xba9a2b13\n      gt\n      tag_47\n      jumpi\n      dup1\n      0xd547741f\n      gt\n      tag_48\n      jumpi\n      dup1\n      0xd547741f\n      eq\n      tag_40\n      jumpi\n      dup1\n      0xd967895e\n      eq\n      tag_41\n      jumpi\n      dup1\n      0xe2c579a4\n      eq\n      tag_42\n      jumpi\n      dup1\n      0xe6bcf406\n      eq\n      tag_43\n      jumpi\n      dup1\n      0xea130820\n      eq\n      tag_44\n      jumpi\n      dup1\n      0xfc39d25d\n      eq\n      tag_45\n      jumpi\n      jump(tag_1)\n    tag_48:\n      dup1\n      0xba9a2b13\n      eq\n      tag_35\n      jumpi\n      dup1\n      0xbc3a274b\n      eq\n      tag_36\n      jumpi\n      dup1\n      0xc802748c\n      eq\n      tag_37\n      jumpi\n      dup1\n      0xd014a343\n      eq\n      tag_38\n      jumpi\n      dup1\n      0xd17b18c4\n      eq\n      tag_39\n      jumpi\n      jump(tag_1)\n    tag_47:\n      dup1\n      0xa195777c\n      gt\n      tag_49\n      jumpi\n      dup1\n      0xa195777c\n      eq\n      tag_29\n      jumpi\n      dup1\n      0xa217fddf\n      eq\n      tag_30\n      jumpi\n      dup1\n      0xae805057\n      eq\n      tag_31\n      jumpi\n      dup1\n      0xb601860c\n      eq\n      tag_32\n      jumpi\n      dup1\n      0xb7c7dbf9\n      eq\n      tag_33\n      jumpi\n      dup1\n      0xb96f141b\n      eq\n      tag_34\n      jumpi\n      jump(tag_1)\n    tag_49:\n      dup1\n      0x95652eba\n      eq\n      tag_24\n      jumpi\n      dup1\n      0x9bb0b7a3\n      eq\n      tag_25\n      jumpi\n      dup1\n      0x9db137e7\n      eq\n      tag_26\n      jumpi\n      dup1\n      0x9e857ad8\n      eq\n      tag_27\n      jumpi\n      dup1\n      0xa036db5c\n      eq\n      tag_28\n      jumpi\n      jump(tag_1)\n    tag_46:\n      dup1\n      0x3c4141fd\n      gt\n      tag_50\n      jumpi\n      dup1\n      0x769cdfa4\n      gt\n      tag_51\n      jumpi\n      dup1\n      0x769cdfa4\n      eq\n      tag_18\n      jumpi\n      dup1\n      0x82afd23b\n      eq\n      tag_19\n      jumpi\n      dup1\n      0x82d5a8f0\n      eq\n      tag_20\n      jumpi\n      dup1\n      0x91d14854\n      eq\n      tag_21\n      jumpi\n      dup1\n      0x93710421\n      eq\n      tag_22\n      jumpi\n      dup1\n      0x94410135\n      eq\n      tag_23\n      jumpi\n      jump(tag_1)\n    tag_51:\n      dup1\n      0x3c4141fd\n      eq\n      tag_13\n      jumpi\n      dup1\n      0x3d95d225\n      eq\n      tag_14\n      jumpi\n      dup1\n      0x4bce1b87\n      eq\n      tag_15\n      jumpi\n      dup1\n      0x5f6846fa\n      eq\n      tag_16\n      jumpi\n      dup1\n      0x630dc7cb\n      eq\n      tag_17\n      jumpi\n      jump(tag_1)\n    tag_50:\n      dup1\n      0x248a9ca3\n      gt\n      tag_52\n      jumpi\n      dup1\n      0x248a9ca3\n      eq\n      tag_7\n      jumpi\n      dup1\n      0x2a080a75\n      eq\n      tag_8\n      jumpi\n      dup1\n      0x2c7d3c6c\n      eq\n      tag_9\n      jumpi\n      dup1\n      0x2f2ff15d\n      eq\n      tag_10\n      jumpi\n      dup1\n      0x36568abe\n      eq\n      tag_11\n      jumpi\n      dup1\n      0x38cf6da7\n      eq\n      tag_12\n      jumpi\n      jump(tag_1)\n    tag_52:\n      dup1\n      0x01ffc9a7\n      eq\n      tag_2\n      jumpi\n      dup1\n      0x0f1a4273\n      eq\n      tag_3\n      jumpi\n      dup1\n      0x1c3c0ea8\n      eq\n      tag_4\n      jumpi\n      dup1\n      0x1c8b2f02\n      eq\n      tag_5\n      jumpi\n      dup1\n      0x1e9b26e3\n      eq\n      tag_6\n      jumpi\n    tag_1:\n      0x00\n      dup1\n      revert\n        /* \"@openzeppelin/contracts/access/AccessControl.sol\":2732:2934  function supportsInterface(bytes4 interfaceId) public view virtual override returns (bool) {... */\n    tag_2:\n      callvalue\n      dup1\n      iszero\n      tag_53\n      jumpi\n      0x00\n      dup1\n      revert\n    tag_53:\n      pop\n      tag_54\n      0x04\n      dup1\n      calldatasize\n      sub\n      dup2\n      add\n      swap1\n      tag_55\n      swap2\n      swap1\n      tag_56\n      jump\t// in\n    tag_55:\n      tag_57\n      jump\t// in\n    tag_54:\n      mload(0x40)\n      tag_58\n      swap2\n      swap1\n      tag_59\n      jump\t// in\n    tag_58:\n      mload(0x40)\n      dup1\n      swap2\n      sub\n      swap1\n      return\n        /* \"contracts/TrainersIlde.sol\":7362:7473  function setMTRFee(uint256 _fee) external onlyRole(DEFAULT_ADMIN_ROLE) {... */\n    tag_3:\n      callvalue\n      dup1\n      iszero\n      tag_60\n      jumpi\n      0x00\n      dup1\n      revert\n    tag_60:\n      pop\n      tag_61\n      0x04\n      dup1\n      calldatasize\n      sub\n      dup2\n      add\n      swap1\n      tag_62\n      swap2\n      swap1\n      tag_63\n      jump\t// in\n    tag_62:\n      tag_64\n      jump\t// in\n    tag_61:\n      stop\n        /* \"contracts/TrainersIlde.sol\":2576:2722  function setExecutor(address _e) external onlyRole(DEFAULT_ADMIN_ROLE) {... */\n    tag_4:\n      callvalue\n      dup1\n      iszero\n      tag_65\n      jumpi\n      0x00\n      dup1\n      revert\n    tag_65:\n      pop\n      tag_66\n      0x04\n      dup1\n      calldatasize\n      sub\n      dup2\n      add\n      swap1\n      tag_67\n      swap2\n      swap1\n      tag_68\n      jump\t// in\n    tag_67:\n      tag_69\n      jump\t// in\n    tag_66:\n      stop\n        /* \"contracts/TrainersIlde.sol\":6557:6742  function hasEnoughtForTrainerI(... */\n    tag_5:\n      callvalue\n      dup1\n      iszero\n      tag_70\n      jumpi\n      0x00\n      dup1\n      revert\n    tag_70:\n      pop\n      tag_71\n      0x04\n      dup1\n      calldatasize\n      sub\n      dup2\n      add\n      swap1\n      tag_72\n      swap2\n      swap1\n      tag_73\n      jump\t// in\n    tag_72:\n      tag_74\n      jump\t// in\n    tag_71:\n      mload(0x40)\n      tag_75\n      swap2\n      swap1\n      tag_59\n      jump\t// in\n    tag_75:\n      mload(0x40)\n      dup1\n      swap2\n      sub\n      swap1\n      return\n        /* \"contracts/TrainersIlde.sol\":6312:6474  function trainerHadImprovement(... */\n    tag_6:\n      callvalue\n      dup1\n      iszero\n      tag_76\n      jumpi\n      0x00\n      dup1\n      revert\n    tag_76:\n      pop\n      tag_77\n      0x04\n      dup1\n      calldatasize\n      sub\n      dup2\n      add\n      swap1\n      tag_78\n      swap2\n      swap1\n      tag_73\n      jump\t// in\n    tag_78:\n      tag_79\n      jump\t// in\n    tag_77:\n      mload(0x40)\n      tag_80\n      swap2\n      swap1\n      tag_59\n      jump\t// in\n    tag_80:\n      mload(0x40)\n      dup1\n      swap2\n      sub\n      swap1\n      return\n        /* \"@openzeppelin/contracts/access/AccessControl.sol\":4504:4633  function getRoleAdmin(bytes32 role) public view virtual override returns (bytes32) {... */\n    tag_7:\n      callvalue\n      dup1\n      iszero\n      tag_81\n      jumpi\n      0x00\n      dup1\n      revert\n    tag_81:\n      pop\n      tag_82\n      0x04\n      dup1\n      calldatasize\n      sub\n      dup2\n      add\n      swap1\n      tag_83\n      swap2\n      swap1\n      tag_84\n      jump\t// in\n    tag_83:\n      tag_85\n      jump\t// in\n    tag_82:\n      mload(0x40)\n      tag_86\n      swap2\n      swap1\n      tag_87\n      jump\t// in\n    tag_86:\n      mload(0x40)\n      dup1\n      swap2\n      sub\n      swap1\n      return\n        /* \"contracts/TrainersIlde.sol\":4335:4470  function getTrainerData(... */\n    tag_8:\n      callvalue\n      dup1\n      iszero\n      tag_88\n      jumpi\n      0x00\n      dup1\n      revert\n    tag_88:\n      pop\n      tag_89\n      0x04\n      dup1\n      calldatasize\n      sub\n      dup2\n      add\n      swap1\n      tag_90\n      swap2\n      swap1\n      tag_63\n      jump\t// in\n    tag_90:\n      tag_91\n      jump\t// in\n    tag_89:\n      mload(0x40)\n      tag_92\n      swap2\n      swap1\n      tag_93\n      jump\t// in\n    tag_92:\n      mload(0x40)\n      dup1\n      swap2\n      sub\n      swap1\n      return\n        /* \"contracts/TrainersIlde.sol\":1562:1616  string public constant MTR_FEE_ERROR = \"MTR_FEE_ERROR\" */\n    tag_9:\n      callvalue\n      dup1\n      iszero\n      tag_94\n      jumpi\n      0x00\n      dup1\n      revert\n    tag_94:\n      pop\n      tag_95\n      tag_96\n      jump\t// in\n    tag_95:\n      mload(0x40)\n      tag_97\n      swap2\n      swap1\n      tag_98\n      jump\t// in\n    tag_97:\n      mload(0x40)\n      dup1\n      swap2\n      sub\n      swap1\n      return\n        /* \"@openzeppelin/contracts/access/AccessControl.sol\":4929:5074  function grantRole(bytes32 role, address account) public virtual override onlyRole(getRoleAdmin(role)) {... */\n    tag_10:\n      callvalue\n      dup1\n      iszero\n      tag_99\n      jumpi\n      0x00\n      dup1\n      revert\n    tag_99:\n      pop\n      tag_100\n      0x04\n      dup1\n      calldatasize\n      sub\n      dup2\n      add\n      swap1\n      tag_101\n      swap2\n      swap1\n      tag_102\n      jump\t// in\n    tag_101:\n      tag_103\n      jump\t// in\n    tag_100:\n      stop\n        /* \"@openzeppelin/contracts/access/AccessControl.sol\":6038:6252  function renounceRole(bytes32 role, address account) public virtual override {... */\n    tag_11:\n      callvalue\n      dup1\n      iszero\n      tag_104\n      jumpi\n      0x00\n      dup1\n      revert\n    tag_104:\n      pop\n      tag_105\n      0x04\n      dup1\n      calldatasize\n      sub\n      dup2\n      add\n      swap1\n      tag_106\n      swap2\n      swap1\n      tag_102\n      jump\t// in\n    tag_106:\n      tag_107\n      jump\t// in\n    tag_105:\n      stop\n        /* \"contracts/TrainersIlde.sol\":9369:9817  function buyTrainerImprovement(... */\n    tag_12:\n      callvalue\n      dup1\n      iszero\n      tag_108\n      jumpi\n      0x00\n      dup1\n      revert\n    tag_108:\n      pop\n      tag_109\n      0x04\n      dup1\n      calldatasize\n      sub\n      dup2\n      add\n      swap1\n      tag_110\n      swap2\n      swap1\n      tag_111\n      jump\t// in\n    tag_110:\n      tag_112\n      jump\t// in\n    tag_109:\n      stop\n        /* \"contracts/TrainersIlde.sol\":5415:5542  function activationBlock(uint256 _trainer) public view returns (uint256) {... */\n    tag_13:\n      callvalue\n      dup1\n      iszero\n      tag_113\n      jumpi\n      0x00\n      dup1\n      revert\n    tag_113:\n      pop\n      tag_114\n      0x04\n      dup1\n      calldatasize\n      sub\n      dup2\n      add\n      swap1\n      tag_115\n      swap2\n      swap1\n      tag_63\n      jump\t// in\n    tag_115:\n      tag_116\n      jump\t// in\n    tag_114:\n      mload(0x40)\n      tag_117\n      swap2\n      swap1\n      tag_118\n      jump\t// in\n    tag_117:\n      mload(0x40)\n      dup1\n      swap2\n      sub\n      swap1\n      return\n        /* \"contracts/TrainersIlde.sol\":5945:6100  function unlockedIdlePoints(uint256 _t) public view returns (uint256) {... */\n    tag_14:\n      callvalue\n      dup1\n      iszero\n      tag_119\n      jumpi\n      0x00\n      dup1\n      revert\n    tag_119:\n      pop\n      tag_120\n      0x04\n      dup1\n      calldatasize\n      sub\n      dup2\n      add\n      swap1\n      tag_121\n      swap2\n      swap1\n      tag_63\n      jump\t// in\n    tag_121:\n      tag_122\n      jump\t// in\n    tag_120:\n      mload(0x40)\n      tag_123\n      swap2\n      swap1\n      tag_118\n      jump\t// in\n    tag_123:\n      mload(0x40)\n      dup1\n      swap2\n      sub\n      swap1\n      return\n        /* \"contracts/TrainersIlde.sol\":8217:8676  function joinWithTrainer(... */\n    tag_15:\n      callvalue\n      dup1\n      iszero\n      tag_124\n      jumpi\n      0x00\n      dup1\n      revert\n    tag_124:\n      pop\n      tag_125\n      0x04\n      dup1\n      calldatasize\n      sub\n      dup2\n      add\n      swap1\n      tag_126\n      swap2\n      swap1\n      tag_127\n      jump\t// in\n    tag_126:\n      tag_128\n      jump\t// in\n    tag_125:\n      stop\n        /* \"contracts/TrainersIlde.sol\":9080:9361  function collectTransPoints(... */\n    tag_16:\n      callvalue\n      dup1\n      iszero\n      tag_129\n      jumpi\n      0x00\n      dup1\n      revert\n    tag_129:\n      pop\n      tag_130\n      0x04\n      dup1\n      calldatasize\n      sub\n      dup2\n      add\n      swap1\n      tag_131\n      swap2\n      swap1\n      tag_127\n      jump\t// in\n    tag_131:\n      tag_132\n      jump\t// in\n    tag_130:\n      stop\n        /* \"contracts/TrainersIlde.sol\":2308:2364  bytes32 public constant EXECUTOR = keccak256(\"EXECUTOR\") */\n    tag_17:\n      callvalue\n      dup1\n      iszero\n      tag_133\n      jumpi\n      0x00\n      dup1\n      revert\n    tag_133:\n      pop\n      tag_134\n      tag_135\n      jump\t// in\n    tag_134:\n      mload(0x40)\n      tag_136\n      swap2\n      swap1\n      tag_87\n      jump\t// in\n    tag_136:\n      mload(0x40)\n      dup1\n      swap2\n      sub\n      swap1\n      return\n        /* \"contracts/TrainersIlde.sol\":6108:6245  function transactionPoints(uint256 _t) public view returns (uint256) {... */\n    tag_18:\n      callvalue\n      dup1\n      iszero\n      tag_137\n      jumpi\n      0x00\n      dup1\n      revert\n    tag_137:\n      pop\n      tag_138\n      0x04\n      dup1\n      calldatasize\n      sub\n      dup2\n      add\n      swap1\n      tag_139\n      swap2\n      swap1\n      tag_63\n      jump\t// in\n    tag_139:\n      tag_140\n      jump\t// in\n    tag_138:\n      mload(0x40)\n      tag_141\n      swap2\n      swap1\n      tag_118\n      jump\t// in\n    tag_141:\n      mload(0x40)\n      dup1\n      swap2\n      sub\n      swap1\n      return\n        /* \"contracts/TrainersIlde.sol\":5175:5297  function isActive(uint256 _trainer) public view returns (bool) {... */\n    tag_19:\n      callvalue\n      dup1\n      iszero\n      tag_142\n      jumpi\n      0x00\n      dup1\n      revert\n    tag_142:\n      pop\n      tag_143\n      0x04\n      dup1\n      calldatasize\n      sub\n      dup2\n      add\n      swap1\n      tag_144\n      swap2\n      swap1\n      tag_63\n      jump\t// in\n    tag_144:\n      tag_145\n      jump\t// in\n    tag_143:\n      mload(0x40)\n      tag_146\n      swap2\n      swap1\n      tag_59\n      jump\t// in\n    tag_146:\n      mload(0x40)\n      dup1\n      swap2\n      sub\n      swap1\n      return\n        /* \"contracts/TrainersIlde.sol\":1521:1553  IDLEConfiguration public config_ */\n    tag_20:\n      callvalue\n      dup1\n      iszero\n      tag_147\n      jumpi\n      0x00\n      dup1\n      revert\n    tag_147:\n      pop\n      tag_148\n      tag_149\n      jump\t// in\n    tag_148:\n      mload(0x40)\n      tag_150\n      swap7\n      swap6\n      swap5\n      swap4\n      swap3\n      swap2\n      swap1\n      tag_151\n      jump\t// in\n    tag_150:\n      mload(0x40)\n      dup1\n      swap2\n      sub\n      swap1\n      return\n        /* \"@openzeppelin/contracts/access/AccessControl.sol\":3021:3166  function hasRole(bytes32 role, address account) public view virtual override returns (bool) {... */\n    tag_21:\n      callvalue\n      dup1\n      iszero\n      tag_152\n      jumpi\n      0x00\n      dup1\n      revert\n    tag_152:\n      pop\n      tag_153\n      0x04\n      dup1\n      calldatasize\n      sub\n      dup2\n      add\n      swap1\n      tag_154\n      swap2\n      swap1\n      tag_102\n      jump\t// in\n    tag_154:\n      tag_155\n      jump\t// in\n    tag_153:\n      mload(0x40)\n      tag_156\n      swap2\n      swap1\n      tag_59\n      jump\t// in\n    tag_156:\n      mload(0x40)\n      dup1\n      swap2\n      sub\n      swap1\n      return\n        /* \"contracts/TrainersIlde.sol\":10636:10840  function sendFeesToExecutor() external onlyRole(DEFAULT_ADMIN_ROLE) {... */\n    tag_22:\n      callvalue\n      dup1\n      iszero\n      tag_157\n      jumpi\n      0x00\n      dup1\n      revert\n    tag_157:\n      pop\n      tag_158\n      tag_159\n      jump\t// in\n    tag_158:\n      stop\n        /* \"contracts/TrainersIlde.sol\":3771:4016  function getUsersRewardsPercentages(... */\n    tag_23:\n      callvalue\n      dup1\n      iszero\n      tag_160\n      jumpi\n      0x00\n      dup1\n      revert\n    tag_160:\n      pop\n      tag_161\n      0x04\n      dup1\n      calldatasize\n      sub\n      dup2\n      add\n      swap1\n      tag_162\n      swap2\n      swap1\n      tag_63\n      jump\t// in\n    tag_162:\n      tag_163\n      jump\t// in\n    tag_161:\n      mload(0x40)\n      tag_164\n      swap2\n      swap1\n      tag_165\n      jump\t// in\n    tag_164:\n      mload(0x40)\n      dup1\n      swap2\n      sub\n      swap1\n      return\n        /* \"contracts/TrainersIlde.sol\":9853:10233  function injectBalance() external payable {... */\n    tag_24:\n      tag_166\n      tag_167\n      jump\t// in\n    tag_166:\n      stop\n        /* \"contracts/TrainersIlde.sol\":7975:8118  function setRewardsP(... */\n    tag_25:\n      callvalue\n      dup1\n      iszero\n      tag_168\n      jumpi\n      0x00\n      dup1\n      revert\n    tag_168:\n      pop\n      tag_169\n      0x04\n      dup1\n      calldatasize\n      sub\n      dup2\n      add\n      swap1\n      tag_170\n      swap2\n      swap1\n      tag_171\n      jump\t// in\n    tag_170:\n      tag_172\n      jump\t// in\n    tag_169:\n      stop\n        /* \"contracts/TrainersIlde.sol\":8684:9072  function collectIDLEPoints(... */\n    tag_26:\n      callvalue\n      dup1\n      iszero\n      tag_173\n      jumpi\n      0x00\n      dup1\n      revert\n    tag_173:\n      pop\n      tag_174\n      0x04\n      dup1\n      calldatasize\n      sub\n      dup2\n      add\n      swap1\n      tag_175\n      swap2\n      swap1\n      tag_127\n      jump\t// in\n    tag_175:\n      tag_176\n      jump\t// in\n    tag_174:\n      stop\n        /* \"contracts/TrainersIlde.sol\":3550:3663  function getUserFeesBalance(address _e) external view returns (uint256) {... */\n    tag_27:\n      callvalue\n      dup1\n      iszero\n      tag_177\n      jumpi\n      0x00\n      dup1\n      revert\n    tag_177:\n      pop\n      tag_178\n      0x04\n      dup1\n      calldatasize\n      sub\n      dup2\n      add\n      swap1\n      tag_179\n      swap2\n      swap1\n      tag_68\n      jump\t// in\n    tag_179:\n      tag_180\n      jump\t// in\n    tag_178:\n      mload(0x40)\n      tag_181\n      swap2\n      swap1\n      tag_118\n      jump\t// in\n    tag_181:\n      mload(0x40)\n      dup1\n      swap2\n      sub\n      swap1\n      return\n        /* \"contracts/TrainersIlde.sol\":4748:5020  function getTrainerImprovements(... */\n    tag_28:\n      callvalue\n      dup1\n      iszero\n      tag_182\n      jumpi\n      0x00\n      dup1\n      revert\n    tag_182:\n      pop\n      tag_183\n      0x04\n      dup1\n      calldatasize\n      sub\n      dup2\n      add\n      swap1\n      tag_184\n      swap2\n      swap1\n      tag_73\n      jump\t// in\n    tag_184:\n      tag_185\n      jump\t// in\n    tag_183:\n      mload(0x40)\n      tag_186\n      swap2\n      swap1\n      tag_187\n      jump\t// in\n    tag_186:\n      mload(0x40)\n      dup1\n      swap2\n      sub\n      swap1\n      return\n        /* \"contracts/TrainersIlde.sol\":1623:1673  string public constant OWNER_ERROR = \"OWNER_ERROR\" */\n    tag_29:\n      callvalue\n      dup1\n      iszero\n      tag_188\n      jumpi\n      0x00\n      dup1\n      revert\n    tag_188:\n      pop\n      tag_189\n      tag_190\n      jump\t// in\n    tag_189:\n      mload(0x40)\n      tag_191\n      swap2\n      swap1\n      tag_98\n      jump\t// in\n    tag_191:\n      mload(0x40)\n      dup1\n      swap2\n      sub\n      swap1\n      return\n        /* \"@openzeppelin/contracts/access/AccessControl.sol\":2153:2202  bytes32 public constant DEFAULT_ADMIN_ROLE = 0x00 */\n    tag_30:\n      callvalue\n      dup1\n      iszero\n      tag_192\n      jumpi\n      0x00\n      dup1\n      revert\n    tag_192:\n      pop\n      tag_193\n      tag_194\n      jump\t// in\n    tag_193:\n      mload(0x40)\n      tag_195\n      swap2\n      swap1\n      tag_87\n      jump\t// in\n    tag_195:\n      mload(0x40)\n      dup1\n      swap2\n      sub\n      swap1\n      return\n        /* \"contracts/TrainersIlde.sol\":3671:3763  function getTakedFees() external view returns (uint256) {... */\n    tag_31:\n      callvalue\n      dup1\n      iszero\n      tag_196\n      jumpi\n      0x00\n      dup1\n      revert\n    tag_196:\n      pop\n      tag_197\n      tag_198\n      jump\t// in\n    tag_197:\n      mload(0x40)\n      tag_199\n      swap2\n      swap1\n      tag_118\n      jump\t// in\n    tag_199:\n      mload(0x40)\n      dup1\n      swap2\n      sub\n      swap1\n      return\n        /* \"contracts/TrainersIlde.sol\":1755:1805  string public constant CANT_GET_IT = \"CANT_GET_IT\" */\n    tag_32:\n      callvalue\n      dup1\n      iszero\n      tag_200\n      jumpi\n      0x00\n      dup1\n      revert\n    tag_200:\n      pop\n      tag_201\n      tag_202\n      jump\t// in\n    tag_201:\n      mload(0x40)\n      tag_203\n      swap2\n      swap1\n      tag_98\n      jump\t// in\n    tag_203:\n      mload(0x40)\n      dup1\n      swap2\n      sub\n      swap1\n      return\n        /* \"contracts/TrainersIlde.sol\":4478:4740  function getTrainersImprovements(... */\n    tag_33:\n      callvalue\n      dup1\n      iszero\n      tag_204\n      jumpi\n      0x00\n      dup1\n      revert\n    tag_204:\n      pop\n      tag_205\n      0x04\n      dup1\n      calldatasize\n      sub\n      dup2\n      add\n      swap1\n      tag_206\n      swap2\n      swap1\n      tag_63\n      jump\t// in\n    tag_206:\n      tag_207\n      jump\t// in\n    tag_205:\n      mload(0x40)\n      tag_208\n      swap2\n      swap1\n      tag_209\n      jump\t// in\n    tag_208:\n      mload(0x40)\n      dup1\n      swap2\n      sub\n      swap1\n      return\n        /* \"contracts/TrainersIlde.sol\":4024:4327  function getUserRewardsValues(... */\n    tag_34:\n      callvalue\n      dup1\n      iszero\n      tag_210\n      jumpi\n      0x00\n      dup1\n      revert\n    tag_210:\n      pop\n      tag_211\n      0x04\n      dup1\n      calldatasize\n      sub\n      dup2\n      add\n      swap1\n      tag_212\n      swap2\n      swap1\n      tag_63\n      jump\t// in\n    tag_212:\n      tag_213\n      jump\t// in\n    tag_211:\n      mload(0x40)\n      tag_214\n      swap2\n      swap1\n      tag_215\n      jump\t// in\n    tag_214:\n      mload(0x40)\n      dup1\n      swap2\n      sub\n      swap1\n      return\n        /* \"contracts/TrainersIlde.sol\":6812:7013  function canGetItTrainerImprovement(... */\n    tag_35:\n      callvalue\n      dup1\n      iszero\n      tag_216\n      jumpi\n      0x00\n      dup1\n      revert\n    tag_216:\n      pop\n      tag_217\n      0x04\n      dup1\n      calldatasize\n      sub\n      dup2\n      add\n      swap1\n      tag_218\n      swap2\n      swap1\n      tag_73\n      jump\t// in\n    tag_218:\n      tag_219\n      jump\t// in\n    tag_217:\n      mload(0x40)\n      tag_220\n      swap2\n      swap1\n      tag_59\n      jump\t// in\n    tag_220:\n      mload(0x40)\n      dup1\n      swap2\n      sub\n      swap1\n      return\n        /* \"contracts/TrainersIlde.sol\":7481:7594  function setPPerBlock(uint256 _v) external onlyRole(DEFAULT_ADMIN_ROLE) {... */\n    tag_36:\n      callvalue\n      dup1\n      iszero\n      tag_221\n      jumpi\n      0x00\n      dup1\n      revert\n    tag_221:\n      pop\n      tag_222\n      0x04\n      dup1\n      calldatasize\n      sub\n      dup2\n      add\n      swap1\n      tag_223\n      swap2\n      swap1\n      tag_63\n      jump\t// in\n    tag_223:\n      tag_224\n      jump\t// in\n    tag_222:\n      stop\n        /* \"contracts/TrainersIlde.sol\":2730:3542  function getContractData(... */\n    tag_37:\n      callvalue\n      dup1\n      iszero\n      tag_225\n      jumpi\n      0x00\n      dup1\n      revert\n    tag_225:\n      pop\n      tag_226\n      0x04\n      dup1\n      calldatasize\n      sub\n      dup2\n      add\n      swap1\n      tag_227\n      swap2\n      swap1\n      tag_73\n      jump\t// in\n    tag_227:\n      tag_228\n      jump\t// in\n    tag_226:\n      mload(0x40)\n      tag_229\n      swap2\n      swap1\n      tag_230\n      jump\t// in\n    tag_229:\n      mload(0x40)\n      dup1\n      swap2\n      sub\n      swap1\n      return\n        /* \"contracts/TrainersIlde.sol\":5625:5762  function idleBlocks(uint256 _trainer) public view returns (uint256) {... */\n    tag_38:\n      callvalue\n      dup1\n      iszero\n      tag_231\n      jumpi\n      0x00\n      dup1\n      revert\n    tag_231:\n      pop\n      tag_232\n      0x04\n      dup1\n      calldatasize\n      sub\n      dup2\n      add\n      swap1\n      tag_233\n      swap2\n      swap1\n      tag_63\n      jump\t// in\n    tag_233:\n      tag_234\n      jump\t// in\n    tag_232:\n      mload(0x40)\n      tag_235\n      swap2\n      swap1\n      tag_118\n      jump\t// in\n    tag_235:\n      mload(0x40)\n      dup1\n      swap2\n      sub\n      swap1\n      return\n        /* \"contracts/TrainersIlde.sol\":7723:7838  function setMaxWinners(uint256 _i) external onlyRole(DEFAULT_ADMIN_ROLE) {... */\n    tag_39:\n      callvalue\n      dup1\n      iszero\n      tag_236\n      jumpi\n      0x00\n      dup1\n      revert\n    tag_236:\n      pop\n      tag_237\n      0x04\n      dup1\n      calldatasize\n      sub\n      dup2\n      add\n      swap1\n      tag_238\n      swap2\n      swap1\n      tag_63\n      jump\t// in\n    tag_238:\n      tag_239\n      jump\t// in\n    tag_237:\n      stop\n        /* \"@openzeppelin/contracts/access/AccessControl.sol\":5354:5501  function revokeRole(bytes32 role, address account) public virtual override onlyRole(getRoleAdmin(role)) {... */\n    tag_40:\n      callvalue\n      dup1\n      iszero\n      tag_240\n      jumpi\n      0x00\n      dup1\n      revert\n    tag_240:\n      pop\n      tag_241\n      0x04\n      dup1\n      calldatasize\n      sub\n      dup2\n      add\n      swap1\n      tag_242\n      swap2\n      swap1\n      tag_102\n      jump\t// in\n    tag_242:\n      tag_243\n      jump\t// in\n    tag_241:\n      stop\n        /* \"contracts/TrainersIlde.sol\":7846:7967  function setPPercentage(uint8 _p) external onlyRole(DEFAULT_ADMIN_ROLE) {... */\n    tag_41:\n      callvalue\n      dup1\n      iszero\n      tag_244\n      jumpi\n      0x00\n      dup1\n      revert\n    tag_244:\n      pop\n      tag_245\n      0x04\n      dup1\n      calldatasize\n      sub\n      dup2\n      add\n      swap1\n      tag_246\n      swap2\n      swap1\n      tag_247\n      jump\t// in\n    tag_246:\n      tag_248\n      jump\t// in\n    tag_245:\n      stop\n        /* \"contracts/TrainersIlde.sol\":1490:1514  IERC721 public trainers_ */\n    tag_42:\n      callvalue\n      dup1\n      iszero\n      tag_249\n      jumpi\n      0x00\n      dup1\n      revert\n    tag_249:\n      pop\n      tag_250\n      tag_251\n      jump\t// in\n    tag_250:\n      mload(0x40)\n      tag_252\n      swap2\n      swap1\n      tag_253\n      jump\t// in\n    tag_252:\n      mload(0x40)\n      dup1\n      swap2\n      sub\n      swap1\n      return\n        /* \"contracts/TrainersIlde.sol\":7602:7715  function setPPerTrans(uint256 _v) external onlyRole(DEFAULT_ADMIN_ROLE) {... */\n    tag_43:\n      callvalue\n      dup1\n      iszero\n      tag_254\n      jumpi\n      0x00\n      dup1\n      revert\n    tag_254:\n      pop\n      tag_255\n      0x04\n      dup1\n      calldatasize\n      sub\n      dup2\n      add\n      swap1\n      tag_256\n      swap2\n      swap1\n      tag_63\n      jump\t// in\n    tag_256:\n      tag_257\n      jump\t// in\n    tag_255:\n      stop\n        /* \"contracts/TrainersIlde.sol\":7080:7325  function setTrainerImprovementValue(... */\n    tag_44:\n      callvalue\n      dup1\n      iszero\n      tag_258\n      jumpi\n      0x00\n      dup1\n      revert\n    tag_258:\n      pop\n      tag_259\n      0x04\n      dup1\n      calldatasize\n      sub\n      dup2\n      add\n      swap1\n      tag_260\n      swap2\n      swap1\n      tag_261\n      jump\t// in\n    tag_260:\n      tag_262\n      jump\t// in\n    tag_259:\n      stop\n        /* \"contracts/TrainersIlde.sol\":1680:1748  string public constant ACTIVE_TRAINER_ERROR = \"ACTIVE_TRAINER_ERROR\" */\n    tag_45:\n      callvalue\n      dup1\n      iszero\n      tag_263\n      jumpi\n      0x00\n      dup1\n      revert\n    tag_263:\n      pop\n      tag_264\n      tag_265\n      jump\t// in\n    tag_264:\n      mload(0x40)\n      tag_266\n      swap2\n      swap1\n      tag_98\n      jump\t// in\n    tag_266:\n      mload(0x40)\n      dup1\n      swap2\n      sub\n      swap1\n      return\n        /* \"@openzeppelin/contracts/access/AccessControl.sol\":2732:2934  function supportsInterface(bytes4 interfaceId) public view virtual override returns (bool) {... */\n    tag_57:\n        /* \"@openzeppelin/contracts/access/AccessControl.sol\":2817:2821  bool */\n      0x00\n        /* \"@openzeppelin/contracts/access/AccessControl.sol\":2855:2887  type(IAccessControl).interfaceId */\n      0x7965db0b00000000000000000000000000000000000000000000000000000000\n        /* \"@openzeppelin/contracts/access/AccessControl.sol\":2840:2887  interfaceId == type(IAccessControl).interfaceId */\n      not(0xffffffffffffffffffffffffffffffffffffffffffffffffffffffff)\n      and\n        /* \"@openzeppelin/contracts/access/AccessControl.sol\":2840:2851  interfaceId */\n      dup3\n        /* \"@openzeppelin/contracts/access/AccessControl.sol\":2840:2887  interfaceId == type(IAccessControl).interfaceId */\n      not(0xffffffffffffffffffffffffffffffffffffffffffffffffffffffff)\n      and\n      eq\n        /* \"@openzeppelin/contracts/access/AccessControl.sol\":2840:2927  interfaceId == type(IAccessControl).interfaceId || super.supportsInterface(interfaceId) */\n      dup1\n      tag_268\n      jumpi\n      pop\n        /* \"@openzeppelin/contracts/access/AccessControl.sol\":2891:2927  super.supportsInterface(interfaceId) */\n      tag_269\n        /* \"@openzeppelin/contracts/access/AccessControl.sol\":2915:2926  interfaceId */\n      dup3\n        /* \"@openzeppelin/contracts/access/AccessControl.sol\":2891:2914  super.supportsInterface */\n      tag_270\n        /* \"@openzeppelin/contracts/access/AccessControl.sol\":2891:2927  super.supportsInterface(interfaceId) */\n      jump\t// in\n    tag_269:\n        /* \"@openzeppelin/contracts/access/AccessControl.sol\":2840:2927  interfaceId == type(IAccessControl).interfaceId || super.supportsInterface(interfaceId) */\n    tag_268:\n        /* \"@openzeppelin/contracts/access/AccessControl.sol\":2833:2927  return interfaceId == type(IAccessControl).interfaceId || super.supportsInterface(interfaceId) */\n      swap1\n      pop\n        /* \"@openzeppelin/contracts/access/AccessControl.sol\":2732:2934  function supportsInterface(bytes4 interfaceId) public view virtual override returns (bool) {... */\n      swap2\n      swap1\n      pop\n      jump\t// out\n        /* \"contracts/TrainersIlde.sol\":7362:7473  function setMTRFee(uint256 _fee) external onlyRole(DEFAULT_ADMIN_ROLE) {... */\n    tag_64:\n        /* \"@openzeppelin/contracts/access/AccessControl.sol\":2198:2202  0x00 */\n      0x00\n        /* \"contracts/TrainersIlde.sol\":7413:7431  DEFAULT_ADMIN_ROLE */\n      dup1\n      shl\n        /* \"@openzeppelin/contracts/access/AccessControl.sol\":2631:2647  _checkRole(role) */\n      tag_272\n        /* \"@openzeppelin/contracts/access/AccessControl.sol\":2642:2646  role */\n      dup2\n        /* \"@openzeppelin/contracts/access/AccessControl.sol\":2631:2641  _checkRole */\n      tag_273\n        /* \"@openzeppelin/contracts/access/AccessControl.sol\":2631:2647  _checkRole(role) */\n      jump\t// in\n    tag_272:\n        /* \"contracts/TrainersIlde.sol\":7461:7465  _fee */\n      dup2\n        /* \"contracts/TrainersIlde.sol\":7444:7451  config_ */\n      0x02\n        /* \"contracts/TrainersIlde.sol\":7444:7458  config_.feeMTR */\n      0x03\n      add\n        /* \"contracts/TrainersIlde.sol\":7444:7465  config_.feeMTR = _fee */\n      dup2\n      swap1\n      sstore\n      pop\n        /* \"contracts/TrainersIlde.sol\":7362:7473  function setMTRFee(uint256 _fee) external onlyRole(DEFAULT_ADMIN_ROLE) {... */\n      pop\n      pop\n      jump\t// out\n        /* \"contracts/TrainersIlde.sol\":2576:2722  function setExecutor(address _e) external onlyRole(DEFAULT_ADMIN_ROLE) {... */\n    tag_69:\n        /* \"@openzeppelin/contracts/access/AccessControl.sol\":2198:2202  0x00 */\n      0x00\n        /* \"contracts/TrainersIlde.sol\":2627:2645  DEFAULT_ADMIN_ROLE */\n      dup1\n      shl\n        /* \"@openzeppelin/contracts/access/AccessControl.sol\":2631:2647  _checkRole(role) */\n      tag_276\n        /* \"@openzeppelin/contracts/access/AccessControl.sol\":2642:2646  role */\n      dup2\n        /* \"@openzeppelin/contracts/access/AccessControl.sol\":2631:2641  _checkRole */\n      tag_273\n        /* \"@openzeppelin/contracts/access/AccessControl.sol\":2631:2647  _checkRole(role) */\n      jump\t// in\n    tag_276:\n        /* \"contracts/TrainersIlde.sol\":2670:2672  _e */\n      dup2\n        /* \"contracts/TrainersIlde.sol\":2658:2667  executor_ */\n      0x10\n      0x00\n        /* \"contracts/TrainersIlde.sol\":2658:2672  executor_ = _e */\n      0x0100\n      exp\n      dup2\n      sload\n      dup2\n      0xffffffffffffffffffffffffffffffffffffffff\n      mul\n      not\n      and\n      swap1\n      dup4\n      0xffffffffffffffffffffffffffffffffffffffff\n      and\n      mul\n      or\n      swap1\n      sstore\n      pop\n        /* \"contracts/TrainersIlde.sol\":2683:2714  _grantRole(EXECUTOR, executor_) */\n      tag_278\n        /* \"contracts/TrainersIlde.sol\":2343:2364  keccak256(\"EXECUTOR\") */\n      0x9cf85f95575c3af1e116e3d37fd41e7f36a8a373623f51ffaaa87fdd032fa767\n        /* \"contracts/TrainersIlde.sol\":2704:2713  executor_ */\n      0x10\n      0x00\n      swap1\n      sload\n      swap1\n      0x0100\n      exp\n      swap1\n      div\n      0xffffffffffffffffffffffffffffffffffffffff\n      and\n        /* \"contracts/TrainersIlde.sol\":2683:2693  _grantRole */\n      tag_279\n        /* \"contracts/TrainersIlde.sol\":2683:2714  _grantRole(EXECUTOR, executor_) */\n      jump\t// in\n    tag_278:\n        /* \"contracts/TrainersIlde.sol\":2576:2722  function setExecutor(address _e) external onlyRole(DEFAULT_ADMIN_ROLE) {... */\n      pop\n      pop\n      jump\t// out\n        /* \"contracts/TrainersIlde.sol\":6557:6742  function hasEnoughtForTrainerI(... */\n    tag_74:\n        /* \"contracts/TrainersIlde.sol\":6658:6662  bool */\n      0x00\n        /* \"contracts/TrainersIlde.sol\":6710:6724  tImprovements_ */\n      0x09\n        /* \"contracts/TrainersIlde.sol\":6710:6728  tImprovements_[_i] */\n      0x00\n        /* \"contracts/TrainersIlde.sol\":6725:6727  _i */\n      dup4\n        /* \"contracts/TrainersIlde.sol\":6710:6728  tImprovements_[_i] */\n      dup2\n      mstore\n      0x20\n      add\n      swap1\n      dup2\n      mstore\n      0x20\n      add\n      0x00\n      keccak256\n        /* \"contracts/TrainersIlde.sol\":6710:6734  tImprovements_[_i].value */\n      0x00\n      add\n      sload\n        /* \"contracts/TrainersIlde.sol\":6682:6695  trainersData_ */\n      0x0a\n        /* \"contracts/TrainersIlde.sol\":6682:6699  trainersData_[_t] */\n      0x00\n        /* \"contracts/TrainersIlde.sol\":6696:6698  _t */\n      dup6\n        /* \"contracts/TrainersIlde.sol\":6682:6699  trainersData_[_t] */\n      dup2\n      mstore\n      0x20\n      add\n      swap1\n      dup2\n      mstore\n      0x20\n      add\n      0x00\n      keccak256\n        /* \"contracts/TrainersIlde.sol\":6682:6706  trainersData_[_t].points */\n      0x01\n      add\n      sload\n        /* \"contracts/TrainersIlde.sol\":6682:6734  trainersData_[_t].points >= tImprovements_[_i].value */\n      lt\n      iszero\n        /* \"contracts/TrainersIlde.sol\":6675:6734  return trainersData_[_t].points >= tImprovements_[_i].value */\n      swap1\n      pop\n        /* \"contracts/TrainersIlde.sol\":6557:6742  function hasEnoughtForTrainerI(... */\n      swap3\n      swap2\n      pop\n      pop\n      jump\t// out\n        /* \"contracts/TrainersIlde.sol\":6312:6474  function trainerHadImprovement(... */\n    tag_79:\n        /* \"contracts/TrainersIlde.sol\":6413:6417  bool */\n      0x00\n        /* \"contracts/TrainersIlde.sol\":6437:6458  bTrainerImprovements_ */\n      0x0b\n        /* \"contracts/TrainersIlde.sol\":6437:6462  bTrainerImprovements_[_t] */\n      0x00\n        /* \"contracts/TrainersIlde.sol\":6459:6461  _t */\n      dup5\n        /* \"contracts/TrainersIlde.sol\":6437:6462  bTrainerImprovements_[_t] */\n      dup2\n      mstore\n      0x20\n      add\n      swap1\n      dup2\n      mstore\n      0x20\n      add\n      0x00\n      keccak256\n        /* \"contracts/TrainersIlde.sol\":6437:6466  bTrainerImprovements_[_t][_i] */\n      0x00\n        /* \"contracts/TrainersIlde.sol\":6463:6465  _i */\n      dup4\n        /* \"contracts/TrainersIlde.sol\":6437:6466  bTrainerImprovements_[_t][_i] */\n      dup2\n      mstore\n      0x20\n      add\n      swap1\n      dup2\n      mstore\n      0x20\n      add\n      0x00\n      keccak256\n      0x00\n      swap1\n      sload\n      swap1\n      0x0100\n      exp\n      swap1\n      div\n      0xff\n      and\n        /* \"contracts/TrainersIlde.sol\":6430:6466  return bTrainerImprovements_[_t][_i] */\n      swap1\n      pop\n        /* \"contracts/TrainersIlde.sol\":6312:6474  function trainerHadImprovement(... */\n      swap3\n      swap2\n      pop\n      pop\n      jump\t// out\n        /* \"@openzeppelin/contracts/access/AccessControl.sol\":4504:4633  function getRoleAdmin(bytes32 role) public view virtual override returns (bytes32) {... */\n    tag_85:\n        /* \"@openzeppelin/contracts/access/AccessControl.sol\":4578:4585  bytes32 */\n      0x00\n        /* \"@openzeppelin/contracts/access/AccessControl.sol\":4604:4610  _roles */\n      dup1\n        /* \"@openzeppelin/contracts/access/AccessControl.sol\":4604:4616  _roles[role] */\n      0x00\n        /* \"@openzeppelin/contracts/access/AccessControl.sol\":4611:4615  role */\n      dup4\n        /* \"@openzeppelin/contracts/access/AccessControl.sol\":4604:4616  _roles[role] */\n      dup2\n      mstore\n      0x20\n      add\n      swap1\n      dup2\n      mstore\n      0x20\n      add\n      0x00\n      keccak256\n        /* \"@openzeppelin/contracts/access/AccessControl.sol\":4604:4626  _roles[role].adminRole */\n      0x01\n      add\n      sload\n        /* \"@openzeppelin/contracts/access/AccessControl.sol\":4597:4626  return _roles[role].adminRole */\n      swap1\n      pop\n        /* \"@openzeppelin/contracts/access/AccessControl.sol\":4504:4633  function getRoleAdmin(bytes32 role) public view virtual override returns (bytes32) {... */\n      swap2\n      swap1\n      pop\n      jump\t// out\n        /* \"contracts/TrainersIlde.sol\":4335:4470  function getTrainerData(... */\n    tag_91:\n        /* \"contracts/TrainersIlde.sol\":4408:4425  EntityData memory */\n      tag_283\n      tag_284\n      jump\t// in\n    tag_283:\n        /* \"contracts/TrainersIlde.sol\":4445:4458  trainersData_ */\n      0x0a\n        /* \"contracts/TrainersIlde.sol\":4445:4462  trainersData_[_t] */\n      0x00\n        /* \"contracts/TrainersIlde.sol\":4459:4461  _t */\n      dup4\n        /* \"contracts/TrainersIlde.sol\":4445:4462  trainersData_[_t] */\n      dup2\n      mstore\n      0x20\n      add\n      swap1\n      dup2\n      mstore\n      0x20\n      add\n      0x00\n      keccak256\n        /* \"contracts/TrainersIlde.sol\":4438:4462  return trainersData_[_t] */\n      mload(0x40)\n      dup1\n      0x40\n      add\n      0x40\n      mstore\n      swap1\n      dup2\n      0x00\n      dup3\n      add\n      sload\n      dup2\n      mstore\n      0x20\n      add\n      0x01\n      dup3\n      add\n      sload\n      dup2\n      mstore\n      pop\n      pop\n      swap1\n      pop\n        /* \"contracts/TrainersIlde.sol\":4335:4470  function getTrainerData(... */\n      swap2\n      swap1\n      pop\n      jump\t// out\n        /* \"contracts/TrainersIlde.sol\":1562:1616  string public constant MTR_FEE_ERROR = \"MTR_FEE_ERROR\" */\n    tag_96:\n      mload(0x40)\n      dup1\n      0x40\n      add\n      0x40\n      mstore\n      dup1\n      0x0d\n      dup2\n      mstore\n      0x20\n      add\n      0x4d54525f4645455f4552524f5200000000000000000000000000000000000000\n      dup2\n      mstore\n      pop\n      dup2\n      jump\t// out\n        /* \"@openzeppelin/contracts/access/AccessControl.sol\":4929:5074  function grantRole(bytes32 role, address account) public virtual override onlyRole(getRoleAdmin(role)) {... */\n    tag_103:\n        /* \"@openzeppelin/contracts/access/AccessControl.sol\":5012:5030  getRoleAdmin(role) */\n      tag_286\n        /* \"@openzeppelin/contracts/access/AccessControl.sol\":5025:5029  role */\n      dup3\n        /* \"@openzeppelin/contracts/access/AccessControl.sol\":5012:5024  getRoleAdmin */\n      tag_85\n        /* \"@openzeppelin/contracts/access/AccessControl.sol\":5012:5030  getRoleAdmin(role) */\n      jump\t// in\n    tag_286:\n        /* \"@openzeppelin/contracts/access/AccessControl.sol\":2631:2647  _checkRole(role) */\n      tag_288\n        /* \"@openzeppelin/contracts/access/AccessControl.sol\":2642:2646  role */\n      dup2\n        /* \"@openzeppelin/contracts/access/AccessControl.sol\":2631:2641  _checkRole */\n      tag_273\n        /* \"@openzeppelin/contracts/access/AccessControl.sol\":2631:2647  _checkRole(role) */\n      jump\t// in\n    tag_288:\n        /* \"@openzeppelin/contracts/access/AccessControl.sol\":5042:5067  _grantRole(role, account) */\n      tag_290\n        /* \"@openzeppelin/contracts/access/AccessControl.sol\":5053:5057  role */\n      dup4\n        /* \"@openzeppelin/contracts/access/AccessControl.sol\":5059:5066  account */\n      dup4\n        /* \"@openzeppelin/contracts/access/AccessControl.sol\":5042:5052  _grantRole */\n      tag_279\n        /* \"@openzeppelin/contracts/access/AccessControl.sol\":5042:5067  _grantRole(role, account) */\n      jump\t// in\n    tag_290:\n        /* \"@openzeppelin/contracts/access/AccessControl.sol\":4929:5074  function grantRole(bytes32 role, address account) public virtual override onlyRole(getRoleAdmin(role)) {... */\n      pop\n      pop\n      pop\n      jump\t// out\n        /* \"@openzeppelin/contracts/access/AccessControl.sol\":6038:6252  function renounceRole(bytes32 role, address account) public virtual override {... */\n    tag_107:\n        /* \"@openzeppelin/contracts/access/AccessControl.sol\":6144:6156  _msgSender() */\n      tag_292\n        /* \"@openzeppelin/contracts/access/AccessControl.sol\":6144:6154  _msgSender */\n      tag_293\n        /* \"@openzeppelin/contracts/access/AccessControl.sol\":6144:6156  _msgSender() */\n      jump\t// in\n    tag_292:\n        /* \"@openzeppelin/contracts/access/AccessControl.sol\":6133:6156  account == _msgSender() */\n      0xffffffffffffffffffffffffffffffffffffffff\n      and\n        /* \"@openzeppelin/contracts/access/AccessControl.sol\":6133:6140  account */\n      dup2\n        /* \"@openzeppelin/contracts/access/AccessControl.sol\":6133:6156  account == _msgSender() */\n      0xffffffffffffffffffffffffffffffffffffffff\n      and\n      eq\n        /* \"@openzeppelin/contracts/access/AccessControl.sol\":6125:6208  require(account == _msgSender(), \"AccessControl: can only renounce roles for self\") */\n      tag_294\n      jumpi\n      mload(0x40)\n      0x08c379a000000000000000000000000000000000000000000000000000000000\n      dup2\n      mstore\n      0x04\n      add\n      tag_295\n      swap1\n      tag_296\n      jump\t// in\n    tag_295:\n      mload(0x40)\n      dup1\n      swap2\n      sub\n      swap1\n      revert\n    tag_294:\n        /* \"@openzeppelin/contracts/access/AccessControl.sol\":6219:6245  _revokeRole(role, account) */\n      tag_297\n        /* \"@openzeppelin/contracts/access/AccessControl.sol\":6231:6235  role */\n      dup3\n        /* \"@openzeppelin/contracts/access/AccessControl.sol\":6237:6244  account */\n      dup3\n        /* \"@openzeppelin/contracts/access/AccessControl.sol\":6219:6230  _revokeRole */\n      tag_298\n        /* \"@openzeppelin/contracts/access/AccessControl.sol\":6219:6245  _revokeRole(role, account) */\n      jump\t// in\n    tag_297:\n        /* \"@openzeppelin/contracts/access/AccessControl.sol\":6038:6252  function renounceRole(bytes32 role, address account) public virtual override {... */\n      pop\n      pop\n      jump\t// out\n        /* \"contracts/TrainersIlde.sol\":9369:9817  function buyTrainerImprovement(... */\n    tag_112:\n        /* \"contracts/TrainersIlde.sol\":2343:2364  keccak256(\"EXECUTOR\") */\n      0x9cf85f95575c3af1e116e3d37fd41e7f36a8a373623f51ffaaa87fdd032fa767\n        /* \"@openzeppelin/contracts/access/AccessControl.sol\":2631:2647  _checkRole(role) */\n      tag_300\n        /* \"@openzeppelin/contracts/access/AccessControl.sol\":2642:2646  role */\n      dup2\n        /* \"@openzeppelin/contracts/access/AccessControl.sol\":2631:2641  _checkRole */\n      tag_273\n        /* \"@openzeppelin/contracts/access/AccessControl.sol\":2631:2647  _checkRole(role) */\n      jump\t// in\n    tag_300:\n        /* \"contracts/TrainersIlde.sol\":9509:9521  takeFees(_e) */\n      tag_302\n        /* \"contracts/TrainersIlde.sol\":9518:9520  _e */\n      dup5\n        /* \"contracts/TrainersIlde.sol\":9509:9517  takeFees */\n      tag_303\n        /* \"contracts/TrainersIlde.sol\":9509:9521  takeFees(_e) */\n      jump\t// in\n    tag_302:\n        /* \"contracts/TrainersIlde.sol\":9540:9574  canGetItTrainerImprovement(_t, _i) */\n      tag_304\n        /* \"contracts/TrainersIlde.sol\":9567:9569  _t */\n      dup4\n        /* \"contracts/TrainersIlde.sol\":9571:9573  _i */\n      dup4\n        /* \"contracts/TrainersIlde.sol\":9540:9566  canGetItTrainerImprovement */\n      tag_219\n        /* \"contracts/TrainersIlde.sol\":9540:9574  canGetItTrainerImprovement(_t, _i) */\n      jump\t// in\n    tag_304:\n        /* \"contracts/TrainersIlde.sol\":9576:9587  CANT_GET_IT */\n      mload(0x40)\n      dup1\n      0x40\n      add\n      0x40\n      mstore\n      dup1\n      0x0b\n      dup2\n      mstore\n      0x20\n      add\n      0x43414e545f4745545f4954000000000000000000000000000000000000000000\n      dup2\n      mstore\n      pop\n        /* \"contracts/TrainersIlde.sol\":9532:9588  require(canGetItTrainerImprovement(_t, _i), CANT_GET_IT) */\n      swap1\n      tag_305\n      jumpi\n      mload(0x40)\n      0x08c379a000000000000000000000000000000000000000000000000000000000\n      dup2\n      mstore\n      0x04\n      add\n      tag_306\n      swap2\n      swap1\n      tag_98\n      jump\t// in\n    tag_306:\n      mload(0x40)\n      dup1\n      swap2\n      sub\n      swap1\n      revert\n    tag_305:\n      pop\n        /* \"contracts/TrainersIlde.sol\":9631:9635  true */\n      0x01\n        /* \"contracts/TrainersIlde.sol\":9599:9620  bTrainerImprovements_ */\n      0x0b\n        /* \"contracts/TrainersIlde.sol\":9599:9624  bTrainerImprovements_[_t] */\n      0x00\n        /* \"contracts/TrainersIlde.sol\":9621:9623  _t */\n      dup6\n        /* \"contracts/TrainersIlde.sol\":9599:9624  bTrainerImprovements_[_t] */\n      dup2\n      mstore\n      0x20\n      add\n      swap1\n      dup2\n      mstore\n      0x20\n      add\n      0x00\n      keccak256\n        /* \"contracts/TrainersIlde.sol\":9599:9628  bTrainerImprovements_[_t][_i] */\n      0x00\n        /* \"contracts/TrainersIlde.sol\":9625:9627  _i */\n      dup5\n        /* \"contracts/TrainersIlde.sol\":9599:9628  bTrainerImprovements_[_t][_i] */\n      dup2\n      mstore\n      0x20\n      add\n      swap1\n      dup2\n      mstore\n      0x20\n      add\n      0x00\n      keccak256\n      0x00\n        /* \"contracts/TrainersIlde.sol\":9599:9635  bTrainerImprovements_[_t][_i] = true */\n      0x0100\n      exp\n      dup2\n      sload\n      dup2\n      0xff\n      mul\n      not\n      and\n      swap1\n      dup4\n      iszero\n      iszero\n      mul\n      or\n      swap1\n      sstore\n      pop\n        /* \"contracts/TrainersIlde.sol\":9672:9686  tImprovements_ */\n      0x09\n        /* \"contracts/TrainersIlde.sol\":9672:9690  tImprovements_[_i] */\n      0x00\n        /* \"contracts/TrainersIlde.sol\":9687:9689  _i */\n      dup4\n        /* \"contracts/TrainersIlde.sol\":9672:9690  tImprovements_[_i] */\n      dup2\n      mstore\n      0x20\n      add\n      swap1\n      dup2\n      mstore\n      0x20\n      add\n      0x00\n      keccak256\n        /* \"contracts/TrainersIlde.sol\":9672:9695  tImprovements_[_i].mult */\n      0x01\n      add\n      sload\n        /* \"contracts/TrainersIlde.sol\":9646:9659  trainersData_ */\n      0x0a\n        /* \"contracts/TrainersIlde.sol\":9646:9663  trainersData_[_t] */\n      0x00\n        /* \"contracts/TrainersIlde.sol\":9660:9662  _t */\n      dup6\n        /* \"contracts/TrainersIlde.sol\":9646:9663  trainersData_[_t] */\n      dup2\n      mstore\n      0x20\n      add\n      swap1\n      dup2\n      mstore\n      0x20\n      add\n      0x00\n      keccak256\n        /* \"contracts/TrainersIlde.sol\":9646:9668  trainersData_[_t].mult */\n      0x00\n      add\n      0x00\n        /* \"contracts/TrainersIlde.sol\":9646:9695  trainersData_[_t].mult += tImprovements_[_i].mult */\n      dup3\n      dup3\n      sload\n      tag_307\n      swap2\n      swap1\n      tag_308\n      jump\t// in\n    tag_307:\n      swap3\n      pop\n      pop\n      dup2\n      swap1\n      sstore\n      pop\n        /* \"contracts/TrainersIlde.sol\":9734:9748  tImprovements_ */\n      0x09\n        /* \"contracts/TrainersIlde.sol\":9734:9752  tImprovements_[_i] */\n      0x00\n        /* \"contracts/TrainersIlde.sol\":9749:9751  _i */\n      dup4\n        /* \"contracts/TrainersIlde.sol\":9734:9752  tImprovements_[_i] */\n      dup2\n      mstore\n      0x20\n      add\n      swap1\n      dup2\n      mstore\n      0x20\n      add\n      0x00\n      keccak256\n        /* \"contracts/TrainersIlde.sol\":9734:9758  tImprovements_[_i].value */\n      0x00\n      add\n      sload\n        /* \"contracts/TrainersIlde.sol\":9706:9719  trainersData_ */\n      0x0a\n        /* \"contracts/TrainersIlde.sol\":9706:9723  trainersData_[_t] */\n      0x00\n        /* \"contracts/TrainersIlde.sol\":9720:9722  _t */\n      dup6\n        /* \"contracts/TrainersIlde.sol\":9706:9723  trainersData_[_t] */\n      dup2\n      mstore\n      0x20\n      add\n      swap1\n      dup2\n      mstore\n      0x20\n      add\n      0x00\n      keccak256\n        /* \"contracts/TrainersIlde.sol\":9706:9730  trainersData_[_t].points */\n      0x01\n      add\n      0x00\n        /* \"contracts/TrainersIlde.sol\":9706:9758  trainersData_[_t].points -= tImprovements_[_i].value */\n      dup3\n      dup3\n      sload\n      tag_309\n      swap2\n      swap1\n      tag_310\n      jump\t// in\n    tag_309:\n      swap3\n      pop\n      pop\n      dup2\n      swap1\n      sstore\n      pop\n        /* \"contracts/TrainersIlde.sol\":9774:9809  BuyImprovement(_i, block.timestamp) */\n      0x5999410022ec50d1ffde644471d13ab5b5482616c8bfc6696d13aa0577c5840c\n        /* \"contracts/TrainersIlde.sol\":9789:9791  _i */\n      dup3\n        /* \"contracts/TrainersIlde.sol\":9793:9808  block.timestamp */\n      timestamp\n        /* \"contracts/TrainersIlde.sol\":9774:9809  BuyImprovement(_i, block.timestamp) */\n      mload(0x40)\n      tag_311\n      swap3\n      swap2\n      swap1\n      tag_312\n      jump\t// in\n    tag_311:\n      mload(0x40)\n      dup1\n      swap2\n      sub\n      swap1\n      log1\n        /* \"contracts/TrainersIlde.sol\":9369:9817  function buyTrainerImprovement(... */\n      pop\n      pop\n      pop\n      pop\n      jump\t// out\n        /* \"contracts/TrainersIlde.sol\":5415:5542  function activationBlock(uint256 _trainer) public view returns (uint256) {... */\n    tag_116:\n        /* \"contracts/TrainersIlde.sol\":5479:5486  uint256 */\n      0x00\n        /* \"contracts/TrainersIlde.sol\":5506:5524  blockStartTracker_ */\n      0x08\n        /* \"contracts/TrainersIlde.sol\":5506:5534  blockStartTracker_[_trainer] */\n      0x00\n        /* \"contracts/TrainersIlde.sol\":5525:5533  _trainer */\n      dup4\n        /* \"contracts/TrainersIlde.sol\":5506:5534  blockStartTracker_[_trainer] */\n      dup2\n      mstore\n      0x20\n      add\n      swap1\n      dup2\n      mstore\n      0x20\n      add\n      0x00\n      keccak256\n      sload\n        /* \"contracts/TrainersIlde.sol\":5499:5534  return blockStartTracker_[_trainer] */\n      swap1\n      pop\n        /* \"contracts/TrainersIlde.sol\":5415:5542  function activationBlock(uint256 _trainer) public view returns (uint256) {... */\n      swap2\n      swap1\n      pop\n      jump\t// out\n        /* \"contracts/TrainersIlde.sol\":5945:6100  function unlockedIdlePoints(uint256 _t) public view returns (uint256) {... */\n    tag_122:\n        /* \"contracts/TrainersIlde.sol\":6006:6013  uint256 */\n      0x00\n        /* \"contracts/TrainersIlde.sol\":6070:6083  trainersData_ */\n      0x0a\n        /* \"contracts/TrainersIlde.sol\":6070:6087  trainersData_[_t] */\n      0x00\n        /* \"contracts/TrainersIlde.sol\":6084:6086  _t */\n      dup4\n        /* \"contracts/TrainersIlde.sol\":6070:6087  trainersData_[_t] */\n      dup2\n      mstore\n      0x20\n      add\n      swap1\n      dup2\n      mstore\n      0x20\n      add\n      0x00\n      keccak256\n        /* \"contracts/TrainersIlde.sol\":6070:6092  trainersData_[_t].mult */\n      0x00\n      add\n      sload\n        /* \"contracts/TrainersIlde.sol\":6053:6067  idleBlocks(_t) */\n      tag_315\n        /* \"contracts/TrainersIlde.sol\":6064:6066  _t */\n      dup4\n        /* \"contracts/TrainersIlde.sol\":6053:6063  idleBlocks */\n      tag_234\n        /* \"contracts/TrainersIlde.sol\":6053:6067  idleBlocks(_t) */\n      jump\t// in\n    tag_315:\n        /* \"contracts/TrainersIlde.sol\":6033:6040  config_ */\n      0x02\n        /* \"contracts/TrainersIlde.sol\":6033:6050  config_.pPerBlock */\n      0x01\n      add\n      sload\n        /* \"contracts/TrainersIlde.sol\":6033:6067  config_.pPerBlock * idleBlocks(_t) */\n      tag_316\n      swap2\n      swap1\n      tag_317\n      jump\t// in\n    tag_316:\n        /* \"contracts/TrainersIlde.sol\":6033:6092  config_.pPerBlock * idleBlocks(_t) * trainersData_[_t].mult */\n      tag_318\n      swap2\n      swap1\n      tag_317\n      jump\t// in\n    tag_318:\n        /* \"contracts/TrainersIlde.sol\":6026:6092  return config_.pPerBlock * idleBlocks(_t) * trainersData_[_t].mult */\n      swap1\n      pop\n        /* \"contracts/TrainersIlde.sol\":5945:6100  function unlockedIdlePoints(uint256 _t) public view returns (uint256) {... */\n      swap2\n      swap1\n      pop\n      jump\t// out\n        /* \"contracts/TrainersIlde.sol\":8217:8676  function joinWithTrainer(... */\n    tag_128:\n        /* \"contracts/TrainersIlde.sol\":2343:2364  keccak256(\"EXECUTOR\") */\n      0x9cf85f95575c3af1e116e3d37fd41e7f36a8a373623f51ffaaa87fdd032fa767\n        /* \"@openzeppelin/contracts/access/AccessControl.sol\":2631:2647  _checkRole(role) */\n      tag_320\n        /* \"@openzeppelin/contracts/access/AccessControl.sol\":2642:2646  role */\n      dup2\n        /* \"@openzeppelin/contracts/access/AccessControl.sol\":2631:2641  _checkRole */\n      tag_273\n        /* \"@openzeppelin/contracts/access/AccessControl.sol\":2631:2647  _checkRole(role) */\n      jump\t// in\n    tag_320:\n        /* \"contracts/TrainersIlde.sol\":8336:8348  takeFees(_e) */\n      tag_322\n        /* \"contracts/TrainersIlde.sol\":8345:8347  _e */\n      dup4\n        /* \"contracts/TrainersIlde.sol\":8336:8344  takeFees */\n      tag_303\n        /* \"contracts/TrainersIlde.sol\":8336:8348  takeFees(_e) */\n      jump\t// in\n    tag_322:\n        /* \"contracts/TrainersIlde.sol\":8368:8386  isActive(_trainer) */\n      tag_323\n        /* \"contracts/TrainersIlde.sol\":8377:8385  _trainer */\n      dup3\n        /* \"contracts/TrainersIlde.sol\":8368:8376  isActive */\n      tag_145\n        /* \"contracts/TrainersIlde.sol\":8368:8386  isActive(_trainer) */\n      jump\t// in\n    tag_323:\n        /* \"contracts/TrainersIlde.sol\":8367:8386  !isActive(_trainer) */\n      iszero\n        /* \"contracts/TrainersIlde.sol\":8388:8408  ACTIVE_TRAINER_ERROR */\n      mload(0x40)\n      dup1\n      0x40\n      add\n      0x40\n      mstore\n      dup1\n      0x14\n      dup2\n      mstore\n      0x20\n      add\n      0x4143544956455f545241494e45525f4552524f52000000000000000000000000\n      dup2\n      mstore\n      pop\n        /* \"contracts/TrainersIlde.sol\":8359:8409  require(!isActive(_trainer), ACTIVE_TRAINER_ERROR) */\n      swap1\n      tag_324\n      jumpi\n      mload(0x40)\n      0x08c379a000000000000000000000000000000000000000000000000000000000\n      dup2\n      mstore\n      0x04\n      add\n      tag_325\n      swap2\n      swap1\n      tag_98\n      jump\t// in\n    tag_325:\n      mload(0x40)\n      dup1\n      swap2\n      sub\n      swap1\n      revert\n    tag_324:\n      pop\n        /* \"contracts/TrainersIlde.sol\":8459:8471  _msgSender() */\n      tag_326\n        /* \"contracts/TrainersIlde.sol\":8459:8469  _msgSender */\n      tag_293\n        /* \"contracts/TrainersIlde.sol\":8459:8471  _msgSender() */\n      jump\t// in\n    tag_326:\n        /* \"contracts/TrainersIlde.sol\":8428:8471  trainers_.ownerOf(_trainer) == _msgSender() */\n      0xffffffffffffffffffffffffffffffffffffffff\n      and\n        /* \"contracts/TrainersIlde.sol\":8428:8437  trainers_ */\n      0x01\n      0x00\n      swap1\n      sload\n      swap1\n      0x0100\n      exp\n      swap1\n      div\n      0xffffffffffffffffffffffffffffffffffffffff\n      and\n        /* \"contracts/TrainersIlde.sol\":8428:8445  trainers_.ownerOf */\n      0xffffffffffffffffffffffffffffffffffffffff\n      and\n      0x6352211e\n        /* \"contracts/TrainersIlde.sol\":8446:8454  _trainer */\n      dup5\n        /* \"contracts/TrainersIlde.sol\":8428:8455  trainers_.ownerOf(_trainer) */\n      mload(0x40)\n      dup3\n      0xffffffff\n      and\n      0xe0\n      shl\n      dup2\n      mstore\n      0x04\n      add\n      tag_327\n      swap2\n      swap1\n      tag_118\n      jump\t// in\n    tag_327:\n      0x20\n      mload(0x40)\n      dup1\n      dup4\n      sub\n      dup2\n      dup7\n      gas\n      staticcall\n      iszero\n      dup1\n      iszero\n      tag_329\n      jumpi\n      returndatasize\n      0x00\n      dup1\n      returndatacopy\n      revert(0x00, returndatasize)\n    tag_329:\n      pop\n      pop\n      pop\n      pop\n      mload(0x40)\n      returndatasize\n      not(0x1f)\n      0x1f\n      dup3\n      add\n      and\n      dup3\n      add\n      dup1\n      0x40\n      mstore\n      pop\n      dup2\n      add\n      swap1\n      tag_330\n      swap2\n      swap1\n      tag_331\n      jump\t// in\n    tag_330:\n        /* \"contracts/TrainersIlde.sol\":8428:8471  trainers_.ownerOf(_trainer) == _msgSender() */\n      0xffffffffffffffffffffffffffffffffffffffff\n      and\n      eq\n        /* \"contracts/TrainersIlde.sol\":8473:8484  OWNER_ERROR */\n      mload(0x40)\n      dup1\n      0x40\n      add\n      0x40\n      mstore\n      dup1\n      0x0b\n      dup2\n      mstore\n      0x20\n      add\n      0x4f574e45525f4552524f52000000000000000000000000000000000000000000\n      dup2\n      mstore\n      pop\n        /* \"contracts/TrainersIlde.sol\":8420:8485  require(trainers_.ownerOf(_trainer) == _msgSender(), OWNER_ERROR) */\n      swap1\n      tag_332\n      jumpi\n      mload(0x40)\n      0x08c379a000000000000000000000000000000000000000000000000000000000\n      dup2\n      mstore\n      0x04\n      add\n      tag_333\n      swap2\n      swap1\n      tag_98\n      jump\t// in\n    tag_333:\n      mload(0x40)\n      dup1\n      swap2\n      sub\n      swap1\n      revert\n    tag_332:\n      pop\n        /* \"contracts/TrainersIlde.sol\":8527:8539  block.number */\n      number\n        /* \"contracts/TrainersIlde.sol\":8496:8514  blockStartTracker_ */\n      0x08\n        /* \"contracts/TrainersIlde.sol\":8496:8524  blockStartTracker_[_trainer] */\n      0x00\n        /* \"contracts/TrainersIlde.sol\":8515:8523  _trainer */\n      dup5\n        /* \"contracts/TrainersIlde.sol\":8496:8524  blockStartTracker_[_trainer] */\n      dup2\n      mstore\n      0x20\n      add\n      swap1\n      dup2\n      mstore\n      0x20\n      add\n      0x00\n      keccak256\n        /* \"contracts/TrainersIlde.sol\":8496:8539  blockStartTracker_[_trainer] = block.number */\n      dup2\n      swap1\n      sstore\n      pop\n        /* \"contracts/TrainersIlde.sol\":8586:8587  0 */\n      0x00\n        /* \"contracts/TrainersIlde.sol\":8554:8567  trainersData_ */\n      0x0a\n        /* \"contracts/TrainersIlde.sol\":8554:8577  trainersData_[_trainer] */\n      0x00\n        /* \"contracts/TrainersIlde.sol\":8568:8576  _trainer */\n      dup5\n        /* \"contracts/TrainersIlde.sol\":8554:8577  trainersData_[_trainer] */\n      dup2\n      mstore\n      0x20\n      add\n      swap1\n      dup2\n      mstore\n      0x20\n      add\n      0x00\n      keccak256\n        /* \"contracts/TrainersIlde.sol\":8554:8582  trainersData_[_trainer].mult */\n      0x00\n      add\n      sload\n        /* \"contracts/TrainersIlde.sol\":8554:8587  trainersData_[_trainer].mult == 0 */\n      sub\n        /* \"contracts/TrainersIlde.sol\":8550:8621  if (trainersData_[_trainer].mult == 0) trainersData_[_trainer].mult = 1 */\n      tag_334\n      jumpi\n        /* \"contracts/TrainersIlde.sol\":8620:8621  1 */\n      0x01\n        /* \"contracts/TrainersIlde.sol\":8589:8602  trainersData_ */\n      0x0a\n        /* \"contracts/TrainersIlde.sol\":8589:8612  trainersData_[_trainer] */\n      0x00\n        /* \"contracts/TrainersIlde.sol\":8603:8611  _trainer */\n      dup5\n        /* \"contracts/TrainersIlde.sol\":8589:8612  trainersData_[_trainer] */\n      dup2\n      mstore\n      0x20\n      add\n      swap1\n      dup2\n      mstore\n      0x20\n      add\n      0x00\n      keccak256\n        /* \"contracts/TrainersIlde.sol\":8589:8617  trainersData_[_trainer].mult */\n      0x00\n      add\n        /* \"contracts/TrainersIlde.sol\":8589:8621  trainersData_[_trainer].mult = 1 */\n      dup2\n      swap1\n      sstore\n      pop\n        /* \"contracts/TrainersIlde.sol\":8550:8621  if (trainersData_[_trainer].mult == 0) trainersData_[_trainer].mult = 1 */\n    tag_334:\n        /* \"contracts/TrainersIlde.sol\":8637:8668  Join(_trainer, block.timestamp) */\n      0x735ef78aed2bd4cfae4d08680b7cb333d4aa561d0287a81d4abbac0b4b64d589\n        /* \"contracts/TrainersIlde.sol\":8642:8650  _trainer */\n      dup3\n        /* \"contracts/TrainersIlde.sol\":8652:8667  block.timestamp */\n      timestamp\n        /* \"contracts/TrainersIlde.sol\":8637:8668  Join(_trainer, block.timestamp) */\n      mload(0x40)\n      tag_335\n      swap3\n      swap2\n      swap1\n      tag_312\n      jump\t// in\n    tag_335:\n      mload(0x40)\n      dup1\n      swap2\n      sub\n      swap1\n      log1\n        /* \"contracts/TrainersIlde.sol\":8217:8676  function joinWithTrainer(... */\n      pop\n      pop\n      pop\n      jump\t// out\n        /* \"contracts/TrainersIlde.sol\":9080:9361  function collectTransPoints(... */\n    tag_132:\n        /* \"contracts/TrainersIlde.sol\":2343:2364  keccak256(\"EXECUTOR\") */\n      0x9cf85f95575c3af1e116e3d37fd41e7f36a8a373623f51ffaaa87fdd032fa767\n        /* \"@openzeppelin/contracts/access/AccessControl.sol\":2631:2647  _checkRole(role) */\n      tag_337\n        /* \"@openzeppelin/contracts/access/AccessControl.sol\":2642:2646  role */\n      dup2\n        /* \"@openzeppelin/contracts/access/AccessControl.sol\":2631:2641  _checkRole */\n      tag_273\n        /* \"@openzeppelin/contracts/access/AccessControl.sol\":2631:2647  _checkRole(role) */\n      jump\t// in\n    tag_337:\n        /* \"contracts/TrainersIlde.sol\":9202:9214  takeFees(_e) */\n      tag_339\n        /* \"contracts/TrainersIlde.sol\":9211:9213  _e */\n      dup4\n        /* \"contracts/TrainersIlde.sol\":9202:9210  takeFees */\n      tag_303\n        /* \"contracts/TrainersIlde.sol\":9202:9214  takeFees(_e) */\n      jump\t// in\n    tag_339:\n        /* \"contracts/TrainersIlde.sol\":9259:9286  transactionPoints(_trainer) */\n      tag_340\n        /* \"contracts/TrainersIlde.sol\":9277:9285  _trainer */\n      dup3\n        /* \"contracts/TrainersIlde.sol\":9259:9276  transactionPoints */\n      tag_140\n        /* \"contracts/TrainersIlde.sol\":9259:9286  transactionPoints(_trainer) */\n      jump\t// in\n    tag_340:\n        /* \"contracts/TrainersIlde.sol\":9225:9238  trainersData_ */\n      0x0a\n        /* \"contracts/TrainersIlde.sol\":9225:9248  trainersData_[_trainer] */\n      0x00\n        /* \"contracts/TrainersIlde.sol\":9239:9247  _trainer */\n      dup5\n        /* \"contracts/TrainersIlde.sol\":9225:9248  trainersData_[_trainer] */\n      dup2\n      mstore\n      0x20\n      add\n      swap1\n      dup2\n      mstore\n      0x20\n      add\n      0x00\n      keccak256\n        /* \"contracts/TrainersIlde.sol\":9225:9255  trainersData_[_trainer].points */\n      0x01\n      add\n      0x00\n        /* \"contracts/TrainersIlde.sol\":9225:9286  trainersData_[_trainer].points += transactionPoints(_trainer) */\n      dup3\n      dup3\n      sload\n      tag_341\n      swap2\n      swap1\n      tag_308\n      jump\t// in\n    tag_341:\n      swap3\n      pop\n      pop\n      dup2\n      swap1\n      sstore\n      pop\n        /* \"contracts/TrainersIlde.sol\":9302:9353  CollectTransactionPoints(_trainer, block.timestamp) */\n      0xb367f7a60fbab705463ff086be4fc59c2be65ec753e1c52ac8af6f1198c522c0\n        /* \"contracts/TrainersIlde.sol\":9327:9335  _trainer */\n      dup3\n        /* \"contracts/TrainersIlde.sol\":9337:9352  block.timestamp */\n      timestamp\n        /* \"contracts/TrainersIlde.sol\":9302:9353  CollectTransactionPoints(_trainer, block.timestamp) */\n      mload(0x40)\n      tag_342\n      swap3\n      swap2\n      swap1\n      tag_312\n      jump\t// in\n    tag_342:\n      mload(0x40)\n      dup1\n      swap2\n      sub\n      swap1\n      log1\n        /* \"contracts/TrainersIlde.sol\":9080:9361  function collectTransPoints(... */\n      pop\n      pop\n      pop\n      jump\t// out\n        /* \"contracts/TrainersIlde.sol\":2308:2364  bytes32 public constant EXECUTOR = keccak256(\"EXECUTOR\") */\n    tag_135:\n        /* \"contracts/TrainersIlde.sol\":2343:2364  keccak256(\"EXECUTOR\") */\n      0x9cf85f95575c3af1e116e3d37fd41e7f36a8a373623f51ffaaa87fdd032fa767\n        /* \"contracts/TrainersIlde.sol\":2308:2364  bytes32 public constant EXECUTOR = keccak256(\"EXECUTOR\") */\n      dup2\n      jump\t// out\n        /* \"contracts/TrainersIlde.sol\":6108:6245  function transactionPoints(uint256 _t) public view returns (uint256) {... */\n    tag_140:\n        /* \"contracts/TrainersIlde.sol\":6168:6175  uint256 */\n      0x00\n        /* \"contracts/TrainersIlde.sol\":6215:6228  trainersData_ */\n      0x0a\n        /* \"contracts/TrainersIlde.sol\":6215:6232  trainersData_[_t] */\n      0x00\n        /* \"contracts/TrainersIlde.sol\":6229:6231  _t */\n      dup4\n        /* \"contracts/TrainersIlde.sol\":6215:6232  trainersData_[_t] */\n      dup2\n      mstore\n      0x20\n      add\n      swap1\n      dup2\n      mstore\n      0x20\n      add\n      0x00\n      keccak256\n        /* \"contracts/TrainersIlde.sol\":6215:6237  trainersData_[_t].mult */\n      0x00\n      add\n      sload\n        /* \"contracts/TrainersIlde.sol\":6195:6202  config_ */\n      0x02\n        /* \"contracts/TrainersIlde.sol\":6195:6212  config_.pPerTrans */\n      dup1\n      add\n      sload\n        /* \"contracts/TrainersIlde.sol\":6195:6237  config_.pPerTrans * trainersData_[_t].mult */\n      tag_344\n      swap2\n      swap1\n      tag_317\n      jump\t// in\n    tag_344:\n        /* \"contracts/TrainersIlde.sol\":6188:6237  return config_.pPerTrans * trainersData_[_t].mult */\n      swap1\n      pop\n        /* \"contracts/TrainersIlde.sol\":6108:6245  function transactionPoints(uint256 _t) public view returns (uint256) {... */\n      swap2\n      swap1\n      pop\n      jump\t// out\n        /* \"contracts/TrainersIlde.sol\":5175:5297  function isActive(uint256 _trainer) public view returns (bool) {... */\n    tag_145:\n        /* \"contracts/TrainersIlde.sol\":5232:5236  bool */\n      0x00\n        /* \"contracts/TrainersIlde.sol\":5288:5289  0 */\n      dup1\n        /* \"contracts/TrainersIlde.sol\":5256:5274  blockStartTracker_ */\n      0x08\n        /* \"contracts/TrainersIlde.sol\":5256:5284  blockStartTracker_[_trainer] */\n      0x00\n        /* \"contracts/TrainersIlde.sol\":5275:5283  _trainer */\n      dup5\n        /* \"contracts/TrainersIlde.sol\":5256:5284  blockStartTracker_[_trainer] */\n      dup2\n      mstore\n      0x20\n      add\n      swap1\n      dup2\n      mstore\n      0x20\n      add\n      0x00\n      keccak256\n      sload\n        /* \"contracts/TrainersIlde.sol\":5256:5289  blockStartTracker_[_trainer] != 0 */\n      eq\n      iszero\n        /* \"contracts/TrainersIlde.sol\":5249:5289  return blockStartTracker_[_trainer] != 0 */\n      swap1\n      pop\n        /* \"contracts/TrainersIlde.sol\":5175:5297  function isActive(uint256 _trainer) public view returns (bool) {... */\n      swap2\n      swap1\n      pop\n      jump\t// out\n        /* \"contracts/TrainersIlde.sol\":1521:1553  IDLEConfiguration public config_ */\n    tag_149:\n      0x02\n      dup1\n      0x00\n      add\n      0x00\n      swap1\n      sload\n      swap1\n      0x0100\n      exp\n      swap1\n      div\n      0xff\n      and\n      swap1\n      dup1\n      0x01\n      add\n      sload\n      swap1\n      dup1\n      0x02\n      add\n      sload\n      swap1\n      dup1\n      0x03\n      add\n      sload\n      swap1\n      dup1\n      0x04\n      add\n      sload\n      swap1\n      dup1\n      0x05\n      add\n      sload\n      swap1\n      pop\n      dup7\n      jump\t// out\n        /* \"@openzeppelin/contracts/access/AccessControl.sol\":3021:3166  function hasRole(bytes32 role, address account) public view virtual override returns (bool) {... */\n    tag_155:\n        /* \"@openzeppelin/contracts/access/AccessControl.sol\":3107:3111  bool */\n      0x00\n        /* \"@openzeppelin/contracts/access/AccessControl.sol\":3130:3136  _roles */\n      dup1\n        /* \"@openzeppelin/contracts/access/AccessControl.sol\":3130:3142  _roles[role] */\n      0x00\n        /* \"@openzeppelin/contracts/access/AccessControl.sol\":3137:3141  role */\n      dup5\n        /* \"@openzeppelin/contracts/access/AccessControl.sol\":3130:3142  _roles[role] */\n      dup2\n      mstore\n      0x20\n      add\n      swap1\n      dup2\n      mstore\n      0x20\n      add\n      0x00\n      keccak256\n        /* \"@openzeppelin/contracts/access/AccessControl.sol\":3130:3150  _roles[role].members */\n      0x00\n      add\n        /* \"@openzeppelin/contracts/access/AccessControl.sol\":3130:3159  _roles[role].members[account] */\n      0x00\n        /* \"@openzeppelin/contracts/access/AccessControl.sol\":3151:3158  account */\n      dup4\n        /* \"@openzeppelin/contracts/access/AccessControl.sol\":3130:3159  _roles[role].members[account] */\n      0xffffffffffffffffffffffffffffffffffffffff\n      and\n      0xffffffffffffffffffffffffffffffffffffffff\n      and\n      dup2\n      mstore\n      0x20\n      add\n      swap1\n      dup2\n      mstore\n      0x20\n      add\n      0x00\n      keccak256\n      0x00\n      swap1\n      sload\n      swap1\n      0x0100\n      exp\n      swap1\n      div\n      0xff\n      and\n        /* \"@openzeppelin/contracts/access/AccessControl.sol\":3123:3159  return _roles[role].members[account] */\n      swap1\n      pop\n        /* \"@openzeppelin/contracts/access/AccessControl.sol\":3021:3166  function hasRole(bytes32 role, address account) public view virtual override returns (bool) {... */\n      swap3\n      swap2\n      pop\n      pop\n      jump\t// out\n        /* \"contracts/TrainersIlde.sol\":10636:10840  function sendFeesToExecutor() external onlyRole(DEFAULT_ADMIN_ROLE) {... */\n    tag_159:\n        /* \"@openzeppelin/contracts/access/AccessControl.sol\":2198:2202  0x00 */\n      0x00\n        /* \"contracts/TrainersIlde.sol\":10684:10702  DEFAULT_ADMIN_ROLE */\n      dup1\n      shl\n        /* \"@openzeppelin/contracts/access/AccessControl.sol\":2631:2647  _checkRole(role) */\n      tag_348\n        /* \"@openzeppelin/contracts/access/AccessControl.sol\":2642:2646  role */\n      dup2\n        /* \"@openzeppelin/contracts/access/AccessControl.sol\":2631:2641  _checkRole */\n      tag_273\n        /* \"@openzeppelin/contracts/access/AccessControl.sol\":2631:2647  _checkRole(role) */\n      jump\t// in\n    tag_348:\n        /* \"contracts/TrainersIlde.sol\":10716:10725  bool sent */\n      0x00\n        /* \"contracts/TrainersIlde.sol\":10731:10740  executor_ */\n      0x10\n      0x00\n      swap1\n      sload\n      swap1\n      0x0100\n      exp\n      swap1\n      div\n      0xffffffffffffffffffffffffffffffffffffffff\n      and\n        /* \"contracts/TrainersIlde.sol\":10731:10745  executor_.call */\n      0xffffffffffffffffffffffffffffffffffffffff\n      and\n        /* \"contracts/TrainersIlde.sol\":10753:10763  takedFees_ */\n      sload(0x0f)\n        /* \"contracts/TrainersIlde.sol\":10731:10768  executor_.call{value: takedFees_}(\"\") */\n      mload(0x40)\n      tag_350\n      swap1\n      tag_351\n      jump\t// in\n    tag_350:\n      0x00\n      mload(0x40)\n      dup1\n      dup4\n      sub\n      dup2\n      dup6\n      dup8\n      gas\n      call\n      swap3\n      pop\n      pop\n      pop\n      returndatasize\n      dup1\n      0x00\n      dup2\n      eq\n      tag_354\n      jumpi\n      mload(0x40)\n      swap2\n      pop\n      and(add(returndatasize, 0x3f), not(0x1f))\n      dup3\n      add\n      0x40\n      mstore\n      returndatasize\n      dup3\n      mstore\n      returndatasize\n      0x00\n      0x20\n      dup5\n      add\n      returndatacopy\n      jump(tag_353)\n    tag_354:\n      0x60\n      swap2\n      pop\n    tag_353:\n      pop\n        /* \"contracts/TrainersIlde.sol\":10715:10768  (bool sent, ) = executor_.call{value: takedFees_}(\"\") */\n      pop\n      swap1\n      pop\n        /* \"contracts/TrainersIlde.sol\":10787:10791  sent */\n      dup1\n        /* \"contracts/TrainersIlde.sol\":10793:10806  MTR_FEE_ERROR */\n      mload(0x40)\n      dup1\n      0x40\n      add\n      0x40\n      mstore\n      dup1\n      0x0d\n      dup2\n      mstore\n      0x20\n      add\n      0x4d54525f4645455f4552524f5200000000000000000000000000000000000000\n      dup2\n      mstore\n      pop\n        /* \"contracts/TrainersIlde.sol\":10779:10807  require(sent, MTR_FEE_ERROR) */\n      swap1\n      tag_355\n      jumpi\n      mload(0x40)\n      0x08c379a000000000000000000000000000000000000000000000000000000000\n      dup2\n      mstore\n      0x04\n      add\n      tag_356\n      swap2\n      swap1\n      tag_98\n      jump\t// in\n    tag_356:\n      mload(0x40)\n      dup1\n      swap2\n      sub\n      swap1\n      revert\n    tag_355:\n      pop\n        /* \"contracts/TrainersIlde.sol\":10831:10832  0 */\n      0x00\n        /* \"contracts/TrainersIlde.sol\":10818:10828  takedFees_ */\n      0x0f\n        /* \"contracts/TrainersIlde.sol\":10818:10832  takedFees_ = 0 */\n      dup2\n      swap1\n      sstore\n      pop\n        /* \"contracts/TrainersIlde.sol\":10704:10840  {... */\n      pop\n        /* \"contracts/TrainersIlde.sol\":10636:10840  function sendFeesToExecutor() external onlyRole(DEFAULT_ADMIN_ROLE) {... */\n      pop\n      jump\t// out\n        /* \"contracts/TrainersIlde.sol\":3771:4016  function getUsersRewardsPercentages(... */\n    tag_163:\n        /* \"contracts/TrainersIlde.sol\":3858:3872  uint8[] memory */\n      0x60\n        /* \"contracts/TrainersIlde.sol\":3885:3902  uint8[] memory _r */\n      0x00\n        /* \"contracts/TrainersIlde.sol\":3917:3921  _max */\n      dup3\n        /* \"contracts/TrainersIlde.sol\":3905:3922  new uint8[](_max) */\n      0xffffffffffffffff\n      dup2\n      gt\n      iszero\n      tag_358\n      jumpi\n      tag_359\n      tag_360\n      jump\t// in\n    tag_359:\n    tag_358:\n      mload(0x40)\n      swap1\n      dup1\n      dup3\n      mstore\n      dup1\n      0x20\n      mul\n      0x20\n      add\n      dup3\n      add\n      0x40\n      mstore\n      dup1\n      iszero\n      tag_361\n      jumpi\n      dup2\n      0x20\n      add\n      0x20\n      dup3\n      mul\n      dup1\n      calldatasize\n      dup4\n      calldatacopy\n      dup1\n      dup3\n      add\n      swap2\n      pop\n      pop\n      swap1\n      pop\n    tag_361:\n      pop\n        /* \"contracts/TrainersIlde.sol\":3885:3922  uint8[] memory _r = new uint8[](_max) */\n      swap1\n      pop\n        /* \"contracts/TrainersIlde.sol\":3938:3947  uint256 i */\n      0x00\n        /* \"contracts/TrainersIlde.sol\":3933:3988  for (uint256 i = 0; i < _max; i++) _r[i] = rewardsP_[i] */\n    tag_362:\n        /* \"contracts/TrainersIlde.sol\":3957:3961  _max */\n      dup4\n        /* \"contracts/TrainersIlde.sol\":3953:3954  i */\n      dup2\n        /* \"contracts/TrainersIlde.sol\":3953:3961  i < _max */\n      lt\n        /* \"contracts/TrainersIlde.sol\":3933:3988  for (uint256 i = 0; i < _max; i++) _r[i] = rewardsP_[i] */\n      iszero\n      tag_363\n      jumpi\n        /* \"contracts/TrainersIlde.sol\":3976:3985  rewardsP_ */\n      0x0c\n        /* \"contracts/TrainersIlde.sol\":3976:3988  rewardsP_[i] */\n      0x00\n        /* \"contracts/TrainersIlde.sol\":3986:3987  i */\n      dup3\n        /* \"contracts/TrainersIlde.sol\":3976:3988  rewardsP_[i] */\n      dup2\n      mstore\n      0x20\n      add\n      swap1\n      dup2\n      mstore\n      0x20\n      add\n      0x00\n      keccak256\n      0x00\n      swap1\n      sload\n      swap1\n      0x0100\n      exp\n      swap1\n      div\n      0xff\n      and\n        /* \"contracts/TrainersIlde.sol\":3968:3970  _r */\n      dup3\n        /* \"contracts/TrainersIlde.sol\":3971:3972  i */\n      dup3\n        /* \"contracts/TrainersIlde.sol\":3968:3973  _r[i] */\n      dup2\n      mload\n      dup2\n      lt\n      tag_365\n      jumpi\n      tag_366\n      tag_367\n      jump\t// in\n    tag_366:\n    tag_365:\n      0x20\n      mul\n      0x20\n      add\n      add\n        /* \"contracts/TrainersIlde.sol\":3968:3988  _r[i] = rewardsP_[i] */\n      swap1\n      0xff\n      and\n      swap1\n      dup2\n      0xff\n      and\n      dup2\n      mstore\n      pop\n      pop\n        /* \"contracts/TrainersIlde.sol\":3963:3966  i++ */\n      dup1\n      dup1\n      tag_368\n      swap1\n      tag_369\n      jump\t// in\n    tag_368:\n      swap2\n      pop\n      pop\n        /* \"contracts/TrainersIlde.sol\":3933:3988  for (uint256 i = 0; i < _max; i++) _r[i] = rewardsP_[i] */\n      jump(tag_362)\n    tag_363:\n      pop\n        /* \"contracts/TrainersIlde.sol\":4006:4008  _r */\n      dup1\n        /* \"contracts/TrainersIlde.sol\":3999:4008  return _r */\n      swap2\n      pop\n      pop\n        /* \"contracts/TrainersIlde.sol\":3771:4016  function getUsersRewardsPercentages(... */\n      swap2\n      swap1\n      pop\n      jump\t// out\n        /* \"contracts/TrainersIlde.sol\":9853:10233  function injectBalance() external payable {... */\n    tag_167:\n        /* \"contracts/TrainersIlde.sol\":9927:9934  config_ */\n      0x02\n        /* \"contracts/TrainersIlde.sol\":9927:9941  config_.feeMTR */\n      0x03\n      add\n      sload\n        /* \"contracts/TrainersIlde.sol\":9914:9923  msg.value */\n      callvalue\n        /* \"contracts/TrainersIlde.sol\":9914:9941  msg.value >= config_.feeMTR */\n      lt\n      iszero\n        /* \"contracts/TrainersIlde.sol\":9943:9956  MTR_FEE_ERROR */\n      mload(0x40)\n      dup1\n      0x40\n      add\n      0x40\n      mstore\n      dup1\n      0x0d\n      dup2\n      mstore\n      0x20\n      add\n      0x4d54525f4645455f4552524f5200000000000000000000000000000000000000\n      dup2\n      mstore\n      pop\n        /* \"contracts/TrainersIlde.sol\":9906:9957  require(msg.value >= config_.feeMTR, MTR_FEE_ERROR) */\n      swap1\n      tag_371\n      jumpi\n      mload(0x40)\n      0x08c379a000000000000000000000000000000000000000000000000000000000\n      dup2\n      mstore\n      0x04\n      add\n      tag_372\n      swap2\n      swap1\n      tag_98\n      jump\t// in\n    tag_372:\n      mload(0x40)\n      dup1\n      swap2\n      sub\n      swap1\n      revert\n    tag_371:\n      pop\n        /* \"contracts/TrainersIlde.sol\":9968:9983  address _sender */\n      0x00\n        /* \"contracts/TrainersIlde.sol\":9986:9998  _msgSender() */\n      tag_373\n        /* \"contracts/TrainersIlde.sol\":9986:9996  _msgSender */\n      tag_293\n        /* \"contracts/TrainersIlde.sol\":9986:9998  _msgSender() */\n      jump\t// in\n    tag_373:\n        /* \"contracts/TrainersIlde.sol\":9968:9998  address _sender = _msgSender() */\n      swap1\n      pop\n        /* \"contracts/TrainersIlde.sol\":10009:10032  uint256 _agregatedValue */\n      0x00\n        /* \"contracts/TrainersIlde.sol\":10047:10054  config_ */\n      0x02\n        /* \"contracts/TrainersIlde.sol\":10047:10061  config_.feeMTR */\n      0x03\n      add\n      sload\n        /* \"contracts/TrainersIlde.sol\":10035:10044  msg.value */\n      callvalue\n        /* \"contracts/TrainersIlde.sol\":10035:10061  msg.value - config_.feeMTR */\n      tag_374\n      swap2\n      swap1\n      tag_310\n      jump\t// in\n    tag_374:\n        /* \"contracts/TrainersIlde.sol\":10009:10061  uint256 _agregatedValue = msg.value - config_.feeMTR */\n      swap1\n      pop\n        /* \"contracts/TrainersIlde.sol\":10086:10093  config_ */\n      0x02\n        /* \"contracts/TrainersIlde.sol\":10086:10100  config_.feeMTR */\n      0x03\n      add\n      sload\n        /* \"contracts/TrainersIlde.sol\":10072:10082  takedFees_ */\n      0x0f\n      0x00\n        /* \"contracts/TrainersIlde.sol\":10072:10100  takedFees_ += config_.feeMTR */\n      dup3\n      dup3\n      sload\n      tag_375\n      swap2\n      swap1\n      tag_308\n      jump\t// in\n    tag_375:\n      swap3\n      pop\n      pop\n      dup2\n      swap1\n      sstore\n      pop\n        /* \"contracts/TrainersIlde.sol\":10135:10150  _agregatedValue */\n      dup1\n        /* \"contracts/TrainersIlde.sol\":10111:10122  feeBalance_ */\n      0x0d\n        /* \"contracts/TrainersIlde.sol\":10111:10131  feeBalance_[_sender] */\n      0x00\n        /* \"contracts/TrainersIlde.sol\":10123:10130  _sender */\n      dup5\n        /* \"contracts/TrainersIlde.sol\":10111:10131  feeBalance_[_sender] */\n      0xffffffffffffffffffffffffffffffffffffffff\n      and\n      0xffffffffffffffffffffffffffffffffffffffff\n      and\n      dup2\n      mstore\n      0x20\n      add\n      swap1\n      dup2\n      mstore\n      0x20\n      add\n      0x00\n      keccak256\n      0x00\n        /* \"contracts/TrainersIlde.sol\":10111:10150  feeBalance_[_sender] += _agregatedValue */\n      dup3\n      dup3\n      sload\n      tag_376\n      swap2\n      swap1\n      tag_308\n      jump\t// in\n    tag_376:\n      swap3\n      pop\n      pop\n      dup2\n      swap1\n      sstore\n      pop\n        /* \"contracts/TrainersIlde.sol\":10166:10225  InjectFeeBalance(_sender, _agregatedValue, block.timestamp) */\n      0x9e9b7e29099f2d6721d8268a517ee7ada50ae5d99eab1c668a3ba067877023fb\n        /* \"contracts/TrainersIlde.sol\":10183:10190  _sender */\n      dup3\n        /* \"contracts/TrainersIlde.sol\":10192:10207  _agregatedValue */\n      dup3\n        /* \"contracts/TrainersIlde.sol\":10209:10224  block.timestamp */\n      timestamp\n        /* \"contracts/TrainersIlde.sol\":10166:10225  InjectFeeBalance(_sender, _agregatedValue, block.timestamp) */\n      mload(0x40)\n      tag_377\n      swap4\n      swap3\n      swap2\n      swap1\n      tag_378\n      jump\t// in\n    tag_377:\n      mload(0x40)\n      dup1\n      swap2\n      sub\n      swap1\n      log1\n        /* \"contracts/TrainersIlde.sol\":9895:10233  {... */\n      pop\n      pop\n        /* \"contracts/TrainersIlde.sol\":9853:10233  function injectBalance() external payable {... */\n      jump\t// out\n        /* \"contracts/TrainersIlde.sol\":7975:8118  function setRewardsP(... */\n    tag_172:\n        /* \"@openzeppelin/contracts/access/AccessControl.sol\":2198:2202  0x00 */\n      0x00\n        /* \"contracts/TrainersIlde.sol\":8061:8079  DEFAULT_ADMIN_ROLE */\n      dup1\n      shl\n        /* \"@openzeppelin/contracts/access/AccessControl.sol\":2631:2647  _checkRole(role) */\n      tag_380\n        /* \"@openzeppelin/contracts/access/AccessControl.sol\":2642:2646  role */\n      dup2\n        /* \"@openzeppelin/contracts/access/AccessControl.sol\":2631:2641  _checkRole */\n      tag_273\n        /* \"@openzeppelin/contracts/access/AccessControl.sol\":2631:2647  _checkRole(role) */\n      jump\t// in\n    tag_380:\n        /* \"contracts/TrainersIlde.sol\":8108:8110  _p */\n      dup2\n        /* \"contracts/TrainersIlde.sol\":8092:8101  rewardsP_ */\n      0x0c\n        /* \"contracts/TrainersIlde.sol\":8092:8105  rewardsP_[_i] */\n      0x00\n        /* \"contracts/TrainersIlde.sol\":8102:8104  _i */\n      dup6\n        /* \"contracts/TrainersIlde.sol\":8092:8105  rewardsP_[_i] */\n      dup2\n      mstore\n      0x20\n      add\n      swap1\n      dup2\n      mstore\n      0x20\n      add\n      0x00\n      keccak256\n      0x00\n        /* \"contracts/TrainersIlde.sol\":8092:8110  rewardsP_[_i] = _p */\n      0x0100\n      exp\n      dup2\n      sload\n      dup2\n      0xff\n      mul\n      not\n      and\n      swap1\n      dup4\n      0xff\n      and\n      mul\n      or\n      swap1\n      sstore\n      pop\n        /* \"contracts/TrainersIlde.sol\":7975:8118  function setRewardsP(... */\n      pop\n      pop\n      pop\n      jump\t// out\n        /* \"contracts/TrainersIlde.sol\":8684:9072  function collectIDLEPoints(... */\n    tag_176:\n        /* \"contracts/TrainersIlde.sol\":2343:2364  keccak256(\"EXECUTOR\") */\n      0x9cf85f95575c3af1e116e3d37fd41e7f36a8a373623f51ffaaa87fdd032fa767\n        /* \"@openzeppelin/contracts/access/AccessControl.sol\":2631:2647  _checkRole(role) */\n      tag_383\n        /* \"@openzeppelin/contracts/access/AccessControl.sol\":2642:2646  role */\n      dup2\n        /* \"@openzeppelin/contracts/access/AccessControl.sol\":2631:2641  _checkRole */\n      tag_273\n        /* \"@openzeppelin/contracts/access/AccessControl.sol\":2631:2647  _checkRole(role) */\n      jump\t// in\n    tag_383:\n        /* \"contracts/TrainersIlde.sol\":8805:8817  takeFees(_e) */\n      tag_385\n        /* \"contracts/TrainersIlde.sol\":8814:8816  _e */\n      dup4\n        /* \"contracts/TrainersIlde.sol\":8805:8813  takeFees */\n      tag_303\n        /* \"contracts/TrainersIlde.sol\":8805:8817  takeFees(_e) */\n      jump\t// in\n    tag_385:\n        /* \"contracts/TrainersIlde.sol\":8836:8854  isActive(_trainer) */\n      tag_386\n        /* \"contracts/TrainersIlde.sol\":8845:8853  _trainer */\n      dup3\n        /* \"contracts/TrainersIlde.sol\":8836:8844  isActive */\n      tag_145\n        /* \"contracts/TrainersIlde.sol\":8836:8854  isActive(_trainer) */\n      jump\t// in\n    tag_386:\n        /* \"contracts/TrainersIlde.sol\":8856:8876  ACTIVE_TRAINER_ERROR */\n      mload(0x40)\n      dup1\n      0x40\n      add\n      0x40\n      mstore\n      dup1\n      0x14\n      dup2\n      mstore\n      0x20\n      add\n      0x4143544956455f545241494e45525f4552524f52000000000000000000000000\n      dup2\n      mstore\n      pop\n        /* \"contracts/TrainersIlde.sol\":8828:8877  require(isActive(_trainer), ACTIVE_TRAINER_ERROR) */\n      swap1\n      tag_387\n      jumpi\n      mload(0x40)\n      0x08c379a000000000000000000000000000000000000000000000000000000000\n      dup2\n      mstore\n      0x04\n      add\n      tag_388\n      swap2\n      swap1\n      tag_98\n      jump\t// in\n    tag_388:\n      mload(0x40)\n      dup1\n      swap2\n      sub\n      swap1\n      revert\n    tag_387:\n      pop\n        /* \"contracts/TrainersIlde.sol\":8922:8950  unlockedIdlePoints(_trainer) */\n      tag_389\n        /* \"contracts/TrainersIlde.sol\":8941:8949  _trainer */\n      dup3\n        /* \"contracts/TrainersIlde.sol\":8922:8940  unlockedIdlePoints */\n      tag_122\n        /* \"contracts/TrainersIlde.sol\":8922:8950  unlockedIdlePoints(_trainer) */\n      jump\t// in\n    tag_389:\n        /* \"contracts/TrainersIlde.sol\":8888:8901  trainersData_ */\n      0x0a\n        /* \"contracts/TrainersIlde.sol\":8888:8911  trainersData_[_trainer] */\n      0x00\n        /* \"contracts/TrainersIlde.sol\":8902:8910  _trainer */\n      dup5\n        /* \"contracts/TrainersIlde.sol\":8888:8911  trainersData_[_trainer] */\n      dup2\n      mstore\n      0x20\n      add\n      swap1\n      dup2\n      mstore\n      0x20\n      add\n      0x00\n      keccak256\n        /* \"contracts/TrainersIlde.sol\":8888:8918  trainersData_[_trainer].points */\n      0x01\n      add\n      0x00\n        /* \"contracts/TrainersIlde.sol\":8888:8950  trainersData_[_trainer].points += unlockedIdlePoints(_trainer) */\n      dup3\n      dup3\n      sload\n      tag_390\n      swap2\n      swap1\n      tag_308\n      jump\t// in\n    tag_390:\n      swap3\n      pop\n      pop\n      dup2\n      swap1\n      sstore\n      pop\n        /* \"contracts/TrainersIlde.sol\":8992:9004  block.number */\n      number\n        /* \"contracts/TrainersIlde.sol\":8961:8979  blockStartTracker_ */\n      0x08\n        /* \"contracts/TrainersIlde.sol\":8961:8989  blockStartTracker_[_trainer] */\n      0x00\n        /* \"contracts/TrainersIlde.sol\":8980:8988  _trainer */\n      dup5\n        /* \"contracts/TrainersIlde.sol\":8961:8989  blockStartTracker_[_trainer] */\n      dup2\n      mstore\n      0x20\n      add\n      swap1\n      dup2\n      mstore\n      0x20\n      add\n      0x00\n      keccak256\n        /* \"contracts/TrainersIlde.sol\":8961:9004  blockStartTracker_[_trainer] = block.number */\n      dup2\n      swap1\n      sstore\n      pop\n        /* \"contracts/TrainersIlde.sol\":9020:9064  CollectIDLEPoints(_trainer, block.timestamp) */\n      0xc9cd65a70e4e2a217623cf87df32706764a2f447cb55b016b28e0c643e681ae2\n        /* \"contracts/TrainersIlde.sol\":9038:9046  _trainer */\n      dup3\n        /* \"contracts/TrainersIlde.sol\":9048:9063  block.timestamp */\n      timestamp\n        /* \"contracts/TrainersIlde.sol\":9020:9064  CollectIDLEPoints(_trainer, block.timestamp) */\n      mload(0x40)\n      tag_391\n      swap3\n      swap2\n      swap1\n      tag_312\n      jump\t// in\n    tag_391:\n      mload(0x40)\n      dup1\n      swap2\n      sub\n      swap1\n      log1\n        /* \"contracts/TrainersIlde.sol\":8684:9072  function collectIDLEPoints(... */\n      pop\n      pop\n      pop\n      jump\t// out\n        /* \"contracts/TrainersIlde.sol\":3550:3663  function getUserFeesBalance(address _e) external view returns (uint256) {... */\n    tag_180:\n        /* \"contracts/TrainersIlde.sol\":3613:3620  uint256 */\n      0x00\n        /* \"contracts/TrainersIlde.sol\":3640:3651  feeBalance_ */\n      0x0d\n        /* \"contracts/TrainersIlde.sol\":3640:3655  feeBalance_[_e] */\n      0x00\n        /* \"contracts/TrainersIlde.sol\":3652:3654  _e */\n      dup4\n        /* \"contracts/TrainersIlde.sol\":3640:3655  feeBalance_[_e] */\n      0xffffffffffffffffffffffffffffffffffffffff\n      and\n      0xffffffffffffffffffffffffffffffffffffffff\n      and\n      dup2\n      mstore\n      0x20\n      add\n      swap1\n      dup2\n      mstore\n      0x20\n      add\n      0x00\n      keccak256\n      sload\n        /* \"contracts/TrainersIlde.sol\":3633:3655  return feeBalance_[_e] */\n      swap1\n      pop\n        /* \"contracts/TrainersIlde.sol\":3550:3663  function getUserFeesBalance(address _e) external view returns (uint256) {... */\n      swap2\n      swap1\n      pop\n      jump\t// out\n        /* \"contracts/TrainersIlde.sol\":4748:5020  function getTrainerImprovements(... */\n    tag_185:\n        /* \"contracts/TrainersIlde.sol\":4851:4864  bool[] memory */\n      0x60\n        /* \"contracts/TrainersIlde.sol\":4877:4893  bool[] memory _i */\n      0x00\n        /* \"contracts/TrainersIlde.sol\":4907:4910  _to */\n      dup4\n        /* \"contracts/TrainersIlde.sol\":4896:4911  new bool[](_to) */\n      0xffffffffffffffff\n      dup2\n      gt\n      iszero\n      tag_394\n      jumpi\n      tag_395\n      tag_360\n      jump\t// in\n    tag_395:\n    tag_394:\n      mload(0x40)\n      swap1\n      dup1\n      dup3\n      mstore\n      dup1\n      0x20\n      mul\n      0x20\n      add\n      dup3\n      add\n      0x40\n      mstore\n      dup1\n      iszero\n      tag_396\n      jumpi\n      dup2\n      0x20\n      add\n      0x20\n      dup3\n      mul\n      dup1\n      calldatasize\n      dup4\n      calldatacopy\n      dup1\n      dup3\n      add\n      swap2\n      pop\n      pop\n      swap1\n      pop\n    tag_396:\n      pop\n        /* \"contracts/TrainersIlde.sol\":4877:4911  bool[] memory _i = new bool[](_to) */\n      swap1\n      pop\n        /* \"contracts/TrainersIlde.sol\":4927:4936  uint256 i */\n      0x00\n        /* \"contracts/TrainersIlde.sol\":4922:4992  for (uint256 i = 0; i < _to; i++) _i[i] = bTrainerImprovements_[_t][i] */\n    tag_397:\n        /* \"contracts/TrainersIlde.sol\":4946:4949  _to */\n      dup5\n        /* \"contracts/TrainersIlde.sol\":4942:4943  i */\n      dup2\n        /* \"contracts/TrainersIlde.sol\":4942:4949  i < _to */\n      lt\n        /* \"contracts/TrainersIlde.sol\":4922:4992  for (uint256 i = 0; i < _to; i++) _i[i] = bTrainerImprovements_[_t][i] */\n      iszero\n      tag_398\n      jumpi\n        /* \"contracts/TrainersIlde.sol\":4964:4985  bTrainerImprovements_ */\n      0x0b\n        /* \"contracts/TrainersIlde.sol\":4964:4989  bTrainerImprovements_[_t] */\n      0x00\n        /* \"contracts/TrainersIlde.sol\":4986:4988  _t */\n      dup6\n        /* \"contracts/TrainersIlde.sol\":4964:4989  bTrainerImprovements_[_t] */\n      dup2\n      mstore\n      0x20\n      add\n      swap1\n      dup2\n      mstore\n      0x20\n      add\n      0x00\n      keccak256\n        /* \"contracts/TrainersIlde.sol\":4964:4992  bTrainerImprovements_[_t][i] */\n      0x00\n        /* \"contracts/TrainersIlde.sol\":4990:4991  i */\n      dup3\n        /* \"contracts/TrainersIlde.sol\":4964:4992  bTrainerImprovements_[_t][i] */\n      dup2\n      mstore\n      0x20\n      add\n      swap1\n      dup2\n      mstore\n      0x20\n      add\n      0x00\n      keccak256\n      0x00\n      swap1\n      sload\n      swap1\n      0x0100\n      exp\n      swap1\n      div\n      0xff\n      and\n        /* \"contracts/TrainersIlde.sol\":4956:4958  _i */\n      dup3\n        /* \"contracts/TrainersIlde.sol\":4959:4960  i */\n      dup3\n        /* \"contracts/TrainersIlde.sol\":4956:4961  _i[i] */\n      dup2\n      mload\n      dup2\n      lt\n      tag_400\n      jumpi\n      tag_401\n      tag_367\n      jump\t// in\n    tag_401:\n    tag_400:\n      0x20\n      mul\n      0x20\n      add\n      add\n        /* \"contracts/TrainersIlde.sol\":4956:4992  _i[i] = bTrainerImprovements_[_t][i] */\n      swap1\n      iszero\n      iszero\n      swap1\n      dup2\n      iszero\n      iszero\n      dup2\n      mstore\n      pop\n      pop\n        /* \"contracts/TrainersIlde.sol\":4951:4954  i++ */\n      dup1\n      dup1\n      tag_402\n      swap1\n      tag_369\n      jump\t// in\n    tag_402:\n      swap2\n      pop\n      pop\n        /* \"contracts/TrainersIlde.sol\":4922:4992  for (uint256 i = 0; i < _to; i++) _i[i] = bTrainerImprovements_[_t][i] */\n      jump(tag_397)\n    tag_398:\n      pop\n        /* \"contracts/TrainersIlde.sol\":5010:5012  _i */\n      dup1\n        /* \"contracts/TrainersIlde.sol\":5003:5012  return _i */\n      swap2\n      pop\n      pop\n        /* \"contracts/TrainersIlde.sol\":4748:5020  function getTrainerImprovements(... */\n      swap3\n      swap2\n      pop\n      pop\n      jump\t// out\n        /* \"contracts/TrainersIlde.sol\":1623:1673  string public constant OWNER_ERROR = \"OWNER_ERROR\" */\n    tag_190:\n      mload(0x40)\n      dup1\n      0x40\n      add\n      0x40\n      mstore\n      dup1\n      0x0b\n      dup2\n      mstore\n      0x20\n      add\n      0x4f574e45525f4552524f52000000000000000000000000000000000000000000\n      dup2\n      mstore\n      pop\n      dup2\n      jump\t// out\n        /* \"@openzeppelin/contracts/access/AccessControl.sol\":2153:2202  bytes32 public constant DEFAULT_ADMIN_ROLE = 0x00 */\n    tag_194:\n        /* \"@openzeppelin/contracts/access/AccessControl.sol\":2198:2202  0x00 */\n      0x00\n        /* \"@openzeppelin/contracts/access/AccessControl.sol\":2153:2202  bytes32 public constant DEFAULT_ADMIN_ROLE = 0x00 */\n      dup1\n      shl\n      dup2\n      jump\t// out\n        /* \"contracts/TrainersIlde.sol\":3671:3763  function getTakedFees() external view returns (uint256) {... */\n    tag_198:\n        /* \"contracts/TrainersIlde.sol\":3718:3725  uint256 */\n      0x00\n        /* \"contracts/TrainersIlde.sol\":3745:3755  takedFees_ */\n      sload(0x0f)\n        /* \"contracts/TrainersIlde.sol\":3738:3755  return takedFees_ */\n      swap1\n      pop\n        /* \"contracts/TrainersIlde.sol\":3671:3763  function getTakedFees() external view returns (uint256) {... */\n      swap1\n      jump\t// out\n        /* \"contracts/TrainersIlde.sol\":1755:1805  string public constant CANT_GET_IT = \"CANT_GET_IT\" */\n    tag_202:\n      mload(0x40)\n      dup1\n      0x40\n      add\n      0x40\n      mstore\n      dup1\n      0x0b\n      dup2\n      mstore\n      0x20\n      add\n      0x43414e545f4745545f4954000000000000000000000000000000000000000000\n      dup2\n      mstore\n      pop\n      dup2\n      jump\t// out\n        /* \"contracts/TrainersIlde.sol\":4478:4740  function getTrainersImprovements(... */\n    tag_207:\n        /* \"contracts/TrainersIlde.sol\":4561:4581  Improvement[] memory */\n      0x60\n        /* \"contracts/TrainersIlde.sol\":4594:4617  Improvement[] memory _i */\n      0x00\n        /* \"contracts/TrainersIlde.sol\":4638:4641  _to */\n      dup3\n        /* \"contracts/TrainersIlde.sol\":4620:4642  new Improvement[](_to) */\n      0xffffffffffffffff\n      dup2\n      gt\n      iszero\n      tag_405\n      jumpi\n      tag_406\n      tag_360\n      jump\t// in\n    tag_406:\n    tag_405:\n      mload(0x40)\n      swap1\n      dup1\n      dup3\n      mstore\n      dup1\n      0x20\n      mul\n      0x20\n      add\n      dup3\n      add\n      0x40\n      mstore\n      dup1\n      iszero\n      tag_407\n      jumpi\n      dup2\n      0x20\n      add\n    tag_408:\n      tag_409\n      tag_410\n      jump\t// in\n    tag_409:\n      dup2\n      mstore\n      0x20\n      add\n      swap1\n      0x01\n      swap1\n      sub\n      swap1\n      dup2\n      tag_408\n      jumpi\n      swap1\n      pop\n    tag_407:\n      pop\n        /* \"contracts/TrainersIlde.sol\":4594:4642  Improvement[] memory _i = new Improvement[](_to) */\n      swap1\n      pop\n        /* \"contracts/TrainersIlde.sol\":4658:4667  uint256 i */\n      0x00\n        /* \"contracts/TrainersIlde.sol\":4653:4712  for (uint256 i = 0; i < _to; i++) _i[i] = tImprovements_[i] */\n    tag_411:\n        /* \"contracts/TrainersIlde.sol\":4677:4680  _to */\n      dup4\n        /* \"contracts/TrainersIlde.sol\":4673:4674  i */\n      dup2\n        /* \"contracts/TrainersIlde.sol\":4673:4680  i < _to */\n      lt\n        /* \"contracts/TrainersIlde.sol\":4653:4712  for (uint256 i = 0; i < _to; i++) _i[i] = tImprovements_[i] */\n      iszero\n      tag_412\n      jumpi\n        /* \"contracts/TrainersIlde.sol\":4695:4709  tImprovements_ */\n      0x09\n        /* \"contracts/TrainersIlde.sol\":4695:4712  tImprovements_[i] */\n      0x00\n        /* \"contracts/TrainersIlde.sol\":4710:4711  i */\n      dup3\n        /* \"contracts/TrainersIlde.sol\":4695:4712  tImprovements_[i] */\n      dup2\n      mstore\n      0x20\n      add\n      swap1\n      dup2\n      mstore\n      0x20\n      add\n      0x00\n      keccak256\n        /* \"contracts/TrainersIlde.sol\":4687:4712  _i[i] = tImprovements_[i] */\n      mload(0x40)\n      dup1\n      0x40\n      add\n      0x40\n      mstore\n      swap1\n      dup2\n      0x00\n      dup3\n      add\n      sload\n      dup2\n      mstore\n      0x20\n      add\n      0x01\n      dup3\n      add\n      sload\n      dup2\n      mstore\n      pop\n      pop\n        /* \"contracts/TrainersIlde.sol\":4687:4689  _i */\n      dup3\n        /* \"contracts/TrainersIlde.sol\":4690:4691  i */\n      dup3\n        /* \"contracts/TrainersIlde.sol\":4687:4692  _i[i] */\n      dup2\n      mload\n      dup2\n      lt\n      tag_414\n      jumpi\n      tag_415\n      tag_367\n      jump\t// in\n    tag_415:\n    tag_414:\n      0x20\n      mul\n      0x20\n      add\n      add\n        /* \"contracts/TrainersIlde.sol\":4687:4712  _i[i] = tImprovements_[i] */\n      dup2\n      swap1\n      mstore\n      pop\n        /* \"contracts/TrainersIlde.sol\":4682:4685  i++ */\n      dup1\n      dup1\n      tag_416\n      swap1\n      tag_369\n      jump\t// in\n    tag_416:\n      swap2\n      pop\n      pop\n        /* \"contracts/TrainersIlde.sol\":4653:4712  for (uint256 i = 0; i < _to; i++) _i[i] = tImprovements_[i] */\n      jump(tag_411)\n    tag_412:\n      pop\n        /* \"contracts/TrainersIlde.sol\":4730:4732  _i */\n      dup1\n        /* \"contracts/TrainersIlde.sol\":4723:4732  return _i */\n      swap2\n      pop\n      pop\n        /* \"contracts/TrainersIlde.sol\":4478:4740  function getTrainersImprovements(... */\n      swap2\n      swap1\n      pop\n      jump\t// out\n        /* \"contracts/TrainersIlde.sol\":4024:4327  function getUserRewardsValues(... */\n    tag_213:\n        /* \"contracts/TrainersIlde.sol\":4105:4121  uint256[] memory */\n      0x60\n        /* \"contracts/TrainersIlde.sol\":4134:4144  uint256 _b */\n      0x00\n        /* \"contracts/TrainersIlde.sol\":4147:4168  address(this).balance */\n      selfbalance\n        /* \"contracts/TrainersIlde.sol\":4134:4168  uint256 _b = address(this).balance */\n      swap1\n      pop\n        /* \"contracts/TrainersIlde.sol\":4179:4198  uint256[] memory _r */\n      0x00\n        /* \"contracts/TrainersIlde.sol\":4215:4219  _max */\n      dup4\n        /* \"contracts/TrainersIlde.sol\":4201:4220  new uint256[](_max) */\n      0xffffffffffffffff\n      dup2\n      gt\n      iszero\n      tag_418\n      jumpi\n      tag_419\n      tag_360\n      jump\t// in\n    tag_419:\n    tag_418:\n      mload(0x40)\n      swap1\n      dup1\n      dup3\n      mstore\n      dup1\n      0x20\n      mul\n      0x20\n      add\n      dup3\n      add\n      0x40\n      mstore\n      dup1\n      iszero\n      tag_420\n      jumpi\n      dup2\n      0x20\n      add\n      0x20\n      dup3\n      mul\n      dup1\n      calldatasize\n      dup4\n      calldatacopy\n      dup1\n      dup3\n      add\n      swap2\n      pop\n      pop\n      swap1\n      pop\n    tag_420:\n      pop\n        /* \"contracts/TrainersIlde.sol\":4179:4220  uint256[] memory _r = new uint256[](_max) */\n      swap1\n      pop\n        /* \"contracts/TrainersIlde.sol\":4236:4245  uint256 i */\n      0x00\n        /* \"contracts/TrainersIlde.sol\":4231:4299  for (uint256 i = 0; i < _max; i++) _r[i] = (rewardsP_[i] * _b) / 100 */\n    tag_421:\n        /* \"contracts/TrainersIlde.sol\":4255:4259  _max */\n      dup5\n        /* \"contracts/TrainersIlde.sol\":4251:4252  i */\n      dup2\n        /* \"contracts/TrainersIlde.sol\":4251:4259  i < _max */\n      lt\n        /* \"contracts/TrainersIlde.sol\":4231:4299  for (uint256 i = 0; i < _max; i++) _r[i] = (rewardsP_[i] * _b) / 100 */\n      iszero\n      tag_422\n      jumpi\n        /* \"contracts/TrainersIlde.sol\":4296:4299  100 */\n      0x64\n        /* \"contracts/TrainersIlde.sol\":4290:4292  _b */\n      dup4\n        /* \"contracts/TrainersIlde.sol\":4275:4284  rewardsP_ */\n      0x0c\n        /* \"contracts/TrainersIlde.sol\":4275:4287  rewardsP_[i] */\n      0x00\n        /* \"contracts/TrainersIlde.sol\":4285:4286  i */\n      dup5\n        /* \"contracts/TrainersIlde.sol\":4275:4287  rewardsP_[i] */\n      dup2\n      mstore\n      0x20\n      add\n      swap1\n      dup2\n      mstore\n      0x20\n      add\n      0x00\n      keccak256\n      0x00\n      swap1\n      sload\n      swap1\n      0x0100\n      exp\n      swap1\n      div\n      0xff\n      and\n        /* \"contracts/TrainersIlde.sol\":4275:4292  rewardsP_[i] * _b */\n      0xff\n      and\n      tag_424\n      swap2\n      swap1\n      tag_317\n      jump\t// in\n    tag_424:\n        /* \"contracts/TrainersIlde.sol\":4274:4299  (rewardsP_[i] * _b) / 100 */\n      tag_425\n      swap2\n      swap1\n      tag_426\n      jump\t// in\n    tag_425:\n        /* \"contracts/TrainersIlde.sol\":4266:4268  _r */\n      dup3\n        /* \"contracts/TrainersIlde.sol\":4269:4270  i */\n      dup3\n        /* \"contracts/TrainersIlde.sol\":4266:4271  _r[i] */\n      dup2\n      mload\n      dup2\n      lt\n      tag_427\n      jumpi\n      tag_428\n      tag_367\n      jump\t// in\n    tag_428:\n    tag_427:\n      0x20\n      mul\n      0x20\n      add\n      add\n        /* \"contracts/TrainersIlde.sol\":4266:4299  _r[i] = (rewardsP_[i] * _b) / 100 */\n      dup2\n      dup2\n      mstore\n      pop\n      pop\n        /* \"contracts/TrainersIlde.sol\":4261:4264  i++ */\n      dup1\n      dup1\n      tag_429\n      swap1\n      tag_369\n      jump\t// in\n    tag_429:\n      swap2\n      pop\n      pop\n        /* \"contracts/TrainersIlde.sol\":4231:4299  for (uint256 i = 0; i < _max; i++) _r[i] = (rewardsP_[i] * _b) / 100 */\n      jump(tag_421)\n    tag_422:\n      pop\n        /* \"contracts/TrainersIlde.sol\":4317:4319  _r */\n      dup1\n        /* \"contracts/TrainersIlde.sol\":4310:4319  return _r */\n      swap3\n      pop\n      pop\n      pop\n        /* \"contracts/TrainersIlde.sol\":4024:4327  function getUserRewardsValues(... */\n      swap2\n      swap1\n      pop\n      jump\t// out\n        /* \"contracts/TrainersIlde.sol\":6812:7013  function canGetItTrainerImprovement(... */\n    tag_219:\n        /* \"contracts/TrainersIlde.sol\":6918:6922  bool */\n      0x00\n        /* \"contracts/TrainersIlde.sol\":6943:6972  trainerHadImprovement(_t, _i) */\n      tag_431\n        /* \"contracts/TrainersIlde.sol\":6965:6967  _t */\n      dup4\n        /* \"contracts/TrainersIlde.sol\":6969:6971  _i */\n      dup4\n        /* \"contracts/TrainersIlde.sol\":6943:6964  trainerHadImprovement */\n      tag_79\n        /* \"contracts/TrainersIlde.sol\":6943:6972  trainerHadImprovement(_t, _i) */\n      jump\t// in\n    tag_431:\n        /* \"contracts/TrainersIlde.sol\":6942:6972  !trainerHadImprovement(_t, _i) */\n      iszero\n        /* \"contracts/TrainersIlde.sol\":6942:7005  !trainerHadImprovement(_t, _i) && hasEnoughtForTrainerI(_t, _i) */\n      dup1\n      iszero\n      tag_432\n      jumpi\n      pop\n        /* \"contracts/TrainersIlde.sol\":6976:7005  hasEnoughtForTrainerI(_t, _i) */\n      tag_433\n        /* \"contracts/TrainersIlde.sol\":6998:7000  _t */\n      dup4\n        /* \"contracts/TrainersIlde.sol\":7002:7004  _i */\n      dup4\n        /* \"contracts/TrainersIlde.sol\":6976:6997  hasEnoughtForTrainerI */\n      tag_74\n        /* \"contracts/TrainersIlde.sol\":6976:7005  hasEnoughtForTrainerI(_t, _i) */\n      jump\t// in\n    tag_433:\n        /* \"contracts/TrainersIlde.sol\":6942:7005  !trainerHadImprovement(_t, _i) && hasEnoughtForTrainerI(_t, _i) */\n    tag_432:\n        /* \"contracts/TrainersIlde.sol\":6935:7005  return !trainerHadImprovement(_t, _i) && hasEnoughtForTrainerI(_t, _i) */\n      swap1\n      pop\n        /* \"contracts/TrainersIlde.sol\":6812:7013  function canGetItTrainerImprovement(... */\n      swap3\n      swap2\n      pop\n      pop\n      jump\t// out\n        /* \"contracts/TrainersIlde.sol\":7481:7594  function setPPerBlock(uint256 _v) external onlyRole(DEFAULT_ADMIN_ROLE) {... */\n    tag_224:\n        /* \"@openzeppelin/contracts/access/AccessControl.sol\":2198:2202  0x00 */\n      0x00\n        /* \"contracts/TrainersIlde.sol\":7533:7551  DEFAULT_ADMIN_ROLE */\n      dup1\n      shl\n        /* \"@openzeppelin/contracts/access/AccessControl.sol\":2631:2647  _checkRole(role) */\n      tag_435\n        /* \"@openzeppelin/contracts/access/AccessControl.sol\":2642:2646  role */\n      dup2\n        /* \"@openzeppelin/contracts/access/AccessControl.sol\":2631:2641  _checkRole */\n      tag_273\n        /* \"@openzeppelin/contracts/access/AccessControl.sol\":2631:2647  _checkRole(role) */\n      jump\t// in\n    tag_435:\n        /* \"contracts/TrainersIlde.sol\":7584:7586  _v */\n      dup2\n        /* \"contracts/TrainersIlde.sol\":7564:7571  config_ */\n      0x02\n        /* \"contracts/TrainersIlde.sol\":7564:7581  config_.pPerBlock */\n      0x01\n      add\n        /* \"contracts/TrainersIlde.sol\":7564:7586  config_.pPerBlock = _v */\n      dup2\n      swap1\n      sstore\n      pop\n        /* \"contracts/TrainersIlde.sol\":7481:7594  function setPPerBlock(uint256 _v) external onlyRole(DEFAULT_ADMIN_ROLE) {... */\n      pop\n      pop\n      jump\t// out\n        /* \"contracts/TrainersIlde.sol\":2730:3542  function getContractData(... */\n    tag_228:\n        /* \"contracts/TrainersIlde.sol\":2832:2851  ContractData memory */\n      tag_437\n      tag_438\n      jump\t// in\n    tag_437:\n        /* \"contracts/TrainersIlde.sol\":2884:3534  ContractData(... */\n      mload(0x40)\n      dup1\n      0x01c0\n      add\n      0x40\n      mstore\n      dup1\n        /* \"contracts/TrainersIlde.sol\":2915:2933  isActive(_trainer) */\n      tag_440\n        /* \"contracts/TrainersIlde.sol\":2924:2932  _trainer */\n      dup5\n        /* \"contracts/TrainersIlde.sol\":2915:2923  isActive */\n      tag_145\n        /* \"contracts/TrainersIlde.sol\":2915:2933  isActive(_trainer) */\n      jump\t// in\n    tag_440:\n        /* \"contracts/TrainersIlde.sol\":2884:3534  ContractData(... */\n      iszero\n      iszero\n      dup2\n      mstore\n      0x20\n      add\n        /* \"contracts/TrainersIlde.sol\":2952:2970  blockStartTracker_ */\n      0x08\n        /* \"contracts/TrainersIlde.sol\":2952:2980  blockStartTracker_[_trainer] */\n      0x00\n        /* \"contracts/TrainersIlde.sol\":2971:2979  _trainer */\n      dup6\n        /* \"contracts/TrainersIlde.sol\":2952:2980  blockStartTracker_[_trainer] */\n      dup2\n      mstore\n      0x20\n      add\n      swap1\n      dup2\n      mstore\n      0x20\n      add\n      0x00\n      keccak256\n      sload\n        /* \"contracts/TrainersIlde.sol\":2884:3534  ContractData(... */\n      dup2\n      mstore\n      0x20\n      add\n        /* \"contracts/TrainersIlde.sol\":2999:3011  block.number */\n      number\n        /* \"contracts/TrainersIlde.sol\":2884:3534  ContractData(... */\n      dup2\n      mstore\n      0x20\n      add\n        /* \"contracts/TrainersIlde.sol\":3030:3041  feeBalance_ */\n      0x0d\n        /* \"contracts/TrainersIlde.sol\":3030:3070  feeBalance_[trainers_.ownerOf(_trainer)] */\n      0x00\n        /* \"contracts/TrainersIlde.sol\":3042:3051  trainers_ */\n      0x01\n      0x00\n      swap1\n      sload\n      swap1\n      0x0100\n      exp\n      swap1\n      div\n      0xffffffffffffffffffffffffffffffffffffffff\n      and\n        /* \"contracts/TrainersIlde.sol\":3042:3059  trainers_.ownerOf */\n      0xffffffffffffffffffffffffffffffffffffffff\n      and\n      0x6352211e\n        /* \"contracts/TrainersIlde.sol\":3060:3068  _trainer */\n      dup8\n        /* \"contracts/TrainersIlde.sol\":3042:3069  trainers_.ownerOf(_trainer) */\n      mload(0x40)\n      dup3\n      0xffffffff\n      and\n      0xe0\n      shl\n      dup2\n      mstore\n      0x04\n      add\n      tag_441\n      swap2\n      swap1\n      tag_118\n      jump\t// in\n    tag_441:\n      0x20\n      mload(0x40)\n      dup1\n      dup4\n      sub\n      dup2\n      dup7\n      gas\n      staticcall\n      iszero\n      dup1\n      iszero\n      tag_443\n      jumpi\n      returndatasize\n      0x00\n      dup1\n      returndatacopy\n      revert(0x00, returndatasize)\n    tag_443:\n      pop\n      pop\n      pop\n      pop\n      mload(0x40)\n      returndatasize\n      not(0x1f)\n      0x1f\n      dup3\n      add\n      and\n      dup3\n      add\n      dup1\n      0x40\n      mstore\n      pop\n      dup2\n      add\n      swap1\n      tag_444\n      swap2\n      swap1\n      tag_331\n      jump\t// in\n    tag_444:\n        /* \"contracts/TrainersIlde.sol\":3030:3070  feeBalance_[trainers_.ownerOf(_trainer)] */\n      0xffffffffffffffffffffffffffffffffffffffff\n      and\n      0xffffffffffffffffffffffffffffffffffffffff\n      and\n      dup2\n      mstore\n      0x20\n      add\n      swap1\n      dup2\n      mstore\n      0x20\n      add\n      0x00\n      keccak256\n      sload\n        /* \"contracts/TrainersIlde.sol\":2884:3534  ContractData(... */\n      dup2\n      mstore\n      0x20\n      add\n        /* \"contracts/TrainersIlde.sol\":3089:3099  takedFees_ */\n      sload(0x0f)\n        /* \"contracts/TrainersIlde.sol\":2884:3534  ContractData(... */\n      dup2\n      mstore\n      0x20\n      add\n        /* \"contracts/TrainersIlde.sol\":3118:3130  gameRewards_ */\n      sload(0x0e)\n        /* \"contracts/TrainersIlde.sol\":2884:3534  ContractData(... */\n      dup2\n      mstore\n      0x20\n      add\n        /* \"contracts/TrainersIlde.sol\":3149:3177  unlockedIdlePoints(_trainer) */\n      tag_445\n        /* \"contracts/TrainersIlde.sol\":3168:3176  _trainer */\n      dup5\n        /* \"contracts/TrainersIlde.sol\":3149:3167  unlockedIdlePoints */\n      tag_122\n        /* \"contracts/TrainersIlde.sol\":3149:3177  unlockedIdlePoints(_trainer) */\n      jump\t// in\n    tag_445:\n        /* \"contracts/TrainersIlde.sol\":2884:3534  ContractData(... */\n      dup2\n      mstore\n      0x20\n      add\n        /* \"contracts/TrainersIlde.sol\":3196:3223  transactionPoints(_trainer) */\n      tag_446\n        /* \"contracts/TrainersIlde.sol\":3214:3222  _trainer */\n      dup5\n        /* \"contracts/TrainersIlde.sol\":3196:3213  transactionPoints */\n      tag_140\n        /* \"contracts/TrainersIlde.sol\":3196:3223  transactionPoints(_trainer) */\n      jump\t// in\n    tag_446:\n        /* \"contracts/TrainersIlde.sol\":2884:3534  ContractData(... */\n      dup2\n      mstore\n      0x20\n      add\n        /* \"contracts/TrainersIlde.sol\":3242:3266  getTrainerData(_trainer) */\n      tag_447\n        /* \"contracts/TrainersIlde.sol\":3257:3265  _trainer */\n      dup5\n        /* \"contracts/TrainersIlde.sol\":3242:3256  getTrainerData */\n      tag_91\n        /* \"contracts/TrainersIlde.sol\":3242:3266  getTrainerData(_trainer) */\n      jump\t// in\n    tag_447:\n        /* \"contracts/TrainersIlde.sol\":2884:3534  ContractData(... */\n      dup2\n      mstore\n      0x20\n      add\n        /* \"contracts/TrainersIlde.sol\":3285:3292  config_ */\n      0x02\n        /* \"contracts/TrainersIlde.sol\":2884:3534  ContractData(... */\n      mload(0x40)\n      dup1\n      0xc0\n      add\n      0x40\n      mstore\n      swap1\n      dup2\n      0x00\n      dup3\n      add\n      0x00\n      swap1\n      sload\n      swap1\n      0x0100\n      exp\n      swap1\n      div\n      0xff\n      and\n      0xff\n      and\n      0xff\n      and\n      dup2\n      mstore\n      0x20\n      add\n      0x01\n      dup3\n      add\n      sload\n      dup2\n      mstore\n      0x20\n      add\n      0x02\n      dup3\n      add\n      sload\n      dup2\n      mstore\n      0x20\n      add\n      0x03\n      dup3\n      add\n      sload\n      dup2\n      mstore\n      0x20\n      add\n      0x04\n      dup3\n      add\n      sload\n      dup2\n      mstore\n      0x20\n      add\n      0x05\n      dup3\n      add\n      sload\n      dup2\n      mstore\n      pop\n      pop\n      dup2\n      mstore\n      0x20\n      add\n        /* \"contracts/TrainersIlde.sol\":3311:3339  getTrainersImprovements(_to) */\n      tag_448\n        /* \"contracts/TrainersIlde.sol\":3335:3338  _to */\n      dup6\n        /* \"contracts/TrainersIlde.sol\":3311:3334  getTrainersImprovements */\n      tag_207\n        /* \"contracts/TrainersIlde.sol\":3311:3339  getTrainersImprovements(_to) */\n      jump\t// in\n    tag_448:\n        /* \"contracts/TrainersIlde.sol\":2884:3534  ContractData(... */\n      dup2\n      mstore\n      0x20\n      add\n        /* \"contracts/TrainersIlde.sol\":3358:3395  getTrainerImprovements(_to, _trainer) */\n      tag_449\n        /* \"contracts/TrainersIlde.sol\":3381:3384  _to */\n      dup6\n        /* \"contracts/TrainersIlde.sol\":3386:3394  _trainer */\n      dup6\n        /* \"contracts/TrainersIlde.sol\":3358:3380  getTrainerImprovements */\n      tag_185\n        /* \"contracts/TrainersIlde.sol\":3358:3395  getTrainerImprovements(_to, _trainer) */\n      jump\t// in\n    tag_449:\n        /* \"contracts/TrainersIlde.sol\":2884:3534  ContractData(... */\n      dup2\n      mstore\n      0x20\n      add\n        /* \"contracts/TrainersIlde.sol\":3414:3460  getUsersRewardsPercentages(config_.maxWinners) */\n      tag_450\n        /* \"contracts/TrainersIlde.sol\":3441:3448  config_ */\n      0x02\n        /* \"contracts/TrainersIlde.sol\":3441:3459  config_.maxWinners */\n      0x05\n      add\n      sload\n        /* \"contracts/TrainersIlde.sol\":3414:3440  getUsersRewardsPercentages */\n      tag_163\n        /* \"contracts/TrainersIlde.sol\":3414:3460  getUsersRewardsPercentages(config_.maxWinners) */\n      jump\t// in\n    tag_450:\n        /* \"contracts/TrainersIlde.sol\":2884:3534  ContractData(... */\n      dup2\n      mstore\n      0x20\n      add\n        /* \"contracts/TrainersIlde.sol\":3479:3519  getUserRewardsValues(config_.maxWinners) */\n      tag_451\n        /* \"contracts/TrainersIlde.sol\":3500:3507  config_ */\n      0x02\n        /* \"contracts/TrainersIlde.sol\":3500:3518  config_.maxWinners */\n      0x05\n      add\n      sload\n        /* \"contracts/TrainersIlde.sol\":3479:3499  getUserRewardsValues */\n      tag_213\n        /* \"contracts/TrainersIlde.sol\":3479:3519  getUserRewardsValues(config_.maxWinners) */\n      jump\t// in\n    tag_451:\n        /* \"contracts/TrainersIlde.sol\":2884:3534  ContractData(... */\n      dup2\n      mstore\n      pop\n        /* \"contracts/TrainersIlde.sol\":2864:3534  return... */\n      swap1\n      pop\n        /* \"contracts/TrainersIlde.sol\":2730:3542  function getContractData(... */\n      swap3\n      swap2\n      pop\n      pop\n      jump\t// out\n        /* \"contracts/TrainersIlde.sol\":5625:5762  function idleBlocks(uint256 _trainer) public view returns (uint256) {... */\n    tag_234:\n        /* \"contracts/TrainersIlde.sol\":5684:5691  uint256 */\n      0x00\n        /* \"contracts/TrainersIlde.sol\":5726:5744  blockStartTracker_ */\n      0x08\n        /* \"contracts/TrainersIlde.sol\":5726:5754  blockStartTracker_[_trainer] */\n      0x00\n        /* \"contracts/TrainersIlde.sol\":5745:5753  _trainer */\n      dup4\n        /* \"contracts/TrainersIlde.sol\":5726:5754  blockStartTracker_[_trainer] */\n      dup2\n      mstore\n      0x20\n      add\n      swap1\n      dup2\n      mstore\n      0x20\n      add\n      0x00\n      keccak256\n      sload\n        /* \"contracts/TrainersIlde.sol\":5711:5723  block.number */\n      number\n        /* \"contracts/TrainersIlde.sol\":5711:5754  block.number - blockStartTracker_[_trainer] */\n      tag_453\n      swap2\n      swap1\n      tag_310\n      jump\t// in\n    tag_453:\n        /* \"contracts/TrainersIlde.sol\":5704:5754  return block.number - blockStartTracker_[_trainer] */\n      swap1\n      pop\n        /* \"contracts/TrainersIlde.sol\":5625:5762  function idleBlocks(uint256 _trainer) public view returns (uint256) {... */\n      swap2\n      swap1\n      pop\n      jump\t// out\n        /* \"contracts/TrainersIlde.sol\":7723:7838  function setMaxWinners(uint256 _i) external onlyRole(DEFAULT_ADMIN_ROLE) {... */\n    tag_239:\n        /* \"@openzeppelin/contracts/access/AccessControl.sol\":2198:2202  0x00 */\n      0x00\n        /* \"contracts/TrainersIlde.sol\":7776:7794  DEFAULT_ADMIN_ROLE */\n      dup1\n      shl\n        /* \"@openzeppelin/contracts/access/AccessControl.sol\":2631:2647  _checkRole(role) */\n      tag_455\n        /* \"@openzeppelin/contracts/access/AccessControl.sol\":2642:2646  role */\n      dup2\n        /* \"@openzeppelin/contracts/access/AccessControl.sol\":2631:2641  _checkRole */\n      tag_273\n        /* \"@openzeppelin/contracts/access/AccessControl.sol\":2631:2647  _checkRole(role) */\n      jump\t// in\n    tag_455:\n        /* \"contracts/TrainersIlde.sol\":7828:7830  _i */\n      dup2\n        /* \"contracts/TrainersIlde.sol\":7807:7814  config_ */\n      0x02\n        /* \"contracts/TrainersIlde.sol\":7807:7825  config_.maxWinners */\n      0x05\n      add\n        /* \"contracts/TrainersIlde.sol\":7807:7830  config_.maxWinners = _i */\n      dup2\n      swap1\n      sstore\n      pop\n        /* \"contracts/TrainersIlde.sol\":7723:7838  function setMaxWinners(uint256 _i) external onlyRole(DEFAULT_ADMIN_ROLE) {... */\n      pop\n      pop\n      jump\t// out\n        /* \"@openzeppelin/contracts/access/AccessControl.sol\":5354:5501  function revokeRole(bytes32 role, address account) public virtual override onlyRole(getRoleAdmin(role)) {... */\n    tag_243:\n        /* \"@openzeppelin/contracts/access/AccessControl.sol\":5438:5456  getRoleAdmin(role) */\n      tag_457\n        /* \"@openzeppelin/contracts/access/AccessControl.sol\":5451:5455  role */\n      dup3\n        /* \"@openzeppelin/contracts/access/AccessControl.sol\":5438:5450  getRoleAdmin */\n      tag_85\n        /* \"@openzeppelin/contracts/access/AccessControl.sol\":5438:5456  getRoleAdmin(role) */\n      jump\t// in\n    tag_457:\n        /* \"@openzeppelin/contracts/access/AccessControl.sol\":2631:2647  _checkRole(role) */\n      tag_459\n        /* \"@openzeppelin/contracts/access/AccessControl.sol\":2642:2646  role */\n      dup2\n        /* \"@openzeppelin/contracts/access/AccessControl.sol\":2631:2641  _checkRole */\n      tag_273\n        /* \"@openzeppelin/contracts/access/AccessControl.sol\":2631:2647  _checkRole(role) */\n      jump\t// in\n    tag_459:\n        /* \"@openzeppelin/contracts/access/AccessControl.sol\":5468:5494  _revokeRole(role, account) */\n      tag_461\n        /* \"@openzeppelin/contracts/access/AccessControl.sol\":5480:5484  role */\n      dup4\n        /* \"@openzeppelin/contracts/access/AccessControl.sol\":5486:5493  account */\n      dup4\n        /* \"@openzeppelin/contracts/access/AccessControl.sol\":5468:5479  _revokeRole */\n      tag_298\n        /* \"@openzeppelin/contracts/access/AccessControl.sol\":5468:5494  _revokeRole(role, account) */\n      jump\t// in\n    tag_461:\n        /* \"@openzeppelin/contracts/access/AccessControl.sol\":5354:5501  function revokeRole(bytes32 role, address account) public virtual override onlyRole(getRoleAdmin(role)) {... */\n      pop\n      pop\n      pop\n      jump\t// out\n        /* \"contracts/TrainersIlde.sol\":7846:7967  function setPPercentage(uint8 _p) external onlyRole(DEFAULT_ADMIN_ROLE) {... */\n    tag_248:\n        /* \"@openzeppelin/contracts/access/AccessControl.sol\":2198:2202  0x00 */\n      0x00\n        /* \"contracts/TrainersIlde.sol\":7898:7916  DEFAULT_ADMIN_ROLE */\n      dup1\n      shl\n        /* \"@openzeppelin/contracts/access/AccessControl.sol\":2631:2647  _checkRole(role) */\n      tag_463\n        /* \"@openzeppelin/contracts/access/AccessControl.sol\":2642:2646  role */\n      dup2\n        /* \"@openzeppelin/contracts/access/AccessControl.sol\":2631:2641  _checkRole */\n      tag_273\n        /* \"@openzeppelin/contracts/access/AccessControl.sol\":2631:2647  _checkRole(role) */\n      jump\t// in\n    tag_463:\n        /* \"contracts/TrainersIlde.sol\":7957:7959  _p */\n      dup2\n        /* \"contracts/TrainersIlde.sol\":7929:7936  config_ */\n      0x02\n        /* \"contracts/TrainersIlde.sol\":7929:7954  config_.projectPercentage */\n      0x00\n      add\n      0x00\n        /* \"contracts/TrainersIlde.sol\":7929:7959  config_.projectPercentage = _p */\n      0x0100\n      exp\n      dup2\n      sload\n      dup2\n      0xff\n      mul\n      not\n      and\n      swap1\n      dup4\n      0xff\n      and\n      mul\n      or\n      swap1\n      sstore\n      pop\n        /* \"contracts/TrainersIlde.sol\":7846:7967  function setPPercentage(uint8 _p) external onlyRole(DEFAULT_ADMIN_ROLE) {... */\n      pop\n      pop\n      jump\t// out\n        /* \"contracts/TrainersIlde.sol\":1490:1514  IERC721 public trainers_ */\n    tag_251:\n      0x01\n      0x00\n      swap1\n      sload\n      swap1\n      0x0100\n      exp\n      swap1\n      div\n      0xffffffffffffffffffffffffffffffffffffffff\n      and\n      dup2\n      jump\t// out\n        /* \"contracts/TrainersIlde.sol\":7602:7715  function setPPerTrans(uint256 _v) external onlyRole(DEFAULT_ADMIN_ROLE) {... */\n    tag_257:\n        /* \"@openzeppelin/contracts/access/AccessControl.sol\":2198:2202  0x00 */\n      0x00\n        /* \"contracts/TrainersIlde.sol\":7654:7672  DEFAULT_ADMIN_ROLE */\n      dup1\n      shl\n        /* \"@openzeppelin/contracts/access/AccessControl.sol\":2631:2647  _checkRole(role) */\n      tag_466\n        /* \"@openzeppelin/contracts/access/AccessControl.sol\":2642:2646  role */\n      dup2\n        /* \"@openzeppelin/contracts/access/AccessControl.sol\":2631:2641  _checkRole */\n      tag_273\n        /* \"@openzeppelin/contracts/access/AccessControl.sol\":2631:2647  _checkRole(role) */\n      jump\t// in\n    tag_466:\n        /* \"contracts/TrainersIlde.sol\":7705:7707  _v */\n      dup2\n        /* \"contracts/TrainersIlde.sol\":7685:7692  config_ */\n      0x02\n        /* \"contracts/TrainersIlde.sol\":7685:7702  config_.pPerTrans */\n      dup1\n      add\n        /* \"contracts/TrainersIlde.sol\":7685:7707  config_.pPerTrans = _v */\n      dup2\n      swap1\n      sstore\n      pop\n        /* \"contracts/TrainersIlde.sol\":7602:7715  function setPPerTrans(uint256 _v) external onlyRole(DEFAULT_ADMIN_ROLE) {... */\n      pop\n      pop\n      jump\t// out\n        /* \"contracts/TrainersIlde.sol\":7080:7325  function setTrainerImprovementValue(... */\n    tag_262:\n        /* \"@openzeppelin/contracts/access/AccessControl.sol\":2198:2202  0x00 */\n      0x00\n        /* \"contracts/TrainersIlde.sol\":7211:7229  DEFAULT_ADMIN_ROLE */\n      dup1\n      shl\n        /* \"@openzeppelin/contracts/access/AccessControl.sol\":2631:2647  _checkRole(role) */\n      tag_469\n        /* \"@openzeppelin/contracts/access/AccessControl.sol\":2642:2646  role */\n      dup2\n        /* \"@openzeppelin/contracts/access/AccessControl.sol\":2631:2641  _checkRole */\n      tag_273\n        /* \"@openzeppelin/contracts/access/AccessControl.sol\":2631:2647  _checkRole(role) */\n      jump\t// in\n    tag_469:\n        /* \"contracts/TrainersIlde.sol\":7269:7275  _value */\n      dup3\n        /* \"contracts/TrainersIlde.sol\":7242:7256  tImprovements_ */\n      0x09\n        /* \"contracts/TrainersIlde.sol\":7242:7260  tImprovements_[_i] */\n      0x00\n        /* \"contracts/TrainersIlde.sol\":7257:7259  _i */\n      dup7\n        /* \"contracts/TrainersIlde.sol\":7242:7260  tImprovements_[_i] */\n      dup2\n      mstore\n      0x20\n      add\n      swap1\n      dup2\n      mstore\n      0x20\n      add\n      0x00\n      keccak256\n        /* \"contracts/TrainersIlde.sol\":7242:7266  tImprovements_[_i].value */\n      0x00\n      add\n        /* \"contracts/TrainersIlde.sol\":7242:7275  tImprovements_[_i].value = _value */\n      dup2\n      swap1\n      sstore\n      pop\n        /* \"contracts/TrainersIlde.sol\":7312:7317  _mult */\n      dup2\n        /* \"contracts/TrainersIlde.sol\":7286:7300  tImprovements_ */\n      0x09\n        /* \"contracts/TrainersIlde.sol\":7286:7304  tImprovements_[_i] */\n      0x00\n        /* \"contracts/TrainersIlde.sol\":7301:7303  _i */\n      dup7\n        /* \"contracts/TrainersIlde.sol\":7286:7304  tImprovements_[_i] */\n      dup2\n      mstore\n      0x20\n      add\n      swap1\n      dup2\n      mstore\n      0x20\n      add\n      0x00\n      keccak256\n        /* \"contracts/TrainersIlde.sol\":7286:7309  tImprovements_[_i].mult */\n      0x01\n      add\n        /* \"contracts/TrainersIlde.sol\":7286:7317  tImprovements_[_i].mult = _mult */\n      dup2\n      swap1\n      sstore\n      pop\n        /* \"contracts/TrainersIlde.sol\":7080:7325  function setTrainerImprovementValue(... */\n      pop\n      pop\n      pop\n      pop\n      jump\t// out\n        /* \"contracts/TrainersIlde.sol\":1680:1748  string public constant ACTIVE_TRAINER_ERROR = \"ACTIVE_TRAINER_ERROR\" */\n    tag_265:\n      mload(0x40)\n      dup1\n      0x40\n      add\n      0x40\n      mstore\n      dup1\n      0x14\n      dup2\n      mstore\n      0x20\n      add\n      0x4143544956455f545241494e45525f4552524f52000000000000000000000000\n      dup2\n      mstore\n      pop\n      dup2\n      jump\t// out\n        /* \"@openzeppelin/contracts/utils/introspection/ERC165.sol\":829:984  function supportsInterface(bytes4 interfaceId) public view virtual override returns (bool) {... */\n    tag_270:\n        /* \"@openzeppelin/contracts/utils/introspection/ERC165.sol\":914:918  bool */\n      0x00\n        /* \"@openzeppelin/contracts/utils/introspection/ERC165.sol\":952:977  type(IERC165).interfaceId */\n      0x01ffc9a700000000000000000000000000000000000000000000000000000000\n        /* \"@openzeppelin/contracts/utils/introspection/ERC165.sol\":937:977  interfaceId == type(IERC165).interfaceId */\n      not(0xffffffffffffffffffffffffffffffffffffffffffffffffffffffff)\n      and\n        /* \"@openzeppelin/contracts/utils/introspection/ERC165.sol\":937:948  interfaceId */\n      dup3\n        /* \"@openzeppelin/contracts/utils/introspection/ERC165.sol\":937:977  interfaceId == type(IERC165).interfaceId */\n      not(0xffffffffffffffffffffffffffffffffffffffffffffffffffffffff)\n      and\n      eq\n        /* \"@openzeppelin/contracts/utils/introspection/ERC165.sol\":930:977  return interfaceId == type(IERC165).interfaceId */\n      swap1\n      pop\n        /* \"@openzeppelin/contracts/utils/introspection/ERC165.sol\":829:984  function supportsInterface(bytes4 interfaceId) public view virtual override returns (bool) {... */\n      swap2\n      swap1\n      pop\n      jump\t// out\n        /* \"@openzeppelin/contracts/access/AccessControl.sol\":3460:3563  function _checkRole(bytes32 role) internal view virtual {... */\n    tag_273:\n        /* \"@openzeppelin/contracts/access/AccessControl.sol\":3526:3556  _checkRole(role, _msgSender()) */\n      tag_473\n        /* \"@openzeppelin/contracts/access/AccessControl.sol\":3537:3541  role */\n      dup2\n        /* \"@openzeppelin/contracts/access/AccessControl.sol\":3543:3555  _msgSender() */\n      tag_474\n        /* \"@openzeppelin/contracts/access/AccessControl.sol\":3543:3553  _msgSender */\n      tag_293\n        /* \"@openzeppelin/contracts/access/AccessControl.sol\":3543:3555  _msgSender() */\n      jump\t// in\n    tag_474:\n        /* \"@openzeppelin/contracts/access/AccessControl.sol\":3526:3536  _checkRole */\n      tag_475\n        /* \"@openzeppelin/contracts/access/AccessControl.sol\":3526:3556  _checkRole(role, _msgSender()) */\n      jump\t// in\n    tag_473:\n        /* \"@openzeppelin/contracts/access/AccessControl.sol\":3460:3563  function _checkRole(bytes32 role) internal view virtual {... */\n      pop\n      jump\t// out\n        /* \"@openzeppelin/contracts/access/AccessControl.sol\":7587:7820  function _grantRole(bytes32 role, address account) internal virtual {... */\n    tag_279:\n        /* \"@openzeppelin/contracts/access/AccessControl.sol\":7670:7692  hasRole(role, account) */\n      tag_477\n        /* \"@openzeppelin/contracts/access/AccessControl.sol\":7678:7682  role */\n      dup3\n        /* \"@openzeppelin/contracts/access/AccessControl.sol\":7684:7691  account */\n      dup3\n        /* \"@openzeppelin/contracts/access/AccessControl.sol\":7670:7677  hasRole */\n      tag_155\n        /* \"@openzeppelin/contracts/access/AccessControl.sol\":7670:7692  hasRole(role, account) */\n      jump\t// in\n    tag_477:\n        /* \"@openzeppelin/contracts/access/AccessControl.sol\":7665:7814  if (!hasRole(role, account)) {... */\n      tag_478\n      jumpi\n        /* \"@openzeppelin/contracts/access/AccessControl.sol\":7740:7744  true */\n      0x01\n        /* \"@openzeppelin/contracts/access/AccessControl.sol\":7708:7714  _roles */\n      0x00\n        /* \"@openzeppelin/contracts/access/AccessControl.sol\":7708:7720  _roles[role] */\n      dup1\n        /* \"@openzeppelin/contracts/access/AccessControl.sol\":7715:7719  role */\n      dup5\n        /* \"@openzeppelin/contracts/access/AccessControl.sol\":7708:7720  _roles[role] */\n      dup2\n      mstore\n      0x20\n      add\n      swap1\n      dup2\n      mstore\n      0x20\n      add\n      0x00\n      keccak256\n        /* \"@openzeppelin/contracts/access/AccessControl.sol\":7708:7728  _roles[role].members */\n      0x00\n      add\n        /* \"@openzeppelin/contracts/access/AccessControl.sol\":7708:7737  _roles[role].members[account] */\n      0x00\n        /* \"@openzeppelin/contracts/access/AccessControl.sol\":7729:7736  account */\n      dup4\n        /* \"@openzeppelin/contracts/access/AccessControl.sol\":7708:7737  _roles[role].members[account] */\n      0xffffffffffffffffffffffffffffffffffffffff\n      and\n      0xffffffffffffffffffffffffffffffffffffffff\n      and\n      dup2\n      mstore\n      0x20\n      add\n      swap1\n      dup2\n      mstore\n      0x20\n      add\n      0x00\n      keccak256\n      0x00\n        /* \"@openzeppelin/contracts/access/AccessControl.sol\":7708:7744  _roles[role].members[account] = true */\n      0x0100\n      exp\n      dup2\n      sload\n      dup2\n      0xff\n      mul\n      not\n      and\n      swap1\n      dup4\n      iszero\n      iszero\n      mul\n      or\n      swap1\n      sstore\n      pop\n        /* \"@openzeppelin/contracts/access/AccessControl.sol\":7790:7802  _msgSender() */\n      tag_479\n        /* \"@openzeppelin/contracts/access/AccessControl.sol\":7790:7800  _msgSender */\n      tag_293\n        /* \"@openzeppelin/contracts/access/AccessControl.sol\":7790:7802  _msgSender() */\n      jump\t// in\n    tag_479:\n        /* \"@openzeppelin/contracts/access/AccessControl.sol\":7763:7803  RoleGranted(role, account, _msgSender()) */\n      0xffffffffffffffffffffffffffffffffffffffff\n      and\n        /* \"@openzeppelin/contracts/access/AccessControl.sol\":7781:7788  account */\n      dup2\n        /* \"@openzeppelin/contracts/access/AccessControl.sol\":7763:7803  RoleGranted(role, account, _msgSender()) */\n      0xffffffffffffffffffffffffffffffffffffffff\n      and\n        /* \"@openzeppelin/contracts/access/AccessControl.sol\":7775:7779  role */\n      dup4\n        /* \"@openzeppelin/contracts/access/AccessControl.sol\":7763:7803  RoleGranted(role, account, _msgSender()) */\n      0x2f8788117e7eff1d82e926ec794901d17c78024a50270940304540a733656f0d\n      mload(0x40)\n      mload(0x40)\n      dup1\n      swap2\n      sub\n      swap1\n      log4\n        /* \"@openzeppelin/contracts/access/AccessControl.sol\":7665:7814  if (!hasRole(role, account)) {... */\n    tag_478:\n        /* \"@openzeppelin/contracts/access/AccessControl.sol\":7587:7820  function _grantRole(bytes32 role, address account) internal virtual {... */\n      pop\n      pop\n      jump\t// out\n        /* \"@openzeppelin/contracts/utils/Context.sol\":655:751  function _msgSender() internal view virtual returns (address) {... */\n    tag_293:\n        /* \"@openzeppelin/contracts/utils/Context.sol\":708:715  address */\n      0x00\n        /* \"@openzeppelin/contracts/utils/Context.sol\":734:744  msg.sender */\n      caller\n        /* \"@openzeppelin/contracts/utils/Context.sol\":727:744  return msg.sender */\n      swap1\n      pop\n        /* \"@openzeppelin/contracts/utils/Context.sol\":655:751  function _msgSender() internal view virtual returns (address) {... */\n      swap1\n      jump\t// out\n        /* \"@openzeppelin/contracts/access/AccessControl.sol\":7991:8225  function _revokeRole(bytes32 role, address account) internal virtual {... */\n    tag_298:\n        /* \"@openzeppelin/contracts/access/AccessControl.sol\":8074:8096  hasRole(role, account) */\n      tag_482\n        /* \"@openzeppelin/contracts/access/AccessControl.sol\":8082:8086  role */\n      dup3\n        /* \"@openzeppelin/contracts/access/AccessControl.sol\":8088:8095  account */\n      dup3\n        /* \"@openzeppelin/contracts/access/AccessControl.sol\":8074:8081  hasRole */\n      tag_155\n        /* \"@openzeppelin/contracts/access/AccessControl.sol\":8074:8096  hasRole(role, account) */\n      jump\t// in\n    tag_482:\n        /* \"@openzeppelin/contracts/access/AccessControl.sol\":8070:8219  if (hasRole(role, account)) {... */\n      iszero\n      tag_483\n      jumpi\n        /* \"@openzeppelin/contracts/access/AccessControl.sol\":8144:8149  false */\n      0x00\n        /* \"@openzeppelin/contracts/access/AccessControl.sol\":8112:8118  _roles */\n      dup1\n        /* \"@openzeppelin/contracts/access/AccessControl.sol\":8112:8124  _roles[role] */\n      0x00\n        /* \"@openzeppelin/contracts/access/AccessControl.sol\":8119:8123  role */\n      dup5\n        /* \"@openzeppelin/contracts/access/AccessControl.sol\":8112:8124  _roles[role] */\n      dup2\n      mstore\n      0x20\n      add\n      swap1\n      dup2\n      mstore\n      0x20\n      add\n      0x00\n      keccak256\n        /* \"@openzeppelin/contracts/access/AccessControl.sol\":8112:8132  _roles[role].members */\n      0x00\n      add\n        /* \"@openzeppelin/contracts/access/AccessControl.sol\":8112:8141  _roles[role].members[account] */\n      0x00\n        /* \"@openzeppelin/contracts/access/AccessControl.sol\":8133:8140  account */\n      dup4\n        /* \"@openzeppelin/contracts/access/AccessControl.sol\":8112:8141  _roles[role].members[account] */\n      0xffffffffffffffffffffffffffffffffffffffff\n      and\n      0xffffffffffffffffffffffffffffffffffffffff\n      and\n      dup2\n      mstore\n      0x20\n      add\n      swap1\n      dup2\n      mstore\n      0x20\n      add\n      0x00\n      keccak256\n      0x00\n        /* \"@openzeppelin/contracts/access/AccessControl.sol\":8112:8149  _roles[role].members[account] = false */\n      0x0100\n      exp\n      dup2\n      sload\n      dup2\n      0xff\n      mul\n      not\n      and\n      swap1\n      dup4\n      iszero\n      iszero\n      mul\n      or\n      swap1\n      sstore\n      pop\n        /* \"@openzeppelin/contracts/access/AccessControl.sol\":8195:8207  _msgSender() */\n      tag_484\n        /* \"@openzeppelin/contracts/access/AccessControl.sol\":8195:8205  _msgSender */\n      tag_293\n        /* \"@openzeppelin/contracts/access/AccessControl.sol\":8195:8207  _msgSender() */\n      jump\t// in\n    tag_484:\n        /* \"@openzeppelin/contracts/access/AccessControl.sol\":8168:8208  RoleRevoked(role, account, _msgSender()) */\n      0xffffffffffffffffffffffffffffffffffffffff\n      and\n        /* \"@openzeppelin/contracts/access/AccessControl.sol\":8186:8193  account */\n      dup2\n        /* \"@openzeppelin/contracts/access/AccessControl.sol\":8168:8208  RoleRevoked(role, account, _msgSender()) */\n      0xffffffffffffffffffffffffffffffffffffffff\n      and\n        /* \"@openzeppelin/contracts/access/AccessControl.sol\":8180:8184  role */\n      dup4\n        /* \"@openzeppelin/contracts/access/AccessControl.sol\":8168:8208  RoleRevoked(role, account, _msgSender()) */\n      0xf6391f5c32d9c69d2a47ea670b442974b53935d1edc7fd64eb21e047a839171b\n      mload(0x40)\n      mload(0x40)\n      dup1\n      swap2\n      sub\n      swap1\n      log4\n        /* \"@openzeppelin/contracts/access/AccessControl.sol\":8070:8219  if (hasRole(role, account)) {... */\n    tag_483:\n        /* \"@openzeppelin/contracts/access/AccessControl.sol\":7991:8225  function _revokeRole(bytes32 role, address account) internal virtual {... */\n      pop\n      pop\n      jump\t// out\n        /* \"contracts/TrainersIlde.sol\":10241:10628  function takeFees(address _e) private {... */\n    tag_303:\n        /* \"contracts/TrainersIlde.sol\":10290:10307  uint256 _totalFee */\n      0x00\n        /* \"contracts/TrainersIlde.sol\":10310:10317  config_ */\n      0x02\n        /* \"contracts/TrainersIlde.sol\":10310:10324  config_.feeMTR */\n      0x03\n      add\n      sload\n        /* \"contracts/TrainersIlde.sol\":10290:10324  uint256 _totalFee = config_.feeMTR */\n      swap1\n      pop\n        /* \"contracts/TrainersIlde.sol\":10362:10371  _totalFee */\n      dup1\n        /* \"contracts/TrainersIlde.sol\":10343:10354  feeBalance_ */\n      0x0d\n        /* \"contracts/TrainersIlde.sol\":10343:10358  feeBalance_[_e] */\n      0x00\n        /* \"contracts/TrainersIlde.sol\":10355:10357  _e */\n      dup5\n        /* \"contracts/TrainersIlde.sol\":10343:10358  feeBalance_[_e] */\n      0xffffffffffffffffffffffffffffffffffffffff\n      and\n      0xffffffffffffffffffffffffffffffffffffffff\n      and\n      dup2\n      mstore\n      0x20\n      add\n      swap1\n      dup2\n      mstore\n      0x20\n      add\n      0x00\n      keccak256\n      sload\n        /* \"contracts/TrainersIlde.sol\":10343:10371  feeBalance_[_e] >= _totalFee */\n      lt\n      iszero\n        /* \"contracts/TrainersIlde.sol\":10373:10386  MTR_FEE_ERROR */\n      mload(0x40)\n      dup1\n      0x40\n      add\n      0x40\n      mstore\n      dup1\n      0x0d\n      dup2\n      mstore\n      0x20\n      add\n      0x4d54525f4645455f4552524f5200000000000000000000000000000000000000\n      dup2\n      mstore\n      pop\n        /* \"contracts/TrainersIlde.sol\":10335:10387  require(feeBalance_[_e] >= _totalFee, MTR_FEE_ERROR) */\n      swap1\n      tag_486\n      jumpi\n      mload(0x40)\n      0x08c379a000000000000000000000000000000000000000000000000000000000\n      dup2\n      mstore\n      0x04\n      add\n      tag_487\n      swap2\n      swap1\n      tag_98\n      jump\t// in\n    tag_487:\n      mload(0x40)\n      dup1\n      swap2\n      sub\n      swap1\n      revert\n    tag_486:\n      pop\n        /* \"contracts/TrainersIlde.sol\":10398:10417  uint256 _projectFee */\n      0x00\n        /* \"contracts/TrainersIlde.sol\":10462:10465  100 */\n      0x64\n        /* \"contracts/TrainersIlde.sol\":10449:10458  _totalFee */\n      dup3\n        /* \"contracts/TrainersIlde.sol\":10421:10428  config_ */\n      0x02\n        /* \"contracts/TrainersIlde.sol\":10421:10446  config_.projectPercentage */\n      0x00\n      add\n      0x00\n      swap1\n      sload\n      swap1\n      0x0100\n      exp\n      swap1\n      div\n      0xff\n      and\n        /* \"contracts/TrainersIlde.sol\":10421:10458  config_.projectPercentage * _totalFee */\n      0xff\n      and\n      tag_488\n      swap2\n      swap1\n      tag_317\n      jump\t// in\n    tag_488:\n        /* \"contracts/TrainersIlde.sol\":10420:10465  (config_.projectPercentage * _totalFee) / 100 */\n      tag_489\n      swap2\n      swap1\n      tag_426\n      jump\t// in\n    tag_489:\n        /* \"contracts/TrainersIlde.sol\":10398:10465  uint256 _projectFee = (config_.projectPercentage * _totalFee) / 100 */\n      swap1\n      pop\n        /* \"contracts/TrainersIlde.sol\":10476:10488  uint256 _fee */\n      0x00\n        /* \"contracts/TrainersIlde.sol\":10503:10514  _projectFee */\n      dup2\n        /* \"contracts/TrainersIlde.sol\":10491:10500  _totalFee */\n      dup4\n        /* \"contracts/TrainersIlde.sol\":10491:10514  _totalFee - _projectFee */\n      tag_490\n      swap2\n      swap1\n      tag_310\n      jump\t// in\n    tag_490:\n        /* \"contracts/TrainersIlde.sol\":10476:10514  uint256 _fee = _totalFee - _projectFee */\n      swap1\n      pop\n        /* \"contracts/TrainersIlde.sol\":10544:10553  _totalFee */\n      dup3\n        /* \"contracts/TrainersIlde.sol\":10525:10536  feeBalance_ */\n      0x0d\n        /* \"contracts/TrainersIlde.sol\":10525:10540  feeBalance_[_e] */\n      0x00\n        /* \"contracts/TrainersIlde.sol\":10537:10539  _e */\n      dup7\n        /* \"contracts/TrainersIlde.sol\":10525:10540  feeBalance_[_e] */\n      0xffffffffffffffffffffffffffffffffffffffff\n      and\n      0xffffffffffffffffffffffffffffffffffffffff\n      and\n      dup2\n      mstore\n      0x20\n      add\n      swap1\n      dup2\n      mstore\n      0x20\n      add\n      0x00\n      keccak256\n      0x00\n        /* \"contracts/TrainersIlde.sol\":10525:10553  feeBalance_[_e] -= _totalFee */\n      dup3\n      dup3\n      sload\n      tag_491\n      swap2\n      swap1\n      tag_310\n      jump\t// in\n    tag_491:\n      swap3\n      pop\n      pop\n      dup2\n      swap1\n      sstore\n      pop\n        /* \"contracts/TrainersIlde.sol\":10578:10589  _projectFee */\n      dup2\n        /* \"contracts/TrainersIlde.sol\":10564:10574  takedFees_ */\n      0x0f\n      0x00\n        /* \"contracts/TrainersIlde.sol\":10564:10589  takedFees_ += _projectFee */\n      dup3\n      dup3\n      sload\n      tag_492\n      swap2\n      swap1\n      tag_308\n      jump\t// in\n    tag_492:\n      swap3\n      pop\n      pop\n      dup2\n      swap1\n      sstore\n      pop\n        /* \"contracts/TrainersIlde.sol\":10616:10620  _fee */\n      dup1\n        /* \"contracts/TrainersIlde.sol\":10600:10612  gameRewards_ */\n      0x0e\n      0x00\n        /* \"contracts/TrainersIlde.sol\":10600:10620  gameRewards_ += _fee */\n      dup3\n      dup3\n      sload\n      tag_493\n      swap2\n      swap1\n      tag_308\n      jump\t// in\n    tag_493:\n      swap3\n      pop\n      pop\n      dup2\n      swap1\n      sstore\n      pop\n        /* \"contracts/TrainersIlde.sol\":10279:10628  {... */\n      pop\n      pop\n      pop\n        /* \"contracts/TrainersIlde.sol\":10241:10628  function takeFees(address _e) private {... */\n      pop\n      jump\t// out\n        /* \"@openzeppelin/contracts/access/AccessControl.sol\":3844:4323  function _checkRole(bytes32 role, address account) internal view virtual {... */\n    tag_475:\n        /* \"@openzeppelin/contracts/access/AccessControl.sol\":3932:3954  hasRole(role, account) */\n      tag_495\n        /* \"@openzeppelin/contracts/access/AccessControl.sol\":3940:3944  role */\n      dup3\n        /* \"@openzeppelin/contracts/access/AccessControl.sol\":3946:3953  account */\n      dup3\n        /* \"@openzeppelin/contracts/access/AccessControl.sol\":3932:3939  hasRole */\n      tag_155\n        /* \"@openzeppelin/contracts/access/AccessControl.sol\":3932:3954  hasRole(role, account) */\n      jump\t// in\n    tag_495:\n        /* \"@openzeppelin/contracts/access/AccessControl.sol\":3927:4317  if (!hasRole(role, account)) {... */\n      tag_496\n      jumpi\n        /* \"@openzeppelin/contracts/access/AccessControl.sol\":4115:4143  Strings.toHexString(account) */\n      tag_497\n        /* \"@openzeppelin/contracts/access/AccessControl.sol\":4135:4142  account */\n      dup2\n        /* \"@openzeppelin/contracts/access/AccessControl.sol\":4115:4134  Strings.toHexString */\n      tag_498\n        /* \"@openzeppelin/contracts/access/AccessControl.sol\":4115:4143  Strings.toHexString(account) */\n      jump\t// in\n    tag_497:\n        /* \"@openzeppelin/contracts/access/AccessControl.sol\":4214:4252  Strings.toHexString(uint256(role), 32) */\n      tag_499\n        /* \"@openzeppelin/contracts/access/AccessControl.sol\":4242:4246  role */\n      dup4\n        /* \"@openzeppelin/contracts/access/AccessControl.sol\":4234:4247  uint256(role) */\n      0x00\n      shr\n        /* \"@openzeppelin/contracts/access/AccessControl.sol\":4249:4251  32 */\n      0x20\n        /* \"@openzeppelin/contracts/access/AccessControl.sol\":4214:4233  Strings.toHexString */\n      tag_500\n        /* \"@openzeppelin/contracts/access/AccessControl.sol\":4214:4252  Strings.toHexString(uint256(role), 32) */\n      jump\t// in\n    tag_499:\n        /* \"@openzeppelin/contracts/access/AccessControl.sol\":4022:4274  abi.encodePacked(... */\n      add(0x20, mload(0x40))\n      tag_501\n      swap3\n      swap2\n      swap1\n      tag_502\n      jump\t// in\n    tag_501:\n      mload(0x40)\n      0x20\n      dup2\n      dup4\n      sub\n      sub\n      dup2\n      mstore\n      swap1\n      0x40\n      mstore\n        /* \"@openzeppelin/contracts/access/AccessControl.sol\":3970:4306  revert(... */\n      mload(0x40)\n      0x08c379a000000000000000000000000000000000000000000000000000000000\n      dup2\n      mstore\n      0x04\n      add\n      tag_503\n      swap2\n      swap1\n      tag_98\n      jump\t// in\n    tag_503:\n      mload(0x40)\n      dup1\n      swap2\n      sub\n      swap1\n      revert\n        /* \"@openzeppelin/contracts/access/AccessControl.sol\":3927:4317  if (!hasRole(role, account)) {... */\n    tag_496:\n        /* \"@openzeppelin/contracts/access/AccessControl.sol\":3844:4323  function _checkRole(bytes32 role, address account) internal view virtual {... */\n      pop\n      pop\n      jump\t// out\n        /* \"@openzeppelin/contracts/utils/Strings.sol\":2407:2556  function toHexString(address addr) internal pure returns (string memory) {... */\n    tag_498:\n        /* \"@openzeppelin/contracts/utils/Strings.sol\":2465:2478  string memory */\n      0x60\n        /* \"@openzeppelin/contracts/utils/Strings.sol\":2497:2549  toHexString(uint256(uint160(addr)), _ADDRESS_LENGTH) */\n      tag_505\n        /* \"@openzeppelin/contracts/utils/Strings.sol\":2525:2529  addr */\n      dup3\n        /* \"@openzeppelin/contracts/utils/Strings.sol\":2509:2531  uint256(uint160(addr)) */\n      0xffffffffffffffffffffffffffffffffffffffff\n      and\n        /* \"@openzeppelin/contracts/utils/Strings.sol\":343:345  20 */\n      0x14\n        /* \"@openzeppelin/contracts/utils/Strings.sol\":2497:2549  toHexString(uint256(uint160(addr)), _ADDRESS_LENGTH) */\n      0xff\n      and\n        /* \"@openzeppelin/contracts/utils/Strings.sol\":2497:2508  toHexString */\n      tag_500\n        /* \"@openzeppelin/contracts/utils/Strings.sol\":2497:2549  toHexString(uint256(uint160(addr)), _ADDRESS_LENGTH) */\n      jump\t// in\n    tag_505:\n        /* \"@openzeppelin/contracts/utils/Strings.sol\":2490:2549  return toHexString(uint256(uint160(addr)), _ADDRESS_LENGTH) */\n      swap1\n      pop\n        /* \"@openzeppelin/contracts/utils/Strings.sol\":2407:2556  function toHexString(address addr) internal pure returns (string memory) {... */\n      swap2\n      swap1\n      pop\n      jump\t// out\n        /* \"@openzeppelin/contracts/utils/Strings.sol\":1818:2255  function toHexString(uint256 value, uint256 length) internal pure returns (string memory) {... */\n    tag_500:\n        /* \"@openzeppelin/contracts/utils/Strings.sol\":1893:1906  string memory */\n      0x60\n        /* \"@openzeppelin/contracts/utils/Strings.sol\":1918:1937  bytes memory buffer */\n      0x00\n        /* \"@openzeppelin/contracts/utils/Strings.sol\":1963:1964  2 */\n      0x02\n        /* \"@openzeppelin/contracts/utils/Strings.sol\":1954:1960  length */\n      dup4\n        /* \"@openzeppelin/contracts/utils/Strings.sol\":1950:1951  2 */\n      0x02\n        /* \"@openzeppelin/contracts/utils/Strings.sol\":1950:1960  2 * length */\n      tag_507\n      swap2\n      swap1\n      tag_317\n      jump\t// in\n    tag_507:\n        /* \"@openzeppelin/contracts/utils/Strings.sol\":1950:1964  2 * length + 2 */\n      tag_508\n      swap2\n      swap1\n      tag_308\n      jump\t// in\n    tag_508:\n        /* \"@openzeppelin/contracts/utils/Strings.sol\":1940:1965  new bytes(2 * length + 2) */\n      0xffffffffffffffff\n      dup2\n      gt\n      iszero\n      tag_509\n      jumpi\n      tag_510\n      tag_360\n      jump\t// in\n    tag_510:\n    tag_509:\n      mload(0x40)\n      swap1\n      dup1\n      dup3\n      mstore\n      dup1\n      0x1f\n      add\n      not(0x1f)\n      and\n      0x20\n      add\n      dup3\n      add\n      0x40\n      mstore\n      dup1\n      iszero\n      tag_511\n      jumpi\n      dup2\n      0x20\n      add\n      0x01\n      dup3\n      mul\n      dup1\n      calldatasize\n      dup4\n      calldatacopy\n      dup1\n      dup3\n      add\n      swap2\n      pop\n      pop\n      swap1\n      pop\n    tag_511:\n      pop\n        /* \"@openzeppelin/contracts/utils/Strings.sol\":1918:1965  bytes memory buffer = new bytes(2 * length + 2) */\n      swap1\n      pop\n        /* \"@openzeppelin/contracts/utils/Strings.sol\":1975:1990  buffer[0] = \"0\" */\n      0x3000000000000000000000000000000000000000000000000000000000000000\n        /* \"@openzeppelin/contracts/utils/Strings.sol\":1975:1981  buffer */\n      dup2\n        /* \"@openzeppelin/contracts/utils/Strings.sol\":1982:1983  0 */\n      0x00\n        /* \"@openzeppelin/contracts/utils/Strings.sol\":1975:1984  buffer[0] */\n      dup2\n      mload\n      dup2\n      lt\n      tag_512\n      jumpi\n      tag_513\n      tag_367\n      jump\t// in\n    tag_513:\n    tag_512:\n      0x20\n      add\n      add\n        /* \"@openzeppelin/contracts/utils/Strings.sol\":1975:1990  buffer[0] = \"0\" */\n      swap1\n      not(0xffffffffffffffffffffffffffffffffffffffffffffffffffffffffffffff)\n      and\n      swap1\n      dup2\n      0x00\n      byte\n      swap1\n      mstore8\n      pop\n        /* \"@openzeppelin/contracts/utils/Strings.sol\":2000:2015  buffer[1] = \"x\" */\n      0x7800000000000000000000000000000000000000000000000000000000000000\n        /* \"@openzeppelin/contracts/utils/Strings.sol\":2000:2006  buffer */\n      dup2\n        /* \"@openzeppelin/contracts/utils/Strings.sol\":2007:2008  1 */\n      0x01\n        /* \"@openzeppelin/contracts/utils/Strings.sol\":2000:2009  buffer[1] */\n      dup2\n      mload\n      dup2\n      lt\n      tag_514\n      jumpi\n      tag_515\n      tag_367\n      jump\t// in\n    tag_515:\n    tag_514:\n      0x20\n      add\n      add\n        /* \"@openzeppelin/contracts/utils/Strings.sol\":2000:2015  buffer[1] = \"x\" */\n      swap1\n      not(0xffffffffffffffffffffffffffffffffffffffffffffffffffffffffffffff)\n      and\n      swap1\n      dup2\n      0x00\n      byte\n      swap1\n      mstore8\n      pop\n        /* \"@openzeppelin/contracts/utils/Strings.sol\":2030:2039  uint256 i */\n      0x00\n        /* \"@openzeppelin/contracts/utils/Strings.sol\":2055:2056  1 */\n      0x01\n        /* \"@openzeppelin/contracts/utils/Strings.sol\":2046:2052  length */\n      dup5\n        /* \"@openzeppelin/contracts/utils/Strings.sol\":2042:2043  2 */\n      0x02\n        /* \"@openzeppelin/contracts/utils/Strings.sol\":2042:2052  2 * length */\n      tag_519\n      swap2\n      swap1\n      tag_317\n      jump\t// in\n    tag_519:\n        /* \"@openzeppelin/contracts/utils/Strings.sol\":2042:2056  2 * length + 1 */\n      tag_520\n      swap2\n      swap1\n      tag_308\n      jump\t// in\n    tag_520:\n        /* \"@openzeppelin/contracts/utils/Strings.sol\":2030:2056  uint256 i = 2 * length + 1 */\n      swap1\n      pop\n        /* \"@openzeppelin/contracts/utils/Strings.sol\":2025:2153  for (uint256 i = 2 * length + 1; i > 1; --i) {... */\n    tag_516:\n        /* \"@openzeppelin/contracts/utils/Strings.sol\":2062:2063  1 */\n      0x01\n        /* \"@openzeppelin/contracts/utils/Strings.sol\":2058:2059  i */\n      dup2\n        /* \"@openzeppelin/contracts/utils/Strings.sol\":2058:2063  i > 1 */\n      gt\n        /* \"@openzeppelin/contracts/utils/Strings.sol\":2025:2153  for (uint256 i = 2 * length + 1; i > 1; --i) {... */\n      iszero\n      tag_517\n      jumpi\n        /* \"@openzeppelin/contracts/utils/Strings.sol\":2096:2104  _SYMBOLS */\n      0x3031323334353637383961626364656600000000000000000000000000000000\n        /* \"@openzeppelin/contracts/utils/Strings.sol\":2113:2116  0xf */\n      0x0f\n        /* \"@openzeppelin/contracts/utils/Strings.sol\":2105:2110  value */\n      dup7\n        /* \"@openzeppelin/contracts/utils/Strings.sol\":2105:2116  value & 0xf */\n      and\n        /* \"@openzeppelin/contracts/utils/Strings.sol\":2096:2117  _SYMBOLS[value & 0xf] */\n      0x10\n      dup2\n      lt\n      tag_521\n      jumpi\n      tag_522\n      tag_367\n      jump\t// in\n    tag_522:\n    tag_521:\n      byte\n      0xf8\n      shl\n        /* \"@openzeppelin/contracts/utils/Strings.sol\":2084:2090  buffer */\n      dup3\n        /* \"@openzeppelin/contracts/utils/Strings.sol\":2091:2092  i */\n      dup3\n        /* \"@openzeppelin/contracts/utils/Strings.sol\":2084:2093  buffer[i] */\n      dup2\n      mload\n      dup2\n      lt\n      tag_523\n      jumpi\n      tag_524\n      tag_367\n      jump\t// in\n    tag_524:\n    tag_523:\n      0x20\n      add\n      add\n        /* \"@openzeppelin/contracts/utils/Strings.sol\":2084:2117  buffer[i] = _SYMBOLS[value & 0xf] */\n      swap1\n      not(0xffffffffffffffffffffffffffffffffffffffffffffffffffffffffffffff)\n      and\n      swap1\n      dup2\n      0x00\n      byte\n      swap1\n      mstore8\n      pop\n        /* \"@openzeppelin/contracts/utils/Strings.sol\":2141:2142  4 */\n      0x04\n        /* \"@openzeppelin/contracts/utils/Strings.sol\":2131:2142  value >>= 4 */\n      dup6\n      swap1\n      shr\n      swap5\n      pop\n        /* \"@openzeppelin/contracts/utils/Strings.sol\":2065:2068  --i */\n      dup1\n      tag_525\n      swap1\n      tag_526\n      jump\t// in\n    tag_525:\n      swap1\n      pop\n        /* \"@openzeppelin/contracts/utils/Strings.sol\":2025:2153  for (uint256 i = 2 * length + 1; i > 1; --i) {... */\n      jump(tag_516)\n    tag_517:\n      pop\n        /* \"@openzeppelin/contracts/utils/Strings.sol\":2179:2180  0 */\n      0x00\n        /* \"@openzeppelin/contracts/utils/Strings.sol\":2170:2175  value */\n      dup5\n        /* \"@openzeppelin/contracts/utils/Strings.sol\":2170:2180  value == 0 */\n      eq\n        /* \"@openzeppelin/contracts/utils/Strings.sol\":2162:2217  require(value == 0, \"Strings: hex length insufficient\") */\n      tag_527\n      jumpi\n      mload(0x40)\n      0x08c379a000000000000000000000000000000000000000000000000000000000\n      dup2\n      mstore\n      0x04\n      add\n      tag_528\n      swap1\n      tag_529\n      jump\t// in\n    tag_528:\n      mload(0x40)\n      dup1\n      swap2\n      sub\n      swap1\n      revert\n    tag_527:\n        /* \"@openzeppelin/contracts/utils/Strings.sol\":2241:2247  buffer */\n      dup1\n        /* \"@openzeppelin/contracts/utils/Strings.sol\":2227:2248  return string(buffer) */\n      swap2\n      pop\n      pop\n        /* \"@openzeppelin/contracts/utils/Strings.sol\":1818:2255  function toHexString(uint256 value, uint256 length) internal pure returns (string memory) {... */\n      swap3\n      swap2\n      pop\n      pop\n      jump\t// out\n    tag_284:\n      mload(0x40)\n      dup1\n      0x40\n      add\n      0x40\n      mstore\n      dup1\n      0x00\n      dup2\n      mstore\n      0x20\n      add\n      0x00\n      dup2\n      mstore\n      pop\n      swap1\n      jump\t// out\n    tag_410:\n      mload(0x40)\n      dup1\n      0x40\n      add\n      0x40\n      mstore\n      dup1\n      0x00\n      dup2\n      mstore\n      0x20\n      add\n      0x00\n      dup2\n      mstore\n      pop\n      swap1\n      jump\t// out\n    tag_438:\n      mload(0x40)\n      dup1\n      0x01c0\n      add\n      0x40\n      mstore\n      dup1\n      iszero(iszero(0x00))\n      dup2\n      mstore\n      0x20\n      add\n      0x00\n      dup2\n      mstore\n      0x20\n      add\n      0x00\n      dup2\n      mstore\n      0x20\n      add\n      0x00\n      dup2\n      mstore\n      0x20\n      add\n      0x00\n      dup2\n      mstore\n      0x20\n      add\n      0x00\n      dup2\n      mstore\n      0x20\n      add\n      0x00\n      dup2\n      mstore\n      0x20\n      add\n      0x00\n      dup2\n      mstore\n      0x20\n      add\n      tag_530\n      tag_284\n      jump\t// in\n    tag_530:\n      dup2\n      mstore\n      0x20\n      add\n      tag_531\n      tag_532\n      jump\t// in\n    tag_531:\n      dup2\n      mstore\n      0x20\n      add\n      0x60\n      dup2\n      mstore\n      0x20\n      add\n      0x60\n      dup2\n      mstore\n      0x20\n      add\n      0x60\n      dup2\n      mstore\n      0x20\n      add\n      0x60\n      dup2\n      mstore\n      pop\n      swap1\n      jump\t// out\n    tag_532:\n      mload(0x40)\n      dup1\n      0xc0\n      add\n      0x40\n      mstore\n      dup1\n      and(0xff, 0x00)\n      dup2\n      mstore\n      0x20\n      add\n      0x00\n      dup2\n      mstore\n      0x20\n      add\n      0x00\n      dup2\n      mstore\n      0x20\n      add\n      0x00\n      dup2\n      mstore\n      0x20\n      add\n      0x00\n      dup2\n      mstore\n      0x20\n      add\n      0x00\n      dup2\n      mstore\n      pop\n      swap1\n      jump\t// out\n        /* \"#utility.yul\":88:205   */\n    tag_534:\n        /* \"#utility.yul\":197:198   */\n      0x00\n        /* \"#utility.yul\":194:195   */\n      dup1\n        /* \"#utility.yul\":187:199   */\n      revert\n        /* \"#utility.yul\":334:483   */\n    tag_536:\n        /* \"#utility.yul\":370:377   */\n      0x00\n        /* \"#utility.yul\":410:476   */\n      0xffffffff00000000000000000000000000000000000000000000000000000000\n        /* \"#utility.yul\":403:408   */\n      dup3\n        /* \"#utility.yul\":399:477   */\n      and\n        /* \"#utility.yul\":388:477   */\n      swap1\n      pop\n        /* \"#utility.yul\":334:483   */\n      swap2\n      swap1\n      pop\n      jump\t// out\n        /* \"#utility.yul\":489:609   */\n    tag_537:\n        /* \"#utility.yul\":561:584   */\n      tag_630\n        /* \"#utility.yul\":578:583   */\n      dup2\n        /* \"#utility.yul\":561:584   */\n      tag_536\n      jump\t// in\n    tag_630:\n        /* \"#utility.yul\":554:559   */\n      dup2\n        /* \"#utility.yul\":551:585   */\n      eq\n        /* \"#utility.yul\":541:603   */\n      tag_631\n      jumpi\n        /* \"#utility.yul\":599:600   */\n      0x00\n        /* \"#utility.yul\":596:597   */\n      dup1\n        /* \"#utility.yul\":589:601   */\n      revert\n        /* \"#utility.yul\":541:603   */\n    tag_631:\n        /* \"#utility.yul\":489:609   */\n      pop\n      jump\t// out\n        /* \"#utility.yul\":615:752   */\n    tag_538:\n        /* \"#utility.yul\":660:665   */\n      0x00\n        /* \"#utility.yul\":698:704   */\n      dup2\n        /* \"#utility.yul\":685:705   */\n      calldataload\n        /* \"#utility.yul\":676:705   */\n      swap1\n      pop\n        /* \"#utility.yul\":714:746   */\n      tag_633\n        /* \"#utility.yul\":740:745   */\n      dup2\n        /* \"#utility.yul\":714:746   */\n      tag_537\n      jump\t// in\n    tag_633:\n        /* \"#utility.yul\":615:752   */\n      swap3\n      swap2\n      pop\n      pop\n      jump\t// out\n        /* \"#utility.yul\":758:1085   */\n    tag_56:\n        /* \"#utility.yul\":816:822   */\n      0x00\n        /* \"#utility.yul\":865:867   */\n      0x20\n        /* \"#utility.yul\":853:862   */\n      dup3\n        /* \"#utility.yul\":844:851   */\n      dup5\n        /* \"#utility.yul\":840:863   */\n      sub\n        /* \"#utility.yul\":836:868   */\n      slt\n        /* \"#utility.yul\":833:952   */\n      iszero\n      tag_635\n      jumpi\n        /* \"#utility.yul\":871:950   */\n      tag_636\n      tag_534\n      jump\t// in\n    tag_636:\n        /* \"#utility.yul\":833:952   */\n    tag_635:\n        /* \"#utility.yul\":991:992   */\n      0x00\n        /* \"#utility.yul\":1016:1068   */\n      tag_637\n        /* \"#utility.yul\":1060:1067   */\n      dup5\n        /* \"#utility.yul\":1051:1057   */\n      dup3\n        /* \"#utility.yul\":1040:1049   */\n      dup6\n        /* \"#utility.yul\":1036:1058   */\n      add\n        /* \"#utility.yul\":1016:1068   */\n      tag_538\n      jump\t// in\n    tag_637:\n        /* \"#utility.yul\":1006:1068   */\n      swap2\n      pop\n        /* \"#utility.yul\":962:1078   */\n      pop\n        /* \"#utility.yul\":758:1085   */\n      swap3\n      swap2\n      pop\n      pop\n      jump\t// out\n        /* \"#utility.yul\":1091:1181   */\n    tag_539:\n        /* \"#utility.yul\":1125:1132   */\n      0x00\n        /* \"#utility.yul\":1168:1173   */\n      dup2\n        /* \"#utility.yul\":1161:1174   */\n      iszero\n        /* \"#utility.yul\":1154:1175   */\n      iszero\n        /* \"#utility.yul\":1143:1175   */\n      swap1\n      pop\n        /* \"#utility.yul\":1091:1181   */\n      swap2\n      swap1\n      pop\n      jump\t// out\n        /* \"#utility.yul\":1187:1296   */\n    tag_540:\n        /* \"#utility.yul\":1268:1289   */\n      tag_640\n        /* \"#utility.yul\":1283:1288   */\n      dup2\n        /* \"#utility.yul\":1268:1289   */\n      tag_539\n      jump\t// in\n    tag_640:\n        /* \"#utility.yul\":1263:1266   */\n      dup3\n        /* \"#utility.yul\":1256:1290   */\n      mstore\n        /* \"#utility.yul\":1187:1296   */\n      pop\n      pop\n      jump\t// out\n        /* \"#utility.yul\":1302:1512   */\n    tag_59:\n        /* \"#utility.yul\":1389:1393   */\n      0x00\n        /* \"#utility.yul\":1427:1429   */\n      0x20\n        /* \"#utility.yul\":1416:1425   */\n      dup3\n        /* \"#utility.yul\":1412:1430   */\n      add\n        /* \"#utility.yul\":1404:1430   */\n      swap1\n      pop\n        /* \"#utility.yul\":1440:1505   */\n      tag_642\n        /* \"#utility.yul\":1502:1503   */\n      0x00\n        /* \"#utility.yul\":1491:1500   */\n      dup4\n        /* \"#utility.yul\":1487:1504   */\n      add\n        /* \"#utility.yul\":1478:1484   */\n      dup5\n        /* \"#utility.yul\":1440:1505   */\n      tag_540\n      jump\t// in\n    tag_642:\n        /* \"#utility.yul\":1302:1512   */\n      swap3\n      swap2\n      pop\n      pop\n      jump\t// out\n        /* \"#utility.yul\":1518:1595   */\n    tag_541:\n        /* \"#utility.yul\":1555:1562   */\n      0x00\n        /* \"#utility.yul\":1584:1589   */\n      dup2\n        /* \"#utility.yul\":1573:1589   */\n      swap1\n      pop\n        /* \"#utility.yul\":1518:1595   */\n      swap2\n      swap1\n      pop\n      jump\t// out\n        /* \"#utility.yul\":1601:1723   */\n    tag_542:\n        /* \"#utility.yul\":1674:1698   */\n      tag_645\n        /* \"#utility.yul\":1692:1697   */\n      dup2\n        /* \"#utility.yul\":1674:1698   */\n      tag_541\n      jump\t// in\n    tag_645:\n        /* \"#utility.yul\":1667:1672   */\n      dup2\n        /* \"#utility.yul\":1664:1699   */\n      eq\n        /* \"#utility.yul\":1654:1717   */\n      tag_646\n      jumpi\n        /* \"#utility.yul\":1713:1714   */\n      0x00\n        /* \"#utility.yul\":1710:1711   */\n      dup1\n        /* \"#utility.yul\":1703:1715   */\n      revert\n        /* \"#utility.yul\":1654:1717   */\n    tag_646:\n        /* \"#utility.yul\":1601:1723   */\n      pop\n      jump\t// out\n        /* \"#utility.yul\":1729:1868   */\n    tag_543:\n        /* \"#utility.yul\":1775:1780   */\n      0x00\n        /* \"#utility.yul\":1813:1819   */\n      dup2\n        /* \"#utility.yul\":1800:1820   */\n      calldataload\n        /* \"#utility.yul\":1791:1820   */\n      swap1\n      pop\n        /* \"#utility.yul\":1829:1862   */\n      tag_648\n        /* \"#utility.yul\":1856:1861   */\n      dup2\n        /* \"#utility.yul\":1829:1862   */\n      tag_542\n      jump\t// in\n    tag_648:\n        /* \"#utility.yul\":1729:1868   */\n      swap3\n      swap2\n      pop\n      pop\n      jump\t// out\n        /* \"#utility.yul\":1874:2203   */\n    tag_63:\n        /* \"#utility.yul\":1933:1939   */\n      0x00\n        /* \"#utility.yul\":1982:1984   */\n      0x20\n        /* \"#utility.yul\":1970:1979   */\n      dup3\n        /* \"#utility.yul\":1961:1968   */\n      dup5\n        /* \"#utility.yul\":1957:1980   */\n      sub\n        /* \"#utility.yul\":1953:1985   */\n      slt\n        /* \"#utility.yul\":1950:2069   */\n      iszero\n      tag_650\n      jumpi\n        /* \"#utility.yul\":1988:2067   */\n      tag_651\n      tag_534\n      jump\t// in\n    tag_651:\n        /* \"#utility.yul\":1950:2069   */\n    tag_650:\n        /* \"#utility.yul\":2108:2109   */\n      0x00\n        /* \"#utility.yul\":2133:2186   */\n      tag_652\n        /* \"#utility.yul\":2178:2185   */\n      dup5\n        /* \"#utility.yul\":2169:2175   */\n      dup3\n        /* \"#utility.yul\":2158:2167   */\n      dup6\n        /* \"#utility.yul\":2154:2176   */\n      add\n        /* \"#utility.yul\":2133:2186   */\n      tag_543\n      jump\t// in\n    tag_652:\n        /* \"#utility.yul\":2123:2186   */\n      swap2\n      pop\n        /* \"#utility.yul\":2079:2196   */\n      pop\n        /* \"#utility.yul\":1874:2203   */\n      swap3\n      swap2\n      pop\n      pop\n      jump\t// out\n        /* \"#utility.yul\":2209:2335   */\n    tag_544:\n        /* \"#utility.yul\":2246:2253   */\n      0x00\n        /* \"#utility.yul\":2286:2328   */\n      0xffffffffffffffffffffffffffffffffffffffff\n        /* \"#utility.yul\":2279:2284   */\n      dup3\n        /* \"#utility.yul\":2275:2329   */\n      and\n        /* \"#utility.yul\":2264:2329   */\n      swap1\n      pop\n        /* \"#utility.yul\":2209:2335   */\n      swap2\n      swap1\n      pop\n      jump\t// out\n        /* \"#utility.yul\":2341:2437   */\n    tag_545:\n        /* \"#utility.yul\":2378:2385   */\n      0x00\n        /* \"#utility.yul\":2407:2431   */\n      tag_655\n        /* \"#utility.yul\":2425:2430   */\n      dup3\n        /* \"#utility.yul\":2407:2431   */\n      tag_544\n      jump\t// in\n    tag_655:\n        /* \"#utility.yul\":2396:2431   */\n      swap1\n      pop\n        /* \"#utility.yul\":2341:2437   */\n      swap2\n      swap1\n      pop\n      jump\t// out\n        /* \"#utility.yul\":2443:2565   */\n    tag_546:\n        /* \"#utility.yul\":2516:2540   */\n      tag_657\n        /* \"#utility.yul\":2534:2539   */\n      dup2\n        /* \"#utility.yul\":2516:2540   */\n      tag_545\n      jump\t// in\n    tag_657:\n        /* \"#utility.yul\":2509:2514   */\n      dup2\n        /* \"#utility.yul\":2506:2541   */\n      eq\n        /* \"#utility.yul\":2496:2559   */\n      tag_658\n      jumpi\n        /* \"#utility.yul\":2555:2556   */\n      0x00\n        /* \"#utility.yul\":2552:2553   */\n      dup1\n        /* \"#utility.yul\":2545:2557   */\n      revert\n        /* \"#utility.yul\":2496:2559   */\n    tag_658:\n        /* \"#utility.yul\":2443:2565   */\n      pop\n      jump\t// out\n        /* \"#utility.yul\":2571:2710   */\n    tag_547:\n        /* \"#utility.yul\":2617:2622   */\n      0x00\n        /* \"#utility.yul\":2655:2661   */\n      dup2\n        /* \"#utility.yul\":2642:2662   */\n      calldataload\n        /* \"#utility.yul\":2633:2662   */\n      swap1\n      pop\n        /* \"#utility.yul\":2671:2704   */\n      tag_660\n        /* \"#utility.yul\":2698:2703   */\n      dup2\n        /* \"#utility.yul\":2671:2704   */\n      tag_546\n      jump\t// in\n    tag_660:\n        /* \"#utility.yul\":2571:2710   */\n      swap3\n      swap2\n      pop\n      pop\n      jump\t// out\n        /* \"#utility.yul\":2716:3045   */\n    tag_68:\n        /* \"#utility.yul\":2775:2781   */\n      0x00\n        /* \"#utility.yul\":2824:2826   */\n      0x20\n        /* \"#utility.yul\":2812:2821   */\n      dup3\n        /* \"#utility.yul\":2803:2810   */\n      dup5\n        /* \"#utility.yul\":2799:2822   */\n      sub\n        /* \"#utility.yul\":2795:2827   */\n      slt\n        /* \"#utility.yul\":2792:2911   */\n      iszero\n      tag_662\n      jumpi\n        /* \"#utility.yul\":2830:2909   */\n      tag_663\n      tag_534\n      jump\t// in\n    tag_663:\n        /* \"#utility.yul\":2792:2911   */\n    tag_662:\n        /* \"#utility.yul\":2950:2951   */\n      0x00\n        /* \"#utility.yul\":2975:3028   */\n      tag_664\n        /* \"#utility.yul\":3020:3027   */\n      dup5\n        /* \"#utility.yul\":3011:3017   */\n      dup3\n        /* \"#utility.yul\":3000:3009   */\n      dup6\n        /* \"#utility.yul\":2996:3018   */\n      add\n        /* \"#utility.yul\":2975:3028   */\n      tag_547\n      jump\t// in\n    tag_664:\n        /* \"#utility.yul\":2965:3028   */\n      swap2\n      pop\n        /* \"#utility.yul\":2921:3038   */\n      pop\n        /* \"#utility.yul\":2716:3045   */\n      swap3\n      swap2\n      pop\n      pop\n      jump\t// out\n        /* \"#utility.yul\":3051:3525   */\n    tag_73:\n        /* \"#utility.yul\":3119:3125   */\n      0x00\n        /* \"#utility.yul\":3127:3133   */\n      dup1\n        /* \"#utility.yul\":3176:3178   */\n      0x40\n        /* \"#utility.yul\":3164:3173   */\n      dup4\n        /* \"#utility.yul\":3155:3162   */\n      dup6\n        /* \"#utility.yul\":3151:3174   */\n      sub\n        /* \"#utility.yul\":3147:3179   */\n      slt\n        /* \"#utility.yul\":3144:3263   */\n      iszero\n      tag_666\n      jumpi\n        /* \"#utility.yul\":3182:3261   */\n      tag_667\n      tag_534\n      jump\t// in\n    tag_667:\n        /* \"#utility.yul\":3144:3263   */\n    tag_666:\n        /* \"#utility.yul\":3302:3303   */\n      0x00\n        /* \"#utility.yul\":3327:3380   */\n      tag_668\n        /* \"#utility.yul\":3372:3379   */\n      dup6\n        /* \"#utility.yul\":3363:3369   */\n      dup3\n        /* \"#utility.yul\":3352:3361   */\n      dup7\n        /* \"#utility.yul\":3348:3370   */\n      add\n        /* \"#utility.yul\":3327:3380   */\n      tag_543\n      jump\t// in\n    tag_668:\n        /* \"#utility.yul\":3317:3380   */\n      swap3\n      pop\n        /* \"#utility.yul\":3273:3390   */\n      pop\n        /* \"#utility.yul\":3429:3431   */\n      0x20\n        /* \"#utility.yul\":3455:3508   */\n      tag_669\n        /* \"#utility.yul\":3500:3507   */\n      dup6\n        /* \"#utility.yul\":3491:3497   */\n      dup3\n        /* \"#utility.yul\":3480:3489   */\n      dup7\n        /* \"#utility.yul\":3476:3498   */\n      add\n        /* \"#utility.yul\":3455:3508   */\n      tag_543\n      jump\t// in\n    tag_669:\n        /* \"#utility.yul\":3445:3508   */\n      swap2\n      pop\n        /* \"#utility.yul\":3400:3518   */\n      pop\n        /* \"#utility.yul\":3051:3525   */\n      swap3\n      pop\n      swap3\n      swap1\n      pop\n      jump\t// out\n        /* \"#utility.yul\":3531:3608   */\n    tag_548:\n        /* \"#utility.yul\":3568:3575   */\n      0x00\n        /* \"#utility.yul\":3597:3602   */\n      dup2\n        /* \"#utility.yul\":3586:3602   */\n      swap1\n      pop\n        /* \"#utility.yul\":3531:3608   */\n      swap2\n      swap1\n      pop\n      jump\t// out\n        /* \"#utility.yul\":3614:3736   */\n    tag_549:\n        /* \"#utility.yul\":3687:3711   */\n      tag_672\n        /* \"#utility.yul\":3705:3710   */\n      dup2\n        /* \"#utility.yul\":3687:3711   */\n      tag_548\n      jump\t// in\n    tag_672:\n        /* \"#utility.yul\":3680:3685   */\n      dup2\n        /* \"#utility.yul\":3677:3712   */\n      eq\n        /* \"#utility.yul\":3667:3730   */\n      tag_673\n      jumpi\n        /* \"#utility.yul\":3726:3727   */\n      0x00\n        /* \"#utility.yul\":3723:3724   */\n      dup1\n        /* \"#utility.yul\":3716:3728   */\n      revert\n        /* \"#utility.yul\":3667:3730   */\n    tag_673:\n        /* \"#utility.yul\":3614:3736   */\n      pop\n      jump\t// out\n        /* \"#utility.yul\":3742:3881   */\n    tag_550:\n        /* \"#utility.yul\":3788:3793   */\n      0x00\n        /* \"#utility.yul\":3826:3832   */\n      dup2\n        /* \"#utility.yul\":3813:3833   */\n      calldataload\n        /* \"#utility.yul\":3804:3833   */\n      swap1\n      pop\n        /* \"#utility.yul\":3842:3875   */\n      tag_675\n        /* \"#utility.yul\":3869:3874   */\n      dup2\n        /* \"#utility.yul\":3842:3875   */\n      tag_549\n      jump\t// in\n    tag_675:\n        /* \"#utility.yul\":3742:3881   */\n      swap3\n      swap2\n      pop\n      pop\n      jump\t// out\n        /* \"#utility.yul\":3887:4216   */\n    tag_84:\n        /* \"#utility.yul\":3946:3952   */\n      0x00\n        /* \"#utility.yul\":3995:3997   */\n      0x20\n        /* \"#utility.yul\":3983:3992   */\n      dup3\n        /* \"#utility.yul\":3974:3981   */\n      dup5\n        /* \"#utility.yul\":3970:3993   */\n      sub\n        /* \"#utility.yul\":3966:3998   */\n      slt\n        /* \"#utility.yul\":3963:4082   */\n      iszero\n      tag_677\n      jumpi\n        /* \"#utility.yul\":4001:4080   */\n      tag_678\n      tag_534\n      jump\t// in\n    tag_678:\n        /* \"#utility.yul\":3963:4082   */\n    tag_677:\n        /* \"#utility.yul\":4121:4122   */\n      0x00\n        /* \"#utility.yul\":4146:4199   */\n      tag_679\n        /* \"#utility.yul\":4191:4198   */\n      dup5\n        /* \"#utility.yul\":4182:4188   */\n      dup3\n        /* \"#utility.yul\":4171:4180   */\n      dup6\n        /* \"#utility.yul\":4167:4189   */\n      add\n        /* \"#utility.yul\":4146:4199   */\n      tag_550\n      jump\t// in\n    tag_679:\n        /* \"#utility.yul\":4136:4199   */\n      swap2\n      pop\n        /* \"#utility.yul\":4092:4209   */\n      pop\n        /* \"#utility.yul\":3887:4216   */\n      swap3\n      swap2\n      pop\n      pop\n      jump\t// out\n        /* \"#utility.yul\":4222:4340   */\n    tag_551:\n        /* \"#utility.yul\":4309:4333   */\n      tag_681\n        /* \"#utility.yul\":4327:4332   */\n      dup2\n        /* \"#utility.yul\":4309:4333   */\n      tag_548\n      jump\t// in\n    tag_681:\n        /* \"#utility.yul\":4304:4307   */\n      dup3\n        /* \"#utility.yul\":4297:4334   */\n      mstore\n        /* \"#utility.yul\":4222:4340   */\n      pop\n      pop\n      jump\t// out\n        /* \"#utility.yul\":4346:4568   */\n    tag_87:\n        /* \"#utility.yul\":4439:4443   */\n      0x00\n        /* \"#utility.yul\":4477:4479   */\n      0x20\n        /* \"#utility.yul\":4466:4475   */\n      dup3\n        /* \"#utility.yul\":4462:4480   */\n      add\n        /* \"#utility.yul\":4454:4480   */\n      swap1\n      pop\n        /* \"#utility.yul\":4490:4561   */\n      tag_683\n        /* \"#utility.yul\":4558:4559   */\n      0x00\n        /* \"#utility.yul\":4547:4556   */\n      dup4\n        /* \"#utility.yul\":4543:4560   */\n      add\n        /* \"#utility.yul\":4534:4540   */\n      dup5\n        /* \"#utility.yul\":4490:4561   */\n      tag_551\n      jump\t// in\n    tag_683:\n        /* \"#utility.yul\":4346:4568   */\n      swap3\n      swap2\n      pop\n      pop\n      jump\t// out\n        /* \"#utility.yul\":4574:4682   */\n    tag_552:\n        /* \"#utility.yul\":4651:4675   */\n      tag_685\n        /* \"#utility.yul\":4669:4674   */\n      dup2\n        /* \"#utility.yul\":4651:4675   */\n      tag_541\n      jump\t// in\n    tag_685:\n        /* \"#utility.yul\":4646:4649   */\n      dup3\n        /* \"#utility.yul\":4639:4676   */\n      mstore\n        /* \"#utility.yul\":4574:4682   */\n      pop\n      pop\n      jump\t// out\n        /* \"#utility.yul\":4760:5275   */\n    tag_553:\n        /* \"#utility.yul\":4913:4917   */\n      0x40\n        /* \"#utility.yul\":4908:4911   */\n      dup3\n        /* \"#utility.yul\":4904:4918   */\n      add\n        /* \"#utility.yul\":5000:5004   */\n      0x00\n        /* \"#utility.yul\":4993:4998   */\n      dup3\n        /* \"#utility.yul\":4989:5005   */\n      add\n        /* \"#utility.yul\":4983:5006   */\n      mload\n        /* \"#utility.yul\":5019:5082   */\n      tag_687\n        /* \"#utility.yul\":5076:5080   */\n      0x00\n        /* \"#utility.yul\":5071:5074   */\n      dup6\n        /* \"#utility.yul\":5067:5081   */\n      add\n        /* \"#utility.yul\":5053:5065   */\n      dup3\n        /* \"#utility.yul\":5019:5082   */\n      tag_552\n      jump\t// in\n    tag_687:\n        /* \"#utility.yul\":4928:5092   */\n      pop\n        /* \"#utility.yul\":5176:5180   */\n      0x20\n        /* \"#utility.yul\":5169:5174   */\n      dup3\n        /* \"#utility.yul\":5165:5181   */\n      add\n        /* \"#utility.yul\":5159:5182   */\n      mload\n        /* \"#utility.yul\":5195:5258   */\n      tag_688\n        /* \"#utility.yul\":5252:5256   */\n      0x20\n        /* \"#utility.yul\":5247:5250   */\n      dup6\n        /* \"#utility.yul\":5243:5257   */\n      add\n        /* \"#utility.yul\":5229:5241   */\n      dup3\n        /* \"#utility.yul\":5195:5258   */\n      tag_552\n      jump\t// in\n    tag_688:\n        /* \"#utility.yul\":5102:5268   */\n      pop\n        /* \"#utility.yul\":4882:5275   */\n      pop\n        /* \"#utility.yul\":4760:5275   */\n      pop\n      pop\n      jump\t// out\n        /* \"#utility.yul\":5281:5615   */\n    tag_93:\n        /* \"#utility.yul\":5430:5434   */\n      0x00\n        /* \"#utility.yul\":5468:5470   */\n      0x40\n        /* \"#utility.yul\":5457:5466   */\n      dup3\n        /* \"#utility.yul\":5453:5471   */\n      add\n        /* \"#utility.yul\":5445:5471   */\n      swap1\n      pop\n        /* \"#utility.yul\":5481:5608   */\n      tag_690\n        /* \"#utility.yul\":5605:5606   */\n      0x00\n        /* \"#utility.yul\":5594:5603   */\n      dup4\n        /* \"#utility.yul\":5590:5607   */\n      add\n        /* \"#utility.yul\":5581:5587   */\n      dup5\n        /* \"#utility.yul\":5481:5608   */\n      tag_553\n      jump\t// in\n    tag_690:\n        /* \"#utility.yul\":5281:5615   */\n      swap3\n      swap2\n      pop\n      pop\n      jump\t// out\n        /* \"#utility.yul\":5621:5720   */\n    tag_554:\n        /* \"#utility.yul\":5673:5679   */\n      0x00\n        /* \"#utility.yul\":5707:5712   */\n      dup2\n        /* \"#utility.yul\":5701:5713   */\n      mload\n        /* \"#utility.yul\":5691:5713   */\n      swap1\n      pop\n        /* \"#utility.yul\":5621:5720   */\n      swap2\n      swap1\n      pop\n      jump\t// out\n        /* \"#utility.yul\":5726:5895   */\n    tag_555:\n        /* \"#utility.yul\":5810:5821   */\n      0x00\n        /* \"#utility.yul\":5844:5850   */\n      dup3\n        /* \"#utility.yul\":5839:5842   */\n      dup3\n        /* \"#utility.yul\":5832:5851   */\n      mstore\n        /* \"#utility.yul\":5884:5888   */\n      0x20\n        /* \"#utility.yul\":5879:5882   */\n      dup3\n        /* \"#utility.yul\":5875:5889   */\n      add\n        /* \"#utility.yul\":5860:5889   */\n      swap1\n      pop\n        /* \"#utility.yul\":5726:5895   */\n      swap3\n      swap2\n      pop\n      pop\n      jump\t// out\n        /* \"#utility.yul\":5901:6147   */\n    tag_556:\n        /* \"#utility.yul\":5982:5983   */\n      0x00\n        /* \"#utility.yul\":5992:6105   */\n    tag_694:\n        /* \"#utility.yul\":6006:6012   */\n      dup4\n        /* \"#utility.yul\":6003:6004   */\n      dup2\n        /* \"#utility.yul\":6000:6013   */\n      lt\n        /* \"#utility.yul\":5992:6105   */\n      iszero\n      tag_696\n      jumpi\n        /* \"#utility.yul\":6091:6092   */\n      dup1\n        /* \"#utility.yul\":6086:6089   */\n      dup3\n        /* \"#utility.yul\":6082:6093   */\n      add\n        /* \"#utility.yul\":6076:6094   */\n      mload\n        /* \"#utility.yul\":6072:6073   */\n      dup2\n        /* \"#utility.yul\":6067:6070   */\n      dup5\n        /* \"#utility.yul\":6063:6074   */\n      add\n        /* \"#utility.yul\":6056:6095   */\n      mstore\n        /* \"#utility.yul\":6028:6030   */\n      0x20\n        /* \"#utility.yul\":6025:6026   */\n      dup2\n        /* \"#utility.yul\":6021:6031   */\n      add\n        /* \"#utility.yul\":6016:6031   */\n      swap1\n      pop\n        /* \"#utility.yul\":5992:6105   */\n      jump(tag_694)\n    tag_696:\n        /* \"#utility.yul\":6139:6140   */\n      0x00\n        /* \"#utility.yul\":6130:6136   */\n      dup5\n        /* \"#utility.yul\":6125:6128   */\n      dup5\n        /* \"#utility.yul\":6121:6137   */\n      add\n        /* \"#utility.yul\":6114:6141   */\n      mstore\n        /* \"#utility.yul\":5963:6147   */\n      pop\n        /* \"#utility.yul\":5901:6147   */\n      pop\n      pop\n      pop\n      jump\t// out\n        /* \"#utility.yul\":6153:6255   */\n    tag_557:\n        /* \"#utility.yul\":6194:6200   */\n      0x00\n        /* \"#utility.yul\":6245:6247   */\n      0x1f\n        /* \"#utility.yul\":6241:6248   */\n      not\n        /* \"#utility.yul\":6236:6238   */\n      0x1f\n        /* \"#utility.yul\":6229:6234   */\n      dup4\n        /* \"#utility.yul\":6225:6239   */\n      add\n        /* \"#utility.yul\":6221:6249   */\n      and\n        /* \"#utility.yul\":6211:6249   */\n      swap1\n      pop\n        /* \"#utility.yul\":6153:6255   */\n      swap2\n      swap1\n      pop\n      jump\t// out\n        /* \"#utility.yul\":6261:6638   */\n    tag_558:\n        /* \"#utility.yul\":6349:6352   */\n      0x00\n        /* \"#utility.yul\":6377:6416   */\n      tag_699\n        /* \"#utility.yul\":6410:6415   */\n      dup3\n        /* \"#utility.yul\":6377:6416   */\n      tag_554\n      jump\t// in\n    tag_699:\n        /* \"#utility.yul\":6432:6503   */\n      tag_700\n        /* \"#utility.yul\":6496:6502   */\n      dup2\n        /* \"#utility.yul\":6491:6494   */\n      dup6\n        /* \"#utility.yul\":6432:6503   */\n      tag_555\n      jump\t// in\n    tag_700:\n        /* \"#utility.yul\":6425:6503   */\n      swap4\n      pop\n        /* \"#utility.yul\":6512:6577   */\n      tag_701\n        /* \"#utility.yul\":6570:6576   */\n      dup2\n        /* \"#utility.yul\":6565:6568   */\n      dup6\n        /* \"#utility.yul\":6558:6562   */\n      0x20\n        /* \"#utility.yul\":6551:6556   */\n      dup7\n        /* \"#utility.yul\":6547:6563   */\n      add\n        /* \"#utility.yul\":6512:6577   */\n      tag_556\n      jump\t// in\n    tag_701:\n        /* \"#utility.yul\":6602:6631   */\n      tag_702\n        /* \"#utility.yul\":6624:6630   */\n      dup2\n        /* \"#utility.yul\":6602:6631   */\n      tag_557\n      jump\t// in\n    tag_702:\n        /* \"#utility.yul\":6597:6600   */\n      dup5\n        /* \"#utility.yul\":6593:6632   */\n      add\n        /* \"#utility.yul\":6586:6632   */\n      swap2\n      pop\n        /* \"#utility.yul\":6353:6638   */\n      pop\n        /* \"#utility.yul\":6261:6638   */\n      swap3\n      swap2\n      pop\n      pop\n      jump\t// out\n        /* \"#utility.yul\":6644:6957   */\n    tag_98:\n        /* \"#utility.yul\":6757:6761   */\n      0x00\n        /* \"#utility.yul\":6795:6797   */\n      0x20\n        /* \"#utility.yul\":6784:6793   */\n      dup3\n        /* \"#utility.yul\":6780:6798   */\n      add\n        /* \"#utility.yul\":6772:6798   */\n      swap1\n      pop\n        /* \"#utility.yul\":6844:6853   */\n      dup2\n        /* \"#utility.yul\":6838:6842   */\n      dup2\n        /* \"#utility.yul\":6834:6854   */\n      sub\n        /* \"#utility.yul\":6830:6831   */\n      0x00\n        /* \"#utility.yul\":6819:6828   */\n      dup4\n        /* \"#utility.yul\":6815:6832   */\n      add\n        /* \"#utility.yul\":6808:6855   */\n      mstore\n        /* \"#utility.yul\":6872:6950   */\n      tag_704\n        /* \"#utility.yul\":6945:6949   */\n      dup2\n        /* \"#utility.yul\":6936:6942   */\n      dup5\n        /* \"#utility.yul\":6872:6950   */\n      tag_558\n      jump\t// in\n    tag_704:\n        /* \"#utility.yul\":6864:6950   */\n      swap1\n      pop\n        /* \"#utility.yul\":6644:6957   */\n      swap3\n      swap2\n      pop\n      pop\n      jump\t// out\n        /* \"#utility.yul\":6963:7437   */\n    tag_102:\n        /* \"#utility.yul\":7031:7037   */\n      0x00\n        /* \"#utility.yul\":7039:7045   */\n      dup1\n        /* \"#utility.yul\":7088:7090   */\n      0x40\n        /* \"#utility.yul\":7076:7085   */\n      dup4\n        /* \"#utility.yul\":7067:7074   */\n      dup6\n        /* \"#utility.yul\":7063:7086   */\n      sub\n        /* \"#utility.yul\":7059:7091   */\n      slt\n        /* \"#utility.yul\":7056:7175   */\n      iszero\n      tag_706\n      jumpi\n        /* \"#utility.yul\":7094:7173   */\n      tag_707\n      tag_534\n      jump\t// in\n    tag_707:\n        /* \"#utility.yul\":7056:7175   */\n    tag_706:\n        /* \"#utility.yul\":7214:7215   */\n      0x00\n        /* \"#utility.yul\":7239:7292   */\n      tag_708\n        /* \"#utility.yul\":7284:7291   */\n      dup6\n        /* \"#utility.yul\":7275:7281   */\n      dup3\n        /* \"#utility.yul\":7264:7273   */\n      dup7\n        /* \"#utility.yul\":7260:7282   */\n      add\n        /* \"#utility.yul\":7239:7292   */\n      tag_550\n      jump\t// in\n    tag_708:\n        /* \"#utility.yul\":7229:7292   */\n      swap3\n      pop\n        /* \"#utility.yul\":7185:7302   */\n      pop\n        /* \"#utility.yul\":7341:7343   */\n      0x20\n        /* \"#utility.yul\":7367:7420   */\n      tag_709\n        /* \"#utility.yul\":7412:7419   */\n      dup6\n        /* \"#utility.yul\":7403:7409   */\n      dup3\n        /* \"#utility.yul\":7392:7401   */\n      dup7\n        /* \"#utility.yul\":7388:7410   */\n      add\n        /* \"#utility.yul\":7367:7420   */\n      tag_547\n      jump\t// in\n    tag_709:\n        /* \"#utility.yul\":7357:7420   */\n      swap2\n      pop\n        /* \"#utility.yul\":7312:7430   */\n      pop\n        /* \"#utility.yul\":6963:7437   */\n      swap3\n      pop\n      swap3\n      swap1\n      pop\n      jump\t// out\n        /* \"#utility.yul\":7443:8062   */\n    tag_111:\n        /* \"#utility.yul\":7520:7526   */\n      0x00\n        /* \"#utility.yul\":7528:7534   */\n      dup1\n        /* \"#utility.yul\":7536:7542   */\n      0x00\n        /* \"#utility.yul\":7585:7587   */\n      0x60\n        /* \"#utility.yul\":7573:7582   */\n      dup5\n        /* \"#utility.yul\":7564:7571   */\n      dup7\n        /* \"#utility.yul\":7560:7583   */\n      sub\n        /* \"#utility.yul\":7556:7588   */\n      slt\n        /* \"#utility.yul\":7553:7672   */\n      iszero\n      tag_711\n      jumpi\n        /* \"#utility.yul\":7591:7670   */\n      tag_712\n      tag_534\n      jump\t// in\n    tag_712:\n        /* \"#utility.yul\":7553:7672   */\n    tag_711:\n        /* \"#utility.yul\":7711:7712   */\n      0x00\n        /* \"#utility.yul\":7736:7789   */\n      tag_713\n        /* \"#utility.yul\":7781:7788   */\n      dup7\n        /* \"#utility.yul\":7772:7778   */\n      dup3\n        /* \"#utility.yul\":7761:7770   */\n      dup8\n        /* \"#utility.yul\":7757:7779   */\n      add\n        /* \"#utility.yul\":7736:7789   */\n      tag_547\n      jump\t// in\n    tag_713:\n        /* \"#utility.yul\":7726:7789   */\n      swap4\n      pop\n        /* \"#utility.yul\":7682:7799   */\n      pop\n        /* \"#utility.yul\":7838:7840   */\n      0x20\n        /* \"#utility.yul\":7864:7917   */\n      tag_714\n        /* \"#utility.yul\":7909:7916   */\n      dup7\n        /* \"#utility.yul\":7900:7906   */\n      dup3\n        /* \"#utility.yul\":7889:7898   */\n      dup8\n        /* \"#utility.yul\":7885:7907   */\n      add\n        /* \"#utility.yul\":7864:7917   */\n      tag_543\n      jump\t// in\n    tag_714:\n        /* \"#utility.yul\":7854:7917   */\n      swap3\n      pop\n        /* \"#utility.yul\":7809:7927   */\n      pop\n        /* \"#utility.yul\":7966:7968   */\n      0x40\n        /* \"#utility.yul\":7992:8045   */\n      tag_715\n        /* \"#utility.yul\":8037:8044   */\n      dup7\n        /* \"#utility.yul\":8028:8034   */\n      dup3\n        /* \"#utility.yul\":8017:8026   */\n      dup8\n        /* \"#utility.yul\":8013:8035   */\n      add\n        /* \"#utility.yul\":7992:8045   */\n      tag_543\n      jump\t// in\n    tag_715:\n        /* \"#utility.yul\":7982:8045   */\n      swap2\n      pop\n        /* \"#utility.yul\":7937:8055   */\n      pop\n        /* \"#utility.yul\":7443:8062   */\n      swap3\n      pop\n      swap3\n      pop\n      swap3\n      jump\t// out\n        /* \"#utility.yul\":8068:8186   */\n    tag_559:\n        /* \"#utility.yul\":8155:8179   */\n      tag_717\n        /* \"#utility.yul\":8173:8178   */\n      dup2\n        /* \"#utility.yul\":8155:8179   */\n      tag_541\n      jump\t// in\n    tag_717:\n        /* \"#utility.yul\":8150:8153   */\n      dup3\n        /* \"#utility.yul\":8143:8180   */\n      mstore\n        /* \"#utility.yul\":8068:8186   */\n      pop\n      pop\n      jump\t// out\n        /* \"#utility.yul\":8192:8414   */\n    tag_118:\n        /* \"#utility.yul\":8285:8289   */\n      0x00\n        /* \"#utility.yul\":8323:8325   */\n      0x20\n        /* \"#utility.yul\":8312:8321   */\n      dup3\n        /* \"#utility.yul\":8308:8326   */\n      add\n        /* \"#utility.yul\":8300:8326   */\n      swap1\n      pop\n        /* \"#utility.yul\":8336:8407   */\n      tag_719\n        /* \"#utility.yul\":8404:8405   */\n      0x00\n        /* \"#utility.yul\":8393:8402   */\n      dup4\n        /* \"#utility.yul\":8389:8406   */\n      add\n        /* \"#utility.yul\":8380:8386   */\n      dup5\n        /* \"#utility.yul\":8336:8407   */\n      tag_559\n      jump\t// in\n    tag_719:\n        /* \"#utility.yul\":8192:8414   */\n      swap3\n      swap2\n      pop\n      pop\n      jump\t// out\n        /* \"#utility.yul\":8420:8894   */\n    tag_127:\n        /* \"#utility.yul\":8488:8494   */\n      0x00\n        /* \"#utility.yul\":8496:8502   */\n      dup1\n        /* \"#utility.yul\":8545:8547   */\n      0x40\n        /* \"#utility.yul\":8533:8542   */\n      dup4\n        /* \"#utility.yul\":8524:8531   */\n      dup6\n        /* \"#utility.yul\":8520:8543   */\n      sub\n        /* \"#utility.yul\":8516:8548   */\n      slt\n        /* \"#utility.yul\":8513:8632   */\n      iszero\n      tag_721\n      jumpi\n        /* \"#utility.yul\":8551:8630   */\n      tag_722\n      tag_534\n      jump\t// in\n    tag_722:\n        /* \"#utility.yul\":8513:8632   */\n    tag_721:\n        /* \"#utility.yul\":8671:8672   */\n      0x00\n        /* \"#utility.yul\":8696:8749   */\n      tag_723\n        /* \"#utility.yul\":8741:8748   */\n      dup6\n        /* \"#utility.yul\":8732:8738   */\n      dup3\n        /* \"#utility.yul\":8721:8730   */\n      dup7\n        /* \"#utility.yul\":8717:8739   */\n      add\n        /* \"#utility.yul\":8696:8749   */\n      tag_547\n      jump\t// in\n    tag_723:\n        /* \"#utility.yul\":8686:8749   */\n      swap3\n      pop\n        /* \"#utility.yul\":8642:8759   */\n      pop\n        /* \"#utility.yul\":8798:8800   */\n      0x20\n        /* \"#utility.yul\":8824:8877   */\n      tag_724\n        /* \"#utility.yul\":8869:8876   */\n      dup6\n        /* \"#utility.yul\":8860:8866   */\n      dup3\n        /* \"#utility.yul\":8849:8858   */\n      dup7\n        /* \"#utility.yul\":8845:8867   */\n      add\n        /* \"#utility.yul\":8824:8877   */\n      tag_543\n      jump\t// in\n    tag_724:\n        /* \"#utility.yul\":8814:8877   */\n      swap2\n      pop\n        /* \"#utility.yul\":8769:8887   */\n      pop\n        /* \"#utility.yul\":8420:8894   */\n      swap3\n      pop\n      swap3\n      swap1\n      pop\n      jump\t// out\n        /* \"#utility.yul\":8900:8986   */\n    tag_560:\n        /* \"#utility.yul\":8935:8942   */\n      0x00\n        /* \"#utility.yul\":8975:8979   */\n      0xff\n        /* \"#utility.yul\":8968:8973   */\n      dup3\n        /* \"#utility.yul\":8964:8980   */\n      and\n        /* \"#utility.yul\":8953:8980   */\n      swap1\n      pop\n        /* \"#utility.yul\":8900:8986   */\n      swap2\n      swap1\n      pop\n      jump\t// out\n        /* \"#utility.yul\":8992:9104   */\n    tag_561:\n        /* \"#utility.yul\":9075:9097   */\n      tag_727\n        /* \"#utility.yul\":9091:9096   */\n      dup2\n        /* \"#utility.yul\":9075:9097   */\n      tag_560\n      jump\t// in\n    tag_727:\n        /* \"#utility.yul\":9070:9073   */\n      dup3\n        /* \"#utility.yul\":9063:9098   */\n      mstore\n        /* \"#utility.yul\":8992:9104   */\n      pop\n      pop\n      jump\t// out\n        /* \"#utility.yul\":9110:9877   */\n    tag_151:\n        /* \"#utility.yul\":9339:9343   */\n      0x00\n        /* \"#utility.yul\":9377:9380   */\n      0xc0\n        /* \"#utility.yul\":9366:9375   */\n      dup3\n        /* \"#utility.yul\":9362:9381   */\n      add\n        /* \"#utility.yul\":9354:9381   */\n      swap1\n      pop\n        /* \"#utility.yul\":9391:9458   */\n      tag_729\n        /* \"#utility.yul\":9455:9456   */\n      0x00\n        /* \"#utility.yul\":9444:9453   */\n      dup4\n        /* \"#utility.yul\":9440:9457   */\n      add\n        /* \"#utility.yul\":9431:9437   */\n      dup10\n        /* \"#utility.yul\":9391:9458   */\n      tag_561\n      jump\t// in\n    tag_729:\n        /* \"#utility.yul\":9468:9540   */\n      tag_730\n        /* \"#utility.yul\":9536:9538   */\n      0x20\n        /* \"#utility.yul\":9525:9534   */\n      dup4\n        /* \"#utility.yul\":9521:9539   */\n      add\n        /* \"#utility.yul\":9512:9518   */\n      dup9\n        /* \"#utility.yul\":9468:9540   */\n      tag_559\n      jump\t// in\n    tag_730:\n        /* \"#utility.yul\":9550:9622   */\n      tag_731\n        /* \"#utility.yul\":9618:9620   */\n      0x40\n        /* \"#utility.yul\":9607:9616   */\n      dup4\n        /* \"#utility.yul\":9603:9621   */\n      add\n        /* \"#utility.yul\":9594:9600   */\n      dup8\n        /* \"#utility.yul\":9550:9622   */\n      tag_559\n      jump\t// in\n    tag_731:\n        /* \"#utility.yul\":9632:9704   */\n      tag_732\n        /* \"#utility.yul\":9700:9702   */\n      0x60\n        /* \"#utility.yul\":9689:9698   */\n      dup4\n        /* \"#utility.yul\":9685:9703   */\n      add\n        /* \"#utility.yul\":9676:9682   */\n      dup7\n        /* \"#utility.yul\":9632:9704   */\n      tag_559\n      jump\t// in\n    tag_732:\n        /* \"#utility.yul\":9714:9787   */\n      tag_733\n        /* \"#utility.yul\":9782:9785   */\n      0x80\n        /* \"#utility.yul\":9771:9780   */\n      dup4\n        /* \"#utility.yul\":9767:9786   */\n      add\n        /* \"#utility.yul\":9758:9764   */\n      dup6\n        /* \"#utility.yul\":9714:9787   */\n      tag_559\n      jump\t// in\n    tag_733:\n        /* \"#utility.yul\":9797:9870   */\n      tag_734\n        /* \"#utility.yul\":9865:9868   */\n      0xa0\n        /* \"#utility.yul\":9854:9863   */\n      dup4\n        /* \"#utility.yul\":9850:9869   */\n      add\n        /* \"#utility.yul\":9841:9847   */\n      dup5\n        /* \"#utility.yul\":9797:9870   */\n      tag_559\n      jump\t// in\n    tag_734:\n        /* \"#utility.yul\":9110:9877   */\n      swap8\n      swap7\n      pop\n      pop\n      pop\n      pop\n      pop\n      pop\n      pop\n      jump\t// out\n        /* \"#utility.yul\":9883:9995   */\n    tag_562:\n        /* \"#utility.yul\":9948:9954   */\n      0x00\n        /* \"#utility.yul\":9982:9987   */\n      dup2\n        /* \"#utility.yul\":9976:9988   */\n      mload\n        /* \"#utility.yul\":9966:9988   */\n      swap1\n      pop\n        /* \"#utility.yul\":9883:9995   */\n      swap2\n      swap1\n      pop\n      jump\t// out\n        /* \"#utility.yul\":10001:10183   */\n    tag_563:\n        /* \"#utility.yul\":10098:10109   */\n      0x00\n        /* \"#utility.yul\":10132:10138   */\n      dup3\n        /* \"#utility.yul\":10127:10130   */\n      dup3\n        /* \"#utility.yul\":10120:10139   */\n      mstore\n        /* \"#utility.yul\":10172:10176   */\n      0x20\n        /* \"#utility.yul\":10167:10170   */\n      dup3\n        /* \"#utility.yul\":10163:10177   */\n      add\n        /* \"#utility.yul\":10148:10177   */\n      swap1\n      pop\n        /* \"#utility.yul\":10001:10183   */\n      swap3\n      swap2\n      pop\n      pop\n      jump\t// out\n        /* \"#utility.yul\":10189:10319   */\n    tag_564:\n        /* \"#utility.yul\":10254:10258   */\n      0x00\n        /* \"#utility.yul\":10277:10280   */\n      dup2\n        /* \"#utility.yul\":10269:10280   */\n      swap1\n      pop\n        /* \"#utility.yul\":10307:10311   */\n      0x20\n        /* \"#utility.yul\":10302:10305   */\n      dup3\n        /* \"#utility.yul\":10298:10312   */\n      add\n        /* \"#utility.yul\":10290:10312   */\n      swap1\n      pop\n        /* \"#utility.yul\":10189:10319   */\n      swap2\n      swap1\n      pop\n      jump\t// out\n        /* \"#utility.yul\":10325:10427   */\n    tag_565:\n        /* \"#utility.yul\":10398:10420   */\n      tag_739\n        /* \"#utility.yul\":10414:10419   */\n      dup2\n        /* \"#utility.yul\":10398:10420   */\n      tag_560\n      jump\t// in\n    tag_739:\n        /* \"#utility.yul\":10393:10396   */\n      dup3\n        /* \"#utility.yul\":10386:10421   */\n      mstore\n        /* \"#utility.yul\":10325:10427   */\n      pop\n      pop\n      jump\t// out\n        /* \"#utility.yul\":10433:10604   */\n    tag_566:\n        /* \"#utility.yul\":10498:10508   */\n      0x00\n        /* \"#utility.yul\":10519:10561   */\n      tag_741\n        /* \"#utility.yul\":10557:10560   */\n      dup4\n        /* \"#utility.yul\":10549:10555   */\n      dup4\n        /* \"#utility.yul\":10519:10561   */\n      tag_565\n      jump\t// in\n    tag_741:\n        /* \"#utility.yul\":10593:10597   */\n      0x20\n        /* \"#utility.yul\":10588:10591   */\n      dup4\n        /* \"#utility.yul\":10584:10598   */\n      add\n        /* \"#utility.yul\":10570:10598   */\n      swap1\n      pop\n        /* \"#utility.yul\":10433:10604   */\n      swap3\n      swap2\n      pop\n      pop\n      jump\t// out\n        /* \"#utility.yul\":10610:10721   */\n    tag_567:\n        /* \"#utility.yul\":10678:10682   */\n      0x00\n        /* \"#utility.yul\":10710:10714   */\n      0x20\n        /* \"#utility.yul\":10705:10708   */\n      dup3\n        /* \"#utility.yul\":10701:10715   */\n      add\n        /* \"#utility.yul\":10693:10715   */\n      swap1\n      pop\n        /* \"#utility.yul\":10610:10721   */\n      swap2\n      swap1\n      pop\n      jump\t// out\n        /* \"#utility.yul\":10753:11469   */\n    tag_568:\n        /* \"#utility.yul\":10868:10871   */\n      0x00\n        /* \"#utility.yul\":10897:10949   */\n      tag_744\n        /* \"#utility.yul\":10943:10948   */\n      dup3\n        /* \"#utility.yul\":10897:10949   */\n      tag_562\n      jump\t// in\n    tag_744:\n        /* \"#utility.yul\":10965:11049   */\n      tag_745\n        /* \"#utility.yul\":11042:11048   */\n      dup2\n        /* \"#utility.yul\":11037:11040   */\n      dup6\n        /* \"#utility.yul\":10965:11049   */\n      tag_563\n      jump\t// in\n    tag_745:\n        /* \"#utility.yul\":10958:11049   */\n      swap4\n      pop\n        /* \"#utility.yul\":11073:11127   */\n      tag_746\n        /* \"#utility.yul\":11121:11126   */\n      dup4\n        /* \"#utility.yul\":11073:11127   */\n      tag_564\n      jump\t// in\n    tag_746:\n        /* \"#utility.yul\":11150:11157   */\n      dup1\n        /* \"#utility.yul\":11181:11182   */\n      0x00\n        /* \"#utility.yul\":11166:11444   */\n    tag_747:\n        /* \"#utility.yul\":11191:11197   */\n      dup4\n        /* \"#utility.yul\":11188:11189   */\n      dup2\n        /* \"#utility.yul\":11185:11198   */\n      lt\n        /* \"#utility.yul\":11166:11444   */\n      iszero\n      tag_749\n      jumpi\n        /* \"#utility.yul\":11267:11273   */\n      dup2\n        /* \"#utility.yul\":11261:11274   */\n      mload\n        /* \"#utility.yul\":11294:11353   */\n      tag_750\n        /* \"#utility.yul\":11349:11352   */\n      dup9\n        /* \"#utility.yul\":11334:11347   */\n      dup3\n        /* \"#utility.yul\":11294:11353   */\n      tag_566\n      jump\t// in\n    tag_750:\n        /* \"#utility.yul\":11287:11353   */\n      swap8\n      pop\n        /* \"#utility.yul\":11376:11434   */\n      tag_751\n        /* \"#utility.yul\":11427:11433   */\n      dup4\n        /* \"#utility.yul\":11376:11434   */\n      tag_567\n      jump\t// in\n    tag_751:\n        /* \"#utility.yul\":11366:11434   */\n      swap3\n      pop\n        /* \"#utility.yul\":11226:11444   */\n      pop\n        /* \"#utility.yul\":11213:11214   */\n      0x01\n        /* \"#utility.yul\":11210:11211   */\n      dup2\n        /* \"#utility.yul\":11206:11215   */\n      add\n        /* \"#utility.yul\":11201:11215   */\n      swap1\n      pop\n        /* \"#utility.yul\":11166:11444   */\n      jump(tag_747)\n    tag_749:\n        /* \"#utility.yul\":11170:11184   */\n      pop\n        /* \"#utility.yul\":11460:11463   */\n      dup6\n        /* \"#utility.yul\":11453:11463   */\n      swap4\n      pop\n        /* \"#utility.yul\":10873:11469   */\n      pop\n      pop\n      pop\n        /* \"#utility.yul\":10753:11469   */\n      swap3\n      swap2\n      pop\n      pop\n      jump\t// out\n        /* \"#utility.yul\":11475:11840   */\n    tag_165:\n        /* \"#utility.yul\":11614:11618   */\n      0x00\n        /* \"#utility.yul\":11652:11654   */\n      0x20\n        /* \"#utility.yul\":11641:11650   */\n      dup3\n        /* \"#utility.yul\":11637:11655   */\n      add\n        /* \"#utility.yul\":11629:11655   */\n      swap1\n      pop\n        /* \"#utility.yul\":11701:11710   */\n      dup2\n        /* \"#utility.yul\":11695:11699   */\n      dup2\n        /* \"#utility.yul\":11691:11711   */\n      sub\n        /* \"#utility.yul\":11687:11688   */\n      0x00\n        /* \"#utility.yul\":11676:11685   */\n      dup4\n        /* \"#utility.yul\":11672:11689   */\n      add\n        /* \"#utility.yul\":11665:11712   */\n      mstore\n        /* \"#utility.yul\":11729:11833   */\n      tag_753\n        /* \"#utility.yul\":11828:11832   */\n      dup2\n        /* \"#utility.yul\":11819:11825   */\n      dup5\n        /* \"#utility.yul\":11729:11833   */\n      tag_568\n      jump\t// in\n    tag_753:\n        /* \"#utility.yul\":11721:11833   */\n      swap1\n      pop\n        /* \"#utility.yul\":11475:11840   */\n      swap3\n      swap2\n      pop\n      pop\n      jump\t// out\n        /* \"#utility.yul\":11846:11964   */\n    tag_569:\n        /* \"#utility.yul\":11917:11939   */\n      tag_755\n        /* \"#utility.yul\":11933:11938   */\n      dup2\n        /* \"#utility.yul\":11917:11939   */\n      tag_560\n      jump\t// in\n    tag_755:\n        /* \"#utility.yul\":11910:11915   */\n      dup2\n        /* \"#utility.yul\":11907:11940   */\n      eq\n        /* \"#utility.yul\":11897:11958   */\n      tag_756\n      jumpi\n        /* \"#utility.yul\":11954:11955   */\n      0x00\n        /* \"#utility.yul\":11951:11952   */\n      dup1\n        /* \"#utility.yul\":11944:11956   */\n      revert\n        /* \"#utility.yul\":11897:11958   */\n    tag_756:\n        /* \"#utility.yul\":11846:11964   */\n      pop\n      jump\t// out\n        /* \"#utility.yul\":11970:12105   */\n    tag_570:\n        /* \"#utility.yul\":12014:12019   */\n      0x00\n        /* \"#utility.yul\":12052:12058   */\n      dup2\n        /* \"#utility.yul\":12039:12059   */\n      calldataload\n        /* \"#utility.yul\":12030:12059   */\n      swap1\n      pop\n        /* \"#utility.yul\":12068:12099   */\n      tag_758\n        /* \"#utility.yul\":12093:12098   */\n      dup2\n        /* \"#utility.yul\":12068:12099   */\n      tag_569\n      jump\t// in\n    tag_758:\n        /* \"#utility.yul\":11970:12105   */\n      swap3\n      swap2\n      pop\n      pop\n      jump\t// out\n        /* \"#utility.yul\":12111:12581   */\n    tag_171:\n        /* \"#utility.yul\":12177:12183   */\n      0x00\n        /* \"#utility.yul\":12185:12191   */\n      dup1\n        /* \"#utility.yul\":12234:12236   */\n      0x40\n        /* \"#utility.yul\":12222:12231   */\n      dup4\n        /* \"#utility.yul\":12213:12220   */\n      dup6\n        /* \"#utility.yul\":12209:12232   */\n      sub\n        /* \"#utility.yul\":12205:12237   */\n      slt\n        /* \"#utility.yul\":12202:12321   */\n      iszero\n      tag_760\n      jumpi\n        /* \"#utility.yul\":12240:12319   */\n      tag_761\n      tag_534\n      jump\t// in\n    tag_761:\n        /* \"#utility.yul\":12202:12321   */\n    tag_760:\n        /* \"#utility.yul\":12360:12361   */\n      0x00\n        /* \"#utility.yul\":12385:12438   */\n      tag_762\n        /* \"#utility.yul\":12430:12437   */\n      dup6\n        /* \"#utility.yul\":12421:12427   */\n      dup3\n        /* \"#utility.yul\":12410:12419   */\n      dup7\n        /* \"#utility.yul\":12406:12428   */\n      add\n        /* \"#utility.yul\":12385:12438   */\n      tag_543\n      jump\t// in\n    tag_762:\n        /* \"#utility.yul\":12375:12438   */\n      swap3\n      pop\n        /* \"#utility.yul\":12331:12448   */\n      pop\n        /* \"#utility.yul\":12487:12489   */\n      0x20\n        /* \"#utility.yul\":12513:12564   */\n      tag_763\n        /* \"#utility.yul\":12556:12563   */\n      dup6\n        /* \"#utility.yul\":12547:12553   */\n      dup3\n        /* \"#utility.yul\":12536:12545   */\n      dup7\n        /* \"#utility.yul\":12532:12554   */\n      add\n        /* \"#utility.yul\":12513:12564   */\n      tag_570\n      jump\t// in\n    tag_763:\n        /* \"#utility.yul\":12503:12564   */\n      swap2\n      pop\n        /* \"#utility.yul\":12458:12574   */\n      pop\n        /* \"#utility.yul\":12111:12581   */\n      swap3\n      pop\n      swap3\n      swap1\n      pop\n      jump\t// out\n        /* \"#utility.yul\":12587:12698   */\n    tag_571:\n        /* \"#utility.yul\":12651:12657   */\n      0x00\n        /* \"#utility.yul\":12685:12690   */\n      dup2\n        /* \"#utility.yul\":12679:12691   */\n      mload\n        /* \"#utility.yul\":12669:12691   */\n      swap1\n      pop\n        /* \"#utility.yul\":12587:12698   */\n      swap2\n      swap1\n      pop\n      jump\t// out\n        /* \"#utility.yul\":12704:12885   */\n    tag_572:\n        /* \"#utility.yul\":12800:12811   */\n      0x00\n        /* \"#utility.yul\":12834:12840   */\n      dup3\n        /* \"#utility.yul\":12829:12832   */\n      dup3\n        /* \"#utility.yul\":12822:12841   */\n      mstore\n        /* \"#utility.yul\":12874:12878   */\n      0x20\n        /* \"#utility.yul\":12869:12872   */\n      dup3\n        /* \"#utility.yul\":12865:12879   */\n      add\n        /* \"#utility.yul\":12850:12879   */\n      swap1\n      pop\n        /* \"#utility.yul\":12704:12885   */\n      swap3\n      swap2\n      pop\n      pop\n      jump\t// out\n        /* \"#utility.yul\":12891:13020   */\n    tag_573:\n        /* \"#utility.yul\":12955:12959   */\n      0x00\n        /* \"#utility.yul\":12978:12981   */\n      dup2\n        /* \"#utility.yul\":12970:12981   */\n      swap1\n      pop\n        /* \"#utility.yul\":13008:13012   */\n      0x20\n        /* \"#utility.yul\":13003:13006   */\n      dup3\n        /* \"#utility.yul\":12999:13013   */\n      add\n        /* \"#utility.yul\":12991:13013   */\n      swap1\n      pop\n        /* \"#utility.yul\":12891:13020   */\n      swap2\n      swap1\n      pop\n      jump\t// out\n        /* \"#utility.yul\":13026:13125   */\n    tag_574:\n        /* \"#utility.yul\":13097:13118   */\n      tag_768\n        /* \"#utility.yul\":13112:13117   */\n      dup2\n        /* \"#utility.yul\":13097:13118   */\n      tag_539\n      jump\t// in\n    tag_768:\n        /* \"#utility.yul\":13092:13095   */\n      dup3\n        /* \"#utility.yul\":13085:13119   */\n      mstore\n        /* \"#utility.yul\":13026:13125   */\n      pop\n      pop\n      jump\t// out\n        /* \"#utility.yul\":13131:13298   */\n    tag_575:\n        /* \"#utility.yul\":13194:13204   */\n      0x00\n        /* \"#utility.yul\":13215:13255   */\n      tag_770\n        /* \"#utility.yul\":13251:13254   */\n      dup4\n        /* \"#utility.yul\":13243:13249   */\n      dup4\n        /* \"#utility.yul\":13215:13255   */\n      tag_574\n      jump\t// in\n    tag_770:\n        /* \"#utility.yul\":13287:13291   */\n      0x20\n        /* \"#utility.yul\":13282:13285   */\n      dup4\n        /* \"#utility.yul\":13278:13292   */\n      add\n        /* \"#utility.yul\":13264:13292   */\n      swap1\n      pop\n        /* \"#utility.yul\":13131:13298   */\n      swap3\n      swap2\n      pop\n      pop\n      jump\t// out\n        /* \"#utility.yul\":13304:13414   */\n    tag_576:\n        /* \"#utility.yul\":13371:13375   */\n      0x00\n        /* \"#utility.yul\":13403:13407   */\n      0x20\n        /* \"#utility.yul\":13398:13401   */\n      dup3\n        /* \"#utility.yul\":13394:13408   */\n      add\n        /* \"#utility.yul\":13386:13408   */\n      swap1\n      pop\n        /* \"#utility.yul\":13304:13414   */\n      swap2\n      swap1\n      pop\n      jump\t// out\n        /* \"#utility.yul\":13444:14152   */\n    tag_577:\n        /* \"#utility.yul\":13557:13560   */\n      0x00\n        /* \"#utility.yul\":13586:13637   */\n      tag_773\n        /* \"#utility.yul\":13631:13636   */\n      dup3\n        /* \"#utility.yul\":13586:13637   */\n      tag_571\n      jump\t// in\n    tag_773:\n        /* \"#utility.yul\":13653:13736   */\n      tag_774\n        /* \"#utility.yul\":13729:13735   */\n      dup2\n        /* \"#utility.yul\":13724:13727   */\n      dup6\n        /* \"#utility.yul\":13653:13736   */\n      tag_572\n      jump\t// in\n    tag_774:\n        /* \"#utility.yul\":13646:13736   */\n      swap4\n      pop\n        /* \"#utility.yul\":13760:13813   */\n      tag_775\n        /* \"#utility.yul\":13807:13812   */\n      dup4\n        /* \"#utility.yul\":13760:13813   */\n      tag_573\n      jump\t// in\n    tag_775:\n        /* \"#utility.yul\":13836:13843   */\n      dup1\n        /* \"#utility.yul\":13867:13868   */\n      0x00\n        /* \"#utility.yul\":13852:14127   */\n    tag_776:\n        /* \"#utility.yul\":13877:13883   */\n      dup4\n        /* \"#utility.yul\":13874:13875   */\n      dup2\n        /* \"#utility.yul\":13871:13884   */\n      lt\n        /* \"#utility.yul\":13852:14127   */\n      iszero\n      tag_778\n      jumpi\n        /* \"#utility.yul\":13953:13959   */\n      dup2\n        /* \"#utility.yul\":13947:13960   */\n      mload\n        /* \"#utility.yul\":13980:14037   */\n      tag_779\n        /* \"#utility.yul\":14033:14036   */\n      dup9\n        /* \"#utility.yul\":14018:14031   */\n      dup3\n        /* \"#utility.yul\":13980:14037   */\n      tag_575\n      jump\t// in\n    tag_779:\n        /* \"#utility.yul\":13973:14037   */\n      swap8\n      pop\n        /* \"#utility.yul\":14060:14117   */\n      tag_780\n        /* \"#utility.yul\":14110:14116   */\n      dup4\n        /* \"#utility.yul\":14060:14117   */\n      tag_576\n      jump\t// in\n    tag_780:\n        /* \"#utility.yul\":14050:14117   */\n      swap3\n      pop\n        /* \"#utility.yul\":13912:14127   */\n      pop\n        /* \"#utility.yul\":13899:13900   */\n      0x01\n        /* \"#utility.yul\":13896:13897   */\n      dup2\n        /* \"#utility.yul\":13892:13901   */\n      add\n        /* \"#utility.yul\":13887:13901   */\n      swap1\n      pop\n        /* \"#utility.yul\":13852:14127   */\n      jump(tag_776)\n    tag_778:\n        /* \"#utility.yul\":13856:13870   */\n      pop\n        /* \"#utility.yul\":14143:14146   */\n      dup6\n        /* \"#utility.yul\":14136:14146   */\n      swap4\n      pop\n        /* \"#utility.yul\":13562:14152   */\n      pop\n      pop\n      pop\n        /* \"#utility.yul\":13444:14152   */\n      swap3\n      swap2\n      pop\n      pop\n      jump\t// out\n        /* \"#utility.yul\":14158:14519   */\n    tag_187:\n        /* \"#utility.yul\":14295:14299   */\n      0x00\n        /* \"#utility.yul\":14333:14335   */\n      0x20\n        /* \"#utility.yul\":14322:14331   */\n      dup3\n        /* \"#utility.yul\":14318:14336   */\n      add\n        /* \"#utility.yul\":14310:14336   */\n      swap1\n      pop\n        /* \"#utility.yul\":14382:14391   */\n      dup2\n        /* \"#utility.yul\":14376:14380   */\n      dup2\n        /* \"#utility.yul\":14372:14392   */\n      sub\n        /* \"#utility.yul\":14368:14369   */\n      0x00\n        /* \"#utility.yul\":14357:14366   */\n      dup4\n        /* \"#utility.yul\":14353:14370   */\n      add\n        /* \"#utility.yul\":14346:14393   */\n      mstore\n        /* \"#utility.yul\":14410:14512   */\n      tag_782\n        /* \"#utility.yul\":14507:14511   */\n      dup2\n        /* \"#utility.yul\":14498:14504   */\n      dup5\n        /* \"#utility.yul\":14410:14512   */\n      tag_577\n      jump\t// in\n    tag_782:\n        /* \"#utility.yul\":14402:14512   */\n      swap1\n      pop\n        /* \"#utility.yul\":14158:14519   */\n      swap3\n      swap2\n      pop\n      pop\n      jump\t// out\n        /* \"#utility.yul\":14525:14668   */\n    tag_578:\n        /* \"#utility.yul\":14621:14627   */\n      0x00\n        /* \"#utility.yul\":14655:14660   */\n      dup2\n        /* \"#utility.yul\":14649:14661   */\n      mload\n        /* \"#utility.yul\":14639:14661   */\n      swap1\n      pop\n        /* \"#utility.yul\":14525:14668   */\n      swap2\n      swap1\n      pop\n      jump\t// out\n        /* \"#utility.yul\":14674:14887   */\n    tag_579:\n        /* \"#utility.yul\":14802:14813   */\n      0x00\n        /* \"#utility.yul\":14836:14842   */\n      dup3\n        /* \"#utility.yul\":14831:14834   */\n      dup3\n        /* \"#utility.yul\":14824:14843   */\n      mstore\n        /* \"#utility.yul\":14876:14880   */\n      0x20\n        /* \"#utility.yul\":14871:14874   */\n      dup3\n        /* \"#utility.yul\":14867:14881   */\n      add\n        /* \"#utility.yul\":14852:14881   */\n      swap1\n      pop\n        /* \"#utility.yul\":14674:14887   */\n      swap3\n      swap2\n      pop\n      pop\n      jump\t// out\n        /* \"#utility.yul\":14893:15054   */\n    tag_580:\n        /* \"#utility.yul\":14989:14993   */\n      0x00\n        /* \"#utility.yul\":15012:15015   */\n      dup2\n        /* \"#utility.yul\":15004:15015   */\n      swap1\n      pop\n        /* \"#utility.yul\":15042:15046   */\n      0x20\n        /* \"#utility.yul\":15037:15040   */\n      dup3\n        /* \"#utility.yul\":15033:15047   */\n      add\n        /* \"#utility.yul\":15025:15047   */\n      swap1\n      pop\n        /* \"#utility.yul\":14893:15054   */\n      swap2\n      swap1\n      pop\n      jump\t// out\n        /* \"#utility.yul\":15134:15640   */\n    tag_581:\n        /* \"#utility.yul\":15279:15283   */\n      0x40\n        /* \"#utility.yul\":15274:15277   */\n      dup3\n        /* \"#utility.yul\":15270:15284   */\n      add\n        /* \"#utility.yul\":15367:15371   */\n      0x00\n        /* \"#utility.yul\":15360:15365   */\n      dup3\n        /* \"#utility.yul\":15356:15372   */\n      add\n        /* \"#utility.yul\":15350:15373   */\n      mload\n        /* \"#utility.yul\":15386:15449   */\n      tag_787\n        /* \"#utility.yul\":15443:15447   */\n      0x00\n        /* \"#utility.yul\":15438:15441   */\n      dup6\n        /* \"#utility.yul\":15434:15448   */\n      add\n        /* \"#utility.yul\":15420:15432   */\n      dup3\n        /* \"#utility.yul\":15386:15449   */\n      tag_552\n      jump\t// in\n    tag_787:\n        /* \"#utility.yul\":15294:15459   */\n      pop\n        /* \"#utility.yul\":15541:15545   */\n      0x20\n        /* \"#utility.yul\":15534:15539   */\n      dup3\n        /* \"#utility.yul\":15530:15546   */\n      add\n        /* \"#utility.yul\":15524:15547   */\n      mload\n        /* \"#utility.yul\":15560:15623   */\n      tag_788\n        /* \"#utility.yul\":15617:15621   */\n      0x20\n        /* \"#utility.yul\":15612:15615   */\n      dup6\n        /* \"#utility.yul\":15608:15622   */\n      add\n        /* \"#utility.yul\":15594:15606   */\n      dup3\n        /* \"#utility.yul\":15560:15623   */\n      tag_552\n      jump\t// in\n    tag_788:\n        /* \"#utility.yul\":15469:15633   */\n      pop\n        /* \"#utility.yul\":15248:15640   */\n      pop\n        /* \"#utility.yul\":15134:15640   */\n      pop\n      pop\n      jump\t// out\n        /* \"#utility.yul\":15646:15941   */\n    tag_582:\n        /* \"#utility.yul\":15773:15783   */\n      0x00\n        /* \"#utility.yul\":15794:15898   */\n      tag_790\n        /* \"#utility.yul\":15894:15897   */\n      dup4\n        /* \"#utility.yul\":15886:15892   */\n      dup4\n        /* \"#utility.yul\":15794:15898   */\n      tag_581\n      jump\t// in\n    tag_790:\n        /* \"#utility.yul\":15930:15934   */\n      0x40\n        /* \"#utility.yul\":15925:15928   */\n      dup4\n        /* \"#utility.yul\":15921:15935   */\n      add\n        /* \"#utility.yul\":15907:15935   */\n      swap1\n      pop\n        /* \"#utility.yul\":15646:15941   */\n      swap3\n      swap2\n      pop\n      pop\n      jump\t// out\n        /* \"#utility.yul\":15947:16089   */\n    tag_583:\n        /* \"#utility.yul\":16046:16050   */\n      0x00\n        /* \"#utility.yul\":16078:16082   */\n      0x20\n        /* \"#utility.yul\":16073:16076   */\n      dup3\n        /* \"#utility.yul\":16069:16083   */\n      add\n        /* \"#utility.yul\":16061:16083   */\n      swap1\n      pop\n        /* \"#utility.yul\":15947:16089   */\n      swap2\n      swap1\n      pop\n      jump\t// out\n        /* \"#utility.yul\":16173:17137   */\n    tag_584:\n        /* \"#utility.yul\":16350:16353   */\n      0x00\n        /* \"#utility.yul\":16379:16462   */\n      tag_793\n        /* \"#utility.yul\":16456:16461   */\n      dup3\n        /* \"#utility.yul\":16379:16462   */\n      tag_578\n      jump\t// in\n    tag_793:\n        /* \"#utility.yul\":16478:16593   */\n      tag_794\n        /* \"#utility.yul\":16586:16592   */\n      dup2\n        /* \"#utility.yul\":16581:16584   */\n      dup6\n        /* \"#utility.yul\":16478:16593   */\n      tag_579\n      jump\t// in\n    tag_794:\n        /* \"#utility.yul\":16471:16593   */\n      swap4\n      pop\n        /* \"#utility.yul\":16617:16702   */\n      tag_795\n        /* \"#utility.yul\":16696:16701   */\n      dup4\n        /* \"#utility.yul\":16617:16702   */\n      tag_580\n      jump\t// in\n    tag_795:\n        /* \"#utility.yul\":16725:16732   */\n      dup1\n        /* \"#utility.yul\":16756:16757   */\n      0x00\n        /* \"#utility.yul\":16741:17112   */\n    tag_796:\n        /* \"#utility.yul\":16766:16772   */\n      dup4\n        /* \"#utility.yul\":16763:16764   */\n      dup2\n        /* \"#utility.yul\":16760:16773   */\n      lt\n        /* \"#utility.yul\":16741:17112   */\n      iszero\n      tag_798\n      jumpi\n        /* \"#utility.yul\":16842:16848   */\n      dup2\n        /* \"#utility.yul\":16836:16849   */\n      mload\n        /* \"#utility.yul\":16869:16990   */\n      tag_799\n        /* \"#utility.yul\":16986:16989   */\n      dup9\n        /* \"#utility.yul\":16971:16984   */\n      dup3\n        /* \"#utility.yul\":16869:16990   */\n      tag_582\n      jump\t// in\n    tag_799:\n        /* \"#utility.yul\":16862:16990   */\n      swap8\n      pop\n        /* \"#utility.yul\":17013:17102   */\n      tag_800\n        /* \"#utility.yul\":17095:17101   */\n      dup4\n        /* \"#utility.yul\":17013:17102   */\n      tag_583\n      jump\t// in\n    tag_800:\n        /* \"#utility.yul\":17003:17102   */\n      swap3\n      pop\n        /* \"#utility.yul\":16801:17112   */\n      pop\n        /* \"#utility.yul\":16788:16789   */\n      0x01\n        /* \"#utility.yul\":16785:16786   */\n      dup2\n        /* \"#utility.yul\":16781:16790   */\n      add\n        /* \"#utility.yul\":16776:16790   */\n      swap1\n      pop\n        /* \"#utility.yul\":16741:17112   */\n      jump(tag_796)\n    tag_798:\n        /* \"#utility.yul\":16745:16759   */\n      pop\n        /* \"#utility.yul\":17128:17131   */\n      dup6\n        /* \"#utility.yul\":17121:17131   */\n      swap4\n      pop\n        /* \"#utility.yul\":16355:17137   */\n      pop\n      pop\n      pop\n        /* \"#utility.yul\":16173:17137   */\n      swap3\n      swap2\n      pop\n      pop\n      jump\t// out\n        /* \"#utility.yul\":17143:17632   */\n    tag_209:\n        /* \"#utility.yul\":17344:17348   */\n      0x00\n        /* \"#utility.yul\":17382:17384   */\n      0x20\n        /* \"#utility.yul\":17371:17380   */\n      dup3\n        /* \"#utility.yul\":17367:17385   */\n      add\n        /* \"#utility.yul\":17359:17385   */\n      swap1\n      pop\n        /* \"#utility.yul\":17431:17440   */\n      dup2\n        /* \"#utility.yul\":17425:17429   */\n      dup2\n        /* \"#utility.yul\":17421:17441   */\n      sub\n        /* \"#utility.yul\":17417:17418   */\n      0x00\n        /* \"#utility.yul\":17406:17415   */\n      dup4\n        /* \"#utility.yul\":17402:17419   */\n      add\n        /* \"#utility.yul\":17395:17442   */\n      mstore\n        /* \"#utility.yul\":17459:17625   */\n      tag_802\n        /* \"#utility.yul\":17620:17624   */\n      dup2\n        /* \"#utility.yul\":17611:17617   */\n      dup5\n        /* \"#utility.yul\":17459:17625   */\n      tag_584\n      jump\t// in\n    tag_802:\n        /* \"#utility.yul\":17451:17625   */\n      swap1\n      pop\n        /* \"#utility.yul\":17143:17632   */\n      swap3\n      swap2\n      pop\n      pop\n      jump\t// out\n        /* \"#utility.yul\":17638:17752   */\n    tag_585:\n        /* \"#utility.yul\":17705:17711   */\n      0x00\n        /* \"#utility.yul\":17739:17744   */\n      dup2\n        /* \"#utility.yul\":17733:17745   */\n      mload\n        /* \"#utility.yul\":17723:17745   */\n      swap1\n      pop\n        /* \"#utility.yul\":17638:17752   */\n      swap2\n      swap1\n      pop\n      jump\t// out\n        /* \"#utility.yul\":17758:17942   */\n    tag_586:\n        /* \"#utility.yul\":17857:17868   */\n      0x00\n        /* \"#utility.yul\":17891:17897   */\n      dup3\n        /* \"#utility.yul\":17886:17889   */\n      dup3\n        /* \"#utility.yul\":17879:17898   */\n      mstore\n        /* \"#utility.yul\":17931:17935   */\n      0x20\n        /* \"#utility.yul\":17926:17929   */\n      dup3\n        /* \"#utility.yul\":17922:17936   */\n      add\n        /* \"#utility.yul\":17907:17936   */\n      swap1\n      pop\n        /* \"#utility.yul\":17758:17942   */\n      swap3\n      swap2\n      pop\n      pop\n      jump\t// out\n        /* \"#utility.yul\":17948:18080   */\n    tag_587:\n        /* \"#utility.yul\":18015:18019   */\n      0x00\n        /* \"#utility.yul\":18038:18041   */\n      dup2\n        /* \"#utility.yul\":18030:18041   */\n      swap1\n      pop\n        /* \"#utility.yul\":18068:18072   */\n      0x20\n        /* \"#utility.yul\":18063:18066   */\n      dup3\n        /* \"#utility.yul\":18059:18073   */\n      add\n        /* \"#utility.yul\":18051:18073   */\n      swap1\n      pop\n        /* \"#utility.yul\":17948:18080   */\n      swap2\n      swap1\n      pop\n      jump\t// out\n        /* \"#utility.yul\":18086:18265   */\n    tag_588:\n        /* \"#utility.yul\":18155:18165   */\n      0x00\n        /* \"#utility.yul\":18176:18222   */\n      tag_807\n        /* \"#utility.yul\":18218:18221   */\n      dup4\n        /* \"#utility.yul\":18210:18216   */\n      dup4\n        /* \"#utility.yul\":18176:18222   */\n      tag_552\n      jump\t// in\n    tag_807:\n        /* \"#utility.yul\":18254:18258   */\n      0x20\n        /* \"#utility.yul\":18249:18252   */\n      dup4\n        /* \"#utility.yul\":18245:18259   */\n      add\n        /* \"#utility.yul\":18231:18259   */\n      swap1\n      pop\n        /* \"#utility.yul\":18086:18265   */\n      swap3\n      swap2\n      pop\n      pop\n      jump\t// out\n        /* \"#utility.yul\":18271:18384   */\n    tag_589:\n        /* \"#utility.yul\":18341:18345   */\n      0x00\n        /* \"#utility.yul\":18373:18377   */\n      0x20\n        /* \"#utility.yul\":18368:18371   */\n      dup3\n        /* \"#utility.yul\":18364:18378   */\n      add\n        /* \"#utility.yul\":18356:18378   */\n      swap1\n      pop\n        /* \"#utility.yul\":18271:18384   */\n      swap2\n      swap1\n      pop\n      jump\t// out\n        /* \"#utility.yul\":18420:19152   */\n    tag_590:\n        /* \"#utility.yul\":18539:18542   */\n      0x00\n        /* \"#utility.yul\":18568:18622   */\n      tag_810\n        /* \"#utility.yul\":18616:18621   */\n      dup3\n        /* \"#utility.yul\":18568:18622   */\n      tag_585\n      jump\t// in\n    tag_810:\n        /* \"#utility.yul\":18638:18724   */\n      tag_811\n        /* \"#utility.yul\":18717:18723   */\n      dup2\n        /* \"#utility.yul\":18712:18715   */\n      dup6\n        /* \"#utility.yul\":18638:18724   */\n      tag_586\n      jump\t// in\n    tag_811:\n        /* \"#utility.yul\":18631:18724   */\n      swap4\n      pop\n        /* \"#utility.yul\":18748:18804   */\n      tag_812\n        /* \"#utility.yul\":18798:18803   */\n      dup4\n        /* \"#utility.yul\":18748:18804   */\n      tag_587\n      jump\t// in\n    tag_812:\n        /* \"#utility.yul\":18827:18834   */\n      dup1\n        /* \"#utility.yul\":18858:18859   */\n      0x00\n        /* \"#utility.yul\":18843:19127   */\n    tag_813:\n        /* \"#utility.yul\":18868:18874   */\n      dup4\n        /* \"#utility.yul\":18865:18866   */\n      dup2\n        /* \"#utility.yul\":18862:18875   */\n      lt\n        /* \"#utility.yul\":18843:19127   */\n      iszero\n      tag_815\n      jumpi\n        /* \"#utility.yul\":18944:18950   */\n      dup2\n        /* \"#utility.yul\":18938:18951   */\n      mload\n        /* \"#utility.yul\":18971:19034   */\n      tag_816\n        /* \"#utility.yul\":19030:19033   */\n      dup9\n        /* \"#utility.yul\":19015:19028   */\n      dup3\n        /* \"#utility.yul\":18971:19034   */\n      tag_588\n      jump\t// in\n    tag_816:\n        /* \"#utility.yul\":18964:19034   */\n      swap8\n      pop\n        /* \"#utility.yul\":19057:19117   */\n      tag_817\n        /* \"#utility.yul\":19110:19116   */\n      dup4\n        /* \"#utility.yul\":19057:19117   */\n      tag_589\n      jump\t// in\n    tag_817:\n        /* \"#utility.yul\":19047:19117   */\n      swap3\n      pop\n        /* \"#utility.yul\":18903:19127   */\n      pop\n        /* \"#utility.yul\":18890:18891   */\n      0x01\n        /* \"#utility.yul\":18887:18888   */\n      dup2\n        /* \"#utility.yul\":18883:18892   */\n      add\n        /* \"#utility.yul\":18878:18892   */\n      swap1\n      pop\n        /* \"#utility.yul\":18843:19127   */\n      jump(tag_813)\n    tag_815:\n        /* \"#utility.yul\":18847:18861   */\n      pop\n        /* \"#utility.yul\":19143:19146   */\n      dup6\n        /* \"#utility.yul\":19136:19146   */\n      swap4\n      pop\n        /* \"#utility.yul\":18544:19152   */\n      pop\n      pop\n      pop\n        /* \"#utility.yul\":18420:19152   */\n      swap3\n      swap2\n      pop\n      pop\n      jump\t// out\n        /* \"#utility.yul\":19158:19531   */\n    tag_215:\n        /* \"#utility.yul\":19301:19305   */\n      0x00\n        /* \"#utility.yul\":19339:19341   */\n      0x20\n        /* \"#utility.yul\":19328:19337   */\n      dup3\n        /* \"#utility.yul\":19324:19342   */\n      add\n        /* \"#utility.yul\":19316:19342   */\n      swap1\n      pop\n        /* \"#utility.yul\":19388:19397   */\n      dup2\n        /* \"#utility.yul\":19382:19386   */\n      dup2\n        /* \"#utility.yul\":19378:19398   */\n      sub\n        /* \"#utility.yul\":19374:19375   */\n      0x00\n        /* \"#utility.yul\":19363:19372   */\n      dup4\n        /* \"#utility.yul\":19359:19376   */\n      add\n        /* \"#utility.yul\":19352:19399   */\n      mstore\n        /* \"#utility.yul\":19416:19524   */\n      tag_819\n        /* \"#utility.yul\":19519:19523   */\n      dup2\n        /* \"#utility.yul\":19510:19516   */\n      dup5\n        /* \"#utility.yul\":19416:19524   */\n      tag_590\n      jump\t// in\n    tag_819:\n        /* \"#utility.yul\":19408:19524   */\n      swap1\n      pop\n        /* \"#utility.yul\":19158:19531   */\n      swap3\n      swap2\n      pop\n      pop\n      jump\t// out\n        /* \"#utility.yul\":19609:20114   */\n    tag_591:\n        /* \"#utility.yul\":19752:19756   */\n      0x40\n        /* \"#utility.yul\":19747:19750   */\n      dup3\n        /* \"#utility.yul\":19743:19757   */\n      add\n        /* \"#utility.yul\":19839:19843   */\n      0x00\n        /* \"#utility.yul\":19832:19837   */\n      dup3\n        /* \"#utility.yul\":19828:19844   */\n      add\n        /* \"#utility.yul\":19822:19845   */\n      mload\n        /* \"#utility.yul\":19858:19921   */\n      tag_821\n        /* \"#utility.yul\":19915:19919   */\n      0x00\n        /* \"#utility.yul\":19910:19913   */\n      dup6\n        /* \"#utility.yul\":19906:19920   */\n      add\n        /* \"#utility.yul\":19892:19904   */\n      dup3\n        /* \"#utility.yul\":19858:19921   */\n      tag_552\n      jump\t// in\n    tag_821:\n        /* \"#utility.yul\":19767:19931   */\n      pop\n        /* \"#utility.yul\":20015:20019   */\n      0x20\n        /* \"#utility.yul\":20008:20013   */\n      dup3\n        /* \"#utility.yul\":20004:20020   */\n      add\n        /* \"#utility.yul\":19998:20021   */\n      mload\n        /* \"#utility.yul\":20034:20097   */\n      tag_822\n        /* \"#utility.yul\":20091:20095   */\n      0x20\n        /* \"#utility.yul\":20086:20089   */\n      dup6\n        /* \"#utility.yul\":20082:20096   */\n      add\n        /* \"#utility.yul\":20068:20080   */\n      dup3\n        /* \"#utility.yul\":20034:20097   */\n      tag_552\n      jump\t// in\n    tag_822:\n        /* \"#utility.yul\":19941:20107   */\n      pop\n        /* \"#utility.yul\":19721:20114   */\n      pop\n        /* \"#utility.yul\":19609:20114   */\n      pop\n      pop\n      jump\t// out\n        /* \"#utility.yul\":20206:21452   */\n    tag_592:\n        /* \"#utility.yul\":20363:20367   */\n      0xc0\n        /* \"#utility.yul\":20358:20361   */\n      dup3\n        /* \"#utility.yul\":20354:20368   */\n      add\n        /* \"#utility.yul\":20463:20467   */\n      0x00\n        /* \"#utility.yul\":20456:20461   */\n      dup3\n        /* \"#utility.yul\":20452:20468   */\n      add\n        /* \"#utility.yul\":20446:20469   */\n      mload\n        /* \"#utility.yul\":20482:20541   */\n      tag_824\n        /* \"#utility.yul\":20535:20539   */\n      0x00\n        /* \"#utility.yul\":20530:20533   */\n      dup6\n        /* \"#utility.yul\":20526:20540   */\n      add\n        /* \"#utility.yul\":20512:20524   */\n      dup3\n        /* \"#utility.yul\":20482:20541   */\n      tag_565\n      jump\t// in\n    tag_824:\n        /* \"#utility.yul\":20378:20551   */\n      pop\n        /* \"#utility.yul\":20638:20642   */\n      0x20\n        /* \"#utility.yul\":20631:20636   */\n      dup3\n        /* \"#utility.yul\":20627:20643   */\n      add\n        /* \"#utility.yul\":20621:20644   */\n      mload\n        /* \"#utility.yul\":20657:20720   */\n      tag_825\n        /* \"#utility.yul\":20714:20718   */\n      0x20\n        /* \"#utility.yul\":20709:20712   */\n      dup6\n        /* \"#utility.yul\":20705:20719   */\n      add\n        /* \"#utility.yul\":20691:20703   */\n      dup3\n        /* \"#utility.yul\":20657:20720   */\n      tag_552\n      jump\t// in\n    tag_825:\n        /* \"#utility.yul\":20561:20730   */\n      pop\n        /* \"#utility.yul\":20817:20821   */\n      0x40\n        /* \"#utility.yul\":20810:20815   */\n      dup3\n        /* \"#utility.yul\":20806:20822   */\n      add\n        /* \"#utility.yul\":20800:20823   */\n      mload\n        /* \"#utility.yul\":20836:20899   */\n      tag_826\n        /* \"#utility.yul\":20893:20897   */\n      0x40\n        /* \"#utility.yul\":20888:20891   */\n      dup6\n        /* \"#utility.yul\":20884:20898   */\n      add\n        /* \"#utility.yul\":20870:20882   */\n      dup3\n        /* \"#utility.yul\":20836:20899   */\n      tag_552\n      jump\t// in\n    tag_826:\n        /* \"#utility.yul\":20740:20909   */\n      pop\n        /* \"#utility.yul\":20993:20997   */\n      0x60\n        /* \"#utility.yul\":20986:20991   */\n      dup3\n        /* \"#utility.yul\":20982:20998   */\n      add\n        /* \"#utility.yul\":20976:20999   */\n      mload\n        /* \"#utility.yul\":21012:21075   */\n      tag_827\n        /* \"#utility.yul\":21069:21073   */\n      0x60\n        /* \"#utility.yul\":21064:21067   */\n      dup6\n        /* \"#utility.yul\":21060:21074   */\n      add\n        /* \"#utility.yul\":21046:21058   */\n      dup3\n        /* \"#utility.yul\":21012:21075   */\n      tag_552\n      jump\t// in\n    tag_827:\n        /* \"#utility.yul\":20919:21085   */\n      pop\n        /* \"#utility.yul\":21173:21177   */\n      0x80\n        /* \"#utility.yul\":21166:21171   */\n      dup3\n        /* \"#utility.yul\":21162:21178   */\n      add\n        /* \"#utility.yul\":21156:21179   */\n      mload\n        /* \"#utility.yul\":21192:21255   */\n      tag_828\n        /* \"#utility.yul\":21249:21253   */\n      0x80\n        /* \"#utility.yul\":21244:21247   */\n      dup6\n        /* \"#utility.yul\":21240:21254   */\n      add\n        /* \"#utility.yul\":21226:21238   */\n      dup3\n        /* \"#utility.yul\":21192:21255   */\n      tag_552\n      jump\t// in\n    tag_828:\n        /* \"#utility.yul\":21095:21265   */\n      pop\n        /* \"#utility.yul\":21353:21357   */\n      0xa0\n        /* \"#utility.yul\":21346:21351   */\n      dup3\n        /* \"#utility.yul\":21342:21358   */\n      add\n        /* \"#utility.yul\":21336:21359   */\n      mload\n        /* \"#utility.yul\":21372:21435   */\n      tag_829\n        /* \"#utility.yul\":21429:21433   */\n      0xa0\n        /* \"#utility.yul\":21424:21427   */\n      dup6\n        /* \"#utility.yul\":21420:21434   */\n      add\n        /* \"#utility.yul\":21406:21418   */\n      dup3\n        /* \"#utility.yul\":21372:21435   */\n      tag_552\n      jump\t// in\n    tag_829:\n        /* \"#utility.yul\":21275:21445   */\n      pop\n        /* \"#utility.yul\":20332:21452   */\n      pop\n        /* \"#utility.yul\":20206:21452   */\n      pop\n      pop\n      jump\t// out\n        /* \"#utility.yul\":21458:21661   */\n    tag_593:\n        /* \"#utility.yul\":21576:21587   */\n      0x00\n        /* \"#utility.yul\":21610:21616   */\n      dup3\n        /* \"#utility.yul\":21605:21608   */\n      dup3\n        /* \"#utility.yul\":21598:21617   */\n      mstore\n        /* \"#utility.yul\":21650:21654   */\n      0x20\n        /* \"#utility.yul\":21645:21648   */\n      dup3\n        /* \"#utility.yul\":21641:21655   */\n      add\n        /* \"#utility.yul\":21626:21655   */\n      swap1\n      pop\n        /* \"#utility.yul\":21458:21661   */\n      swap3\n      swap2\n      pop\n      pop\n      jump\t// out\n        /* \"#utility.yul\":21745:22689   */\n    tag_594:\n        /* \"#utility.yul\":21912:21915   */\n      0x00\n        /* \"#utility.yul\":21941:22024   */\n      tag_832\n        /* \"#utility.yul\":22018:22023   */\n      dup3\n        /* \"#utility.yul\":21941:22024   */\n      tag_578\n      jump\t// in\n    tag_832:\n        /* \"#utility.yul\":22040:22145   */\n      tag_833\n        /* \"#utility.yul\":22138:22144   */\n      dup2\n        /* \"#utility.yul\":22133:22136   */\n      dup6\n        /* \"#utility.yul\":22040:22145   */\n      tag_593\n      jump\t// in\n    tag_833:\n        /* \"#utility.yul\":22033:22145   */\n      swap4\n      pop\n        /* \"#utility.yul\":22169:22254   */\n      tag_834\n        /* \"#utility.yul\":22248:22253   */\n      dup4\n        /* \"#utility.yul\":22169:22254   */\n      tag_580\n      jump\t// in\n    tag_834:\n        /* \"#utility.yul\":22277:22284   */\n      dup1\n        /* \"#utility.yul\":22308:22309   */\n      0x00\n        /* \"#utility.yul\":22293:22664   */\n    tag_835:\n        /* \"#utility.yul\":22318:22324   */\n      dup4\n        /* \"#utility.yul\":22315:22316   */\n      dup2\n        /* \"#utility.yul\":22312:22325   */\n      lt\n        /* \"#utility.yul\":22293:22664   */\n      iszero\n      tag_837\n      jumpi\n        /* \"#utility.yul\":22394:22400   */\n      dup2\n        /* \"#utility.yul\":22388:22401   */\n      mload\n        /* \"#utility.yul\":22421:22542   */\n      tag_838\n        /* \"#utility.yul\":22538:22541   */\n      dup9\n        /* \"#utility.yul\":22523:22536   */\n      dup3\n        /* \"#utility.yul\":22421:22542   */\n      tag_582\n      jump\t// in\n    tag_838:\n        /* \"#utility.yul\":22414:22542   */\n      swap8\n      pop\n        /* \"#utility.yul\":22565:22654   */\n      tag_839\n        /* \"#utility.yul\":22647:22653   */\n      dup4\n        /* \"#utility.yul\":22565:22654   */\n      tag_583\n      jump\t// in\n    tag_839:\n        /* \"#utility.yul\":22555:22654   */\n      swap3\n      pop\n        /* \"#utility.yul\":22353:22664   */\n      pop\n        /* \"#utility.yul\":22340:22341   */\n      0x01\n        /* \"#utility.yul\":22337:22338   */\n      dup2\n        /* \"#utility.yul\":22333:22342   */\n      add\n        /* \"#utility.yul\":22328:22342   */\n      swap1\n      pop\n        /* \"#utility.yul\":22293:22664   */\n      jump(tag_835)\n    tag_837:\n        /* \"#utility.yul\":22297:22311   */\n      pop\n        /* \"#utility.yul\":22680:22683   */\n      dup6\n        /* \"#utility.yul\":22673:22683   */\n      swap4\n      pop\n        /* \"#utility.yul\":21917:22689   */\n      pop\n      pop\n      pop\n        /* \"#utility.yul\":21745:22689   */\n      swap3\n      swap2\n      pop\n      pop\n      jump\t// out\n        /* \"#utility.yul\":22695:22866   */\n    tag_595:\n        /* \"#utility.yul\":22781:22792   */\n      0x00\n        /* \"#utility.yul\":22815:22821   */\n      dup3\n        /* \"#utility.yul\":22810:22813   */\n      dup3\n        /* \"#utility.yul\":22803:22822   */\n      mstore\n        /* \"#utility.yul\":22855:22859   */\n      0x20\n        /* \"#utility.yul\":22850:22853   */\n      dup3\n        /* \"#utility.yul\":22846:22860   */\n      add\n        /* \"#utility.yul\":22831:22860   */\n      swap1\n      pop\n        /* \"#utility.yul\":22695:22866   */\n      swap3\n      swap2\n      pop\n      pop\n      jump\t// out\n        /* \"#utility.yul\":22896:23584   */\n    tag_596:\n        /* \"#utility.yul\":22999:23002   */\n      0x00\n        /* \"#utility.yul\":23028:23079   */\n      tag_842\n        /* \"#utility.yul\":23073:23078   */\n      dup3\n        /* \"#utility.yul\":23028:23079   */\n      tag_571\n      jump\t// in\n    tag_842:\n        /* \"#utility.yul\":23095:23168   */\n      tag_843\n        /* \"#utility.yul\":23161:23167   */\n      dup2\n        /* \"#utility.yul\":23156:23159   */\n      dup6\n        /* \"#utility.yul\":23095:23168   */\n      tag_595\n      jump\t// in\n    tag_843:\n        /* \"#utility.yul\":23088:23168   */\n      swap4\n      pop\n        /* \"#utility.yul\":23192:23245   */\n      tag_844\n        /* \"#utility.yul\":23239:23244   */\n      dup4\n        /* \"#utility.yul\":23192:23245   */\n      tag_573\n      jump\t// in\n    tag_844:\n        /* \"#utility.yul\":23268:23275   */\n      dup1\n        /* \"#utility.yul\":23299:23300   */\n      0x00\n        /* \"#utility.yul\":23284:23559   */\n    tag_845:\n        /* \"#utility.yul\":23309:23315   */\n      dup4\n        /* \"#utility.yul\":23306:23307   */\n      dup2\n        /* \"#utility.yul\":23303:23316   */\n      lt\n        /* \"#utility.yul\":23284:23559   */\n      iszero\n      tag_847\n      jumpi\n        /* \"#utility.yul\":23385:23391   */\n      dup2\n        /* \"#utility.yul\":23379:23392   */\n      mload\n        /* \"#utility.yul\":23412:23469   */\n      tag_848\n        /* \"#utility.yul\":23465:23468   */\n      dup9\n        /* \"#utility.yul\":23450:23463   */\n      dup3\n        /* \"#utility.yul\":23412:23469   */\n      tag_575\n      jump\t// in\n    tag_848:\n        /* \"#utility.yul\":23405:23469   */\n      swap8\n      pop\n        /* \"#utility.yul\":23492:23549   */\n      tag_849\n        /* \"#utility.yul\":23542:23548   */\n      dup4\n        /* \"#utility.yul\":23492:23549   */\n      tag_576\n      jump\t// in\n    tag_849:\n        /* \"#utility.yul\":23482:23549   */\n      swap3\n      pop\n        /* \"#utility.yul\":23344:23559   */\n      pop\n        /* \"#utility.yul\":23331:23332   */\n      0x01\n        /* \"#utility.yul\":23328:23329   */\n      dup2\n        /* \"#utility.yul\":23324:23333   */\n      add\n        /* \"#utility.yul\":23319:23333   */\n      swap1\n      pop\n        /* \"#utility.yul\":23284:23559   */\n      jump(tag_845)\n    tag_847:\n        /* \"#utility.yul\":23288:23302   */\n      pop\n        /* \"#utility.yul\":23575:23578   */\n      dup6\n        /* \"#utility.yul\":23568:23578   */\n      swap4\n      pop\n        /* \"#utility.yul\":23004:23584   */\n      pop\n      pop\n      pop\n        /* \"#utility.yul\":22896:23584   */\n      swap3\n      swap2\n      pop\n      pop\n      jump\t// out\n        /* \"#utility.yul\":23590:23762   */\n    tag_597:\n        /* \"#utility.yul\":23677:23688   */\n      0x00\n        /* \"#utility.yul\":23711:23717   */\n      dup3\n        /* \"#utility.yul\":23706:23709   */\n      dup3\n        /* \"#utility.yul\":23699:23718   */\n      mstore\n        /* \"#utility.yul\":23751:23755   */\n      0x20\n        /* \"#utility.yul\":23746:23749   */\n      dup3\n        /* \"#utility.yul\":23742:23756   */\n      add\n        /* \"#utility.yul\":23727:23756   */\n      swap1\n      pop\n        /* \"#utility.yul\":23590:23762   */\n      swap3\n      swap2\n      pop\n      pop\n      jump\t// out\n        /* \"#utility.yul\":23794:24490   */\n    tag_598:\n        /* \"#utility.yul\":23899:23902   */\n      0x00\n        /* \"#utility.yul\":23928:23980   */\n      tag_852\n        /* \"#utility.yul\":23974:23979   */\n      dup3\n        /* \"#utility.yul\":23928:23980   */\n      tag_562\n      jump\t// in\n    tag_852:\n        /* \"#utility.yul\":23996:24070   */\n      tag_853\n        /* \"#utility.yul\":24063:24069   */\n      dup2\n        /* \"#utility.yul\":24058:24061   */\n      dup6\n        /* \"#utility.yul\":23996:24070   */\n      tag_597\n      jump\t// in\n    tag_853:\n        /* \"#utility.yul\":23989:24070   */\n      swap4\n      pop\n        /* \"#utility.yul\":24094:24148   */\n      tag_854\n        /* \"#utility.yul\":24142:24147   */\n      dup4\n        /* \"#utility.yul\":24094:24148   */\n      tag_564\n      jump\t// in\n    tag_854:\n        /* \"#utility.yul\":24171:24178   */\n      dup1\n        /* \"#utility.yul\":24202:24203   */\n      0x00\n        /* \"#utility.yul\":24187:24465   */\n    tag_855:\n        /* \"#utility.yul\":24212:24218   */\n      dup4\n        /* \"#utility.yul\":24209:24210   */\n      dup2\n        /* \"#utility.yul\":24206:24219   */\n      lt\n        /* \"#utility.yul\":24187:24465   */\n      iszero\n      tag_857\n      jumpi\n        /* \"#utility.yul\":24288:24294   */\n      dup2\n        /* \"#utility.yul\":24282:24295   */\n      mload\n        /* \"#utility.yul\":24315:24374   */\n      tag_858\n        /* \"#utility.yul\":24370:24373   */\n      dup9\n        /* \"#utility.yul\":24355:24368   */\n      dup3\n        /* \"#utility.yul\":24315:24374   */\n      tag_566\n      jump\t// in\n    tag_858:\n        /* \"#utility.yul\":24308:24374   */\n      swap8\n      pop\n        /* \"#utility.yul\":24397:24455   */\n      tag_859\n        /* \"#utility.yul\":24448:24454   */\n      dup4\n        /* \"#utility.yul\":24397:24455   */\n      tag_567\n      jump\t// in\n    tag_859:\n        /* \"#utility.yul\":24387:24455   */\n      swap3\n      pop\n        /* \"#utility.yul\":24247:24465   */\n      pop\n        /* \"#utility.yul\":24234:24235   */\n      0x01\n        /* \"#utility.yul\":24231:24232   */\n      dup2\n        /* \"#utility.yul\":24227:24236   */\n      add\n        /* \"#utility.yul\":24222:24236   */\n      swap1\n      pop\n        /* \"#utility.yul\":24187:24465   */\n      jump(tag_855)\n    tag_857:\n        /* \"#utility.yul\":24191:24205   */\n      pop\n        /* \"#utility.yul\":24481:24484   */\n      dup6\n        /* \"#utility.yul\":24474:24484   */\n      swap4\n      pop\n        /* \"#utility.yul\":23904:24490   */\n      pop\n      pop\n      pop\n        /* \"#utility.yul\":23794:24490   */\n      swap3\n      swap2\n      pop\n      pop\n      jump\t// out\n        /* \"#utility.yul\":24496:24670   */\n    tag_599:\n        /* \"#utility.yul\":24585:24596   */\n      0x00\n        /* \"#utility.yul\":24619:24625   */\n      dup3\n        /* \"#utility.yul\":24614:24617   */\n      dup3\n        /* \"#utility.yul\":24607:24626   */\n      mstore\n        /* \"#utility.yul\":24659:24663   */\n      0x20\n        /* \"#utility.yul\":24654:24657   */\n      dup3\n        /* \"#utility.yul\":24650:24664   */\n      add\n        /* \"#utility.yul\":24635:24664   */\n      swap1\n      pop\n        /* \"#utility.yul\":24496:24670   */\n      swap3\n      swap2\n      pop\n      pop\n      jump\t// out\n        /* \"#utility.yul\":24706:25418   */\n    tag_600:\n        /* \"#utility.yul\":24815:24818   */\n      0x00\n        /* \"#utility.yul\":24844:24898   */\n      tag_862\n        /* \"#utility.yul\":24892:24897   */\n      dup3\n        /* \"#utility.yul\":24844:24898   */\n      tag_585\n      jump\t// in\n    tag_862:\n        /* \"#utility.yul\":24914:24990   */\n      tag_863\n        /* \"#utility.yul\":24983:24989   */\n      dup2\n        /* \"#utility.yul\":24978:24981   */\n      dup6\n        /* \"#utility.yul\":24914:24990   */\n      tag_599\n      jump\t// in\n    tag_863:\n        /* \"#utility.yul\":24907:24990   */\n      swap4\n      pop\n        /* \"#utility.yul\":25014:25070   */\n      tag_864\n        /* \"#utility.yul\":25064:25069   */\n      dup4\n        /* \"#utility.yul\":25014:25070   */\n      tag_587\n      jump\t// in\n    tag_864:\n        /* \"#utility.yul\":25093:25100   */\n      dup1\n        /* \"#utility.yul\":25124:25125   */\n      0x00\n        /* \"#utility.yul\":25109:25393   */\n    tag_865:\n        /* \"#utility.yul\":25134:25140   */\n      dup4\n        /* \"#utility.yul\":25131:25132   */\n      dup2\n        /* \"#utility.yul\":25128:25141   */\n      lt\n        /* \"#utility.yul\":25109:25393   */\n      iszero\n      tag_867\n      jumpi\n        /* \"#utility.yul\":25210:25216   */\n      dup2\n        /* \"#utility.yul\":25204:25217   */\n      mload\n        /* \"#utility.yul\":25237:25300   */\n      tag_868\n        /* \"#utility.yul\":25296:25299   */\n      dup9\n        /* \"#utility.yul\":25281:25294   */\n      dup3\n        /* \"#utility.yul\":25237:25300   */\n      tag_588\n      jump\t// in\n    tag_868:\n        /* \"#utility.yul\":25230:25300   */\n      swap8\n      pop\n        /* \"#utility.yul\":25323:25383   */\n      tag_869\n        /* \"#utility.yul\":25376:25382   */\n      dup4\n        /* \"#utility.yul\":25323:25383   */\n      tag_589\n      jump\t// in\n    tag_869:\n        /* \"#utility.yul\":25313:25383   */\n      swap3\n      pop\n        /* \"#utility.yul\":25169:25393   */\n      pop\n        /* \"#utility.yul\":25156:25157   */\n      0x01\n        /* \"#utility.yul\":25153:25154   */\n      dup2\n        /* \"#utility.yul\":25149:25158   */\n      add\n        /* \"#utility.yul\":25144:25158   */\n      swap1\n      pop\n        /* \"#utility.yul\":25109:25393   */\n      jump(tag_865)\n    tag_867:\n        /* \"#utility.yul\":25113:25127   */\n      pop\n        /* \"#utility.yul\":25409:25412   */\n      dup6\n        /* \"#utility.yul\":25402:25412   */\n      swap4\n      pop\n        /* \"#utility.yul\":24820:25418   */\n      pop\n      pop\n      pop\n        /* \"#utility.yul\":24706:25418   */\n      swap3\n      swap2\n      pop\n      pop\n      jump\t// out\n        /* \"#utility.yul\":25500:28886   */\n    tag_601:\n        /* \"#utility.yul\":25629:25632   */\n      0x00\n        /* \"#utility.yul\":25665:25671   */\n      0x0280\n        /* \"#utility.yul\":25660:25663   */\n      dup4\n        /* \"#utility.yul\":25656:25672   */\n      add\n        /* \"#utility.yul\":25765:25769   */\n      0x00\n        /* \"#utility.yul\":25758:25763   */\n      dup4\n        /* \"#utility.yul\":25754:25770   */\n      add\n        /* \"#utility.yul\":25748:25771   */\n      mload\n        /* \"#utility.yul\":25784:25841   */\n      tag_871\n        /* \"#utility.yul\":25835:25839   */\n      0x00\n        /* \"#utility.yul\":25830:25833   */\n      dup7\n        /* \"#utility.yul\":25826:25840   */\n      add\n        /* \"#utility.yul\":25812:25824   */\n      dup3\n        /* \"#utility.yul\":25784:25841   */\n      tag_574\n      jump\t// in\n    tag_871:\n        /* \"#utility.yul\":25682:25851   */\n      pop\n        /* \"#utility.yul\":25939:25943   */\n      0x20\n        /* \"#utility.yul\":25932:25937   */\n      dup4\n        /* \"#utility.yul\":25928:25944   */\n      add\n        /* \"#utility.yul\":25922:25945   */\n      mload\n        /* \"#utility.yul\":25958:26021   */\n      tag_872\n        /* \"#utility.yul\":26015:26019   */\n      0x20\n        /* \"#utility.yul\":26010:26013   */\n      dup7\n        /* \"#utility.yul\":26006:26020   */\n      add\n        /* \"#utility.yul\":25992:26004   */\n      dup3\n        /* \"#utility.yul\":25958:26021   */\n      tag_552\n      jump\t// in\n    tag_872:\n        /* \"#utility.yul\":25861:26031   */\n      pop\n        /* \"#utility.yul\":26121:26125   */\n      0x40\n        /* \"#utility.yul\":26114:26119   */\n      dup4\n        /* \"#utility.yul\":26110:26126   */\n      add\n        /* \"#utility.yul\":26104:26127   */\n      mload\n        /* \"#utility.yul\":26140:26203   */\n      tag_873\n        /* \"#utility.yul\":26197:26201   */\n      0x40\n        /* \"#utility.yul\":26192:26195   */\n      dup7\n        /* \"#utility.yul\":26188:26202   */\n      add\n        /* \"#utility.yul\":26174:26186   */\n      dup3\n        /* \"#utility.yul\":26140:26203   */\n      tag_552\n      jump\t// in\n    tag_873:\n        /* \"#utility.yul\":26041:26213   */\n      pop\n        /* \"#utility.yul\":26306:26310   */\n      0x60\n        /* \"#utility.yul\":26299:26304   */\n      dup4\n        /* \"#utility.yul\":26295:26311   */\n      add\n        /* \"#utility.yul\":26289:26312   */\n      mload\n        /* \"#utility.yul\":26325:26388   */\n      tag_874\n        /* \"#utility.yul\":26382:26386   */\n      0x60\n        /* \"#utility.yul\":26377:26380   */\n      dup7\n        /* \"#utility.yul\":26373:26387   */\n      add\n        /* \"#utility.yul\":26359:26371   */\n      dup3\n        /* \"#utility.yul\":26325:26388   */\n      tag_552\n      jump\t// in\n    tag_874:\n        /* \"#utility.yul\":26223:26398   */\n      pop\n        /* \"#utility.yul\":26485:26489   */\n      0x80\n        /* \"#utility.yul\":26478:26483   */\n      dup4\n        /* \"#utility.yul\":26474:26490   */\n      add\n        /* \"#utility.yul\":26468:26491   */\n      mload\n        /* \"#utility.yul\":26504:26567   */\n      tag_875\n        /* \"#utility.yul\":26561:26565   */\n      0x80\n        /* \"#utility.yul\":26556:26559   */\n      dup7\n        /* \"#utility.yul\":26552:26566   */\n      add\n        /* \"#utility.yul\":26538:26550   */\n      dup3\n        /* \"#utility.yul\":26504:26567   */\n      tag_552\n      jump\t// in\n    tag_875:\n        /* \"#utility.yul\":26408:26577   */\n      pop\n        /* \"#utility.yul\":26669:26673   */\n      0xa0\n        /* \"#utility.yul\":26662:26667   */\n      dup4\n        /* \"#utility.yul\":26658:26674   */\n      add\n        /* \"#utility.yul\":26652:26675   */\n      mload\n        /* \"#utility.yul\":26688:26751   */\n      tag_876\n        /* \"#utility.yul\":26745:26749   */\n      0xa0\n        /* \"#utility.yul\":26740:26743   */\n      dup7\n        /* \"#utility.yul\":26736:26750   */\n      add\n        /* \"#utility.yul\":26722:26734   */\n      dup3\n        /* \"#utility.yul\":26688:26751   */\n      tag_552\n      jump\t// in\n    tag_876:\n        /* \"#utility.yul\":26587:26761   */\n      pop\n        /* \"#utility.yul\":26858:26862   */\n      0xc0\n        /* \"#utility.yul\":26851:26856   */\n      dup4\n        /* \"#utility.yul\":26847:26863   */\n      add\n        /* \"#utility.yul\":26841:26864   */\n      mload\n        /* \"#utility.yul\":26877:26940   */\n      tag_877\n        /* \"#utility.yul\":26934:26938   */\n      0xc0\n        /* \"#utility.yul\":26929:26932   */\n      dup7\n        /* \"#utility.yul\":26925:26939   */\n      add\n        /* \"#utility.yul\":26911:26923   */\n      dup3\n        /* \"#utility.yul\":26877:26940   */\n      tag_552\n      jump\t// in\n    tag_877:\n        /* \"#utility.yul\":26771:26950   */\n      pop\n        /* \"#utility.yul\":27054:27058   */\n      0xe0\n        /* \"#utility.yul\":27047:27052   */\n      dup4\n        /* \"#utility.yul\":27043:27059   */\n      add\n        /* \"#utility.yul\":27037:27060   */\n      mload\n        /* \"#utility.yul\":27073:27136   */\n      tag_878\n        /* \"#utility.yul\":27130:27134   */\n      0xe0\n        /* \"#utility.yul\":27125:27128   */\n      dup7\n        /* \"#utility.yul\":27121:27135   */\n      add\n        /* \"#utility.yul\":27107:27119   */\n      dup3\n        /* \"#utility.yul\":27073:27136   */\n      tag_552\n      jump\t// in\n    tag_878:\n        /* \"#utility.yul\":26960:27146   */\n      pop\n        /* \"#utility.yul\":27235:27241   */\n      0x0100\n        /* \"#utility.yul\":27228:27233   */\n      dup4\n        /* \"#utility.yul\":27224:27242   */\n      add\n        /* \"#utility.yul\":27218:27243   */\n      mload\n        /* \"#utility.yul\":27256:27377   */\n      tag_879\n        /* \"#utility.yul\":27369:27375   */\n      0x0100\n        /* \"#utility.yul\":27364:27367   */\n      dup7\n        /* \"#utility.yul\":27360:27376   */\n      add\n        /* \"#utility.yul\":27346:27358   */\n      dup3\n        /* \"#utility.yul\":27256:27377   */\n      tag_591\n      jump\t// in\n    tag_879:\n        /* \"#utility.yul\":27156:27387   */\n      pop\n        /* \"#utility.yul\":27475:27481   */\n      0x0120\n        /* \"#utility.yul\":27468:27473   */\n      dup4\n        /* \"#utility.yul\":27464:27482   */\n      add\n        /* \"#utility.yul\":27458:27483   */\n      mload\n        /* \"#utility.yul\":27496:27631   */\n      tag_880\n        /* \"#utility.yul\":27623:27629   */\n      0x0140\n        /* \"#utility.yul\":27618:27621   */\n      dup7\n        /* \"#utility.yul\":27614:27630   */\n      add\n        /* \"#utility.yul\":27600:27612   */\n      dup3\n        /* \"#utility.yul\":27496:27631   */\n      tag_592\n      jump\t// in\n    tag_880:\n        /* \"#utility.yul\":27397:27641   */\n      pop\n        /* \"#utility.yul\":27732:27738   */\n      0x0140\n        /* \"#utility.yul\":27725:27730   */\n      dup4\n        /* \"#utility.yul\":27721:27739   */\n      add\n        /* \"#utility.yul\":27715:27740   */\n      mload\n        /* \"#utility.yul\":27789:27792   */\n      dup5\n        /* \"#utility.yul\":27783:27787   */\n      dup3\n        /* \"#utility.yul\":27779:27793   */\n      sub\n        /* \"#utility.yul\":27770:27776   */\n      0x0200\n        /* \"#utility.yul\":27765:27768   */\n      dup7\n        /* \"#utility.yul\":27761:27777   */\n      add\n        /* \"#utility.yul\":27754:27794   */\n      mstore\n        /* \"#utility.yul\":27815:27976   */\n      tag_881\n        /* \"#utility.yul\":27971:27975   */\n      dup3\n        /* \"#utility.yul\":27957:27969   */\n      dup3\n        /* \"#utility.yul\":27815:27976   */\n      tag_594\n      jump\t// in\n    tag_881:\n        /* \"#utility.yul\":27807:27976   */\n      swap2\n      pop\n        /* \"#utility.yul\":27651:27987   */\n      pop\n        /* \"#utility.yul\":28084:28090   */\n      0x0160\n        /* \"#utility.yul\":28077:28082   */\n      dup4\n        /* \"#utility.yul\":28073:28091   */\n      add\n        /* \"#utility.yul\":28067:28092   */\n      mload\n        /* \"#utility.yul\":28141:28144   */\n      dup5\n        /* \"#utility.yul\":28135:28139   */\n      dup3\n        /* \"#utility.yul\":28131:28145   */\n      sub\n        /* \"#utility.yul\":28122:28128   */\n      0x0220\n        /* \"#utility.yul\":28117:28120   */\n      dup7\n        /* \"#utility.yul\":28113:28129   */\n      add\n        /* \"#utility.yul\":28106:28146   */\n      mstore\n        /* \"#utility.yul\":28167:28264   */\n      tag_882\n        /* \"#utility.yul\":28259:28263   */\n      dup3\n        /* \"#utility.yul\":28245:28257   */\n      dup3\n        /* \"#utility.yul\":28167:28264   */\n      tag_596\n      jump\t// in\n    tag_882:\n        /* \"#utility.yul\":28159:28264   */\n      swap2\n      pop\n        /* \"#utility.yul\":27997:28275   */\n      pop\n        /* \"#utility.yul\":28374:28380   */\n      0x0180\n        /* \"#utility.yul\":28367:28372   */\n      dup4\n        /* \"#utility.yul\":28363:28381   */\n      add\n        /* \"#utility.yul\":28357:28382   */\n      mload\n        /* \"#utility.yul\":28431:28434   */\n      dup5\n        /* \"#utility.yul\":28425:28429   */\n      dup3\n        /* \"#utility.yul\":28421:28435   */\n      sub\n        /* \"#utility.yul\":28412:28418   */\n      0x0240\n        /* \"#utility.yul\":28407:28410   */\n      dup7\n        /* \"#utility.yul\":28403:28419   */\n      add\n        /* \"#utility.yul\":28396:28436   */\n      mstore\n        /* \"#utility.yul\":28457:28556   */\n      tag_883\n        /* \"#utility.yul\":28551:28555   */\n      dup3\n        /* \"#utility.yul\":28537:28549   */\n      dup3\n        /* \"#utility.yul\":28457:28556   */\n      tag_598\n      jump\t// in\n    tag_883:\n        /* \"#utility.yul\":28449:28556   */\n      swap2\n      pop\n        /* \"#utility.yul\":28285:28567   */\n      pop\n        /* \"#utility.yul\":28662:28668   */\n      0x01a0\n        /* \"#utility.yul\":28655:28660   */\n      dup4\n        /* \"#utility.yul\":28651:28669   */\n      add\n        /* \"#utility.yul\":28645:28670   */\n      mload\n        /* \"#utility.yul\":28719:28722   */\n      dup5\n        /* \"#utility.yul\":28713:28717   */\n      dup3\n        /* \"#utility.yul\":28709:28723   */\n      sub\n        /* \"#utility.yul\":28700:28706   */\n      0x0260\n        /* \"#utility.yul\":28695:28698   */\n      dup7\n        /* \"#utility.yul\":28691:28707   */\n      add\n        /* \"#utility.yul\":28684:28724   */\n      mstore\n        /* \"#utility.yul\":28745:28848   */\n      tag_884\n        /* \"#utility.yul\":28843:28847   */\n      dup3\n        /* \"#utility.yul\":28829:28841   */\n      dup3\n        /* \"#utility.yul\":28745:28848   */\n      tag_600\n      jump\t// in\n    tag_884:\n        /* \"#utility.yul\":28737:28848   */\n      swap2\n      pop\n        /* \"#utility.yul\":28577:28859   */\n      pop\n        /* \"#utility.yul\":28876:28880   */\n      dup1\n        /* \"#utility.yul\":28869:28880   */\n      swap2\n      pop\n        /* \"#utility.yul\":25634:28886   */\n      pop\n        /* \"#utility.yul\":25500:28886   */\n      swap3\n      swap2\n      pop\n      pop\n      jump\t// out\n        /* \"#utility.yul\":28892:29285   */\n    tag_230:\n        /* \"#utility.yul\":29045:29049   */\n      0x00\n        /* \"#utility.yul\":29083:29085   */\n      0x20\n        /* \"#utility.yul\":29072:29081   */\n      dup3\n        /* \"#utility.yul\":29068:29086   */\n      add\n        /* \"#utility.yul\":29060:29086   */\n      swap1\n      pop\n        /* \"#utility.yul\":29132:29141   */\n      dup2\n        /* \"#utility.yul\":29126:29130   */\n      dup2\n        /* \"#utility.yul\":29122:29142   */\n      sub\n        /* \"#utility.yul\":29118:29119   */\n      0x00\n        /* \"#utility.yul\":29107:29116   */\n      dup4\n        /* \"#utility.yul\":29103:29120   */\n      add\n        /* \"#utility.yul\":29096:29143   */\n      mstore\n        /* \"#utility.yul\":29160:29278   */\n      tag_886\n        /* \"#utility.yul\":29273:29277   */\n      dup2\n        /* \"#utility.yul\":29264:29270   */\n      dup5\n        /* \"#utility.yul\":29160:29278   */\n      tag_601\n      jump\t// in\n    tag_886:\n        /* \"#utility.yul\":29152:29278   */\n      swap1\n      pop\n        /* \"#utility.yul\":28892:29285   */\n      swap3\n      swap2\n      pop\n      pop\n      jump\t// out\n        /* \"#utility.yul\":29291:29616   */\n    tag_247:\n        /* \"#utility.yul\":29348:29354   */\n      0x00\n        /* \"#utility.yul\":29397:29399   */\n      0x20\n        /* \"#utility.yul\":29385:29394   */\n      dup3\n        /* \"#utility.yul\":29376:29383   */\n      dup5\n        /* \"#utility.yul\":29372:29395   */\n      sub\n        /* \"#utility.yul\":29368:29400   */\n      slt\n        /* \"#utility.yul\":29365:29484   */\n      iszero\n      tag_888\n      jumpi\n        /* \"#utility.yul\":29403:29482   */\n      tag_889\n      tag_534\n      jump\t// in\n    tag_889:\n        /* \"#utility.yul\":29365:29484   */\n    tag_888:\n        /* \"#utility.yul\":29523:29524   */\n      0x00\n        /* \"#utility.yul\":29548:29599   */\n      tag_890\n        /* \"#utility.yul\":29591:29598   */\n      dup5\n        /* \"#utility.yul\":29582:29588   */\n      dup3\n        /* \"#utility.yul\":29571:29580   */\n      dup6\n        /* \"#utility.yul\":29567:29589   */\n      add\n        /* \"#utility.yul\":29548:29599   */\n      tag_570\n      jump\t// in\n    tag_890:\n        /* \"#utility.yul\":29538:29599   */\n      swap2\n      pop\n        /* \"#utility.yul\":29494:29609   */\n      pop\n        /* \"#utility.yul\":29291:29616   */\n      swap3\n      swap2\n      pop\n      pop\n      jump\t// out\n        /* \"#utility.yul\":29622:29682   */\n    tag_602:\n        /* \"#utility.yul\":29650:29653   */\n      0x00\n        /* \"#utility.yul\":29671:29676   */\n      dup2\n        /* \"#utility.yul\":29664:29676   */\n      swap1\n      pop\n        /* \"#utility.yul\":29622:29682   */\n      swap2\n      swap1\n      pop\n      jump\t// out\n        /* \"#utility.yul\":29688:29830   */\n    tag_603:\n        /* \"#utility.yul\":29738:29747   */\n      0x00\n        /* \"#utility.yul\":29771:29824   */\n      tag_893\n        /* \"#utility.yul\":29789:29823   */\n      tag_894\n        /* \"#utility.yul\":29798:29822   */\n      tag_895\n        /* \"#utility.yul\":29816:29821   */\n      dup5\n        /* \"#utility.yul\":29798:29822   */\n      tag_544\n      jump\t// in\n    tag_895:\n        /* \"#utility.yul\":29789:29823   */\n      tag_602\n      jump\t// in\n    tag_894:\n        /* \"#utility.yul\":29771:29824   */\n      tag_544\n      jump\t// in\n    tag_893:\n        /* \"#utility.yul\":29758:29824   */\n      swap1\n      pop\n        /* \"#utility.yul\":29688:29830   */\n      swap2\n      swap1\n      pop\n      jump\t// out\n        /* \"#utility.yul\":29836:29962   */\n    tag_604:\n        /* \"#utility.yul\":29886:29895   */\n      0x00\n        /* \"#utility.yul\":29919:29956   */\n      tag_897\n        /* \"#utility.yul\":29950:29955   */\n      dup3\n        /* \"#utility.yul\":29919:29956   */\n      tag_603\n      jump\t// in\n    tag_897:\n        /* \"#utility.yul\":29906:29956   */\n      swap1\n      pop\n        /* \"#utility.yul\":29836:29962   */\n      swap2\n      swap1\n      pop\n      jump\t// out\n        /* \"#utility.yul\":29968:30109   */\n    tag_605:\n        /* \"#utility.yul\":30033:30042   */\n      0x00\n        /* \"#utility.yul\":30066:30103   */\n      tag_899\n        /* \"#utility.yul\":30097:30102   */\n      dup3\n        /* \"#utility.yul\":30066:30103   */\n      tag_604\n      jump\t// in\n    tag_899:\n        /* \"#utility.yul\":30053:30103   */\n      swap1\n      pop\n        /* \"#utility.yul\":29968:30109   */\n      swap2\n      swap1\n      pop\n      jump\t// out\n        /* \"#utility.yul\":30115:30276   */\n    tag_606:\n        /* \"#utility.yul\":30217:30269   */\n      tag_901\n        /* \"#utility.yul\":30263:30268   */\n      dup2\n        /* \"#utility.yul\":30217:30269   */\n      tag_605\n      jump\t// in\n    tag_901:\n        /* \"#utility.yul\":30212:30215   */\n      dup3\n        /* \"#utility.yul\":30205:30270   */\n      mstore\n        /* \"#utility.yul\":30115:30276   */\n      pop\n      pop\n      jump\t// out\n        /* \"#utility.yul\":30282:30534   */\n    tag_253:\n        /* \"#utility.yul\":30390:30394   */\n      0x00\n        /* \"#utility.yul\":30428:30430   */\n      0x20\n        /* \"#utility.yul\":30417:30426   */\n      dup3\n        /* \"#utility.yul\":30413:30431   */\n      add\n        /* \"#utility.yul\":30405:30431   */\n      swap1\n      pop\n        /* \"#utility.yul\":30441:30527   */\n      tag_903\n        /* \"#utility.yul\":30524:30525   */\n      0x00\n        /* \"#utility.yul\":30513:30522   */\n      dup4\n        /* \"#utility.yul\":30509:30526   */\n      add\n        /* \"#utility.yul\":30500:30506   */\n      dup5\n        /* \"#utility.yul\":30441:30527   */\n      tag_606\n      jump\t// in\n    tag_903:\n        /* \"#utility.yul\":30282:30534   */\n      swap3\n      swap2\n      pop\n      pop\n      jump\t// out\n        /* \"#utility.yul\":30540:31159   */\n    tag_261:\n        /* \"#utility.yul\":30617:30623   */\n      0x00\n        /* \"#utility.yul\":30625:30631   */\n      dup1\n        /* \"#utility.yul\":30633:30639   */\n      0x00\n        /* \"#utility.yul\":30682:30684   */\n      0x60\n        /* \"#utility.yul\":30670:30679   */\n      dup5\n        /* \"#utility.yul\":30661:30668   */\n      dup7\n        /* \"#utility.yul\":30657:30680   */\n      sub\n        /* \"#utility.yul\":30653:30685   */\n      slt\n        /* \"#utility.yul\":30650:30769   */\n      iszero\n      tag_905\n      jumpi\n        /* \"#utility.yul\":30688:30767   */\n      tag_906\n      tag_534\n      jump\t// in\n    tag_906:\n        /* \"#utility.yul\":30650:30769   */\n    tag_905:\n        /* \"#utility.yul\":30808:30809   */\n      0x00\n        /* \"#utility.yul\":30833:30886   */\n      tag_907\n        /* \"#utility.yul\":30878:30885   */\n      dup7\n        /* \"#utility.yul\":30869:30875   */\n      dup3\n        /* \"#utility.yul\":30858:30867   */\n      dup8\n        /* \"#utility.yul\":30854:30876   */\n      add\n        /* \"#utility.yul\":30833:30886   */\n      tag_543\n      jump\t// in\n    tag_907:\n        /* \"#utility.yul\":30823:30886   */\n      swap4\n      pop\n        /* \"#utility.yul\":30779:30896   */\n      pop\n        /* \"#utility.yul\":30935:30937   */\n      0x20\n        /* \"#utility.yul\":30961:31014   */\n      tag_908\n        /* \"#utility.yul\":31006:31013   */\n      dup7\n        /* \"#utility.yul\":30997:31003   */\n      dup3\n        /* \"#utility.yul\":30986:30995   */\n      dup8\n        /* \"#utility.yul\":30982:31004   */\n      add\n        /* \"#utility.yul\":30961:31014   */\n      tag_543\n      jump\t// in\n    tag_908:\n        /* \"#utility.yul\":30951:31014   */\n      swap3\n      pop\n        /* \"#utility.yul\":30906:31024   */\n      pop\n        /* \"#utility.yul\":31063:31065   */\n      0x40\n        /* \"#utility.yul\":31089:31142   */\n      tag_909\n        /* \"#utility.yul\":31134:31141   */\n      dup7\n        /* \"#utility.yul\":31125:31131   */\n      dup3\n        /* \"#utility.yul\":31114:31123   */\n      dup8\n        /* \"#utility.yul\":31110:31132   */\n      add\n        /* \"#utility.yul\":31089:31142   */\n      tag_543\n      jump\t// in\n    tag_909:\n        /* \"#utility.yul\":31079:31142   */\n      swap2\n      pop\n        /* \"#utility.yul\":31034:31152   */\n      pop\n        /* \"#utility.yul\":30540:31159   */\n      swap3\n      pop\n      swap3\n      pop\n      swap3\n      jump\t// out\n        /* \"#utility.yul\":31165:31399   */\n    tag_607:\n        /* \"#utility.yul\":31305:31339   */\n      0x416363657373436f6e74726f6c3a2063616e206f6e6c792072656e6f756e6365\n        /* \"#utility.yul\":31301:31302   */\n      0x00\n        /* \"#utility.yul\":31293:31299   */\n      dup3\n        /* \"#utility.yul\":31289:31303   */\n      add\n        /* \"#utility.yul\":31282:31340   */\n      mstore\n        /* \"#utility.yul\":31374:31391   */\n      0x20726f6c657320666f722073656c660000000000000000000000000000000000\n        /* \"#utility.yul\":31369:31371   */\n      0x20\n        /* \"#utility.yul\":31361:31367   */\n      dup3\n        /* \"#utility.yul\":31357:31372   */\n      add\n        /* \"#utility.yul\":31350:31392   */\n      mstore\n        /* \"#utility.yul\":31165:31399   */\n      pop\n      jump\t// out\n        /* \"#utility.yul\":31405:31771   */\n    tag_608:\n        /* \"#utility.yul\":31547:31550   */\n      0x00\n        /* \"#utility.yul\":31568:31635   */\n      tag_912\n        /* \"#utility.yul\":31632:31634   */\n      0x2f\n        /* \"#utility.yul\":31627:31630   */\n      dup4\n        /* \"#utility.yul\":31568:31635   */\n      tag_555\n      jump\t// in\n    tag_912:\n        /* \"#utility.yul\":31561:31635   */\n      swap2\n      pop\n        /* \"#utility.yul\":31644:31737   */\n      tag_913\n        /* \"#utility.yul\":31733:31736   */\n      dup3\n        /* \"#utility.yul\":31644:31737   */\n      tag_607\n      jump\t// in\n    tag_913:\n        /* \"#utility.yul\":31762:31764   */\n      0x40\n        /* \"#utility.yul\":31757:31760   */\n      dup3\n        /* \"#utility.yul\":31753:31765   */\n      add\n        /* \"#utility.yul\":31746:31765   */\n      swap1\n      pop\n        /* \"#utility.yul\":31405:31771   */\n      swap2\n      swap1\n      pop\n      jump\t// out\n        /* \"#utility.yul\":31777:32196   */\n    tag_296:\n        /* \"#utility.yul\":31943:31947   */\n      0x00\n        /* \"#utility.yul\":31981:31983   */\n      0x20\n        /* \"#utility.yul\":31970:31979   */\n      dup3\n        /* \"#utility.yul\":31966:31984   */\n      add\n        /* \"#utility.yul\":31958:31984   */\n      swap1\n      pop\n        /* \"#utility.yul\":32030:32039   */\n      dup2\n        /* \"#utility.yul\":32024:32028   */\n      dup2\n        /* \"#utility.yul\":32020:32040   */\n      sub\n        /* \"#utility.yul\":32016:32017   */\n      0x00\n        /* \"#utility.yul\":32005:32014   */\n      dup4\n        /* \"#utility.yul\":32001:32018   */\n      add\n        /* \"#utility.yul\":31994:32041   */\n      mstore\n        /* \"#utility.yul\":32058:32189   */\n      tag_915\n        /* \"#utility.yul\":32184:32188   */\n      dup2\n        /* \"#utility.yul\":32058:32189   */\n      tag_608\n      jump\t// in\n    tag_915:\n        /* \"#utility.yul\":32050:32189   */\n      swap1\n      pop\n        /* \"#utility.yul\":31777:32196   */\n      swap2\n      swap1\n      pop\n      jump\t// out\n        /* \"#utility.yul\":32202:32382   */\n    tag_609:\n        /* \"#utility.yul\":32250:32327   */\n      0x4e487b7100000000000000000000000000000000000000000000000000000000\n        /* \"#utility.yul\":32247:32248   */\n      0x00\n        /* \"#utility.yul\":32240:32328   */\n      mstore\n        /* \"#utility.yul\":32347:32351   */\n      0x11\n        /* \"#utility.yul\":32344:32345   */\n      0x04\n        /* \"#utility.yul\":32337:32352   */\n      mstore\n        /* \"#utility.yul\":32371:32375   */\n      0x24\n        /* \"#utility.yul\":32368:32369   */\n      0x00\n        /* \"#utility.yul\":32361:32376   */\n      revert\n        /* \"#utility.yul\":32388:32579   */\n    tag_308:\n        /* \"#utility.yul\":32428:32431   */\n      0x00\n        /* \"#utility.yul\":32447:32467   */\n      tag_918\n        /* \"#utility.yul\":32465:32466   */\n      dup3\n        /* \"#utility.yul\":32447:32467   */\n      tag_541\n      jump\t// in\n    tag_918:\n        /* \"#utility.yul\":32442:32467   */\n      swap2\n      pop\n        /* \"#utility.yul\":32481:32501   */\n      tag_919\n        /* \"#utility.yul\":32499:32500   */\n      dup4\n        /* \"#utility.yul\":32481:32501   */\n      tag_541\n      jump\t// in\n    tag_919:\n        /* \"#utility.yul\":32476:32501   */\n      swap3\n      pop\n        /* \"#utility.yul\":32524:32525   */\n      dup3\n        /* \"#utility.yul\":32521:32522   */\n      dup3\n        /* \"#utility.yul\":32517:32526   */\n      add\n        /* \"#utility.yul\":32510:32526   */\n      swap1\n      pop\n        /* \"#utility.yul\":32545:32548   */\n      dup1\n        /* \"#utility.yul\":32542:32543   */\n      dup3\n        /* \"#utility.yul\":32539:32549   */\n      gt\n        /* \"#utility.yul\":32536:32572   */\n      iszero\n      tag_920\n      jumpi\n        /* \"#utility.yul\":32552:32570   */\n      tag_921\n      tag_609\n      jump\t// in\n    tag_921:\n        /* \"#utility.yul\":32536:32572   */\n    tag_920:\n        /* \"#utility.yul\":32388:32579   */\n      swap3\n      swap2\n      pop\n      pop\n      jump\t// out\n        /* \"#utility.yul\":32585:32779   */\n    tag_310:\n        /* \"#utility.yul\":32625:32629   */\n      0x00\n        /* \"#utility.yul\":32645:32665   */\n      tag_923\n        /* \"#utility.yul\":32663:32664   */\n      dup3\n        /* \"#utility.yul\":32645:32665   */\n      tag_541\n      jump\t// in\n    tag_923:\n        /* \"#utility.yul\":32640:32665   */\n      swap2\n      pop\n        /* \"#utility.yul\":32679:32699   */\n      tag_924\n        /* \"#utility.yul\":32697:32698   */\n      dup4\n        /* \"#utility.yul\":32679:32699   */\n      tag_541\n      jump\t// in\n    tag_924:\n        /* \"#utility.yul\":32674:32699   */\n      swap3\n      pop\n        /* \"#utility.yul\":32723:32724   */\n      dup3\n        /* \"#utility.yul\":32720:32721   */\n      dup3\n        /* \"#utility.yul\":32716:32725   */\n      sub\n        /* \"#utility.yul\":32708:32725   */\n      swap1\n      pop\n        /* \"#utility.yul\":32747:32748   */\n      dup2\n        /* \"#utility.yul\":32741:32745   */\n      dup2\n        /* \"#utility.yul\":32738:32749   */\n      gt\n        /* \"#utility.yul\":32735:32772   */\n      iszero\n      tag_925\n      jumpi\n        /* \"#utility.yul\":32752:32770   */\n      tag_926\n      tag_609\n      jump\t// in\n    tag_926:\n        /* \"#utility.yul\":32735:32772   */\n    tag_925:\n        /* \"#utility.yul\":32585:32779   */\n      swap3\n      swap2\n      pop\n      pop\n      jump\t// out\n        /* \"#utility.yul\":32785:33117   */\n    tag_312:\n        /* \"#utility.yul\":32906:32910   */\n      0x00\n        /* \"#utility.yul\":32944:32946   */\n      0x40\n        /* \"#utility.yul\":32933:32942   */\n      dup3\n        /* \"#utility.yul\":32929:32947   */\n      add\n        /* \"#utility.yul\":32921:32947   */\n      swap1\n      pop\n        /* \"#utility.yul\":32957:33028   */\n      tag_928\n        /* \"#utility.yul\":33025:33026   */\n      0x00\n        /* \"#utility.yul\":33014:33023   */\n      dup4\n        /* \"#utility.yul\":33010:33027   */\n      add\n        /* \"#utility.yul\":33001:33007   */\n      dup6\n        /* \"#utility.yul\":32957:33028   */\n      tag_559\n      jump\t// in\n    tag_928:\n        /* \"#utility.yul\":33038:33110   */\n      tag_929\n        /* \"#utility.yul\":33106:33108   */\n      0x20\n        /* \"#utility.yul\":33095:33104   */\n      dup4\n        /* \"#utility.yul\":33091:33109   */\n      add\n        /* \"#utility.yul\":33082:33088   */\n      dup5\n        /* \"#utility.yul\":33038:33110   */\n      tag_559\n      jump\t// in\n    tag_929:\n        /* \"#utility.yul\":32785:33117   */\n      swap4\n      swap3\n      pop\n      pop\n      pop\n      jump\t// out\n        /* \"#utility.yul\":33123:33533   */\n    tag_317:\n        /* \"#utility.yul\":33163:33170   */\n      0x00\n        /* \"#utility.yul\":33186:33206   */\n      tag_931\n        /* \"#utility.yul\":33204:33205   */\n      dup3\n        /* \"#utility.yul\":33186:33206   */\n      tag_541\n      jump\t// in\n    tag_931:\n        /* \"#utility.yul\":33181:33206   */\n      swap2\n      pop\n        /* \"#utility.yul\":33220:33240   */\n      tag_932\n        /* \"#utility.yul\":33238:33239   */\n      dup4\n        /* \"#utility.yul\":33220:33240   */\n      tag_541\n      jump\t// in\n    tag_932:\n        /* \"#utility.yul\":33215:33240   */\n      swap3\n      pop\n        /* \"#utility.yul\":33275:33276   */\n      dup3\n        /* \"#utility.yul\":33272:33273   */\n      dup3\n        /* \"#utility.yul\":33268:33277   */\n      mul\n        /* \"#utility.yul\":33297:33327   */\n      tag_933\n        /* \"#utility.yul\":33315:33326   */\n      dup2\n        /* \"#utility.yul\":33297:33327   */\n      tag_541\n      jump\t// in\n    tag_933:\n        /* \"#utility.yul\":33286:33327   */\n      swap2\n      pop\n        /* \"#utility.yul\":33476:33477   */\n      dup3\n        /* \"#utility.yul\":33467:33474   */\n      dup3\n        /* \"#utility.yul\":33463:33478   */\n      div\n        /* \"#utility.yul\":33460:33461   */\n      dup5\n        /* \"#utility.yul\":33457:33479   */\n      eq\n        /* \"#utility.yul\":33437:33438   */\n      dup4\n        /* \"#utility.yul\":33430:33439   */\n      iszero\n        /* \"#utility.yul\":33410:33493   */\n      or\n        /* \"#utility.yul\":33387:33526   */\n      tag_934\n      jumpi\n        /* \"#utility.yul\":33506:33524   */\n      tag_935\n      tag_609\n      jump\t// in\n    tag_935:\n        /* \"#utility.yul\":33387:33526   */\n    tag_934:\n        /* \"#utility.yul\":33171:33533   */\n      pop\n        /* \"#utility.yul\":33123:33533   */\n      swap3\n      swap2\n      pop\n      pop\n      jump\t// out\n        /* \"#utility.yul\":33539:33682   */\n    tag_610:\n        /* \"#utility.yul\":33596:33601   */\n      0x00\n        /* \"#utility.yul\":33627:33633   */\n      dup2\n        /* \"#utility.yul\":33621:33634   */\n      mload\n        /* \"#utility.yul\":33612:33634   */\n      swap1\n      pop\n        /* \"#utility.yul\":33643:33676   */\n      tag_937\n        /* \"#utility.yul\":33670:33675   */\n      dup2\n        /* \"#utility.yul\":33643:33676   */\n      tag_546\n      jump\t// in\n    tag_937:\n        /* \"#utility.yul\":33539:33682   */\n      swap3\n      swap2\n      pop\n      pop\n      jump\t// out\n        /* \"#utility.yul\":33688:34039   */\n    tag_331:\n        /* \"#utility.yul\":33758:33764   */\n      0x00\n        /* \"#utility.yul\":33807:33809   */\n      0x20\n        /* \"#utility.yul\":33795:33804   */\n      dup3\n        /* \"#utility.yul\":33786:33793   */\n      dup5\n        /* \"#utility.yul\":33782:33805   */\n      sub\n        /* \"#utility.yul\":33778:33810   */\n      slt\n        /* \"#utility.yul\":33775:33894   */\n      iszero\n      tag_939\n      jumpi\n        /* \"#utility.yul\":33813:33892   */\n      tag_940\n      tag_534\n      jump\t// in\n    tag_940:\n        /* \"#utility.yul\":33775:33894   */\n    tag_939:\n        /* \"#utility.yul\":33933:33934   */\n      0x00\n        /* \"#utility.yul\":33958:34022   */\n      tag_941\n        /* \"#utility.yul\":34014:34021   */\n      dup5\n        /* \"#utility.yul\":34005:34011   */\n      dup3\n        /* \"#utility.yul\":33994:34003   */\n      dup6\n        /* \"#utility.yul\":33990:34012   */\n      add\n        /* \"#utility.yul\":33958:34022   */\n      tag_610\n      jump\t// in\n    tag_941:\n        /* \"#utility.yul\":33948:34022   */\n      swap2\n      pop\n        /* \"#utility.yul\":33904:34032   */\n      pop\n        /* \"#utility.yul\":33688:34039   */\n      swap3\n      swap2\n      pop\n      pop\n      jump\t// out\n        /* \"#utility.yul\":34045:34192   */\n    tag_611:\n        /* \"#utility.yul\":34146:34157   */\n      0x00\n        /* \"#utility.yul\":34183:34186   */\n      dup2\n        /* \"#utility.yul\":34168:34186   */\n      swap1\n      pop\n        /* \"#utility.yul\":34045:34192   */\n      swap3\n      swap2\n      pop\n      pop\n      jump\t// out\n        /* \"#utility.yul\":34198:34312   */\n    tag_612:\n      pop\n      jump\t// out\n        /* \"#utility.yul\":34318:34716   */\n    tag_613:\n        /* \"#utility.yul\":34477:34480   */\n      0x00\n        /* \"#utility.yul\":34498:34581   */\n      tag_945\n        /* \"#utility.yul\":34579:34580   */\n      0x00\n        /* \"#utility.yul\":34574:34577   */\n      dup4\n        /* \"#utility.yul\":34498:34581   */\n      tag_611\n      jump\t// in\n    tag_945:\n        /* \"#utility.yul\":34491:34581   */\n      swap2\n      pop\n        /* \"#utility.yul\":34590:34683   */\n      tag_946\n        /* \"#utility.yul\":34679:34682   */\n      dup3\n        /* \"#utility.yul\":34590:34683   */\n      tag_612\n      jump\t// in\n    tag_946:\n        /* \"#utility.yul\":34708:34709   */\n      0x00\n        /* \"#utility.yul\":34703:34706   */\n      dup3\n        /* \"#utility.yul\":34699:34710   */\n      add\n        /* \"#utility.yul\":34692:34710   */\n      swap1\n      pop\n        /* \"#utility.yul\":34318:34716   */\n      swap2\n      swap1\n      pop\n      jump\t// out\n        /* \"#utility.yul\":34722:35101   */\n    tag_351:\n        /* \"#utility.yul\":34906:34909   */\n      0x00\n        /* \"#utility.yul\":34928:35075   */\n      tag_948\n        /* \"#utility.yul\":35071:35074   */\n      dup3\n        /* \"#utility.yul\":34928:35075   */\n      tag_613\n      jump\t// in\n    tag_948:\n        /* \"#utility.yul\":34921:35075   */\n      swap2\n      pop\n        /* \"#utility.yul\":35092:35095   */\n      dup2\n        /* \"#utility.yul\":35085:35095   */\n      swap1\n      pop\n        /* \"#utility.yul\":34722:35101   */\n      swap2\n      swap1\n      pop\n      jump\t// out\n        /* \"#utility.yul\":35107:35287   */\n    tag_360:\n        /* \"#utility.yul\":35155:35232   */\n      0x4e487b7100000000000000000000000000000000000000000000000000000000\n        /* \"#utility.yul\":35152:35153   */\n      0x00\n        /* \"#utility.yul\":35145:35233   */\n      mstore\n        /* \"#utility.yul\":35252:35256   */\n      0x41\n        /* \"#utility.yul\":35249:35250   */\n      0x04\n        /* \"#utility.yul\":35242:35257   */\n      mstore\n        /* \"#utility.yul\":35276:35280   */\n      0x24\n        /* \"#utility.yul\":35273:35274   */\n      0x00\n        /* \"#utility.yul\":35266:35281   */\n      revert\n        /* \"#utility.yul\":35293:35473   */\n    tag_367:\n        /* \"#utility.yul\":35341:35418   */\n      0x4e487b7100000000000000000000000000000000000000000000000000000000\n        /* \"#utility.yul\":35338:35339   */\n      0x00\n        /* \"#utility.yul\":35331:35419   */\n      mstore\n        /* \"#utility.yul\":35438:35442   */\n      0x32\n        /* \"#utility.yul\":35435:35436   */\n      0x04\n        /* \"#utility.yul\":35428:35443   */\n      mstore\n        /* \"#utility.yul\":35462:35466   */\n      0x24\n        /* \"#utility.yul\":35459:35460   */\n      0x00\n        /* \"#utility.yul\":35452:35467   */\n      revert\n        /* \"#utility.yul\":35479:35712   */\n    tag_369:\n        /* \"#utility.yul\":35518:35521   */\n      0x00\n        /* \"#utility.yul\":35541:35565   */\n      tag_952\n        /* \"#utility.yul\":35559:35564   */\n      dup3\n        /* \"#utility.yul\":35541:35565   */\n      tag_541\n      jump\t// in\n    tag_952:\n        /* \"#utility.yul\":35532:35565   */\n      swap2\n      pop\n        /* \"#utility.yul\":35587:35653   */\n      0xffffffffffffffffffffffffffffffffffffffffffffffffffffffffffffffff\n        /* \"#utility.yul\":35580:35585   */\n      dup3\n        /* \"#utility.yul\":35577:35654   */\n      sub\n        /* \"#utility.yul\":35574:35677   */\n      tag_953\n      jumpi\n        /* \"#utility.yul\":35657:35675   */\n      tag_954\n      tag_609\n      jump\t// in\n    tag_954:\n        /* \"#utility.yul\":35574:35677   */\n    tag_953:\n        /* \"#utility.yul\":35704:35705   */\n      0x01\n        /* \"#utility.yul\":35697:35702   */\n      dup3\n        /* \"#utility.yul\":35693:35706   */\n      add\n        /* \"#utility.yul\":35686:35706   */\n      swap1\n      pop\n        /* \"#utility.yul\":35479:35712   */\n      swap2\n      swap1\n      pop\n      jump\t// out\n        /* \"#utility.yul\":35718:35836   */\n    tag_614:\n        /* \"#utility.yul\":35805:35829   */\n      tag_956\n        /* \"#utility.yul\":35823:35828   */\n      dup2\n        /* \"#utility.yul\":35805:35829   */\n      tag_545\n      jump\t// in\n    tag_956:\n        /* \"#utility.yul\":35800:35803   */\n      dup3\n        /* \"#utility.yul\":35793:35830   */\n      mstore\n        /* \"#utility.yul\":35718:35836   */\n      pop\n      pop\n      jump\t// out\n        /* \"#utility.yul\":35842:36284   */\n    tag_378:\n        /* \"#utility.yul\":35991:35995   */\n      0x00\n        /* \"#utility.yul\":36029:36031   */\n      0x60\n        /* \"#utility.yul\":36018:36027   */\n      dup3\n        /* \"#utility.yul\":36014:36032   */\n      add\n        /* \"#utility.yul\":36006:36032   */\n      swap1\n      pop\n        /* \"#utility.yul\":36042:36113   */\n      tag_958\n        /* \"#utility.yul\":36110:36111   */\n      0x00\n        /* \"#utility.yul\":36099:36108   */\n      dup4\n        /* \"#utility.yul\":36095:36112   */\n      add\n        /* \"#utility.yul\":36086:36092   */\n      dup7\n        /* \"#utility.yul\":36042:36113   */\n      tag_614\n      jump\t// in\n    tag_958:\n        /* \"#utility.yul\":36123:36195   */\n      tag_959\n        /* \"#utility.yul\":36191:36193   */\n      0x20\n        /* \"#utility.yul\":36180:36189   */\n      dup4\n        /* \"#utility.yul\":36176:36194   */\n      add\n        /* \"#utility.yul\":36167:36173   */\n      dup6\n        /* \"#utility.yul\":36123:36195   */\n      tag_559\n      jump\t// in\n    tag_959:\n        /* \"#utility.yul\":36205:36277   */\n      tag_960\n        /* \"#utility.yul\":36273:36275   */\n      0x40\n        /* \"#utility.yul\":36262:36271   */\n      dup4\n        /* \"#utility.yul\":36258:36276   */\n      add\n        /* \"#utility.yul\":36249:36255   */\n      dup5\n        /* \"#utility.yul\":36205:36277   */\n      tag_559\n      jump\t// in\n    tag_960:\n        /* \"#utility.yul\":35842:36284   */\n      swap5\n      swap4\n      pop\n      pop\n      pop\n      pop\n      jump\t// out\n        /* \"#utility.yul\":36290:36470   */\n    tag_615:\n        /* \"#utility.yul\":36338:36415   */\n      0x4e487b7100000000000000000000000000000000000000000000000000000000\n        /* \"#utility.yul\":36335:36336   */\n      0x00\n        /* \"#utility.yul\":36328:36416   */\n      mstore\n        /* \"#utility.yul\":36435:36439   */\n      0x12\n        /* \"#utility.yul\":36432:36433   */\n      0x04\n        /* \"#utility.yul\":36425:36440   */\n      mstore\n        /* \"#utility.yul\":36459:36463   */\n      0x24\n        /* \"#utility.yul\":36456:36457   */\n      0x00\n        /* \"#utility.yul\":36449:36464   */\n      revert\n        /* \"#utility.yul\":36476:36661   */\n    tag_426:\n        /* \"#utility.yul\":36516:36517   */\n      0x00\n        /* \"#utility.yul\":36533:36553   */\n      tag_963\n        /* \"#utility.yul\":36551:36552   */\n      dup3\n        /* \"#utility.yul\":36533:36553   */\n      tag_541\n      jump\t// in\n    tag_963:\n        /* \"#utility.yul\":36528:36553   */\n      swap2\n      pop\n        /* \"#utility.yul\":36567:36587   */\n      tag_964\n        /* \"#utility.yul\":36585:36586   */\n      dup4\n        /* \"#utility.yul\":36567:36587   */\n      tag_541\n      jump\t// in\n    tag_964:\n        /* \"#utility.yul\":36562:36587   */\n      swap3\n      pop\n        /* \"#utility.yul\":36606:36607   */\n      dup3\n        /* \"#utility.yul\":36596:36631   */\n      tag_965\n      jumpi\n        /* \"#utility.yul\":36611:36629   */\n      tag_966\n      tag_615\n      jump\t// in\n    tag_966:\n        /* \"#utility.yul\":36596:36631   */\n    tag_965:\n        /* \"#utility.yul\":36653:36654   */\n      dup3\n        /* \"#utility.yul\":36650:36651   */\n      dup3\n        /* \"#utility.yul\":36646:36655   */\n      div\n        /* \"#utility.yul\":36641:36655   */\n      swap1\n      pop\n        /* \"#utility.yul\":36476:36661   */\n      swap3\n      swap2\n      pop\n      pop\n      jump\t// out\n        /* \"#utility.yul\":36667:36815   */\n    tag_616:\n        /* \"#utility.yul\":36769:36780   */\n      0x00\n        /* \"#utility.yul\":36806:36809   */\n      dup2\n        /* \"#utility.yul\":36791:36809   */\n      swap1\n      pop\n        /* \"#utility.yul\":36667:36815   */\n      swap3\n      swap2\n      pop\n      pop\n      jump\t// out\n        /* \"#utility.yul\":36821:36994   */\n    tag_617:\n        /* \"#utility.yul\":36961:36986   */\n      0x416363657373436f6e74726f6c3a206163636f756e7420000000000000000000\n        /* \"#utility.yul\":36957:36958   */\n      0x00\n        /* \"#utility.yul\":36949:36955   */\n      dup3\n        /* \"#utility.yul\":36945:36959   */\n      add\n        /* \"#utility.yul\":36938:36987   */\n      mstore\n        /* \"#utility.yul\":36821:36994   */\n      pop\n      jump\t// out\n        /* \"#utility.yul\":37000:37402   */\n    tag_618:\n        /* \"#utility.yul\":37160:37163   */\n      0x00\n        /* \"#utility.yul\":37181:37266   */\n      tag_970\n        /* \"#utility.yul\":37263:37265   */\n      0x17\n        /* \"#utility.yul\":37258:37261   */\n      dup4\n        /* \"#utility.yul\":37181:37266   */\n      tag_616\n      jump\t// in\n    tag_970:\n        /* \"#utility.yul\":37174:37266   */\n      swap2\n      pop\n        /* \"#utility.yul\":37275:37368   */\n      tag_971\n        /* \"#utility.yul\":37364:37367   */\n      dup3\n        /* \"#utility.yul\":37275:37368   */\n      tag_617\n      jump\t// in\n    tag_971:\n        /* \"#utility.yul\":37393:37395   */\n      0x17\n        /* \"#utility.yul\":37388:37391   */\n      dup3\n        /* \"#utility.yul\":37384:37396   */\n      add\n        /* \"#utility.yul\":37377:37396   */\n      swap1\n      pop\n        /* \"#utility.yul\":37000:37402   */\n      swap2\n      swap1\n      pop\n      jump\t// out\n        /* \"#utility.yul\":37408:37798   */\n    tag_619:\n        /* \"#utility.yul\":37514:37517   */\n      0x00\n        /* \"#utility.yul\":37542:37581   */\n      tag_973\n        /* \"#utility.yul\":37575:37580   */\n      dup3\n        /* \"#utility.yul\":37542:37581   */\n      tag_554\n      jump\t// in\n    tag_973:\n        /* \"#utility.yul\":37597:37686   */\n      tag_974\n        /* \"#utility.yul\":37679:37685   */\n      dup2\n        /* \"#utility.yul\":37674:37677   */\n      dup6\n        /* \"#utility.yul\":37597:37686   */\n      tag_616\n      jump\t// in\n    tag_974:\n        /* \"#utility.yul\":37590:37686   */\n      swap4\n      pop\n        /* \"#utility.yul\":37695:37760   */\n      tag_975\n        /* \"#utility.yul\":37753:37759   */\n      dup2\n        /* \"#utility.yul\":37748:37751   */\n      dup6\n        /* \"#utility.yul\":37741:37745   */\n      0x20\n        /* \"#utility.yul\":37734:37739   */\n      dup7\n        /* \"#utility.yul\":37730:37746   */\n      add\n        /* \"#utility.yul\":37695:37760   */\n      tag_556\n      jump\t// in\n    tag_975:\n        /* \"#utility.yul\":37785:37791   */\n      dup1\n        /* \"#utility.yul\":37780:37783   */\n      dup5\n        /* \"#utility.yul\":37776:37792   */\n      add\n        /* \"#utility.yul\":37769:37792   */\n      swap2\n      pop\n        /* \"#utility.yul\":37518:37798   */\n      pop\n        /* \"#utility.yul\":37408:37798   */\n      swap3\n      swap2\n      pop\n      pop\n      jump\t// out\n        /* \"#utility.yul\":37804:37971   */\n    tag_620:\n        /* \"#utility.yul\":37944:37963   */\n      0x206973206d697373696e6720726f6c6520000000000000000000000000000000\n        /* \"#utility.yul\":37940:37941   */\n      0x00\n        /* \"#utility.yul\":37932:37938   */\n      dup3\n        /* \"#utility.yul\":37928:37942   */\n      add\n        /* \"#utility.yul\":37921:37964   */\n      mstore\n        /* \"#utility.yul\":37804:37971   */\n      pop\n      jump\t// out\n        /* \"#utility.yul\":37977:38379   */\n    tag_621:\n        /* \"#utility.yul\":38137:38140   */\n      0x00\n        /* \"#utility.yul\":38158:38243   */\n      tag_978\n        /* \"#utility.yul\":38240:38242   */\n      0x11\n        /* \"#utility.yul\":38235:38238   */\n      dup4\n        /* \"#utility.yul\":38158:38243   */\n      tag_616\n      jump\t// in\n    tag_978:\n        /* \"#utility.yul\":38151:38243   */\n      swap2\n      pop\n        /* \"#utility.yul\":38252:38345   */\n      tag_979\n        /* \"#utility.yul\":38341:38344   */\n      dup3\n        /* \"#utility.yul\":38252:38345   */\n      tag_620\n      jump\t// in\n    tag_979:\n        /* \"#utility.yul\":38370:38372   */\n      0x11\n        /* \"#utility.yul\":38365:38368   */\n      dup3\n        /* \"#utility.yul\":38361:38373   */\n      add\n        /* \"#utility.yul\":38354:38373   */\n      swap1\n      pop\n        /* \"#utility.yul\":37977:38379   */\n      swap2\n      swap1\n      pop\n      jump\t// out\n        /* \"#utility.yul\":38385:39352   */\n    tag_502:\n        /* \"#utility.yul\":38767:38770   */\n      0x00\n        /* \"#utility.yul\":38789:38937   */\n      tag_981\n        /* \"#utility.yul\":38933:38936   */\n      dup3\n        /* \"#utility.yul\":38789:38937   */\n      tag_618\n      jump\t// in\n    tag_981:\n        /* \"#utility.yul\":38782:38937   */\n      swap2\n      pop\n        /* \"#utility.yul\":38954:39049   */\n      tag_982\n        /* \"#utility.yul\":39045:39048   */\n      dup3\n        /* \"#utility.yul\":39036:39042   */\n      dup6\n        /* \"#utility.yul\":38954:39049   */\n      tag_619\n      jump\t// in\n    tag_982:\n        /* \"#utility.yul\":38947:39049   */\n      swap2\n      pop\n        /* \"#utility.yul\":39066:39214   */\n      tag_983\n        /* \"#utility.yul\":39210:39213   */\n      dup3\n        /* \"#utility.yul\":39066:39214   */\n      tag_621\n      jump\t// in\n    tag_983:\n        /* \"#utility.yul\":39059:39214   */\n      swap2\n      pop\n        /* \"#utility.yul\":39231:39326   */\n      tag_984\n        /* \"#utility.yul\":39322:39325   */\n      dup3\n        /* \"#utility.yul\":39313:39319   */\n      dup5\n        /* \"#utility.yul\":39231:39326   */\n      tag_619\n      jump\t// in\n    tag_984:\n        /* \"#utility.yul\":39224:39326   */\n      swap2\n      pop\n        /* \"#utility.yul\":39343:39346   */\n      dup2\n        /* \"#utility.yul\":39336:39346   */\n      swap1\n      pop\n        /* \"#utility.yul\":38385:39352   */\n      swap4\n      swap3\n      pop\n      pop\n      pop\n      jump\t// out\n        /* \"#utility.yul\":39358:39529   */\n    tag_526:\n        /* \"#utility.yul\":39397:39400   */\n      0x00\n        /* \"#utility.yul\":39420:39444   */\n      tag_986\n        /* \"#utility.yul\":39438:39443   */\n      dup3\n        /* \"#utility.yul\":39420:39444   */\n      tag_541\n      jump\t// in\n    tag_986:\n        /* \"#utility.yul\":39411:39444   */\n      swap2\n      pop\n        /* \"#utility.yul\":39466:39470   */\n      0x00\n        /* \"#utility.yul\":39459:39464   */\n      dup3\n        /* \"#utility.yul\":39456:39471   */\n      sub\n        /* \"#utility.yul\":39453:39494   */\n      tag_987\n      jumpi\n        /* \"#utility.yul\":39474:39492   */\n      tag_988\n      tag_609\n      jump\t// in\n    tag_988:\n        /* \"#utility.yul\":39453:39494   */\n    tag_987:\n        /* \"#utility.yul\":39521:39522   */\n      0x01\n        /* \"#utility.yul\":39514:39519   */\n      dup3\n        /* \"#utility.yul\":39510:39523   */\n      sub\n        /* \"#utility.yul\":39503:39523   */\n      swap1\n      pop\n        /* \"#utility.yul\":39358:39529   */\n      swap2\n      swap1\n      pop\n      jump\t// out\n        /* \"#utility.yul\":39535:39717   */\n    tag_622:\n        /* \"#utility.yul\":39675:39709   */\n      0x537472696e67733a20686578206c656e67746820696e73756666696369656e74\n        /* \"#utility.yul\":39671:39672   */\n      0x00\n        /* \"#utility.yul\":39663:39669   */\n      dup3\n        /* \"#utility.yul\":39659:39673   */\n      add\n        /* \"#utility.yul\":39652:39710   */\n      mstore\n        /* \"#utility.yul\":39535:39717   */\n      pop\n      jump\t// out\n        /* \"#utility.yul\":39723:40089   */\n    tag_623:\n        /* \"#utility.yul\":39865:39868   */\n      0x00\n        /* \"#utility.yul\":39886:39953   */\n      tag_991\n        /* \"#utility.yul\":39950:39952   */\n      0x20\n        /* \"#utility.yul\":39945:39948   */\n      dup4\n        /* \"#utility.yul\":39886:39953   */\n      tag_555\n      jump\t// in\n    tag_991:\n        /* \"#utility.yul\":39879:39953   */\n      swap2\n      pop\n        /* \"#utility.yul\":39962:40055   */\n      tag_992\n        /* \"#utility.yul\":40051:40054   */\n      dup3\n        /* \"#utility.yul\":39962:40055   */\n      tag_622\n      jump\t// in\n    tag_992:\n        /* \"#utility.yul\":40080:40082   */\n      0x20\n        /* \"#utility.yul\":40075:40078   */\n      dup3\n        /* \"#utility.yul\":40071:40083   */\n      add\n        /* \"#utility.yul\":40064:40083   */\n      swap1\n      pop\n        /* \"#utility.yul\":39723:40089   */\n      swap2\n      swap1\n      pop\n      jump\t// out\n        /* \"#utility.yul\":40095:40514   */\n    tag_529:\n        /* \"#utility.yul\":40261:40265   */\n      0x00\n        /* \"#utility.yul\":40299:40301   */\n      0x20\n        /* \"#utility.yul\":40288:40297   */\n      dup3\n        /* \"#utility.yul\":40284:40302   */\n      add\n        /* \"#utility.yul\":40276:40302   */\n      swap1\n      pop\n        /* \"#utility.yul\":40348:40357   */\n      dup2\n        /* \"#utility.yul\":40342:40346   */\n      dup2\n        /* \"#utility.yul\":40338:40358   */\n      sub\n        /* \"#utility.yul\":40334:40335   */\n      0x00\n        /* \"#utility.yul\":40323:40332   */\n      dup4\n        /* \"#utility.yul\":40319:40336   */\n      add\n        /* \"#utility.yul\":40312:40359   */\n      mstore\n        /* \"#utility.yul\":40376:40507   */\n      tag_994\n        /* \"#utility.yul\":40502:40506   */\n      dup2\n        /* \"#utility.yul\":40376:40507   */\n      tag_623\n      jump\t// in\n    tag_994:\n        /* \"#utility.yul\":40368:40507   */\n      swap1\n      pop\n        /* \"#utility.yul\":40095:40514   */\n      swap2\n      swap1\n      pop\n      jump\t// out\n\n    auxdata: 0xa26469706673582212209795adf9562d8df42cab908e0b34dd463e3aef5ddf873f7adaa82f9df260e3d064736f6c63430008130033\n}\n",
				"bytecode": {
					"linkReferences": {},
					"object": "60806040523480156200001157600080fd5b5060405162003d1338038062003d1383398181016040528101906200003791906200027a565b6200005b6000801b6200004f620000ad60201b60201c565b620000b560201b60201c565b80600160006101000a81548173ffffffffffffffffffffffffffffffffffffffff021916908373ffffffffffffffffffffffffffffffffffffffff1602179055504360026004018190555050620002ac565b600033905090565b620000c78282620001a660201b60201c565b620001a257600160008084815260200190815260200160002060000160008373ffffffffffffffffffffffffffffffffffffffff1673ffffffffffffffffffffffffffffffffffffffff16815260200190815260200160002060006101000a81548160ff02191690831515021790555062000147620000ad60201b60201c565b73ffffffffffffffffffffffffffffffffffffffff168173ffffffffffffffffffffffffffffffffffffffff16837f2f8788117e7eff1d82e926ec794901d17c78024a50270940304540a733656f0d60405160405180910390a45b5050565b600080600084815260200190815260200160002060000160008373ffffffffffffffffffffffffffffffffffffffff1673ffffffffffffffffffffffffffffffffffffffff16815260200190815260200160002060009054906101000a900460ff16905092915050565b600080fd5b600073ffffffffffffffffffffffffffffffffffffffff82169050919050565b6000620002428262000215565b9050919050565b620002548162000235565b81146200026057600080fd5b50565b600081519050620002748162000249565b92915050565b60006020828403121562000293576200029262000210565b5b6000620002a38482850162000263565b91505092915050565b613a5780620002bc6000396000f3fe6080604052600436106102675760003560e01c806395652eba11610144578063ba9a2b13116100b6578063d547741f1161007a578063d547741f146109cc578063d967895e146109f5578063e2c579a414610a1e578063e6bcf40614610a49578063ea13082014610a72578063fc39d25d14610a9b57610267565b8063ba9a2b13146108c3578063bc3a274b14610900578063c802748c14610929578063d014a34314610966578063d17b18c4146109a357610267565b8063a195777c11610108578063a195777c1461079d578063a217fddf146107c8578063ae805057146107f3578063b601860c1461081e578063b7c7dbf914610849578063b96f141b1461088657610267565b806395652eba146106c75780639bb0b7a3146106d15780639db137e7146106fa5780639e857ad814610723578063a036db5c1461076057610267565b80633c4141fd116101dd578063769cdfa4116101a1578063769cdfa41461058c57806382afd23b146105c957806382d5a8f01461060657806391d14854146106365780639371042114610673578063944101351461068a57610267565b80633c4141fd146104955780633d95d225146104d25780634bce1b871461050f5780635f6846fa14610538578063630dc7cb1461056157610267565b8063248a9ca31161022f578063248a9ca3146103755780632a080a75146103b25780632c7d3c6c146103ef5780632f2ff15d1461041a57806336568abe1461044357806338cf6da71461046c57610267565b806301ffc9a71461026c5780630f1a4273146102a95780631c3c0ea8146102d25780631c8b2f02146102fb5780631e9b26e314610338575b600080fd5b34801561027857600080fd5b50610293600480360381019061028e91906127b1565b610ac6565b6040516102a091906127f9565b60405180910390f35b3480156102b557600080fd5b506102d060048036038101906102cb919061284a565b610b40565b005b3480156102de57600080fd5b506102f960048036038101906102f491906128d5565b610b5b565b005b34801561030757600080fd5b50610322600480360381019061031d9190612902565b610bf9565b60405161032f91906127f9565b60405180910390f35b34801561034457600080fd5b5061035f600480360381019061035a9190612902565b610c33565b60405161036c91906127f9565b60405180910390f35b34801561038157600080fd5b5061039c60048036038101906103979190612978565b610c6f565b6040516103a991906129b4565b60405180910390f35b3480156103be57600080fd5b506103d960048036038101906103d4919061284a565b610c8e565b6040516103e69190612a0d565b60405180910390f35b3480156103fb57600080fd5b50610404610ccf565b6040516104119190612ab8565b60405180910390f35b34801561042657600080fd5b50610441600480360381019061043c9190612ada565b610d08565b005b34801561044f57600080fd5b5061046a60048036038101906104659190612ada565b610d29565b005b34801561047857600080fd5b50610493600480360381019061048e9190612b1a565b610dac565b005b3480156104a157600080fd5b506104bc60048036038101906104b7919061284a565b610f63565b6040516104c99190612b7c565b60405180910390f35b3480156104de57600080fd5b506104f960048036038101906104f4919061284a565b610f80565b6040516105069190612b7c565b60405180910390f35b34801561051b57600080fd5b5061053660048036038101906105319190612b97565b610fc3565b005b34801561054457600080fd5b5061055f600480360381019061055a9190612b97565b611252565b005b34801561056d57600080fd5b506105766112f8565b60405161058391906129b4565b60405180910390f35b34801561059857600080fd5b506105b360048036038101906105ae919061284a565b61131c565b6040516105c09190612b7c565b60405180910390f35b3480156105d557600080fd5b506105f060048036038101906105eb919061284a565b61134b565b6040516105fd91906127f9565b60405180910390f35b34801561061257600080fd5b5061061b61136b565b60405161062d96959493929190612bf3565b60405180910390f35b34801561064257600080fd5b5061065d60048036038101906106589190612ada565b6113a2565b60405161066a91906127f9565b60405180910390f35b34801561067f57600080fd5b5061068861140c565b005b34801561069657600080fd5b506106b160048036038101906106ac919061284a565b61152e565b6040516106be9190612d12565b60405180910390f35b6106cf6115ed565b005b3480156106dd57600080fd5b506106f860048036038101906106f39190612d60565b611742565b005b34801561070657600080fd5b50610721600480360381019061071c9190612b97565b611780565b005b34801561072f57600080fd5b5061074a600480360381019061074591906128d5565b6118bf565b6040516107579190612b7c565b60405180910390f35b34801561076c57600080fd5b5061078760048036038101906107829190612902565b611908565b6040516107949190612e5e565b60405180910390f35b3480156107a957600080fd5b506107b26119d7565b6040516107bf9190612ab8565b60405180910390f35b3480156107d457600080fd5b506107dd611a10565b6040516107ea91906129b4565b60405180910390f35b3480156107ff57600080fd5b50610808611a17565b6040516108159190612b7c565b60405180910390f35b34801561082a57600080fd5b50610833611a21565b6040516108409190612ab8565b60405180910390f35b34801561085557600080fd5b50610870600480360381019061086b919061284a565b611a5a565b60405161087d9190612f5e565b60405180910390f35b34801561089257600080fd5b506108ad60048036038101906108a8919061284a565b611b2c565b6040516108ba919061302f565b60405180910390f35b3480156108cf57600080fd5b506108ea60048036038101906108e59190612902565b611c03565b6040516108f791906127f9565b60405180910390f35b34801561090c57600080fd5b506109276004803603810190610922919061284a565b611c2a565b005b34801561093557600080fd5b50610950600480360381019061094b9190612902565b611c45565b60405161095d91906133fa565b60405180910390f35b34801561097257600080fd5b5061098d6004803603810190610988919061284a565b611e4c565b60405161099a9190612b7c565b60405180910390f35b3480156109af57600080fd5b506109ca60048036038101906109c5919061284a565b611e74565b005b3480156109d857600080fd5b506109f360048036038101906109ee9190612ada565b611e8f565b005b348015610a0157600080fd5b50610a1c6004803603810190610a17919061341c565b611eb0565b005b348015610a2a57600080fd5b50610a33611edf565b604051610a4091906134a8565b60405180910390f35b348015610a5557600080fd5b50610a706004803603810190610a6b919061284a565b611f05565b005b348015610a7e57600080fd5b50610a996004803603810190610a9491906134c3565b611f1f565b005b348015610aa757600080fd5b50610ab0611f68565b604051610abd9190612ab8565b60405180910390f35b60007f7965db0b000000000000000000000000000000000000000000000000000000007bffffffffffffffffffffffffffffffffffffffffffffffffffffffff1916827bffffffffffffffffffffffffffffffffffffffffffffffffffffffff19161480610b395750610b3882611fa1565b5b9050919050565b6000801b610b4d8161200b565b816002600301819055505050565b6000801b610b688161200b565b81601060006101000a81548173ffffffffffffffffffffffffffffffffffffffff021916908373ffffffffffffffffffffffffffffffffffffffff160217905550610bf57f9cf85f95575c3af1e116e3d37fd41e7f36a8a373623f51ffaaa87fdd032fa767601060009054906101000a900473ffffffffffffffffffffffffffffffffffffffff1661201f565b5050565b60006009600083815260200190815260200160002060000154600a6000858152602001908152602001600020600101541015905092915050565b6000600b6000848152602001908152602001600020600083815260200190815260200160002060009054906101000a900460ff16905092915050565b6000806000838152602001908152602001600020600101549050919050565b610c9661266a565b600a6000838152602001908152602001600020604051806040016040529081600082015481526020016001820154815250509050919050565b6040518060400160405280600d81526020017f4d54525f4645455f4552524f520000000000000000000000000000000000000081525081565b610d1182610c6f565b610d1a8161200b565b610d24838361201f565b505050565b610d316120ff565b73ffffffffffffffffffffffffffffffffffffffff168173ffffffffffffffffffffffffffffffffffffffff1614610d9e576040517f08c379a0000000000000000000000000000000000000000000000000000000008152600401610d9590613588565b60405180910390fd5b610da88282612107565b5050565b7f9cf85f95575c3af1e116e3d37fd41e7f36a8a373623f51ffaaa87fdd032fa767610dd68161200b565b610ddf846121e8565b610de98383611c03565b6040518060400160405280600b81526020017f43414e545f4745545f495400000000000000000000000000000000000000000081525090610e60576040517f08c379a0000000000000000000000000000000000000000000000000000000008152600401610e579190612ab8565b60405180910390fd5b506001600b6000858152602001908152602001600020600084815260200190815260200160002060006101000a81548160ff0219169083151502179055506009600083815260200190815260200160002060010154600a60008581526020019081526020016000206000016000828254610eda91906135d7565b925050819055506009600083815260200190815260200160002060000154600a60008581526020019081526020016000206001016000828254610f1d919061360b565b925050819055507f5999410022ec50d1ffde644471d13ab5b5482616c8bfc6696d13aa0577c5840c8242604051610f5592919061363f565b60405180910390a150505050565b600060086000838152602001908152602001600020549050919050565b6000600a600083815260200190815260200160002060000154610fa283611e4c565b600260010154610fb29190613668565b610fbc9190613668565b9050919050565b7f9cf85f95575c3af1e116e3d37fd41e7f36a8a373623f51ffaaa87fdd032fa767610fed8161200b565b610ff6836121e8565b610fff8261134b565b156040518060400160405280601481526020017f4143544956455f545241494e45525f4552524f5200000000000000000000000081525090611077576040517f08c379a000000000000000000000000000000000000000000000000000000000815260040161106e9190612ab8565b60405180910390fd5b506110806120ff565b73ffffffffffffffffffffffffffffffffffffffff16600160009054906101000a900473ffffffffffffffffffffffffffffffffffffffff1673ffffffffffffffffffffffffffffffffffffffff16636352211e846040518263ffffffff1660e01b81526004016110f19190612b7c565b602060405180830381865afa15801561110e573d6000803e3d6000fd5b505050506040513d601f19601f8201168201806040525081019061113291906136bf565b73ffffffffffffffffffffffffffffffffffffffff16146040518060400160405280600b81526020017f4f574e45525f4552524f52000000000000000000000000000000000000000000815250906111c0576040517f08c379a00000000000000000000000000000000000000000000000000000000081526004016111b79190612ab8565b60405180910390fd5b504360086000848152602001908152602001600020819055506000600a60008481526020019081526020016000206000015403611214576001600a6000848152602001908152602001600020600001819055505b7f735ef78aed2bd4cfae4d08680b7cb333d4aa561d0287a81d4abbac0b4b64d589824260405161124592919061363f565b60405180910390a1505050565b7f9cf85f95575c3af1e116e3d37fd41e7f36a8a373623f51ffaaa87fdd032fa76761127c8161200b565b611285836121e8565b61128e8261131c565b600a600084815260200190815260200160002060010160008282546112b391906135d7565b925050819055507fb367f7a60fbab705463ff086be4fc59c2be65ec753e1c52ac8af6f1198c522c082426040516112eb92919061363f565b60405180910390a1505050565b7f9cf85f95575c3af1e116e3d37fd41e7f36a8a373623f51ffaaa87fdd032fa76781565b6000600a60008381526020019081526020016000206000015460028001546113449190613668565b9050919050565b600080600860008481526020019081526020016000205414159050919050565b60028060000160009054906101000a900460ff16908060010154908060020154908060030154908060040154908060050154905086565b600080600084815260200190815260200160002060000160008373ffffffffffffffffffffffffffffffffffffffff1673ffffffffffffffffffffffffffffffffffffffff16815260200190815260200160002060009054906101000a900460ff16905092915050565b6000801b6114198161200b565b6000601060009054906101000a900473ffffffffffffffffffffffffffffffffffffffff1673ffffffffffffffffffffffffffffffffffffffff16600f546040516114639061371d565b60006040518083038185875af1925050503d80600081146114a0576040519150601f19603f3d011682016040523d82523d6000602084013e6114a5565b606091505b50509050806040518060400160405280600d81526020017f4d54525f4645455f4552524f520000000000000000000000000000000000000081525090611521576040517f08c379a00000000000000000000000000000000000000000000000000000000081526004016115189190612ab8565b60405180910390fd5b506000600f819055505050565b606060008267ffffffffffffffff81111561154c5761154b613732565b5b60405190808252806020026020018201604052801561157a5781602001602082028036833780820191505090505b50905060005b838110156115e357600c600082815260200190815260200160002060009054906101000a900460ff168282815181106115bc576115bb613761565b5b602002602001019060ff16908160ff168152505080806115db90613790565b915050611580565b5080915050919050565b6002600301543410156040518060400160405280600d81526020017f4d54525f4645455f4552524f52000000000000000000000000000000000000008152509061166d576040517f08c379a00000000000000000000000000000000000000000000000000000000081526004016116649190612ab8565b60405180910390fd5b5060006116786120ff565b905060006002600301543461168d919061360b565b9050600260030154600f60008282546116a691906135d7565b9250508190555080600d60008473ffffffffffffffffffffffffffffffffffffffff1673ffffffffffffffffffffffffffffffffffffffff16815260200190815260200160002060008282546116fc91906135d7565b925050819055507f9e9b7e29099f2d6721d8268a517ee7ada50ae5d99eab1c668a3ba067877023fb828242604051611736939291906137e7565b60405180910390a15050565b6000801b61174f8161200b565b81600c600085815260200190815260200160002060006101000a81548160ff021916908360ff160217905550505050565b7f9cf85f95575c3af1e116e3d37fd41e7f36a8a373623f51ffaaa87fdd032fa7676117aa8161200b565b6117b3836121e8565b6117bc8261134b565b6040518060400160405280601481526020017f4143544956455f545241494e45525f4552524f5200000000000000000000000081525090611833576040517f08c379a000000000000000000000000000000000000000000000000000000000815260040161182a9190612ab8565b60405180910390fd5b5061183d82610f80565b600a6000848152602001908152602001600020600101600082825461186291906135d7565b925050819055504360086000848152602001908152602001600020819055507fc9cd65a70e4e2a217623cf87df32706764a2f447cb55b016b28e0c643e681ae282426040516118b292919061363f565b60405180910390a1505050565b6000600d60008373ffffffffffffffffffffffffffffffffffffffff1673ffffffffffffffffffffffffffffffffffffffff168152602001908152602001600020549050919050565b606060008367ffffffffffffffff81111561192657611925613732565b5b6040519080825280602002602001820160405280156119545781602001602082028036833780820191505090505b50905060005b848110156119cc57600b6000858152602001908152602001600020600082815260200190815260200160002060009054906101000a900460ff168282815181106119a7576119a6613761565b5b60200260200101901515908115158152505080806119c490613790565b91505061195a565b508091505092915050565b6040518060400160405280600b81526020017f4f574e45525f4552524f5200000000000000000000000000000000000000000081525081565b6000801b81565b6000600f54905090565b6040518060400160405280600b81526020017f43414e545f4745545f495400000000000000000000000000000000000000000081525081565b606060008267ffffffffffffffff811115611a7857611a77613732565b5b604051908082528060200260200182016040528015611ab157816020015b611a9e612684565b815260200190600190039081611a965790505b50905060005b83811015611b22576009600082815260200190815260200160002060405180604001604052908160008201548152602001600182015481525050828281518110611b0457611b03613761565b5b60200260200101819052508080611b1a90613790565b915050611ab7565b5080915050919050565b6060600047905060008367ffffffffffffffff811115611b4f57611b4e613732565b5b604051908082528060200260200182016040528015611b7d5781602001602082028036833780820191505090505b50905060005b84811015611bf857606483600c600084815260200190815260200160002060009054906101000a900460ff1660ff16611bbc9190613668565b611bc6919061384d565b828281518110611bd957611bd8613761565b5b6020026020010181815250508080611bf090613790565b915050611b83565b508092505050919050565b6000611c0f8383610c33565b158015611c225750611c218383610bf9565b5b905092915050565b6000801b611c378161200b565b816002600101819055505050565b611c4d61269e565b604051806101c00160405280611c628461134b565b1515815260200160086000858152602001908152602001600020548152602001438152602001600d6000600160009054906101000a900473ffffffffffffffffffffffffffffffffffffffff1673ffffffffffffffffffffffffffffffffffffffff16636352211e876040518263ffffffff1660e01b8152600401611ce79190612b7c565b602060405180830381865afa158015611d04573d6000803e3d6000fd5b505050506040513d601f19601f82011682018060405250810190611d2891906136bf565b73ffffffffffffffffffffffffffffffffffffffff1673ffffffffffffffffffffffffffffffffffffffff168152602001908152602001600020548152602001600f548152602001600e548152602001611d8184610f80565b8152602001611d8f8461131c565b8152602001611d9d84610c8e565b815260200160026040518060c00160405290816000820160009054906101000a900460ff1660ff1660ff168152602001600182015481526020016002820154815260200160038201548152602001600482015481526020016005820154815250508152602001611e0c85611a5a565b8152602001611e1b8585611908565b8152602001611e2e60026005015461152e565b8152602001611e41600260050154611b2c565b815250905092915050565b6000600860008381526020019081526020016000205443611e6d919061360b565b9050919050565b6000801b611e818161200b565b816002600501819055505050565b611e9882610c6f565b611ea18161200b565b611eab8383612107565b505050565b6000801b611ebd8161200b565b81600260000160006101000a81548160ff021916908360ff1602179055505050565b600160009054906101000a900473ffffffffffffffffffffffffffffffffffffffff1681565b6000801b611f128161200b565b8160028001819055505050565b6000801b611f2c8161200b565b82600960008681526020019081526020016000206000018190555081600960008681526020019081526020016000206001018190555050505050565b6040518060400160405280601481526020017f4143544956455f545241494e45525f4552524f5200000000000000000000000081525081565b60007f01ffc9a7000000000000000000000000000000000000000000000000000000007bffffffffffffffffffffffffffffffffffffffffffffffffffffffff1916827bffffffffffffffffffffffffffffffffffffffffffffffffffffffff1916149050919050565b61201c816120176120ff565b61237c565b50565b61202982826113a2565b6120fb57600160008084815260200190815260200160002060000160008373ffffffffffffffffffffffffffffffffffffffff1673ffffffffffffffffffffffffffffffffffffffff16815260200190815260200160002060006101000a81548160ff0219169083151502179055506120a06120ff565b73ffffffffffffffffffffffffffffffffffffffff168173ffffffffffffffffffffffffffffffffffffffff16837f2f8788117e7eff1d82e926ec794901d17c78024a50270940304540a733656f0d60405160405180910390a45b5050565b600033905090565b61211182826113a2565b156121e457600080600084815260200190815260200160002060000160008373ffffffffffffffffffffffffffffffffffffffff1673ffffffffffffffffffffffffffffffffffffffff16815260200190815260200160002060006101000a81548160ff0219169083151502179055506121896120ff565b73ffffffffffffffffffffffffffffffffffffffff168173ffffffffffffffffffffffffffffffffffffffff16837ff6391f5c32d9c69d2a47ea670b442974b53935d1edc7fd64eb21e047a839171b60405160405180910390a45b5050565b6000600260030154905080600d60008473ffffffffffffffffffffffffffffffffffffffff1673ffffffffffffffffffffffffffffffffffffffff1681526020019081526020016000205410156040518060400160405280600d81526020017f4d54525f4645455f4552524f5200000000000000000000000000000000000000815250906122ac576040517f08c379a00000000000000000000000000000000000000000000000000000000081526004016122a39190612ab8565b60405180910390fd5b506000606482600260000160009054906101000a900460ff1660ff166122d29190613668565b6122dc919061384d565b9050600081836122ec919061360b565b905082600d60008673ffffffffffffffffffffffffffffffffffffffff1673ffffffffffffffffffffffffffffffffffffffff168152602001908152602001600020600082825461233d919061360b565b9250508190555081600f600082825461235691906135d7565b9250508190555080600e600082825461236f91906135d7565b9250508190555050505050565b61238682826113a2565b6123fd5761239381612401565b6123a18360001c602061242e565b6040516020016123b2929190613952565b6040516020818303038152906040526040517f08c379a00000000000000000000000000000000000000000000000000000000081526004016123f49190612ab8565b60405180910390fd5b5050565b60606124278273ffffffffffffffffffffffffffffffffffffffff16601460ff1661242e565b9050919050565b6060600060028360026124419190613668565b61244b91906135d7565b67ffffffffffffffff81111561246457612463613732565b5b6040519080825280601f01601f1916602001820160405280156124965781602001600182028036833780820191505090505b5090507f3000000000000000000000000000000000000000000000000000000000000000816000815181106124ce576124cd613761565b5b60200101907effffffffffffffffffffffffffffffffffffffffffffffffffffffffffffff1916908160001a9053507f78000000000000000000000000000000000000000000000000000000000000008160018151811061253257612531613761565b5b60200101907effffffffffffffffffffffffffffffffffffffffffffffffffffffffffffff1916908160001a905350600060018460026125729190613668565b61257c91906135d7565b90505b600181111561261c577f3031323334353637383961626364656600000000000000000000000000000000600f8616601081106125be576125bd613761565b5b1a60f81b8282815181106125d5576125d4613761565b5b60200101907effffffffffffffffffffffffffffffffffffffffffffffffffffffffffffff1916908160001a905350600485901c9450806126159061398c565b905061257f565b5060008414612660576040517f08c379a000000000000000000000000000000000000000000000000000000000815260040161265790613a01565b60405180910390fd5b8091505092915050565b604051806040016040528060008152602001600081525090565b604051806040016040528060008152602001600081525090565b604051806101c00160405280600015158152602001600081526020016000815260200160008152602001600081526020016000815260200160008152602001600081526020016126ec61266a565b81526020016126f961271b565b8152602001606081526020016060815260200160608152602001606081525090565b6040518060c00160405280600060ff16815260200160008152602001600081526020016000815260200160008152602001600081525090565b600080fd5b60007fffffffff0000000000000000000000000000000000000000000000000000000082169050919050565b61278e81612759565b811461279957600080fd5b50565b6000813590506127ab81612785565b92915050565b6000602082840312156127c7576127c6612754565b5b60006127d58482850161279c565b91505092915050565b60008115159050919050565b6127f3816127de565b82525050565b600060208201905061280e60008301846127ea565b92915050565b6000819050919050565b61282781612814565b811461283257600080fd5b50565b6000813590506128448161281e565b92915050565b6000602082840312156128605761285f612754565b5b600061286e84828501612835565b91505092915050565b600073ffffffffffffffffffffffffffffffffffffffff82169050919050565b60006128a282612877565b9050919050565b6128b281612897565b81146128bd57600080fd5b50565b6000813590506128cf816128a9565b92915050565b6000602082840312156128eb576128ea612754565b5b60006128f9848285016128c0565b91505092915050565b6000806040838503121561291957612918612754565b5b600061292785828601612835565b925050602061293885828601612835565b9150509250929050565b6000819050919050565b61295581612942565b811461296057600080fd5b50565b6000813590506129728161294c565b92915050565b60006020828403121561298e5761298d612754565b5b600061299c84828501612963565b91505092915050565b6129ae81612942565b82525050565b60006020820190506129c960008301846129a5565b92915050565b6129d881612814565b82525050565b6040820160008201516129f460008501826129cf565b506020820151612a0760208501826129cf565b50505050565b6000604082019050612a2260008301846129de565b92915050565b600081519050919050565b600082825260208201905092915050565b60005b83811015612a62578082015181840152602081019050612a47565b60008484015250505050565b6000601f19601f8301169050919050565b6000612a8a82612a28565b612a948185612a33565b9350612aa4818560208601612a44565b612aad81612a6e565b840191505092915050565b60006020820190508181036000830152612ad28184612a7f565b905092915050565b60008060408385031215612af157612af0612754565b5b6000612aff85828601612963565b9250506020612b10858286016128c0565b9150509250929050565b600080600060608486031215612b3357612b32612754565b5b6000612b41868287016128c0565b9350506020612b5286828701612835565b9250506040612b6386828701612835565b9150509250925092565b612b7681612814565b82525050565b6000602082019050612b916000830184612b6d565b92915050565b60008060408385031215612bae57612bad612754565b5b6000612bbc858286016128c0565b9250506020612bcd85828601612835565b9150509250929050565b600060ff82169050919050565b612bed81612bd7565b82525050565b600060c082019050612c086000830189612be4565b612c156020830188612b6d565b612c226040830187612b6d565b612c2f6060830186612b6d565b612c3c6080830185612b6d565b612c4960a0830184612b6d565b979650505050505050565b600081519050919050565b600082825260208201905092915050565b6000819050602082019050919050565b612c8981612bd7565b82525050565b6000612c9b8383612c80565b60208301905092915050565b6000602082019050919050565b6000612cbf82612c54565b612cc98185612c5f565b9350612cd483612c70565b8060005b83811015612d05578151612cec8882612c8f565b9750612cf783612ca7565b925050600181019050612cd8565b5085935050505092915050565b60006020820190508181036000830152612d2c8184612cb4565b905092915050565b612d3d81612bd7565b8114612d4857600080fd5b50565b600081359050612d5a81612d34565b92915050565b60008060408385031215612d7757612d76612754565b5b6000612d8585828601612835565b9250506020612d9685828601612d4b565b9150509250929050565b600081519050919050565b600082825260208201905092915050565b6000819050602082019050919050565b612dd5816127de565b82525050565b6000612de78383612dcc565b60208301905092915050565b6000602082019050919050565b6000612e0b82612da0565b612e158185612dab565b9350612e2083612dbc565b8060005b83811015612e51578151612e388882612ddb565b9750612e4383612df3565b925050600181019050612e24565b5085935050505092915050565b60006020820190508181036000830152612e788184612e00565b905092915050565b600081519050919050565b600082825260208201905092915050565b6000819050602082019050919050565b604082016000820151612ec260008501826129cf565b506020820151612ed560208501826129cf565b50505050565b6000612ee78383612eac565b60408301905092915050565b6000602082019050919050565b6000612f0b82612e80565b612f158185612e8b565b9350612f2083612e9c565b8060005b83811015612f51578151612f388882612edb565b9750612f4383612ef3565b925050600181019050612f24565b5085935050505092915050565b60006020820190508181036000830152612f788184612f00565b905092915050565b600081519050919050565b600082825260208201905092915050565b6000819050602082019050919050565b6000612fb883836129cf565b60208301905092915050565b6000602082019050919050565b6000612fdc82612f80565b612fe68185612f8b565b9350612ff183612f9c565b8060005b838110156130225781516130098882612fac565b975061301483612fc4565b925050600181019050612ff5565b5085935050505092915050565b600060208201905081810360008301526130498184612fd1565b905092915050565b60408201600082015161306760008501826129cf565b50602082015161307a60208501826129cf565b50505050565b60c0820160008201516130966000850182612c80565b5060208201516130a960208501826129cf565b5060408201516130bc60408501826129cf565b5060608201516130cf60608501826129cf565b5060808201516130e260808501826129cf565b5060a08201516130f560a08501826129cf565b50505050565b600082825260208201905092915050565b600061311782612e80565b61312181856130fb565b935061312c83612e9c565b8060005b8381101561315d5781516131448882612edb565b975061314f83612ef3565b925050600181019050613130565b5085935050505092915050565b600082825260208201905092915050565b600061318682612da0565b613190818561316a565b935061319b83612dbc565b8060005b838110156131cc5781516131b38882612ddb565b97506131be83612df3565b92505060018101905061319f565b5085935050505092915050565b600082825260208201905092915050565b60006131f582612c54565b6131ff81856131d9565b935061320a83612c70565b8060005b8381101561323b5781516132228882612c8f565b975061322d83612ca7565b92505060018101905061320e565b5085935050505092915050565b600082825260208201905092915050565b600061326482612f80565b61326e8185613248565b935061327983612f9c565b8060005b838110156132aa5781516132918882612fac565b975061329c83612fc4565b92505060018101905061327d565b5085935050505092915050565b6000610280830160008301516132d06000860182612dcc565b5060208301516132e360208601826129cf565b5060408301516132f660408601826129cf565b50606083015161330960608601826129cf565b50608083015161331c60808601826129cf565b5060a083015161332f60a08601826129cf565b5060c083015161334260c08601826129cf565b5060e083015161335560e08601826129cf565b5061010083015161336a610100860182613051565b5061012083015161337f610140860182613080565b50610140830151848203610200860152613399828261310c565b9150506101608301518482036102208601526133b5828261317b565b9150506101808301518482036102408601526133d182826131ea565b9150506101a08301518482036102608601526133ed8282613259565b9150508091505092915050565b6000602082019050818103600083015261341481846132b7565b905092915050565b60006020828403121561343257613431612754565b5b600061344084828501612d4b565b91505092915050565b6000819050919050565b600061346e61346961346484612877565b613449565b612877565b9050919050565b600061348082613453565b9050919050565b600061349282613475565b9050919050565b6134a281613487565b82525050565b60006020820190506134bd6000830184613499565b92915050565b6000806000606084860312156134dc576134db612754565b5b60006134ea86828701612835565b93505060206134fb86828701612835565b925050604061350c86828701612835565b9150509250925092565b7f416363657373436f6e74726f6c3a2063616e206f6e6c792072656e6f756e636560008201527f20726f6c657320666f722073656c660000000000000000000000000000000000602082015250565b6000613572602f83612a33565b915061357d82613516565b604082019050919050565b600060208201905081810360008301526135a181613565565b9050919050565b7f4e487b7100000000000000000000000000000000000000000000000000000000600052601160045260246000fd5b60006135e282612814565b91506135ed83612814565b9250828201905080821115613605576136046135a8565b5b92915050565b600061361682612814565b915061362183612814565b9250828203905081811115613639576136386135a8565b5b92915050565b60006040820190506136546000830185612b6d565b6136616020830184612b6d565b9392505050565b600061367382612814565b915061367e83612814565b925082820261368c81612814565b915082820484148315176136a3576136a26135a8565b5b5092915050565b6000815190506136b9816128a9565b92915050565b6000602082840312156136d5576136d4612754565b5b60006136e3848285016136aa565b91505092915050565b600081905092915050565b50565b60006137076000836136ec565b9150613712826136f7565b600082019050919050565b6000613728826136fa565b9150819050919050565b7f4e487b7100000000000000000000000000000000000000000000000000000000600052604160045260246000fd5b7f4e487b7100000000000000000000000000000000000000000000000000000000600052603260045260246000fd5b600061379b82612814565b91507fffffffffffffffffffffffffffffffffffffffffffffffffffffffffffffffff82036137cd576137cc6135a8565b5b600182019050919050565b6137e181612897565b82525050565b60006060820190506137fc60008301866137d8565b6138096020830185612b6d565b6138166040830184612b6d565b949350505050565b7f4e487b7100000000000000000000000000000000000000000000000000000000600052601260045260246000fd5b600061385882612814565b915061386383612814565b9250826138735761387261381e565b5b828204905092915050565b600081905092915050565b7f416363657373436f6e74726f6c3a206163636f756e7420000000000000000000600082015250565b60006138bf60178361387e565b91506138ca82613889565b601782019050919050565b60006138e082612a28565b6138ea818561387e565b93506138fa818560208601612a44565b80840191505092915050565b7f206973206d697373696e6720726f6c6520000000000000000000000000000000600082015250565b600061393c60118361387e565b915061394782613906565b601182019050919050565b600061395d826138b2565b915061396982856138d5565b91506139748261392f565b915061398082846138d5565b91508190509392505050565b600061399782612814565b9150600082036139aa576139a96135a8565b5b600182039050919050565b7f537472696e67733a20686578206c656e67746820696e73756666696369656e74600082015250565b60006139eb602083612a33565b91506139f6826139b5565b602082019050919050565b60006020820190508181036000830152613a1a816139de565b905091905056fea26469706673582212209795adf9562d8df42cab908e0b34dd463e3aef5ddf873f7adaa82f9df260e3d064736f6c63430008130033",
					"opcodes": "PUSH1 0x80 PUSH1 0x40 MSTORE CALLVALUE DUP1 ISZERO PUSH3 0x11 JUMPI PUSH1 0x0 DUP1 REVERT JUMPDEST POP PUSH1 0x40 MLOAD PUSH3 0x3D13 CODESIZE SUB DUP1 PUSH3 0x3D13 DUP4 CODECOPY DUP2 DUP2 ADD PUSH1 0x40 MSTORE DUP2 ADD SWAP1 PUSH3 0x37 SWAP2 SWAP1 PUSH3 0x27A JUMP JUMPDEST PUSH3 0x5B PUSH1 0x0 DUP1 SHL PUSH3 0x4F PUSH3 0xAD PUSH1 0x20 SHL PUSH1 0x20 SHR JUMP JUMPDEST PUSH3 0xB5 PUSH1 0x20 SHL PUSH1 0x20 SHR JUMP JUMPDEST DUP1 PUSH1 0x1 PUSH1 0x0 PUSH2 0x100 EXP DUP2 SLOAD DUP2 PUSH20 0xFFFFFFFFFFFFFFFFFFFFFFFFFFFFFFFFFFFFFFFF MUL NOT AND SWAP1 DUP4 PUSH20 0xFFFFFFFFFFFFFFFFFFFFFFFFFFFFFFFFFFFFFFFF AND MUL OR SWAP1 SSTORE POP NUMBER PUSH1 0x2 PUSH1 0x4 ADD DUP2 SWAP1 SSTORE POP POP PUSH3 0x2AC JUMP JUMPDEST PUSH1 0x0 CALLER SWAP1 POP SWAP1 JUMP JUMPDEST PUSH3 0xC7 DUP3 DUP3 PUSH3 0x1A6 PUSH1 0x20 SHL PUSH1 0x20 SHR JUMP JUMPDEST PUSH3 0x1A2 JUMPI PUSH1 0x1 PUSH1 0x0 DUP1 DUP5 DUP2 MSTORE PUSH1 0x20 ADD SWAP1 DUP2 MSTORE PUSH1 0x20 ADD PUSH1 0x0 KECCAK256 PUSH1 0x0 ADD PUSH1 0x0 DUP4 PUSH20 0xFFFFFFFFFFFFFFFFFFFFFFFFFFFFFFFFFFFFFFFF AND PUSH20 0xFFFFFFFFFFFFFFFFFFFFFFFFFFFFFFFFFFFFFFFF AND DUP2 MSTORE PUSH1 0x20 ADD SWAP1 DUP2 MSTORE PUSH1 0x20 ADD PUSH1 0x0 KECCAK256 PUSH1 0x0 PUSH2 0x100 EXP DUP2 SLOAD DUP2 PUSH1 0xFF MUL NOT AND SWAP1 DUP4 ISZERO ISZERO MUL OR SWAP1 SSTORE POP PUSH3 0x147 PUSH3 0xAD PUSH1 0x20 SHL PUSH1 0x20 SHR JUMP JUMPDEST PUSH20 0xFFFFFFFFFFFFFFFFFFFFFFFFFFFFFFFFFFFFFFFF AND DUP2 PUSH20 0xFFFFFFFFFFFFFFFFFFFFFFFFFFFFFFFFFFFFFFFF AND DUP4 PUSH32 0x2F8788117E7EFF1D82E926EC794901D17C78024A50270940304540A733656F0D PUSH1 0x40 MLOAD PUSH1 0x40 MLOAD DUP1 SWAP2 SUB SWAP1 LOG4 JUMPDEST POP POP JUMP JUMPDEST PUSH1 0x0 DUP1 PUSH1 0x0 DUP5 DUP2 MSTORE PUSH1 0x20 ADD SWAP1 DUP2 MSTORE PUSH1 0x20 ADD PUSH1 0x0 KECCAK256 PUSH1 0x0 ADD PUSH1 0x0 DUP4 PUSH20 0xFFFFFFFFFFFFFFFFFFFFFFFFFFFFFFFFFFFFFFFF AND PUSH20 0xFFFFFFFFFFFFFFFFFFFFFFFFFFFFFFFFFFFFFFFF AND DUP2 MSTORE PUSH1 0x20 ADD SWAP1 DUP2 MSTORE PUSH1 0x20 ADD PUSH1 0x0 KECCAK256 PUSH1 0x0 SWAP1 SLOAD SWAP1 PUSH2 0x100 EXP SWAP1 DIV PUSH1 0xFF AND SWAP1 POP SWAP3 SWAP2 POP POP JUMP JUMPDEST PUSH1 0x0 DUP1 REVERT JUMPDEST PUSH1 0x0 PUSH20 0xFFFFFFFFFFFFFFFFFFFFFFFFFFFFFFFFFFFFFFFF DUP3 AND SWAP1 POP SWAP2 SWAP1 POP JUMP JUMPDEST PUSH1 0x0 PUSH3 0x242 DUP3 PUSH3 0x215 JUMP JUMPDEST SWAP1 POP SWAP2 SWAP1 POP JUMP JUMPDEST PUSH3 0x254 DUP2 PUSH3 0x235 JUMP JUMPDEST DUP2 EQ PUSH3 0x260 JUMPI PUSH1 0x0 DUP1 REVERT JUMPDEST POP JUMP JUMPDEST PUSH1 0x0 DUP2 MLOAD SWAP1 POP PUSH3 0x274 DUP2 PUSH3 0x249 JUMP JUMPDEST SWAP3 SWAP2 POP POP JUMP JUMPDEST PUSH1 0x0 PUSH1 0x20 DUP3 DUP5 SUB SLT ISZERO PUSH3 0x293 JUMPI PUSH3 0x292 PUSH3 0x210 JUMP JUMPDEST JUMPDEST PUSH1 0x0 PUSH3 0x2A3 DUP5 DUP3 DUP6 ADD PUSH3 0x263 JUMP JUMPDEST SWAP2 POP POP SWAP3 SWAP2 POP POP JUMP JUMPDEST PUSH2 0x3A57 DUP1 PUSH3 0x2BC PUSH1 0x0 CODECOPY PUSH1 0x0 RETURN INVALID PUSH1 0x80 PUSH1 0x40 MSTORE PUSH1 0x4 CALLDATASIZE LT PUSH2 0x267 JUMPI PUSH1 0x0 CALLDATALOAD PUSH1 0xE0 SHR DUP1 PUSH4 0x95652EBA GT PUSH2 0x144 JUMPI DUP1 PUSH4 0xBA9A2B13 GT PUSH2 0xB6 JUMPI DUP1 PUSH4 0xD547741F GT PUSH2 0x7A JUMPI DUP1 PUSH4 0xD547741F EQ PUSH2 0x9CC JUMPI DUP1 PUSH4 0xD967895E EQ PUSH2 0x9F5 JUMPI DUP1 PUSH4 0xE2C579A4 EQ PUSH2 0xA1E JUMPI DUP1 PUSH4 0xE6BCF406 EQ PUSH2 0xA49 JUMPI DUP1 PUSH4 0xEA130820 EQ PUSH2 0xA72 JUMPI DUP1 PUSH4 0xFC39D25D EQ PUSH2 0xA9B JUMPI PUSH2 0x267 JUMP JUMPDEST DUP1 PUSH4 0xBA9A2B13 EQ PUSH2 0x8C3 JUMPI DUP1 PUSH4 0xBC3A274B EQ PUSH2 0x900 JUMPI DUP1 PUSH4 0xC802748C EQ PUSH2 0x929 JUMPI DUP1 PUSH4 0xD014A343 EQ PUSH2 0x966 JUMPI DUP1 PUSH4 0xD17B18C4 EQ PUSH2 0x9A3 JUMPI PUSH2 0x267 JUMP JUMPDEST DUP1 PUSH4 0xA195777C GT PUSH2 0x108 JUMPI DUP1 PUSH4 0xA195777C EQ PUSH2 0x79D JUMPI DUP1 PUSH4 0xA217FDDF EQ PUSH2 0x7C8 JUMPI DUP1 PUSH4 0xAE805057 EQ PUSH2 0x7F3 JUMPI DUP1 PUSH4 0xB601860C EQ PUSH2 0x81E JUMPI DUP1 PUSH4 0xB7C7DBF9 EQ PUSH2 0x849 JUMPI DUP1 PUSH4 0xB96F141B EQ PUSH2 0x886 JUMPI PUSH2 0x267 JUMP JUMPDEST DUP1 PUSH4 0x95652EBA EQ PUSH2 0x6C7 JUMPI DUP1 PUSH4 0x9BB0B7A3 EQ PUSH2 0x6D1 JUMPI DUP1 PUSH4 0x9DB137E7 EQ PUSH2 0x6FA JUMPI DUP1 PUSH4 0x9E857AD8 EQ PUSH2 0x723 JUMPI DUP1 PUSH4 0xA036DB5C EQ PUSH2 0x760 JUMPI PUSH2 0x267 JUMP JUMPDEST DUP1 PUSH4 0x3C4141FD GT PUSH2 0x1DD JUMPI DUP1 PUSH4 0x769CDFA4 GT PUSH2 0x1A1 JUMPI DUP1 PUSH4 0x769CDFA4 EQ PUSH2 0x58C JUMPI DUP1 PUSH4 0x82AFD23B EQ PUSH2 0x5C9 JUMPI DUP1 PUSH4 0x82D5A8F0 EQ PUSH2 0x606 JUMPI DUP1 PUSH4 0x91D14854 EQ PUSH2 0x636 JUMPI DUP1 PUSH4 0x93710421 EQ PUSH2 0x673 JUMPI DUP1 PUSH4 0x94410135 EQ PUSH2 0x68A JUMPI PUSH2 0x267 JUMP JUMPDEST DUP1 PUSH4 0x3C4141FD EQ PUSH2 0x495 JUMPI DUP1 PUSH4 0x3D95D225 EQ PUSH2 0x4D2 JUMPI DUP1 PUSH4 0x4BCE1B87 EQ PUSH2 0x50F JUMPI DUP1 PUSH4 0x5F6846FA EQ PUSH2 0x538 JUMPI DUP1 PUSH4 0x630DC7CB EQ PUSH2 0x561 JUMPI PUSH2 0x267 JUMP JUMPDEST DUP1 PUSH4 0x248A9CA3 GT PUSH2 0x22F JUMPI DUP1 PUSH4 0x248A9CA3 EQ PUSH2 0x375 JUMPI DUP1 PUSH4 0x2A080A75 EQ PUSH2 0x3B2 JUMPI DUP1 PUSH4 0x2C7D3C6C EQ PUSH2 0x3EF JUMPI DUP1 PUSH4 0x2F2FF15D EQ PUSH2 0x41A JUMPI DUP1 PUSH4 0x36568ABE EQ PUSH2 0x443 JUMPI DUP1 PUSH4 0x38CF6DA7 EQ PUSH2 0x46C JUMPI PUSH2 0x267 JUMP JUMPDEST DUP1 PUSH4 0x1FFC9A7 EQ PUSH2 0x26C JUMPI DUP1 PUSH4 0xF1A4273 EQ PUSH2 0x2A9 JUMPI DUP1 PUSH4 0x1C3C0EA8 EQ PUSH2 0x2D2 JUMPI DUP1 PUSH4 0x1C8B2F02 EQ PUSH2 0x2FB JUMPI DUP1 PUSH4 0x1E9B26E3 EQ PUSH2 0x338 JUMPI JUMPDEST PUSH1 0x0 DUP1 REVERT JUMPDEST CALLVALUE DUP1 ISZERO PUSH2 0x278 JUMPI PUSH1 0x0 DUP1 REVERT JUMPDEST POP PUSH2 0x293 PUSH1 0x4 DUP1 CALLDATASIZE SUB DUP2 ADD SWAP1 PUSH2 0x28E SWAP2 SWAP1 PUSH2 0x27B1 JUMP JUMPDEST PUSH2 0xAC6 JUMP JUMPDEST PUSH1 0x40 MLOAD PUSH2 0x2A0 SWAP2 SWAP1 PUSH2 0x27F9 JUMP JUMPDEST PUSH1 0x40 MLOAD DUP1 SWAP2 SUB SWAP1 RETURN JUMPDEST CALLVALUE DUP1 ISZERO PUSH2 0x2B5 JUMPI PUSH1 0x0 DUP1 REVERT JUMPDEST POP PUSH2 0x2D0 PUSH1 0x4 DUP1 CALLDATASIZE SUB DUP2 ADD SWAP1 PUSH2 0x2CB SWAP2 SWAP1 PUSH2 0x284A JUMP JUMPDEST PUSH2 0xB40 JUMP JUMPDEST STOP JUMPDEST CALLVALUE DUP1 ISZERO PUSH2 0x2DE JUMPI PUSH1 0x0 DUP1 REVERT JUMPDEST POP PUSH2 0x2F9 PUSH1 0x4 DUP1 CALLDATASIZE SUB DUP2 ADD SWAP1 PUSH2 0x2F4 SWAP2 SWAP1 PUSH2 0x28D5 JUMP JUMPDEST PUSH2 0xB5B JUMP JUMPDEST STOP JUMPDEST CALLVALUE DUP1 ISZERO PUSH2 0x307 JUMPI PUSH1 0x0 DUP1 REVERT JUMPDEST POP PUSH2 0x322 PUSH1 0x4 DUP1 CALLDATASIZE SUB DUP2 ADD SWAP1 PUSH2 0x31D SWAP2 SWAP1 PUSH2 0x2902 JUMP JUMPDEST PUSH2 0xBF9 JUMP JUMPDEST PUSH1 0x40 MLOAD PUSH2 0x32F SWAP2 SWAP1 PUSH2 0x27F9 JUMP JUMPDEST PUSH1 0x40 MLOAD DUP1 SWAP2 SUB SWAP1 RETURN JUMPDEST CALLVALUE DUP1 ISZERO PUSH2 0x344 JUMPI PUSH1 0x0 DUP1 REVERT JUMPDEST POP PUSH2 0x35F PUSH1 0x4 DUP1 CALLDATASIZE SUB DUP2 ADD SWAP1 PUSH2 0x35A SWAP2 SWAP1 PUSH2 0x2902 JUMP JUMPDEST PUSH2 0xC33 JUMP JUMPDEST PUSH1 0x40 MLOAD PUSH2 0x36C SWAP2 SWAP1 PUSH2 0x27F9 JUMP JUMPDEST PUSH1 0x40 MLOAD DUP1 SWAP2 SUB SWAP1 RETURN JUMPDEST CALLVALUE DUP1 ISZERO PUSH2 0x381 JUMPI PUSH1 0x0 DUP1 REVERT JUMPDEST POP PUSH2 0x39C PUSH1 0x4 DUP1 CALLDATASIZE SUB DUP2 ADD SWAP1 PUSH2 0x397 SWAP2 SWAP1 PUSH2 0x2978 JUMP JUMPDEST PUSH2 0xC6F JUMP JUMPDEST PUSH1 0x40 MLOAD PUSH2 0x3A9 SWAP2 SWAP1 PUSH2 0x29B4 JUMP JUMPDEST PUSH1 0x40 MLOAD DUP1 SWAP2 SUB SWAP1 RETURN JUMPDEST CALLVALUE DUP1 ISZERO PUSH2 0x3BE JUMPI PUSH1 0x0 DUP1 REVERT JUMPDEST POP PUSH2 0x3D9 PUSH1 0x4 DUP1 CALLDATASIZE SUB DUP2 ADD SWAP1 PUSH2 0x3D4 SWAP2 SWAP1 PUSH2 0x284A JUMP JUMPDEST PUSH2 0xC8E JUMP JUMPDEST PUSH1 0x40 MLOAD PUSH2 0x3E6 SWAP2 SWAP1 PUSH2 0x2A0D JUMP JUMPDEST PUSH1 0x40 MLOAD DUP1 SWAP2 SUB SWAP1 RETURN JUMPDEST CALLVALUE DUP1 ISZERO PUSH2 0x3FB JUMPI PUSH1 0x0 DUP1 REVERT JUMPDEST POP PUSH2 0x404 PUSH2 0xCCF JUMP JUMPDEST PUSH1 0x40 MLOAD PUSH2 0x411 SWAP2 SWAP1 PUSH2 0x2AB8 JUMP JUMPDEST PUSH1 0x40 MLOAD DUP1 SWAP2 SUB SWAP1 RETURN JUMPDEST CALLVALUE DUP1 ISZERO PUSH2 0x426 JUMPI PUSH1 0x0 DUP1 REVERT JUMPDEST POP PUSH2 0x441 PUSH1 0x4 DUP1 CALLDATASIZE SUB DUP2 ADD SWAP1 PUSH2 0x43C SWAP2 SWAP1 PUSH2 0x2ADA JUMP JUMPDEST PUSH2 0xD08 JUMP JUMPDEST STOP JUMPDEST CALLVALUE DUP1 ISZERO PUSH2 0x44F JUMPI PUSH1 0x0 DUP1 REVERT JUMPDEST POP PUSH2 0x46A PUSH1 0x4 DUP1 CALLDATASIZE SUB DUP2 ADD SWAP1 PUSH2 0x465 SWAP2 SWAP1 PUSH2 0x2ADA JUMP JUMPDEST PUSH2 0xD29 JUMP JUMPDEST STOP JUMPDEST CALLVALUE DUP1 ISZERO PUSH2 0x478 JUMPI PUSH1 0x0 DUP1 REVERT JUMPDEST POP PUSH2 0x493 PUSH1 0x4 DUP1 CALLDATASIZE SUB DUP2 ADD SWAP1 PUSH2 0x48E SWAP2 SWAP1 PUSH2 0x2B1A JUMP JUMPDEST PUSH2 0xDAC JUMP JUMPDEST STOP JUMPDEST CALLVALUE DUP1 ISZERO PUSH2 0x4A1 JUMPI PUSH1 0x0 DUP1 REVERT JUMPDEST POP PUSH2 0x4BC PUSH1 0x4 DUP1 CALLDATASIZE SUB DUP2 ADD SWAP1 PUSH2 0x4B7 SWAP2 SWAP1 PUSH2 0x284A JUMP JUMPDEST PUSH2 0xF63 JUMP JUMPDEST PUSH1 0x40 MLOAD PUSH2 0x4C9 SWAP2 SWAP1 PUSH2 0x2B7C JUMP JUMPDEST PUSH1 0x40 MLOAD DUP1 SWAP2 SUB SWAP1 RETURN JUMPDEST CALLVALUE DUP1 ISZERO PUSH2 0x4DE JUMPI PUSH1 0x0 DUP1 REVERT JUMPDEST POP PUSH2 0x4F9 PUSH1 0x4 DUP1 CALLDATASIZE SUB DUP2 ADD SWAP1 PUSH2 0x4F4 SWAP2 SWAP1 PUSH2 0x284A JUMP JUMPDEST PUSH2 0xF80 JUMP JUMPDEST PUSH1 0x40 MLOAD PUSH2 0x506 SWAP2 SWAP1 PUSH2 0x2B7C JUMP JUMPDEST PUSH1 0x40 MLOAD DUP1 SWAP2 SUB SWAP1 RETURN JUMPDEST CALLVALUE DUP1 ISZERO PUSH2 0x51B JUMPI PUSH1 0x0 DUP1 REVERT JUMPDEST POP PUSH2 0x536 PUSH1 0x4 DUP1 CALLDATASIZE SUB DUP2 ADD SWAP1 PUSH2 0x531 SWAP2 SWAP1 PUSH2 0x2B97 JUMP JUMPDEST PUSH2 0xFC3 JUMP JUMPDEST STOP JUMPDEST CALLVALUE DUP1 ISZERO PUSH2 0x544 JUMPI PUSH1 0x0 DUP1 REVERT JUMPDEST POP PUSH2 0x55F PUSH1 0x4 DUP1 CALLDATASIZE SUB DUP2 ADD SWAP1 PUSH2 0x55A SWAP2 SWAP1 PUSH2 0x2B97 JUMP JUMPDEST PUSH2 0x1252 JUMP JUMPDEST STOP JUMPDEST CALLVALUE DUP1 ISZERO PUSH2 0x56D JUMPI PUSH1 0x0 DUP1 REVERT JUMPDEST POP PUSH2 0x576 PUSH2 0x12F8 JUMP JUMPDEST PUSH1 0x40 MLOAD PUSH2 0x583 SWAP2 SWAP1 PUSH2 0x29B4 JUMP JUMPDEST PUSH1 0x40 MLOAD DUP1 SWAP2 SUB SWAP1 RETURN JUMPDEST CALLVALUE DUP1 ISZERO PUSH2 0x598 JUMPI PUSH1 0x0 DUP1 REVERT JUMPDEST POP PUSH2 0x5B3 PUSH1 0x4 DUP1 CALLDATASIZE SUB DUP2 ADD SWAP1 PUSH2 0x5AE SWAP2 SWAP1 PUSH2 0x284A JUMP JUMPDEST PUSH2 0x131C JUMP JUMPDEST PUSH1 0x40 MLOAD PUSH2 0x5C0 SWAP2 SWAP1 PUSH2 0x2B7C JUMP JUMPDEST PUSH1 0x40 MLOAD DUP1 SWAP2 SUB SWAP1 RETURN JUMPDEST CALLVALUE DUP1 ISZERO PUSH2 0x5D5 JUMPI PUSH1 0x0 DUP1 REVERT JUMPDEST POP PUSH2 0x5F0 PUSH1 0x4 DUP1 CALLDATASIZE SUB DUP2 ADD SWAP1 PUSH2 0x5EB SWAP2 SWAP1 PUSH2 0x284A JUMP JUMPDEST PUSH2 0x134B JUMP JUMPDEST PUSH1 0x40 MLOAD PUSH2 0x5FD SWAP2 SWAP1 PUSH2 0x27F9 JUMP JUMPDEST PUSH1 0x40 MLOAD DUP1 SWAP2 SUB SWAP1 RETURN JUMPDEST CALLVALUE DUP1 ISZERO PUSH2 0x612 JUMPI PUSH1 0x0 DUP1 REVERT JUMPDEST POP PUSH2 0x61B PUSH2 0x136B JUMP JUMPDEST PUSH1 0x40 MLOAD PUSH2 0x62D SWAP7 SWAP6 SWAP5 SWAP4 SWAP3 SWAP2 SWAP1 PUSH2 0x2BF3 JUMP JUMPDEST PUSH1 0x40 MLOAD DUP1 SWAP2 SUB SWAP1 RETURN JUMPDEST CALLVALUE DUP1 ISZERO PUSH2 0x642 JUMPI PUSH1 0x0 DUP1 REVERT JUMPDEST POP PUSH2 0x65D PUSH1 0x4 DUP1 CALLDATASIZE SUB DUP2 ADD SWAP1 PUSH2 0x658 SWAP2 SWAP1 PUSH2 0x2ADA JUMP JUMPDEST PUSH2 0x13A2 JUMP JUMPDEST PUSH1 0x40 MLOAD PUSH2 0x66A SWAP2 SWAP1 PUSH2 0x27F9 JUMP JUMPDEST PUSH1 0x40 MLOAD DUP1 SWAP2 SUB SWAP1 RETURN JUMPDEST CALLVALUE DUP1 ISZERO PUSH2 0x67F JUMPI PUSH1 0x0 DUP1 REVERT JUMPDEST POP PUSH2 0x688 PUSH2 0x140C JUMP JUMPDEST STOP JUMPDEST CALLVALUE DUP1 ISZERO PUSH2 0x696 JUMPI PUSH1 0x0 DUP1 REVERT JUMPDEST POP PUSH2 0x6B1 PUSH1 0x4 DUP1 CALLDATASIZE SUB DUP2 ADD SWAP1 PUSH2 0x6AC SWAP2 SWAP1 PUSH2 0x284A JUMP JUMPDEST PUSH2 0x152E JUMP JUMPDEST PUSH1 0x40 MLOAD PUSH2 0x6BE SWAP2 SWAP1 PUSH2 0x2D12 JUMP JUMPDEST PUSH1 0x40 MLOAD DUP1 SWAP2 SUB SWAP1 RETURN JUMPDEST PUSH2 0x6CF PUSH2 0x15ED JUMP JUMPDEST STOP JUMPDEST CALLVALUE DUP1 ISZERO PUSH2 0x6DD JUMPI PUSH1 0x0 DUP1 REVERT JUMPDEST POP PUSH2 0x6F8 PUSH1 0x4 DUP1 CALLDATASIZE SUB DUP2 ADD SWAP1 PUSH2 0x6F3 SWAP2 SWAP1 PUSH2 0x2D60 JUMP JUMPDEST PUSH2 0x1742 JUMP JUMPDEST STOP JUMPDEST CALLVALUE DUP1 ISZERO PUSH2 0x706 JUMPI PUSH1 0x0 DUP1 REVERT JUMPDEST POP PUSH2 0x721 PUSH1 0x4 DUP1 CALLDATASIZE SUB DUP2 ADD SWAP1 PUSH2 0x71C SWAP2 SWAP1 PUSH2 0x2B97 JUMP JUMPDEST PUSH2 0x1780 JUMP JUMPDEST STOP JUMPDEST CALLVALUE DUP1 ISZERO PUSH2 0x72F JUMPI PUSH1 0x0 DUP1 REVERT JUMPDEST POP PUSH2 0x74A PUSH1 0x4 DUP1 CALLDATASIZE SUB DUP2 ADD SWAP1 PUSH2 0x745 SWAP2 SWAP1 PUSH2 0x28D5 JUMP JUMPDEST PUSH2 0x18BF JUMP JUMPDEST PUSH1 0x40 MLOAD PUSH2 0x757 SWAP2 SWAP1 PUSH2 0x2B7C JUMP JUMPDEST PUSH1 0x40 MLOAD DUP1 SWAP2 SUB SWAP1 RETURN JUMPDEST CALLVALUE DUP1 ISZERO PUSH2 0x76C JUMPI PUSH1 0x0 DUP1 REVERT JUMPDEST POP PUSH2 0x787 PUSH1 0x4 DUP1 CALLDATASIZE SUB DUP2 ADD SWAP1 PUSH2 0x782 SWAP2 SWAP1 PUSH2 0x2902 JUMP JUMPDEST PUSH2 0x1908 JUMP JUMPDEST PUSH1 0x40 MLOAD PUSH2 0x794 SWAP2 SWAP1 PUSH2 0x2E5E JUMP JUMPDEST PUSH1 0x40 MLOAD DUP1 SWAP2 SUB SWAP1 RETURN JUMPDEST CALLVALUE DUP1 ISZERO PUSH2 0x7A9 JUMPI PUSH1 0x0 DUP1 REVERT JUMPDEST POP PUSH2 0x7B2 PUSH2 0x19D7 JUMP JUMPDEST PUSH1 0x40 MLOAD PUSH2 0x7BF SWAP2 SWAP1 PUSH2 0x2AB8 JUMP JUMPDEST PUSH1 0x40 MLOAD DUP1 SWAP2 SUB SWAP1 RETURN JUMPDEST CALLVALUE DUP1 ISZERO PUSH2 0x7D4 JUMPI PUSH1 0x0 DUP1 REVERT JUMPDEST POP PUSH2 0x7DD PUSH2 0x1A10 JUMP JUMPDEST PUSH1 0x40 MLOAD PUSH2 0x7EA SWAP2 SWAP1 PUSH2 0x29B4 JUMP JUMPDEST PUSH1 0x40 MLOAD DUP1 SWAP2 SUB SWAP1 RETURN JUMPDEST CALLVALUE DUP1 ISZERO PUSH2 0x7FF JUMPI PUSH1 0x0 DUP1 REVERT JUMPDEST POP PUSH2 0x808 PUSH2 0x1A17 JUMP JUMPDEST PUSH1 0x40 MLOAD PUSH2 0x815 SWAP2 SWAP1 PUSH2 0x2B7C JUMP JUMPDEST PUSH1 0x40 MLOAD DUP1 SWAP2 SUB SWAP1 RETURN JUMPDEST CALLVALUE DUP1 ISZERO PUSH2 0x82A JUMPI PUSH1 0x0 DUP1 REVERT JUMPDEST POP PUSH2 0x833 PUSH2 0x1A21 JUMP JUMPDEST PUSH1 0x40 MLOAD PUSH2 0x840 SWAP2 SWAP1 PUSH2 0x2AB8 JUMP JUMPDEST PUSH1 0x40 MLOAD DUP1 SWAP2 SUB SWAP1 RETURN JUMPDEST CALLVALUE DUP1 ISZERO PUSH2 0x855 JUMPI PUSH1 0x0 DUP1 REVERT JUMPDEST POP PUSH2 0x870 PUSH1 0x4 DUP1 CALLDATASIZE SUB DUP2 ADD SWAP1 PUSH2 0x86B SWAP2 SWAP1 PUSH2 0x284A JUMP JUMPDEST PUSH2 0x1A5A JUMP JUMPDEST PUSH1 0x40 MLOAD PUSH2 0x87D SWAP2 SWAP1 PUSH2 0x2F5E JUMP JUMPDEST PUSH1 0x40 MLOAD DUP1 SWAP2 SUB SWAP1 RETURN JUMPDEST CALLVALUE DUP1 ISZERO PUSH2 0x892 JUMPI PUSH1 0x0 DUP1 REVERT JUMPDEST POP PUSH2 0x8AD PUSH1 0x4 DUP1 CALLDATASIZE SUB DUP2 ADD SWAP1 PUSH2 0x8A8 SWAP2 SWAP1 PUSH2 0x284A JUMP JUMPDEST PUSH2 0x1B2C JUMP JUMPDEST PUSH1 0x40 MLOAD PUSH2 0x8BA SWAP2 SWAP1 PUSH2 0x302F JUMP JUMPDEST PUSH1 0x40 MLOAD DUP1 SWAP2 SUB SWAP1 RETURN JUMPDEST CALLVALUE DUP1 ISZERO PUSH2 0x8CF JUMPI PUSH1 0x0 DUP1 REVERT JUMPDEST POP PUSH2 0x8EA PUSH1 0x4 DUP1 CALLDATASIZE SUB DUP2 ADD SWAP1 PUSH2 0x8E5 SWAP2 SWAP1 PUSH2 0x2902 JUMP JUMPDEST PUSH2 0x1C03 JUMP JUMPDEST PUSH1 0x40 MLOAD PUSH2 0x8F7 SWAP2 SWAP1 PUSH2 0x27F9 JUMP JUMPDEST PUSH1 0x40 MLOAD DUP1 SWAP2 SUB SWAP1 RETURN JUMPDEST CALLVALUE DUP1 ISZERO PUSH2 0x90C JUMPI PUSH1 0x0 DUP1 REVERT JUMPDEST POP PUSH2 0x927 PUSH1 0x4 DUP1 CALLDATASIZE SUB DUP2 ADD SWAP1 PUSH2 0x922 SWAP2 SWAP1 PUSH2 0x284A JUMP JUMPDEST PUSH2 0x1C2A JUMP JUMPDEST STOP JUMPDEST CALLVALUE DUP1 ISZERO PUSH2 0x935 JUMPI PUSH1 0x0 DUP1 REVERT JUMPDEST POP PUSH2 0x950 PUSH1 0x4 DUP1 CALLDATASIZE SUB DUP2 ADD SWAP1 PUSH2 0x94B SWAP2 SWAP1 PUSH2 0x2902 JUMP JUMPDEST PUSH2 0x1C45 JUMP JUMPDEST PUSH1 0x40 MLOAD PUSH2 0x95D SWAP2 SWAP1 PUSH2 0x33FA JUMP JUMPDEST PUSH1 0x40 MLOAD DUP1 SWAP2 SUB SWAP1 RETURN JUMPDEST CALLVALUE DUP1 ISZERO PUSH2 0x972 JUMPI PUSH1 0x0 DUP1 REVERT JUMPDEST POP PUSH2 0x98D PUSH1 0x4 DUP1 CALLDATASIZE SUB DUP2 ADD SWAP1 PUSH2 0x988 SWAP2 SWAP1 PUSH2 0x284A JUMP JUMPDEST PUSH2 0x1E4C JUMP JUMPDEST PUSH1 0x40 MLOAD PUSH2 0x99A SWAP2 SWAP1 PUSH2 0x2B7C JUMP JUMPDEST PUSH1 0x40 MLOAD DUP1 SWAP2 SUB SWAP1 RETURN JUMPDEST CALLVALUE DUP1 ISZERO PUSH2 0x9AF JUMPI PUSH1 0x0 DUP1 REVERT JUMPDEST POP PUSH2 0x9CA PUSH1 0x4 DUP1 CALLDATASIZE SUB DUP2 ADD SWAP1 PUSH2 0x9C5 SWAP2 SWAP1 PUSH2 0x284A JUMP JUMPDEST PUSH2 0x1E74 JUMP JUMPDEST STOP JUMPDEST CALLVALUE DUP1 ISZERO PUSH2 0x9D8 JUMPI PUSH1 0x0 DUP1 REVERT JUMPDEST POP PUSH2 0x9F3 PUSH1 0x4 DUP1 CALLDATASIZE SUB DUP2 ADD SWAP1 PUSH2 0x9EE SWAP2 SWAP1 PUSH2 0x2ADA JUMP JUMPDEST PUSH2 0x1E8F JUMP JUMPDEST STOP JUMPDEST CALLVALUE DUP1 ISZERO PUSH2 0xA01 JUMPI PUSH1 0x0 DUP1 REVERT JUMPDEST POP PUSH2 0xA1C PUSH1 0x4 DUP1 CALLDATASIZE SUB DUP2 ADD SWAP1 PUSH2 0xA17 SWAP2 SWAP1 PUSH2 0x341C JUMP JUMPDEST PUSH2 0x1EB0 JUMP JUMPDEST STOP JUMPDEST CALLVALUE DUP1 ISZERO PUSH2 0xA2A JUMPI PUSH1 0x0 DUP1 REVERT JUMPDEST POP PUSH2 0xA33 PUSH2 0x1EDF JUMP JUMPDEST PUSH1 0x40 MLOAD PUSH2 0xA40 SWAP2 SWAP1 PUSH2 0x34A8 JUMP JUMPDEST PUSH1 0x40 MLOAD DUP1 SWAP2 SUB SWAP1 RETURN JUMPDEST CALLVALUE DUP1 ISZERO PUSH2 0xA55 JUMPI PUSH1 0x0 DUP1 REVERT JUMPDEST POP PUSH2 0xA70 PUSH1 0x4 DUP1 CALLDATASIZE SUB DUP2 ADD SWAP1 PUSH2 0xA6B SWAP2 SWAP1 PUSH2 0x284A JUMP JUMPDEST PUSH2 0x1F05 JUMP JUMPDEST STOP JUMPDEST CALLVALUE DUP1 ISZERO PUSH2 0xA7E JUMPI PUSH1 0x0 DUP1 REVERT JUMPDEST POP PUSH2 0xA99 PUSH1 0x4 DUP1 CALLDATASIZE SUB DUP2 ADD SWAP1 PUSH2 0xA94 SWAP2 SWAP1 PUSH2 0x34C3 JUMP JUMPDEST PUSH2 0x1F1F JUMP JUMPDEST STOP JUMPDEST CALLVALUE DUP1 ISZERO PUSH2 0xAA7 JUMPI PUSH1 0x0 DUP1 REVERT JUMPDEST POP PUSH2 0xAB0 PUSH2 0x1F68 JUMP JUMPDEST PUSH1 0x40 MLOAD PUSH2 0xABD SWAP2 SWAP1 PUSH2 0x2AB8 JUMP JUMPDEST PUSH1 0x40 MLOAD DUP1 SWAP2 SUB SWAP1 RETURN JUMPDEST PUSH1 0x0 PUSH32 0x7965DB0B00000000000000000000000000000000000000000000000000000000 PUSH28 0xFFFFFFFFFFFFFFFFFFFFFFFFFFFFFFFFFFFFFFFFFFFFFFFFFFFFFFFF NOT AND DUP3 PUSH28 0xFFFFFFFFFFFFFFFFFFFFFFFFFFFFFFFFFFFFFFFFFFFFFFFFFFFFFFFF NOT AND EQ DUP1 PUSH2 0xB39 JUMPI POP PUSH2 0xB38 DUP3 PUSH2 0x1FA1 JUMP JUMPDEST JUMPDEST SWAP1 POP SWAP2 SWAP1 POP JUMP JUMPDEST PUSH1 0x0 DUP1 SHL PUSH2 0xB4D DUP2 PUSH2 0x200B JUMP JUMPDEST DUP2 PUSH1 0x2 PUSH1 0x3 ADD DUP2 SWAP1 SSTORE POP POP POP JUMP JUMPDEST PUSH1 0x0 DUP1 SHL PUSH2 0xB68 DUP2 PUSH2 0x200B JUMP JUMPDEST DUP2 PUSH1 0x10 PUSH1 0x0 PUSH2 0x100 EXP DUP2 SLOAD DUP2 PUSH20 0xFFFFFFFFFFFFFFFFFFFFFFFFFFFFFFFFFFFFFFFF MUL NOT AND SWAP1 DUP4 PUSH20 0xFFFFFFFFFFFFFFFFFFFFFFFFFFFFFFFFFFFFFFFF AND MUL OR SWAP1 SSTORE POP PUSH2 0xBF5 PUSH32 0x9CF85F95575C3AF1E116E3D37FD41E7F36A8A373623F51FFAAA87FDD032FA767 PUSH1 0x10 PUSH1 0x0 SWAP1 SLOAD SWAP1 PUSH2 0x100 EXP SWAP1 DIV PUSH20 0xFFFFFFFFFFFFFFFFFFFFFFFFFFFFFFFFFFFFFFFF AND PUSH2 0x201F JUMP JUMPDEST POP POP JUMP JUMPDEST PUSH1 0x0 PUSH1 0x9 PUSH1 0x0 DUP4 DUP2 MSTORE PUSH1 0x20 ADD SWAP1 DUP2 MSTORE PUSH1 0x20 ADD PUSH1 0x0 KECCAK256 PUSH1 0x0 ADD SLOAD PUSH1 0xA PUSH1 0x0 DUP6 DUP2 MSTORE PUSH1 0x20 ADD SWAP1 DUP2 MSTORE PUSH1 0x20 ADD PUSH1 0x0 KECCAK256 PUSH1 0x1 ADD SLOAD LT ISZERO SWAP1 POP SWAP3 SWAP2 POP POP JUMP JUMPDEST PUSH1 0x0 PUSH1 0xB PUSH1 0x0 DUP5 DUP2 MSTORE PUSH1 0x20 ADD SWAP1 DUP2 MSTORE PUSH1 0x20 ADD PUSH1 0x0 KECCAK256 PUSH1 0x0 DUP4 DUP2 MSTORE PUSH1 0x20 ADD SWAP1 DUP2 MSTORE PUSH1 0x20 ADD PUSH1 0x0 KECCAK256 PUSH1 0x0 SWAP1 SLOAD SWAP1 PUSH2 0x100 EXP SWAP1 DIV PUSH1 0xFF AND SWAP1 POP SWAP3 SWAP2 POP POP JUMP JUMPDEST PUSH1 0x0 DUP1 PUSH1 0x0 DUP4 DUP2 MSTORE PUSH1 0x20 ADD SWAP1 DUP2 MSTORE PUSH1 0x20 ADD PUSH1 0x0 KECCAK256 PUSH1 0x1 ADD SLOAD SWAP1 POP SWAP2 SWAP1 POP JUMP JUMPDEST PUSH2 0xC96 PUSH2 0x266A JUMP JUMPDEST PUSH1 0xA PUSH1 0x0 DUP4 DUP2 MSTORE PUSH1 0x20 ADD SWAP1 DUP2 MSTORE PUSH1 0x20 ADD PUSH1 0x0 KECCAK256 PUSH1 0x40 MLOAD DUP1 PUSH1 0x40 ADD PUSH1 0x40 MSTORE SWAP1 DUP2 PUSH1 0x0 DUP3 ADD SLOAD DUP2 MSTORE PUSH1 0x20 ADD PUSH1 0x1 DUP3 ADD SLOAD DUP2 MSTORE POP POP SWAP1 POP SWAP2 SWAP1 POP JUMP JUMPDEST PUSH1 0x40 MLOAD DUP1 PUSH1 0x40 ADD PUSH1 0x40 MSTORE DUP1 PUSH1 0xD DUP2 MSTORE PUSH1 0x20 ADD PUSH32 0x4D54525F4645455F4552524F5200000000000000000000000000000000000000 DUP2 MSTORE POP DUP2 JUMP JUMPDEST PUSH2 0xD11 DUP3 PUSH2 0xC6F JUMP JUMPDEST PUSH2 0xD1A DUP2 PUSH2 0x200B JUMP JUMPDEST PUSH2 0xD24 DUP4 DUP4 PUSH2 0x201F JUMP JUMPDEST POP POP POP JUMP JUMPDEST PUSH2 0xD31 PUSH2 0x20FF JUMP JUMPDEST PUSH20 0xFFFFFFFFFFFFFFFFFFFFFFFFFFFFFFFFFFFFFFFF AND DUP2 PUSH20 0xFFFFFFFFFFFFFFFFFFFFFFFFFFFFFFFFFFFFFFFF AND EQ PUSH2 0xD9E JUMPI PUSH1 0x40 MLOAD PUSH32 0x8C379A000000000000000000000000000000000000000000000000000000000 DUP2 MSTORE PUSH1 0x4 ADD PUSH2 0xD95 SWAP1 PUSH2 0x3588 JUMP JUMPDEST PUSH1 0x40 MLOAD DUP1 SWAP2 SUB SWAP1 REVERT JUMPDEST PUSH2 0xDA8 DUP3 DUP3 PUSH2 0x2107 JUMP JUMPDEST POP POP JUMP JUMPDEST PUSH32 0x9CF85F95575C3AF1E116E3D37FD41E7F36A8A373623F51FFAAA87FDD032FA767 PUSH2 0xDD6 DUP2 PUSH2 0x200B JUMP JUMPDEST PUSH2 0xDDF DUP5 PUSH2 0x21E8 JUMP JUMPDEST PUSH2 0xDE9 DUP4 DUP4 PUSH2 0x1C03 JUMP JUMPDEST PUSH1 0x40 MLOAD DUP1 PUSH1 0x40 ADD PUSH1 0x40 MSTORE DUP1 PUSH1 0xB DUP2 MSTORE PUSH1 0x20 ADD PUSH32 0x43414E545F4745545F4954000000000000000000000000000000000000000000 DUP2 MSTORE POP SWAP1 PUSH2 0xE60 JUMPI PUSH1 0x40 MLOAD PUSH32 0x8C379A000000000000000000000000000000000000000000000000000000000 DUP2 MSTORE PUSH1 0x4 ADD PUSH2 0xE57 SWAP2 SWAP1 PUSH2 0x2AB8 JUMP JUMPDEST PUSH1 0x40 MLOAD DUP1 SWAP2 SUB SWAP1 REVERT JUMPDEST POP PUSH1 0x1 PUSH1 0xB PUSH1 0x0 DUP6 DUP2 MSTORE PUSH1 0x20 ADD SWAP1 DUP2 MSTORE PUSH1 0x20 ADD PUSH1 0x0 KECCAK256 PUSH1 0x0 DUP5 DUP2 MSTORE PUSH1 0x20 ADD SWAP1 DUP2 MSTORE PUSH1 0x20 ADD PUSH1 0x0 KECCAK256 PUSH1 0x0 PUSH2 0x100 EXP DUP2 SLOAD DUP2 PUSH1 0xFF MUL NOT AND SWAP1 DUP4 ISZERO ISZERO MUL OR SWAP1 SSTORE POP PUSH1 0x9 PUSH1 0x0 DUP4 DUP2 MSTORE PUSH1 0x20 ADD SWAP1 DUP2 MSTORE PUSH1 0x20 ADD PUSH1 0x0 KECCAK256 PUSH1 0x1 ADD SLOAD PUSH1 0xA PUSH1 0x0 DUP6 DUP2 MSTORE PUSH1 0x20 ADD SWAP1 DUP2 MSTORE PUSH1 0x20 ADD PUSH1 0x0 KECCAK256 PUSH1 0x0 ADD PUSH1 0x0 DUP3 DUP3 SLOAD PUSH2 0xEDA SWAP2 SWAP1 PUSH2 0x35D7 JUMP JUMPDEST SWAP3 POP POP DUP2 SWAP1 SSTORE POP PUSH1 0x9 PUSH1 0x0 DUP4 DUP2 MSTORE PUSH1 0x20 ADD SWAP1 DUP2 MSTORE PUSH1 0x20 ADD PUSH1 0x0 KECCAK256 PUSH1 0x0 ADD SLOAD PUSH1 0xA PUSH1 0x0 DUP6 DUP2 MSTORE PUSH1 0x20 ADD SWAP1 DUP2 MSTORE PUSH1 0x20 ADD PUSH1 0x0 KECCAK256 PUSH1 0x1 ADD PUSH1 0x0 DUP3 DUP3 SLOAD PUSH2 0xF1D SWAP2 SWAP1 PUSH2 0x360B JUMP JUMPDEST SWAP3 POP POP DUP2 SWAP1 SSTORE POP PUSH32 0x5999410022EC50D1FFDE644471D13AB5B5482616C8BFC6696D13AA0577C5840C DUP3 TIMESTAMP PUSH1 0x40 MLOAD PUSH2 0xF55 SWAP3 SWAP2 SWAP1 PUSH2 0x363F JUMP JUMPDEST PUSH1 0x40 MLOAD DUP1 SWAP2 SUB SWAP1 LOG1 POP POP POP POP JUMP JUMPDEST PUSH1 0x0 PUSH1 0x8 PUSH1 0x0 DUP4 DUP2 MSTORE PUSH1 0x20 ADD SWAP1 DUP2 MSTORE PUSH1 0x20 ADD PUSH1 0x0 KECCAK256 SLOAD SWAP1 POP SWAP2 SWAP1 POP JUMP JUMPDEST PUSH1 0x0 PUSH1 0xA PUSH1 0x0 DUP4 DUP2 MSTORE PUSH1 0x20 ADD SWAP1 DUP2 MSTORE PUSH1 0x20 ADD PUSH1 0x0 KECCAK256 PUSH1 0x0 ADD SLOAD PUSH2 0xFA2 DUP4 PUSH2 0x1E4C JUMP JUMPDEST PUSH1 0x2 PUSH1 0x1 ADD SLOAD PUSH2 0xFB2 SWAP2 SWAP1 PUSH2 0x3668 JUMP JUMPDEST PUSH2 0xFBC SWAP2 SWAP1 PUSH2 0x3668 JUMP JUMPDEST SWAP1 POP SWAP2 SWAP1 POP JUMP JUMPDEST PUSH32 0x9CF85F95575C3AF1E116E3D37FD41E7F36A8A373623F51FFAAA87FDD032FA767 PUSH2 0xFED DUP2 PUSH2 0x200B JUMP JUMPDEST PUSH2 0xFF6 DUP4 PUSH2 0x21E8 JUMP JUMPDEST PUSH2 0xFFF DUP3 PUSH2 0x134B JUMP JUMPDEST ISZERO PUSH1 0x40 MLOAD DUP1 PUSH1 0x40 ADD PUSH1 0x40 MSTORE DUP1 PUSH1 0x14 DUP2 MSTORE PUSH1 0x20 ADD PUSH32 0x4143544956455F545241494E45525F4552524F52000000000000000000000000 DUP2 MSTORE POP SWAP1 PUSH2 0x1077 JUMPI PUSH1 0x40 MLOAD PUSH32 0x8C379A000000000000000000000000000000000000000000000000000000000 DUP2 MSTORE PUSH1 0x4 ADD PUSH2 0x106E SWAP2 SWAP1 PUSH2 0x2AB8 JUMP JUMPDEST PUSH1 0x40 MLOAD DUP1 SWAP2 SUB SWAP1 REVERT JUMPDEST POP PUSH2 0x1080 PUSH2 0x20FF JUMP JUMPDEST PUSH20 0xFFFFFFFFFFFFFFFFFFFFFFFFFFFFFFFFFFFFFFFF AND PUSH1 0x1 PUSH1 0x0 SWAP1 SLOAD SWAP1 PUSH2 0x100 EXP SWAP1 DIV PUSH20 0xFFFFFFFFFFFFFFFFFFFFFFFFFFFFFFFFFFFFFFFF AND PUSH20 0xFFFFFFFFFFFFFFFFFFFFFFFFFFFFFFFFFFFFFFFF AND PUSH4 0x6352211E DUP5 PUSH1 0x40 MLOAD DUP3 PUSH4 0xFFFFFFFF AND PUSH1 0xE0 SHL DUP2 MSTORE PUSH1 0x4 ADD PUSH2 0x10F1 SWAP2 SWAP1 PUSH2 0x2B7C JUMP JUMPDEST PUSH1 0x20 PUSH1 0x40 MLOAD DUP1 DUP4 SUB DUP2 DUP7 GAS STATICCALL ISZERO DUP1 ISZERO PUSH2 0x110E JUMPI RETURNDATASIZE PUSH1 0x0 DUP1 RETURNDATACOPY RETURNDATASIZE PUSH1 0x0 REVERT JUMPDEST POP POP POP POP PUSH1 0x40 MLOAD RETURNDATASIZE PUSH1 0x1F NOT PUSH1 0x1F DUP3 ADD AND DUP3 ADD DUP1 PUSH1 0x40 MSTORE POP DUP2 ADD SWAP1 PUSH2 0x1132 SWAP2 SWAP1 PUSH2 0x36BF JUMP JUMPDEST PUSH20 0xFFFFFFFFFFFFFFFFFFFFFFFFFFFFFFFFFFFFFFFF AND EQ PUSH1 0x40 MLOAD DUP1 PUSH1 0x40 ADD PUSH1 0x40 MSTORE DUP1 PUSH1 0xB DUP2 MSTORE PUSH1 0x20 ADD PUSH32 0x4F574E45525F4552524F52000000000000000000000000000000000000000000 DUP2 MSTORE POP SWAP1 PUSH2 0x11C0 JUMPI PUSH1 0x40 MLOAD PUSH32 0x8C379A000000000000000000000000000000000000000000000000000000000 DUP2 MSTORE PUSH1 0x4 ADD PUSH2 0x11B7 SWAP2 SWAP1 PUSH2 0x2AB8 JUMP JUMPDEST PUSH1 0x40 MLOAD DUP1 SWAP2 SUB SWAP1 REVERT JUMPDEST POP NUMBER PUSH1 0x8 PUSH1 0x0 DUP5 DUP2 MSTORE PUSH1 0x20 ADD SWAP1 DUP2 MSTORE PUSH1 0x20 ADD PUSH1 0x0 KECCAK256 DUP2 SWAP1 SSTORE POP PUSH1 0x0 PUSH1 0xA PUSH1 0x0 DUP5 DUP2 MSTORE PUSH1 0x20 ADD SWAP1 DUP2 MSTORE PUSH1 0x20 ADD PUSH1 0x0 KECCAK256 PUSH1 0x0 ADD SLOAD SUB PUSH2 0x1214 JUMPI PUSH1 0x1 PUSH1 0xA PUSH1 0x0 DUP5 DUP2 MSTORE PUSH1 0x20 ADD SWAP1 DUP2 MSTORE PUSH1 0x20 ADD PUSH1 0x0 KECCAK256 PUSH1 0x0 ADD DUP2 SWAP1 SSTORE POP JUMPDEST PUSH32 0x735EF78AED2BD4CFAE4D08680B7CB333D4AA561D0287A81D4ABBAC0B4B64D589 DUP3 TIMESTAMP PUSH1 0x40 MLOAD PUSH2 0x1245 SWAP3 SWAP2 SWAP1 PUSH2 0x363F JUMP JUMPDEST PUSH1 0x40 MLOAD DUP1 SWAP2 SUB SWAP1 LOG1 POP POP POP JUMP JUMPDEST PUSH32 0x9CF85F95575C3AF1E116E3D37FD41E7F36A8A373623F51FFAAA87FDD032FA767 PUSH2 0x127C DUP2 PUSH2 0x200B JUMP JUMPDEST PUSH2 0x1285 DUP4 PUSH2 0x21E8 JUMP JUMPDEST PUSH2 0x128E DUP3 PUSH2 0x131C JUMP JUMPDEST PUSH1 0xA PUSH1 0x0 DUP5 DUP2 MSTORE PUSH1 0x20 ADD SWAP1 DUP2 MSTORE PUSH1 0x20 ADD PUSH1 0x0 KECCAK256 PUSH1 0x1 ADD PUSH1 0x0 DUP3 DUP3 SLOAD PUSH2 0x12B3 SWAP2 SWAP1 PUSH2 0x35D7 JUMP JUMPDEST SWAP3 POP POP DUP2 SWAP1 SSTORE POP PUSH32 0xB367F7A60FBAB705463FF086BE4FC59C2BE65EC753E1C52AC8AF6F1198C522C0 DUP3 TIMESTAMP PUSH1 0x40 MLOAD PUSH2 0x12EB SWAP3 SWAP2 SWAP1 PUSH2 0x363F JUMP JUMPDEST PUSH1 0x40 MLOAD DUP1 SWAP2 SUB SWAP1 LOG1 POP POP POP JUMP JUMPDEST PUSH32 0x9CF85F95575C3AF1E116E3D37FD41E7F36A8A373623F51FFAAA87FDD032FA767 DUP2 JUMP JUMPDEST PUSH1 0x0 PUSH1 0xA PUSH1 0x0 DUP4 DUP2 MSTORE PUSH1 0x20 ADD SWAP1 DUP2 MSTORE PUSH1 0x20 ADD PUSH1 0x0 KECCAK256 PUSH1 0x0 ADD SLOAD PUSH1 0x2 DUP1 ADD SLOAD PUSH2 0x1344 SWAP2 SWAP1 PUSH2 0x3668 JUMP JUMPDEST SWAP1 POP SWAP2 SWAP1 POP JUMP JUMPDEST PUSH1 0x0 DUP1 PUSH1 0x8 PUSH1 0x0 DUP5 DUP2 MSTORE PUSH1 0x20 ADD SWAP1 DUP2 MSTORE PUSH1 0x20 ADD PUSH1 0x0 KECCAK256 SLOAD EQ ISZERO SWAP1 POP SWAP2 SWAP1 POP JUMP JUMPDEST PUSH1 0x2 DUP1 PUSH1 0x0 ADD PUSH1 0x0 SWAP1 SLOAD SWAP1 PUSH2 0x100 EXP SWAP1 DIV PUSH1 0xFF AND SWAP1 DUP1 PUSH1 0x1 ADD SLOAD SWAP1 DUP1 PUSH1 0x2 ADD SLOAD SWAP1 DUP1 PUSH1 0x3 ADD SLOAD SWAP1 DUP1 PUSH1 0x4 ADD SLOAD SWAP1 DUP1 PUSH1 0x5 ADD SLOAD SWAP1 POP DUP7 JUMP JUMPDEST PUSH1 0x0 DUP1 PUSH1 0x0 DUP5 DUP2 MSTORE PUSH1 0x20 ADD SWAP1 DUP2 MSTORE PUSH1 0x20 ADD PUSH1 0x0 KECCAK256 PUSH1 0x0 ADD PUSH1 0x0 DUP4 PUSH20 0xFFFFFFFFFFFFFFFFFFFFFFFFFFFFFFFFFFFFFFFF AND PUSH20 0xFFFFFFFFFFFFFFFFFFFFFFFFFFFFFFFFFFFFFFFF AND DUP2 MSTORE PUSH1 0x20 ADD SWAP1 DUP2 MSTORE PUSH1 0x20 ADD PUSH1 0x0 KECCAK256 PUSH1 0x0 SWAP1 SLOAD SWAP1 PUSH2 0x100 EXP SWAP1 DIV PUSH1 0xFF AND SWAP1 POP SWAP3 SWAP2 POP POP JUMP JUMPDEST PUSH1 0x0 DUP1 SHL PUSH2 0x1419 DUP2 PUSH2 0x200B JUMP JUMPDEST PUSH1 0x0 PUSH1 0x10 PUSH1 0x0 SWAP1 SLOAD SWAP1 PUSH2 0x100 EXP SWAP1 DIV PUSH20 0xFFFFFFFFFFFFFFFFFFFFFFFFFFFFFFFFFFFFFFFF AND PUSH20 0xFFFFFFFFFFFFFFFFFFFFFFFFFFFFFFFFFFFFFFFF AND PUSH1 0xF SLOAD PUSH1 0x40 MLOAD PUSH2 0x1463 SWAP1 PUSH2 0x371D JUMP JUMPDEST PUSH1 0x0 PUSH1 0x40 MLOAD DUP1 DUP4 SUB DUP2 DUP6 DUP8 GAS CALL SWAP3 POP POP POP RETURNDATASIZE DUP1 PUSH1 0x0 DUP2 EQ PUSH2 0x14A0 JUMPI PUSH1 0x40 MLOAD SWAP2 POP PUSH1 0x1F NOT PUSH1 0x3F RETURNDATASIZE ADD AND DUP3 ADD PUSH1 0x40 MSTORE RETURNDATASIZE DUP3 MSTORE RETURNDATASIZE PUSH1 0x0 PUSH1 0x20 DUP5 ADD RETURNDATACOPY PUSH2 0x14A5 JUMP JUMPDEST PUSH1 0x60 SWAP2 POP JUMPDEST POP POP SWAP1 POP DUP1 PUSH1 0x40 MLOAD DUP1 PUSH1 0x40 ADD PUSH1 0x40 MSTORE DUP1 PUSH1 0xD DUP2 MSTORE PUSH1 0x20 ADD PUSH32 0x4D54525F4645455F4552524F5200000000000000000000000000000000000000 DUP2 MSTORE POP SWAP1 PUSH2 0x1521 JUMPI PUSH1 0x40 MLOAD PUSH32 0x8C379A000000000000000000000000000000000000000000000000000000000 DUP2 MSTORE PUSH1 0x4 ADD PUSH2 0x1518 SWAP2 SWAP1 PUSH2 0x2AB8 JUMP JUMPDEST PUSH1 0x40 MLOAD DUP1 SWAP2 SUB SWAP1 REVERT JUMPDEST POP PUSH1 0x0 PUSH1 0xF DUP2 SWAP1 SSTORE POP POP POP JUMP JUMPDEST PUSH1 0x60 PUSH1 0x0 DUP3 PUSH8 0xFFFFFFFFFFFFFFFF DUP2 GT ISZERO PUSH2 0x154C JUMPI PUSH2 0x154B PUSH2 0x3732 JUMP JUMPDEST JUMPDEST PUSH1 0x40 MLOAD SWAP1 DUP1 DUP3 MSTORE DUP1 PUSH1 0x20 MUL PUSH1 0x20 ADD DUP3 ADD PUSH1 0x40 MSTORE DUP1 ISZERO PUSH2 0x157A JUMPI DUP2 PUSH1 0x20 ADD PUSH1 0x20 DUP3 MUL DUP1 CALLDATASIZE DUP4 CALLDATACOPY DUP1 DUP3 ADD SWAP2 POP POP SWAP1 POP JUMPDEST POP SWAP1 POP PUSH1 0x0 JUMPDEST DUP4 DUP2 LT ISZERO PUSH2 0x15E3 JUMPI PUSH1 0xC PUSH1 0x0 DUP3 DUP2 MSTORE PUSH1 0x20 ADD SWAP1 DUP2 MSTORE PUSH1 0x20 ADD PUSH1 0x0 KECCAK256 PUSH1 0x0 SWAP1 SLOAD SWAP1 PUSH2 0x100 EXP SWAP1 DIV PUSH1 0xFF AND DUP3 DUP3 DUP2 MLOAD DUP2 LT PUSH2 0x15BC JUMPI PUSH2 0x15BB PUSH2 0x3761 JUMP JUMPDEST JUMPDEST PUSH1 0x20 MUL PUSH1 0x20 ADD ADD SWAP1 PUSH1 0xFF AND SWAP1 DUP2 PUSH1 0xFF AND DUP2 MSTORE POP POP DUP1 DUP1 PUSH2 0x15DB SWAP1 PUSH2 0x3790 JUMP JUMPDEST SWAP2 POP POP PUSH2 0x1580 JUMP JUMPDEST POP DUP1 SWAP2 POP POP SWAP2 SWAP1 POP JUMP JUMPDEST PUSH1 0x2 PUSH1 0x3 ADD SLOAD CALLVALUE LT ISZERO PUSH1 0x40 MLOAD DUP1 PUSH1 0x40 ADD PUSH1 0x40 MSTORE DUP1 PUSH1 0xD DUP2 MSTORE PUSH1 0x20 ADD PUSH32 0x4D54525F4645455F4552524F5200000000000000000000000000000000000000 DUP2 MSTORE POP SWAP1 PUSH2 0x166D JUMPI PUSH1 0x40 MLOAD PUSH32 0x8C379A000000000000000000000000000000000000000000000000000000000 DUP2 MSTORE PUSH1 0x4 ADD PUSH2 0x1664 SWAP2 SWAP1 PUSH2 0x2AB8 JUMP JUMPDEST PUSH1 0x40 MLOAD DUP1 SWAP2 SUB SWAP1 REVERT JUMPDEST POP PUSH1 0x0 PUSH2 0x1678 PUSH2 0x20FF JUMP JUMPDEST SWAP1 POP PUSH1 0x0 PUSH1 0x2 PUSH1 0x3 ADD SLOAD CALLVALUE PUSH2 0x168D SWAP2 SWAP1 PUSH2 0x360B JUMP JUMPDEST SWAP1 POP PUSH1 0x2 PUSH1 0x3 ADD SLOAD PUSH1 0xF PUSH1 0x0 DUP3 DUP3 SLOAD PUSH2 0x16A6 SWAP2 SWAP1 PUSH2 0x35D7 JUMP JUMPDEST SWAP3 POP POP DUP2 SWAP1 SSTORE POP DUP1 PUSH1 0xD PUSH1 0x0 DUP5 PUSH20 0xFFFFFFFFFFFFFFFFFFFFFFFFFFFFFFFFFFFFFFFF AND PUSH20 0xFFFFFFFFFFFFFFFFFFFFFFFFFFFFFFFFFFFFFFFF AND DUP2 MSTORE PUSH1 0x20 ADD SWAP1 DUP2 MSTORE PUSH1 0x20 ADD PUSH1 0x0 KECCAK256 PUSH1 0x0 DUP3 DUP3 SLOAD PUSH2 0x16FC SWAP2 SWAP1 PUSH2 0x35D7 JUMP JUMPDEST SWAP3 POP POP DUP2 SWAP1 SSTORE POP PUSH32 0x9E9B7E29099F2D6721D8268A517EE7ADA50AE5D99EAB1C668A3BA067877023FB DUP3 DUP3 TIMESTAMP PUSH1 0x40 MLOAD PUSH2 0x1736 SWAP4 SWAP3 SWAP2 SWAP1 PUSH2 0x37E7 JUMP JUMPDEST PUSH1 0x40 MLOAD DUP1 SWAP2 SUB SWAP1 LOG1 POP POP JUMP JUMPDEST PUSH1 0x0 DUP1 SHL PUSH2 0x174F DUP2 PUSH2 0x200B JUMP JUMPDEST DUP2 PUSH1 0xC PUSH1 0x0 DUP6 DUP2 MSTORE PUSH1 0x20 ADD SWAP1 DUP2 MSTORE PUSH1 0x20 ADD PUSH1 0x0 KECCAK256 PUSH1 0x0 PUSH2 0x100 EXP DUP2 SLOAD DUP2 PUSH1 0xFF MUL NOT AND SWAP1 DUP4 PUSH1 0xFF AND MUL OR SWAP1 SSTORE POP POP POP POP JUMP JUMPDEST PUSH32 0x9CF85F95575C3AF1E116E3D37FD41E7F36A8A373623F51FFAAA87FDD032FA767 PUSH2 0x17AA DUP2 PUSH2 0x200B JUMP JUMPDEST PUSH2 0x17B3 DUP4 PUSH2 0x21E8 JUMP JUMPDEST PUSH2 0x17BC DUP3 PUSH2 0x134B JUMP JUMPDEST PUSH1 0x40 MLOAD DUP1 PUSH1 0x40 ADD PUSH1 0x40 MSTORE DUP1 PUSH1 0x14 DUP2 MSTORE PUSH1 0x20 ADD PUSH32 0x4143544956455F545241494E45525F4552524F52000000000000000000000000 DUP2 MSTORE POP SWAP1 PUSH2 0x1833 JUMPI PUSH1 0x40 MLOAD PUSH32 0x8C379A000000000000000000000000000000000000000000000000000000000 DUP2 MSTORE PUSH1 0x4 ADD PUSH2 0x182A SWAP2 SWAP1 PUSH2 0x2AB8 JUMP JUMPDEST PUSH1 0x40 MLOAD DUP1 SWAP2 SUB SWAP1 REVERT JUMPDEST POP PUSH2 0x183D DUP3 PUSH2 0xF80 JUMP JUMPDEST PUSH1 0xA PUSH1 0x0 DUP5 DUP2 MSTORE PUSH1 0x20 ADD SWAP1 DUP2 MSTORE PUSH1 0x20 ADD PUSH1 0x0 KECCAK256 PUSH1 0x1 ADD PUSH1 0x0 DUP3 DUP3 SLOAD PUSH2 0x1862 SWAP2 SWAP1 PUSH2 0x35D7 JUMP JUMPDEST SWAP3 POP POP DUP2 SWAP1 SSTORE POP NUMBER PUSH1 0x8 PUSH1 0x0 DUP5 DUP2 MSTORE PUSH1 0x20 ADD SWAP1 DUP2 MSTORE PUSH1 0x20 ADD PUSH1 0x0 KECCAK256 DUP2 SWAP1 SSTORE POP PUSH32 0xC9CD65A70E4E2A217623CF87DF32706764A2F447CB55B016B28E0C643E681AE2 DUP3 TIMESTAMP PUSH1 0x40 MLOAD PUSH2 0x18B2 SWAP3 SWAP2 SWAP1 PUSH2 0x363F JUMP JUMPDEST PUSH1 0x40 MLOAD DUP1 SWAP2 SUB SWAP1 LOG1 POP POP POP JUMP JUMPDEST PUSH1 0x0 PUSH1 0xD PUSH1 0x0 DUP4 PUSH20 0xFFFFFFFFFFFFFFFFFFFFFFFFFFFFFFFFFFFFFFFF AND PUSH20 0xFFFFFFFFFFFFFFFFFFFFFFFFFFFFFFFFFFFFFFFF AND DUP2 MSTORE PUSH1 0x20 ADD SWAP1 DUP2 MSTORE PUSH1 0x20 ADD PUSH1 0x0 KECCAK256 SLOAD SWAP1 POP SWAP2 SWAP1 POP JUMP JUMPDEST PUSH1 0x60 PUSH1 0x0 DUP4 PUSH8 0xFFFFFFFFFFFFFFFF DUP2 GT ISZERO PUSH2 0x1926 JUMPI PUSH2 0x1925 PUSH2 0x3732 JUMP JUMPDEST JUMPDEST PUSH1 0x40 MLOAD SWAP1 DUP1 DUP3 MSTORE DUP1 PUSH1 0x20 MUL PUSH1 0x20 ADD DUP3 ADD PUSH1 0x40 MSTORE DUP1 ISZERO PUSH2 0x1954 JUMPI DUP2 PUSH1 0x20 ADD PUSH1 0x20 DUP3 MUL DUP1 CALLDATASIZE DUP4 CALLDATACOPY DUP1 DUP3 ADD SWAP2 POP POP SWAP1 POP JUMPDEST POP SWAP1 POP PUSH1 0x0 JUMPDEST DUP5 DUP2 LT ISZERO PUSH2 0x19CC JUMPI PUSH1 0xB PUSH1 0x0 DUP6 DUP2 MSTORE PUSH1 0x20 ADD SWAP1 DUP2 MSTORE PUSH1 0x20 ADD PUSH1 0x0 KECCAK256 PUSH1 0x0 DUP3 DUP2 MSTORE PUSH1 0x20 ADD SWAP1 DUP2 MSTORE PUSH1 0x20 ADD PUSH1 0x0 KECCAK256 PUSH1 0x0 SWAP1 SLOAD SWAP1 PUSH2 0x100 EXP SWAP1 DIV PUSH1 0xFF AND DUP3 DUP3 DUP2 MLOAD DUP2 LT PUSH2 0x19A7 JUMPI PUSH2 0x19A6 PUSH2 0x3761 JUMP JUMPDEST JUMPDEST PUSH1 0x20 MUL PUSH1 0x20 ADD ADD SWAP1 ISZERO ISZERO SWAP1 DUP2 ISZERO ISZERO DUP2 MSTORE POP POP DUP1 DUP1 PUSH2 0x19C4 SWAP1 PUSH2 0x3790 JUMP JUMPDEST SWAP2 POP POP PUSH2 0x195A JUMP JUMPDEST POP DUP1 SWAP2 POP POP SWAP3 SWAP2 POP POP JUMP JUMPDEST PUSH1 0x40 MLOAD DUP1 PUSH1 0x40 ADD PUSH1 0x40 MSTORE DUP1 PUSH1 0xB DUP2 MSTORE PUSH1 0x20 ADD PUSH32 0x4F574E45525F4552524F52000000000000000000000000000000000000000000 DUP2 MSTORE POP DUP2 JUMP JUMPDEST PUSH1 0x0 DUP1 SHL DUP2 JUMP JUMPDEST PUSH1 0x0 PUSH1 0xF SLOAD SWAP1 POP SWAP1 JUMP JUMPDEST PUSH1 0x40 MLOAD DUP1 PUSH1 0x40 ADD PUSH1 0x40 MSTORE DUP1 PUSH1 0xB DUP2 MSTORE PUSH1 0x20 ADD PUSH32 0x43414E545F4745545F4954000000000000000000000000000000000000000000 DUP2 MSTORE POP DUP2 JUMP JUMPDEST PUSH1 0x60 PUSH1 0x0 DUP3 PUSH8 0xFFFFFFFFFFFFFFFF DUP2 GT ISZERO PUSH2 0x1A78 JUMPI PUSH2 0x1A77 PUSH2 0x3732 JUMP JUMPDEST JUMPDEST PUSH1 0x40 MLOAD SWAP1 DUP1 DUP3 MSTORE DUP1 PUSH1 0x20 MUL PUSH1 0x20 ADD DUP3 ADD PUSH1 0x40 MSTORE DUP1 ISZERO PUSH2 0x1AB1 JUMPI DUP2 PUSH1 0x20 ADD JUMPDEST PUSH2 0x1A9E PUSH2 0x2684 JUMP JUMPDEST DUP2 MSTORE PUSH1 0x20 ADD SWAP1 PUSH1 0x1 SWAP1 SUB SWAP1 DUP2 PUSH2 0x1A96 JUMPI SWAP1 POP JUMPDEST POP SWAP1 POP PUSH1 0x0 JUMPDEST DUP4 DUP2 LT ISZERO PUSH2 0x1B22 JUMPI PUSH1 0x9 PUSH1 0x0 DUP3 DUP2 MSTORE PUSH1 0x20 ADD SWAP1 DUP2 MSTORE PUSH1 0x20 ADD PUSH1 0x0 KECCAK256 PUSH1 0x40 MLOAD DUP1 PUSH1 0x40 ADD PUSH1 0x40 MSTORE SWAP1 DUP2 PUSH1 0x0 DUP3 ADD SLOAD DUP2 MSTORE PUSH1 0x20 ADD PUSH1 0x1 DUP3 ADD SLOAD DUP2 MSTORE POP POP DUP3 DUP3 DUP2 MLOAD DUP2 LT PUSH2 0x1B04 JUMPI PUSH2 0x1B03 PUSH2 0x3761 JUMP JUMPDEST JUMPDEST PUSH1 0x20 MUL PUSH1 0x20 ADD ADD DUP2 SWAP1 MSTORE POP DUP1 DUP1 PUSH2 0x1B1A SWAP1 PUSH2 0x3790 JUMP JUMPDEST SWAP2 POP POP PUSH2 0x1AB7 JUMP JUMPDEST POP DUP1 SWAP2 POP POP SWAP2 SWAP1 POP JUMP JUMPDEST PUSH1 0x60 PUSH1 0x0 SELFBALANCE SWAP1 POP PUSH1 0x0 DUP4 PUSH8 0xFFFFFFFFFFFFFFFF DUP2 GT ISZERO PUSH2 0x1B4F JUMPI PUSH2 0x1B4E PUSH2 0x3732 JUMP JUMPDEST JUMPDEST PUSH1 0x40 MLOAD SWAP1 DUP1 DUP3 MSTORE DUP1 PUSH1 0x20 MUL PUSH1 0x20 ADD DUP3 ADD PUSH1 0x40 MSTORE DUP1 ISZERO PUSH2 0x1B7D JUMPI DUP2 PUSH1 0x20 ADD PUSH1 0x20 DUP3 MUL DUP1 CALLDATASIZE DUP4 CALLDATACOPY DUP1 DUP3 ADD SWAP2 POP POP SWAP1 POP JUMPDEST POP SWAP1 POP PUSH1 0x0 JUMPDEST DUP5 DUP2 LT ISZERO PUSH2 0x1BF8 JUMPI PUSH1 0x64 DUP4 PUSH1 0xC PUSH1 0x0 DUP5 DUP2 MSTORE PUSH1 0x20 ADD SWAP1 DUP2 MSTORE PUSH1 0x20 ADD PUSH1 0x0 KECCAK256 PUSH1 0x0 SWAP1 SLOAD SWAP1 PUSH2 0x100 EXP SWAP1 DIV PUSH1 0xFF AND PUSH1 0xFF AND PUSH2 0x1BBC SWAP2 SWAP1 PUSH2 0x3668 JUMP JUMPDEST PUSH2 0x1BC6 SWAP2 SWAP1 PUSH2 0x384D JUMP JUMPDEST DUP3 DUP3 DUP2 MLOAD DUP2 LT PUSH2 0x1BD9 JUMPI PUSH2 0x1BD8 PUSH2 0x3761 JUMP JUMPDEST JUMPDEST PUSH1 0x20 MUL PUSH1 0x20 ADD ADD DUP2 DUP2 MSTORE POP POP DUP1 DUP1 PUSH2 0x1BF0 SWAP1 PUSH2 0x3790 JUMP JUMPDEST SWAP2 POP POP PUSH2 0x1B83 JUMP JUMPDEST POP DUP1 SWAP3 POP POP POP SWAP2 SWAP1 POP JUMP JUMPDEST PUSH1 0x0 PUSH2 0x1C0F DUP4 DUP4 PUSH2 0xC33 JUMP JUMPDEST ISZERO DUP1 ISZERO PUSH2 0x1C22 JUMPI POP PUSH2 0x1C21 DUP4 DUP4 PUSH2 0xBF9 JUMP JUMPDEST JUMPDEST SWAP1 POP SWAP3 SWAP2 POP POP JUMP JUMPDEST PUSH1 0x0 DUP1 SHL PUSH2 0x1C37 DUP2 PUSH2 0x200B JUMP JUMPDEST DUP2 PUSH1 0x2 PUSH1 0x1 ADD DUP2 SWAP1 SSTORE POP POP POP JUMP JUMPDEST PUSH2 0x1C4D PUSH2 0x269E JUMP JUMPDEST PUSH1 0x40 MLOAD DUP1 PUSH2 0x1C0 ADD PUSH1 0x40 MSTORE DUP1 PUSH2 0x1C62 DUP5 PUSH2 0x134B JUMP JUMPDEST ISZERO ISZERO DUP2 MSTORE PUSH1 0x20 ADD PUSH1 0x8 PUSH1 0x0 DUP6 DUP2 MSTORE PUSH1 0x20 ADD SWAP1 DUP2 MSTORE PUSH1 0x20 ADD PUSH1 0x0 KECCAK256 SLOAD DUP2 MSTORE PUSH1 0x20 ADD NUMBER DUP2 MSTORE PUSH1 0x20 ADD PUSH1 0xD PUSH1 0x0 PUSH1 0x1 PUSH1 0x0 SWAP1 SLOAD SWAP1 PUSH2 0x100 EXP SWAP1 DIV PUSH20 0xFFFFFFFFFFFFFFFFFFFFFFFFFFFFFFFFFFFFFFFF AND PUSH20 0xFFFFFFFFFFFFFFFFFFFFFFFFFFFFFFFFFFFFFFFF AND PUSH4 0x6352211E DUP8 PUSH1 0x40 MLOAD DUP3 PUSH4 0xFFFFFFFF AND PUSH1 0xE0 SHL DUP2 MSTORE PUSH1 0x4 ADD PUSH2 0x1CE7 SWAP2 SWAP1 PUSH2 0x2B7C JUMP JUMPDEST PUSH1 0x20 PUSH1 0x40 MLOAD DUP1 DUP4 SUB DUP2 DUP7 GAS STATICCALL ISZERO DUP1 ISZERO PUSH2 0x1D04 JUMPI RETURNDATASIZE PUSH1 0x0 DUP1 RETURNDATACOPY RETURNDATASIZE PUSH1 0x0 REVERT JUMPDEST POP POP POP POP PUSH1 0x40 MLOAD RETURNDATASIZE PUSH1 0x1F NOT PUSH1 0x1F DUP3 ADD AND DUP3 ADD DUP1 PUSH1 0x40 MSTORE POP DUP2 ADD SWAP1 PUSH2 0x1D28 SWAP2 SWAP1 PUSH2 0x36BF JUMP JUMPDEST PUSH20 0xFFFFFFFFFFFFFFFFFFFFFFFFFFFFFFFFFFFFFFFF AND PUSH20 0xFFFFFFFFFFFFFFFFFFFFFFFFFFFFFFFFFFFFFFFF AND DUP2 MSTORE PUSH1 0x20 ADD SWAP1 DUP2 MSTORE PUSH1 0x20 ADD PUSH1 0x0 KECCAK256 SLOAD DUP2 MSTORE PUSH1 0x20 ADD PUSH1 0xF SLOAD DUP2 MSTORE PUSH1 0x20 ADD PUSH1 0xE SLOAD DUP2 MSTORE PUSH1 0x20 ADD PUSH2 0x1D81 DUP5 PUSH2 0xF80 JUMP JUMPDEST DUP2 MSTORE PUSH1 0x20 ADD PUSH2 0x1D8F DUP5 PUSH2 0x131C JUMP JUMPDEST DUP2 MSTORE PUSH1 0x20 ADD PUSH2 0x1D9D DUP5 PUSH2 0xC8E JUMP JUMPDEST DUP2 MSTORE PUSH1 0x20 ADD PUSH1 0x2 PUSH1 0x40 MLOAD DUP1 PUSH1 0xC0 ADD PUSH1 0x40 MSTORE SWAP1 DUP2 PUSH1 0x0 DUP3 ADD PUSH1 0x0 SWAP1 SLOAD SWAP1 PUSH2 0x100 EXP SWAP1 DIV PUSH1 0xFF AND PUSH1 0xFF AND PUSH1 0xFF AND DUP2 MSTORE PUSH1 0x20 ADD PUSH1 0x1 DUP3 ADD SLOAD DUP2 MSTORE PUSH1 0x20 ADD PUSH1 0x2 DUP3 ADD SLOAD DUP2 MSTORE PUSH1 0x20 ADD PUSH1 0x3 DUP3 ADD SLOAD DUP2 MSTORE PUSH1 0x20 ADD PUSH1 0x4 DUP3 ADD SLOAD DUP2 MSTORE PUSH1 0x20 ADD PUSH1 0x5 DUP3 ADD SLOAD DUP2 MSTORE POP POP DUP2 MSTORE PUSH1 0x20 ADD PUSH2 0x1E0C DUP6 PUSH2 0x1A5A JUMP JUMPDEST DUP2 MSTORE PUSH1 0x20 ADD PUSH2 0x1E1B DUP6 DUP6 PUSH2 0x1908 JUMP JUMPDEST DUP2 MSTORE PUSH1 0x20 ADD PUSH2 0x1E2E PUSH1 0x2 PUSH1 0x5 ADD SLOAD PUSH2 0x152E JUMP JUMPDEST DUP2 MSTORE PUSH1 0x20 ADD PUSH2 0x1E41 PUSH1 0x2 PUSH1 0x5 ADD SLOAD PUSH2 0x1B2C JUMP JUMPDEST DUP2 MSTORE POP SWAP1 POP SWAP3 SWAP2 POP POP JUMP JUMPDEST PUSH1 0x0 PUSH1 0x8 PUSH1 0x0 DUP4 DUP2 MSTORE PUSH1 0x20 ADD SWAP1 DUP2 MSTORE PUSH1 0x20 ADD PUSH1 0x0 KECCAK256 SLOAD NUMBER PUSH2 0x1E6D SWAP2 SWAP1 PUSH2 0x360B JUMP JUMPDEST SWAP1 POP SWAP2 SWAP1 POP JUMP JUMPDEST PUSH1 0x0 DUP1 SHL PUSH2 0x1E81 DUP2 PUSH2 0x200B JUMP JUMPDEST DUP2 PUSH1 0x2 PUSH1 0x5 ADD DUP2 SWAP1 SSTORE POP POP POP JUMP JUMPDEST PUSH2 0x1E98 DUP3 PUSH2 0xC6F JUMP JUMPDEST PUSH2 0x1EA1 DUP2 PUSH2 0x200B JUMP JUMPDEST PUSH2 0x1EAB DUP4 DUP4 PUSH2 0x2107 JUMP JUMPDEST POP POP POP JUMP JUMPDEST PUSH1 0x0 DUP1 SHL PUSH2 0x1EBD DUP2 PUSH2 0x200B JUMP JUMPDEST DUP2 PUSH1 0x2 PUSH1 0x0 ADD PUSH1 0x0 PUSH2 0x100 EXP DUP2 SLOAD DUP2 PUSH1 0xFF MUL NOT AND SWAP1 DUP4 PUSH1 0xFF AND MUL OR SWAP1 SSTORE POP POP POP JUMP JUMPDEST PUSH1 0x1 PUSH1 0x0 SWAP1 SLOAD SWAP1 PUSH2 0x100 EXP SWAP1 DIV PUSH20 0xFFFFFFFFFFFFFFFFFFFFFFFFFFFFFFFFFFFFFFFF AND DUP2 JUMP JUMPDEST PUSH1 0x0 DUP1 SHL PUSH2 0x1F12 DUP2 PUSH2 0x200B JUMP JUMPDEST DUP2 PUSH1 0x2 DUP1 ADD DUP2 SWAP1 SSTORE POP POP POP JUMP JUMPDEST PUSH1 0x0 DUP1 SHL PUSH2 0x1F2C DUP2 PUSH2 0x200B JUMP JUMPDEST DUP3 PUSH1 0x9 PUSH1 0x0 DUP7 DUP2 MSTORE PUSH1 0x20 ADD SWAP1 DUP2 MSTORE PUSH1 0x20 ADD PUSH1 0x0 KECCAK256 PUSH1 0x0 ADD DUP2 SWAP1 SSTORE POP DUP2 PUSH1 0x9 PUSH1 0x0 DUP7 DUP2 MSTORE PUSH1 0x20 ADD SWAP1 DUP2 MSTORE PUSH1 0x20 ADD PUSH1 0x0 KECCAK256 PUSH1 0x1 ADD DUP2 SWAP1 SSTORE POP POP POP POP POP JUMP JUMPDEST PUSH1 0x40 MLOAD DUP1 PUSH1 0x40 ADD PUSH1 0x40 MSTORE DUP1 PUSH1 0x14 DUP2 MSTORE PUSH1 0x20 ADD PUSH32 0x4143544956455F545241494E45525F4552524F52000000000000000000000000 DUP2 MSTORE POP DUP2 JUMP JUMPDEST PUSH1 0x0 PUSH32 0x1FFC9A700000000000000000000000000000000000000000000000000000000 PUSH28 0xFFFFFFFFFFFFFFFFFFFFFFFFFFFFFFFFFFFFFFFFFFFFFFFFFFFFFFFF NOT AND DUP3 PUSH28 0xFFFFFFFFFFFFFFFFFFFFFFFFFFFFFFFFFFFFFFFFFFFFFFFFFFFFFFFF NOT AND EQ SWAP1 POP SWAP2 SWAP1 POP JUMP JUMPDEST PUSH2 0x201C DUP2 PUSH2 0x2017 PUSH2 0x20FF JUMP JUMPDEST PUSH2 0x237C JUMP JUMPDEST POP JUMP JUMPDEST PUSH2 0x2029 DUP3 DUP3 PUSH2 0x13A2 JUMP JUMPDEST PUSH2 0x20FB JUMPI PUSH1 0x1 PUSH1 0x0 DUP1 DUP5 DUP2 MSTORE PUSH1 0x20 ADD SWAP1 DUP2 MSTORE PUSH1 0x20 ADD PUSH1 0x0 KECCAK256 PUSH1 0x0 ADD PUSH1 0x0 DUP4 PUSH20 0xFFFFFFFFFFFFFFFFFFFFFFFFFFFFFFFFFFFFFFFF AND PUSH20 0xFFFFFFFFFFFFFFFFFFFFFFFFFFFFFFFFFFFFFFFF AND DUP2 MSTORE PUSH1 0x20 ADD SWAP1 DUP2 MSTORE PUSH1 0x20 ADD PUSH1 0x0 KECCAK256 PUSH1 0x0 PUSH2 0x100 EXP DUP2 SLOAD DUP2 PUSH1 0xFF MUL NOT AND SWAP1 DUP4 ISZERO ISZERO MUL OR SWAP1 SSTORE POP PUSH2 0x20A0 PUSH2 0x20FF JUMP JUMPDEST PUSH20 0xFFFFFFFFFFFFFFFFFFFFFFFFFFFFFFFFFFFFFFFF AND DUP2 PUSH20 0xFFFFFFFFFFFFFFFFFFFFFFFFFFFFFFFFFFFFFFFF AND DUP4 PUSH32 0x2F8788117E7EFF1D82E926EC794901D17C78024A50270940304540A733656F0D PUSH1 0x40 MLOAD PUSH1 0x40 MLOAD DUP1 SWAP2 SUB SWAP1 LOG4 JUMPDEST POP POP JUMP JUMPDEST PUSH1 0x0 CALLER SWAP1 POP SWAP1 JUMP JUMPDEST PUSH2 0x2111 DUP3 DUP3 PUSH2 0x13A2 JUMP JUMPDEST ISZERO PUSH2 0x21E4 JUMPI PUSH1 0x0 DUP1 PUSH1 0x0 DUP5 DUP2 MSTORE PUSH1 0x20 ADD SWAP1 DUP2 MSTORE PUSH1 0x20 ADD PUSH1 0x0 KECCAK256 PUSH1 0x0 ADD PUSH1 0x0 DUP4 PUSH20 0xFFFFFFFFFFFFFFFFFFFFFFFFFFFFFFFFFFFFFFFF AND PUSH20 0xFFFFFFFFFFFFFFFFFFFFFFFFFFFFFFFFFFFFFFFF AND DUP2 MSTORE PUSH1 0x20 ADD SWAP1 DUP2 MSTORE PUSH1 0x20 ADD PUSH1 0x0 KECCAK256 PUSH1 0x0 PUSH2 0x100 EXP DUP2 SLOAD DUP2 PUSH1 0xFF MUL NOT AND SWAP1 DUP4 ISZERO ISZERO MUL OR SWAP1 SSTORE POP PUSH2 0x2189 PUSH2 0x20FF JUMP JUMPDEST PUSH20 0xFFFFFFFFFFFFFFFFFFFFFFFFFFFFFFFFFFFFFFFF AND DUP2 PUSH20 0xFFFFFFFFFFFFFFFFFFFFFFFFFFFFFFFFFFFFFFFF AND DUP4 PUSH32 0xF6391F5C32D9C69D2A47EA670B442974B53935D1EDC7FD64EB21E047A839171B PUSH1 0x40 MLOAD PUSH1 0x40 MLOAD DUP1 SWAP2 SUB SWAP1 LOG4 JUMPDEST POP POP JUMP JUMPDEST PUSH1 0x0 PUSH1 0x2 PUSH1 0x3 ADD SLOAD SWAP1 POP DUP1 PUSH1 0xD PUSH1 0x0 DUP5 PUSH20 0xFFFFFFFFFFFFFFFFFFFFFFFFFFFFFFFFFFFFFFFF AND PUSH20 0xFFFFFFFFFFFFFFFFFFFFFFFFFFFFFFFFFFFFFFFF AND DUP2 MSTORE PUSH1 0x20 ADD SWAP1 DUP2 MSTORE PUSH1 0x20 ADD PUSH1 0x0 KECCAK256 SLOAD LT ISZERO PUSH1 0x40 MLOAD DUP1 PUSH1 0x40 ADD PUSH1 0x40 MSTORE DUP1 PUSH1 0xD DUP2 MSTORE PUSH1 0x20 ADD PUSH32 0x4D54525F4645455F4552524F5200000000000000000000000000000000000000 DUP2 MSTORE POP SWAP1 PUSH2 0x22AC JUMPI PUSH1 0x40 MLOAD PUSH32 0x8C379A000000000000000000000000000000000000000000000000000000000 DUP2 MSTORE PUSH1 0x4 ADD PUSH2 0x22A3 SWAP2 SWAP1 PUSH2 0x2AB8 JUMP JUMPDEST PUSH1 0x40 MLOAD DUP1 SWAP2 SUB SWAP1 REVERT JUMPDEST POP PUSH1 0x0 PUSH1 0x64 DUP3 PUSH1 0x2 PUSH1 0x0 ADD PUSH1 0x0 SWAP1 SLOAD SWAP1 PUSH2 0x100 EXP SWAP1 DIV PUSH1 0xFF AND PUSH1 0xFF AND PUSH2 0x22D2 SWAP2 SWAP1 PUSH2 0x3668 JUMP JUMPDEST PUSH2 0x22DC SWAP2 SWAP1 PUSH2 0x384D JUMP JUMPDEST SWAP1 POP PUSH1 0x0 DUP2 DUP4 PUSH2 0x22EC SWAP2 SWAP1 PUSH2 0x360B JUMP JUMPDEST SWAP1 POP DUP3 PUSH1 0xD PUSH1 0x0 DUP7 PUSH20 0xFFFFFFFFFFFFFFFFFFFFFFFFFFFFFFFFFFFFFFFF AND PUSH20 0xFFFFFFFFFFFFFFFFFFFFFFFFFFFFFFFFFFFFFFFF AND DUP2 MSTORE PUSH1 0x20 ADD SWAP1 DUP2 MSTORE PUSH1 0x20 ADD PUSH1 0x0 KECCAK256 PUSH1 0x0 DUP3 DUP3 SLOAD PUSH2 0x233D SWAP2 SWAP1 PUSH2 0x360B JUMP JUMPDEST SWAP3 POP POP DUP2 SWAP1 SSTORE POP DUP2 PUSH1 0xF PUSH1 0x0 DUP3 DUP3 SLOAD PUSH2 0x2356 SWAP2 SWAP1 PUSH2 0x35D7 JUMP JUMPDEST SWAP3 POP POP DUP2 SWAP1 SSTORE POP DUP1 PUSH1 0xE PUSH1 0x0 DUP3 DUP3 SLOAD PUSH2 0x236F SWAP2 SWAP1 PUSH2 0x35D7 JUMP JUMPDEST SWAP3 POP POP DUP2 SWAP1 SSTORE POP POP POP POP POP JUMP JUMPDEST PUSH2 0x2386 DUP3 DUP3 PUSH2 0x13A2 JUMP JUMPDEST PUSH2 0x23FD JUMPI PUSH2 0x2393 DUP2 PUSH2 0x2401 JUMP JUMPDEST PUSH2 0x23A1 DUP4 PUSH1 0x0 SHR PUSH1 0x20 PUSH2 0x242E JUMP JUMPDEST PUSH1 0x40 MLOAD PUSH1 0x20 ADD PUSH2 0x23B2 SWAP3 SWAP2 SWAP1 PUSH2 0x3952 JUMP JUMPDEST PUSH1 0x40 MLOAD PUSH1 0x20 DUP2 DUP4 SUB SUB DUP2 MSTORE SWAP1 PUSH1 0x40 MSTORE PUSH1 0x40 MLOAD PUSH32 0x8C379A000000000000000000000000000000000000000000000000000000000 DUP2 MSTORE PUSH1 0x4 ADD PUSH2 0x23F4 SWAP2 SWAP1 PUSH2 0x2AB8 JUMP JUMPDEST PUSH1 0x40 MLOAD DUP1 SWAP2 SUB SWAP1 REVERT JUMPDEST POP POP JUMP JUMPDEST PUSH1 0x60 PUSH2 0x2427 DUP3 PUSH20 0xFFFFFFFFFFFFFFFFFFFFFFFFFFFFFFFFFFFFFFFF AND PUSH1 0x14 PUSH1 0xFF AND PUSH2 0x242E JUMP JUMPDEST SWAP1 POP SWAP2 SWAP1 POP JUMP JUMPDEST PUSH1 0x60 PUSH1 0x0 PUSH1 0x2 DUP4 PUSH1 0x2 PUSH2 0x2441 SWAP2 SWAP1 PUSH2 0x3668 JUMP JUMPDEST PUSH2 0x244B SWAP2 SWAP1 PUSH2 0x35D7 JUMP JUMPDEST PUSH8 0xFFFFFFFFFFFFFFFF DUP2 GT ISZERO PUSH2 0x2464 JUMPI PUSH2 0x2463 PUSH2 0x3732 JUMP JUMPDEST JUMPDEST PUSH1 0x40 MLOAD SWAP1 DUP1 DUP3 MSTORE DUP1 PUSH1 0x1F ADD PUSH1 0x1F NOT AND PUSH1 0x20 ADD DUP3 ADD PUSH1 0x40 MSTORE DUP1 ISZERO PUSH2 0x2496 JUMPI DUP2 PUSH1 0x20 ADD PUSH1 0x1 DUP3 MUL DUP1 CALLDATASIZE DUP4 CALLDATACOPY DUP1 DUP3 ADD SWAP2 POP POP SWAP1 POP JUMPDEST POP SWAP1 POP PUSH32 0x3000000000000000000000000000000000000000000000000000000000000000 DUP2 PUSH1 0x0 DUP2 MLOAD DUP2 LT PUSH2 0x24CE JUMPI PUSH2 0x24CD PUSH2 0x3761 JUMP JUMPDEST JUMPDEST PUSH1 0x20 ADD ADD SWAP1 PUSH31 0xFFFFFFFFFFFFFFFFFFFFFFFFFFFFFFFFFFFFFFFFFFFFFFFFFFFFFFFFFFFFFF NOT AND SWAP1 DUP2 PUSH1 0x0 BYTE SWAP1 MSTORE8 POP PUSH32 0x7800000000000000000000000000000000000000000000000000000000000000 DUP2 PUSH1 0x1 DUP2 MLOAD DUP2 LT PUSH2 0x2532 JUMPI PUSH2 0x2531 PUSH2 0x3761 JUMP JUMPDEST JUMPDEST PUSH1 0x20 ADD ADD SWAP1 PUSH31 0xFFFFFFFFFFFFFFFFFFFFFFFFFFFFFFFFFFFFFFFFFFFFFFFFFFFFFFFFFFFFFF NOT AND SWAP1 DUP2 PUSH1 0x0 BYTE SWAP1 MSTORE8 POP PUSH1 0x0 PUSH1 0x1 DUP5 PUSH1 0x2 PUSH2 0x2572 SWAP2 SWAP1 PUSH2 0x3668 JUMP JUMPDEST PUSH2 0x257C SWAP2 SWAP1 PUSH2 0x35D7 JUMP JUMPDEST SWAP1 POP JUMPDEST PUSH1 0x1 DUP2 GT ISZERO PUSH2 0x261C JUMPI PUSH32 0x3031323334353637383961626364656600000000000000000000000000000000 PUSH1 0xF DUP7 AND PUSH1 0x10 DUP2 LT PUSH2 0x25BE JUMPI PUSH2 0x25BD PUSH2 0x3761 JUMP JUMPDEST JUMPDEST BYTE PUSH1 0xF8 SHL DUP3 DUP3 DUP2 MLOAD DUP2 LT PUSH2 0x25D5 JUMPI PUSH2 0x25D4 PUSH2 0x3761 JUMP JUMPDEST JUMPDEST PUSH1 0x20 ADD ADD SWAP1 PUSH31 0xFFFFFFFFFFFFFFFFFFFFFFFFFFFFFFFFFFFFFFFFFFFFFFFFFFFFFFFFFFFFFF NOT AND SWAP1 DUP2 PUSH1 0x0 BYTE SWAP1 MSTORE8 POP PUSH1 0x4 DUP6 SWAP1 SHR SWAP5 POP DUP1 PUSH2 0x2615 SWAP1 PUSH2 0x398C JUMP JUMPDEST SWAP1 POP PUSH2 0x257F JUMP JUMPDEST POP PUSH1 0x0 DUP5 EQ PUSH2 0x2660 JUMPI PUSH1 0x40 MLOAD PUSH32 0x8C379A000000000000000000000000000000000000000000000000000000000 DUP2 MSTORE PUSH1 0x4 ADD PUSH2 0x2657 SWAP1 PUSH2 0x3A01 JUMP JUMPDEST PUSH1 0x40 MLOAD DUP1 SWAP2 SUB SWAP1 REVERT JUMPDEST DUP1 SWAP2 POP POP SWAP3 SWAP2 POP POP JUMP JUMPDEST PUSH1 0x40 MLOAD DUP1 PUSH1 0x40 ADD PUSH1 0x40 MSTORE DUP1 PUSH1 0x0 DUP2 MSTORE PUSH1 0x20 ADD PUSH1 0x0 DUP2 MSTORE POP SWAP1 JUMP JUMPDEST PUSH1 0x40 MLOAD DUP1 PUSH1 0x40 ADD PUSH1 0x40 MSTORE DUP1 PUSH1 0x0 DUP2 MSTORE PUSH1 0x20 ADD PUSH1 0x0 DUP2 MSTORE POP SWAP1 JUMP JUMPDEST PUSH1 0x40 MLOAD DUP1 PUSH2 0x1C0 ADD PUSH1 0x40 MSTORE DUP1 PUSH1 0x0 ISZERO ISZERO DUP2 MSTORE PUSH1 0x20 ADD PUSH1 0x0 DUP2 MSTORE PUSH1 0x20 ADD PUSH1 0x0 DUP2 MSTORE PUSH1 0x20 ADD PUSH1 0x0 DUP2 MSTORE PUSH1 0x20 ADD PUSH1 0x0 DUP2 MSTORE PUSH1 0x20 ADD PUSH1 0x0 DUP2 MSTORE PUSH1 0x20 ADD PUSH1 0x0 DUP2 MSTORE PUSH1 0x20 ADD PUSH1 0x0 DUP2 MSTORE PUSH1 0x20 ADD PUSH2 0x26EC PUSH2 0x266A JUMP JUMPDEST DUP2 MSTORE PUSH1 0x20 ADD PUSH2 0x26F9 PUSH2 0x271B JUMP JUMPDEST DUP2 MSTORE PUSH1 0x20 ADD PUSH1 0x60 DUP2 MSTORE PUSH1 0x20 ADD PUSH1 0x60 DUP2 MSTORE PUSH1 0x20 ADD PUSH1 0x60 DUP2 MSTORE PUSH1 0x20 ADD PUSH1 0x60 DUP2 MSTORE POP SWAP1 JUMP JUMPDEST PUSH1 0x40 MLOAD DUP1 PUSH1 0xC0 ADD PUSH1 0x40 MSTORE DUP1 PUSH1 0x0 PUSH1 0xFF AND DUP2 MSTORE PUSH1 0x20 ADD PUSH1 0x0 DUP2 MSTORE PUSH1 0x20 ADD PUSH1 0x0 DUP2 MSTORE PUSH1 0x20 ADD PUSH1 0x0 DUP2 MSTORE PUSH1 0x20 ADD PUSH1 0x0 DUP2 MSTORE PUSH1 0x20 ADD PUSH1 0x0 DUP2 MSTORE POP SWAP1 JUMP JUMPDEST PUSH1 0x0 DUP1 REVERT JUMPDEST PUSH1 0x0 PUSH32 0xFFFFFFFF00000000000000000000000000000000000000000000000000000000 DUP3 AND SWAP1 POP SWAP2 SWAP1 POP JUMP JUMPDEST PUSH2 0x278E DUP2 PUSH2 0x2759 JUMP JUMPDEST DUP2 EQ PUSH2 0x2799 JUMPI PUSH1 0x0 DUP1 REVERT JUMPDEST POP JUMP JUMPDEST PUSH1 0x0 DUP2 CALLDATALOAD SWAP1 POP PUSH2 0x27AB DUP2 PUSH2 0x2785 JUMP JUMPDEST SWAP3 SWAP2 POP POP JUMP JUMPDEST PUSH1 0x0 PUSH1 0x20 DUP3 DUP5 SUB SLT ISZERO PUSH2 0x27C7 JUMPI PUSH2 0x27C6 PUSH2 0x2754 JUMP JUMPDEST JUMPDEST PUSH1 0x0 PUSH2 0x27D5 DUP5 DUP3 DUP6 ADD PUSH2 0x279C JUMP JUMPDEST SWAP2 POP POP SWAP3 SWAP2 POP POP JUMP JUMPDEST PUSH1 0x0 DUP2 ISZERO ISZERO SWAP1 POP SWAP2 SWAP1 POP JUMP JUMPDEST PUSH2 0x27F3 DUP2 PUSH2 0x27DE JUMP JUMPDEST DUP3 MSTORE POP POP JUMP JUMPDEST PUSH1 0x0 PUSH1 0x20 DUP3 ADD SWAP1 POP PUSH2 0x280E PUSH1 0x0 DUP4 ADD DUP5 PUSH2 0x27EA JUMP JUMPDEST SWAP3 SWAP2 POP POP JUMP JUMPDEST PUSH1 0x0 DUP2 SWAP1 POP SWAP2 SWAP1 POP JUMP JUMPDEST PUSH2 0x2827 DUP2 PUSH2 0x2814 JUMP JUMPDEST DUP2 EQ PUSH2 0x2832 JUMPI PUSH1 0x0 DUP1 REVERT JUMPDEST POP JUMP JUMPDEST PUSH1 0x0 DUP2 CALLDATALOAD SWAP1 POP PUSH2 0x2844 DUP2 PUSH2 0x281E JUMP JUMPDEST SWAP3 SWAP2 POP POP JUMP JUMPDEST PUSH1 0x0 PUSH1 0x20 DUP3 DUP5 SUB SLT ISZERO PUSH2 0x2860 JUMPI PUSH2 0x285F PUSH2 0x2754 JUMP JUMPDEST JUMPDEST PUSH1 0x0 PUSH2 0x286E DUP5 DUP3 DUP6 ADD PUSH2 0x2835 JUMP JUMPDEST SWAP2 POP POP SWAP3 SWAP2 POP POP JUMP JUMPDEST PUSH1 0x0 PUSH20 0xFFFFFFFFFFFFFFFFFFFFFFFFFFFFFFFFFFFFFFFF DUP3 AND SWAP1 POP SWAP2 SWAP1 POP JUMP JUMPDEST PUSH1 0x0 PUSH2 0x28A2 DUP3 PUSH2 0x2877 JUMP JUMPDEST SWAP1 POP SWAP2 SWAP1 POP JUMP JUMPDEST PUSH2 0x28B2 DUP2 PUSH2 0x2897 JUMP JUMPDEST DUP2 EQ PUSH2 0x28BD JUMPI PUSH1 0x0 DUP1 REVERT JUMPDEST POP JUMP JUMPDEST PUSH1 0x0 DUP2 CALLDATALOAD SWAP1 POP PUSH2 0x28CF DUP2 PUSH2 0x28A9 JUMP JUMPDEST SWAP3 SWAP2 POP POP JUMP JUMPDEST PUSH1 0x0 PUSH1 0x20 DUP3 DUP5 SUB SLT ISZERO PUSH2 0x28EB JUMPI PUSH2 0x28EA PUSH2 0x2754 JUMP JUMPDEST JUMPDEST PUSH1 0x0 PUSH2 0x28F9 DUP5 DUP3 DUP6 ADD PUSH2 0x28C0 JUMP JUMPDEST SWAP2 POP POP SWAP3 SWAP2 POP POP JUMP JUMPDEST PUSH1 0x0 DUP1 PUSH1 0x40 DUP4 DUP6 SUB SLT ISZERO PUSH2 0x2919 JUMPI PUSH2 0x2918 PUSH2 0x2754 JUMP JUMPDEST JUMPDEST PUSH1 0x0 PUSH2 0x2927 DUP6 DUP3 DUP7 ADD PUSH2 0x2835 JUMP JUMPDEST SWAP3 POP POP PUSH1 0x20 PUSH2 0x2938 DUP6 DUP3 DUP7 ADD PUSH2 0x2835 JUMP JUMPDEST SWAP2 POP POP SWAP3 POP SWAP3 SWAP1 POP JUMP JUMPDEST PUSH1 0x0 DUP2 SWAP1 POP SWAP2 SWAP1 POP JUMP JUMPDEST PUSH2 0x2955 DUP2 PUSH2 0x2942 JUMP JUMPDEST DUP2 EQ PUSH2 0x2960 JUMPI PUSH1 0x0 DUP1 REVERT JUMPDEST POP JUMP JUMPDEST PUSH1 0x0 DUP2 CALLDATALOAD SWAP1 POP PUSH2 0x2972 DUP2 PUSH2 0x294C JUMP JUMPDEST SWAP3 SWAP2 POP POP JUMP JUMPDEST PUSH1 0x0 PUSH1 0x20 DUP3 DUP5 SUB SLT ISZERO PUSH2 0x298E JUMPI PUSH2 0x298D PUSH2 0x2754 JUMP JUMPDEST JUMPDEST PUSH1 0x0 PUSH2 0x299C DUP5 DUP3 DUP6 ADD PUSH2 0x2963 JUMP JUMPDEST SWAP2 POP POP SWAP3 SWAP2 POP POP JUMP JUMPDEST PUSH2 0x29AE DUP2 PUSH2 0x2942 JUMP JUMPDEST DUP3 MSTORE POP POP JUMP JUMPDEST PUSH1 0x0 PUSH1 0x20 DUP3 ADD SWAP1 POP PUSH2 0x29C9 PUSH1 0x0 DUP4 ADD DUP5 PUSH2 0x29A5 JUMP JUMPDEST SWAP3 SWAP2 POP POP JUMP JUMPDEST PUSH2 0x29D8 DUP2 PUSH2 0x2814 JUMP JUMPDEST DUP3 MSTORE POP POP JUMP JUMPDEST PUSH1 0x40 DUP3 ADD PUSH1 0x0 DUP3 ADD MLOAD PUSH2 0x29F4 PUSH1 0x0 DUP6 ADD DUP3 PUSH2 0x29CF JUMP JUMPDEST POP PUSH1 0x20 DUP3 ADD MLOAD PUSH2 0x2A07 PUSH1 0x20 DUP6 ADD DUP3 PUSH2 0x29CF JUMP JUMPDEST POP POP POP POP JUMP JUMPDEST PUSH1 0x0 PUSH1 0x40 DUP3 ADD SWAP1 POP PUSH2 0x2A22 PUSH1 0x0 DUP4 ADD DUP5 PUSH2 0x29DE JUMP JUMPDEST SWAP3 SWAP2 POP POP JUMP JUMPDEST PUSH1 0x0 DUP2 MLOAD SWAP1 POP SWAP2 SWAP1 POP JUMP JUMPDEST PUSH1 0x0 DUP3 DUP3 MSTORE PUSH1 0x20 DUP3 ADD SWAP1 POP SWAP3 SWAP2 POP POP JUMP JUMPDEST PUSH1 0x0 JUMPDEST DUP4 DUP2 LT ISZERO PUSH2 0x2A62 JUMPI DUP1 DUP3 ADD MLOAD DUP2 DUP5 ADD MSTORE PUSH1 0x20 DUP2 ADD SWAP1 POP PUSH2 0x2A47 JUMP JUMPDEST PUSH1 0x0 DUP5 DUP5 ADD MSTORE POP POP POP POP JUMP JUMPDEST PUSH1 0x0 PUSH1 0x1F NOT PUSH1 0x1F DUP4 ADD AND SWAP1 POP SWAP2 SWAP1 POP JUMP JUMPDEST PUSH1 0x0 PUSH2 0x2A8A DUP3 PUSH2 0x2A28 JUMP JUMPDEST PUSH2 0x2A94 DUP2 DUP6 PUSH2 0x2A33 JUMP JUMPDEST SWAP4 POP PUSH2 0x2AA4 DUP2 DUP6 PUSH1 0x20 DUP7 ADD PUSH2 0x2A44 JUMP JUMPDEST PUSH2 0x2AAD DUP2 PUSH2 0x2A6E JUMP JUMPDEST DUP5 ADD SWAP2 POP POP SWAP3 SWAP2 POP POP JUMP JUMPDEST PUSH1 0x0 PUSH1 0x20 DUP3 ADD SWAP1 POP DUP2 DUP2 SUB PUSH1 0x0 DUP4 ADD MSTORE PUSH2 0x2AD2 DUP2 DUP5 PUSH2 0x2A7F JUMP JUMPDEST SWAP1 POP SWAP3 SWAP2 POP POP JUMP JUMPDEST PUSH1 0x0 DUP1 PUSH1 0x40 DUP4 DUP6 SUB SLT ISZERO PUSH2 0x2AF1 JUMPI PUSH2 0x2AF0 PUSH2 0x2754 JUMP JUMPDEST JUMPDEST PUSH1 0x0 PUSH2 0x2AFF DUP6 DUP3 DUP7 ADD PUSH2 0x2963 JUMP JUMPDEST SWAP3 POP POP PUSH1 0x20 PUSH2 0x2B10 DUP6 DUP3 DUP7 ADD PUSH2 0x28C0 JUMP JUMPDEST SWAP2 POP POP SWAP3 POP SWAP3 SWAP1 POP JUMP JUMPDEST PUSH1 0x0 DUP1 PUSH1 0x0 PUSH1 0x60 DUP5 DUP7 SUB SLT ISZERO PUSH2 0x2B33 JUMPI PUSH2 0x2B32 PUSH2 0x2754 JUMP JUMPDEST JUMPDEST PUSH1 0x0 PUSH2 0x2B41 DUP7 DUP3 DUP8 ADD PUSH2 0x28C0 JUMP JUMPDEST SWAP4 POP POP PUSH1 0x20 PUSH2 0x2B52 DUP7 DUP3 DUP8 ADD PUSH2 0x2835 JUMP JUMPDEST SWAP3 POP POP PUSH1 0x40 PUSH2 0x2B63 DUP7 DUP3 DUP8 ADD PUSH2 0x2835 JUMP JUMPDEST SWAP2 POP POP SWAP3 POP SWAP3 POP SWAP3 JUMP JUMPDEST PUSH2 0x2B76 DUP2 PUSH2 0x2814 JUMP JUMPDEST DUP3 MSTORE POP POP JUMP JUMPDEST PUSH1 0x0 PUSH1 0x20 DUP3 ADD SWAP1 POP PUSH2 0x2B91 PUSH1 0x0 DUP4 ADD DUP5 PUSH2 0x2B6D JUMP JUMPDEST SWAP3 SWAP2 POP POP JUMP JUMPDEST PUSH1 0x0 DUP1 PUSH1 0x40 DUP4 DUP6 SUB SLT ISZERO PUSH2 0x2BAE JUMPI PUSH2 0x2BAD PUSH2 0x2754 JUMP JUMPDEST JUMPDEST PUSH1 0x0 PUSH2 0x2BBC DUP6 DUP3 DUP7 ADD PUSH2 0x28C0 JUMP JUMPDEST SWAP3 POP POP PUSH1 0x20 PUSH2 0x2BCD DUP6 DUP3 DUP7 ADD PUSH2 0x2835 JUMP JUMPDEST SWAP2 POP POP SWAP3 POP SWAP3 SWAP1 POP JUMP JUMPDEST PUSH1 0x0 PUSH1 0xFF DUP3 AND SWAP1 POP SWAP2 SWAP1 POP JUMP JUMPDEST PUSH2 0x2BED DUP2 PUSH2 0x2BD7 JUMP JUMPDEST DUP3 MSTORE POP POP JUMP JUMPDEST PUSH1 0x0 PUSH1 0xC0 DUP3 ADD SWAP1 POP PUSH2 0x2C08 PUSH1 0x0 DUP4 ADD DUP10 PUSH2 0x2BE4 JUMP JUMPDEST PUSH2 0x2C15 PUSH1 0x20 DUP4 ADD DUP9 PUSH2 0x2B6D JUMP JUMPDEST PUSH2 0x2C22 PUSH1 0x40 DUP4 ADD DUP8 PUSH2 0x2B6D JUMP JUMPDEST PUSH2 0x2C2F PUSH1 0x60 DUP4 ADD DUP7 PUSH2 0x2B6D JUMP JUMPDEST PUSH2 0x2C3C PUSH1 0x80 DUP4 ADD DUP6 PUSH2 0x2B6D JUMP JUMPDEST PUSH2 0x2C49 PUSH1 0xA0 DUP4 ADD DUP5 PUSH2 0x2B6D JUMP JUMPDEST SWAP8 SWAP7 POP POP POP POP POP POP POP JUMP JUMPDEST PUSH1 0x0 DUP2 MLOAD SWAP1 POP SWAP2 SWAP1 POP JUMP JUMPDEST PUSH1 0x0 DUP3 DUP3 MSTORE PUSH1 0x20 DUP3 ADD SWAP1 POP SWAP3 SWAP2 POP POP JUMP JUMPDEST PUSH1 0x0 DUP2 SWAP1 POP PUSH1 0x20 DUP3 ADD SWAP1 POP SWAP2 SWAP1 POP JUMP JUMPDEST PUSH2 0x2C89 DUP2 PUSH2 0x2BD7 JUMP JUMPDEST DUP3 MSTORE POP POP JUMP JUMPDEST PUSH1 0x0 PUSH2 0x2C9B DUP4 DUP4 PUSH2 0x2C80 JUMP JUMPDEST PUSH1 0x20 DUP4 ADD SWAP1 POP SWAP3 SWAP2 POP POP JUMP JUMPDEST PUSH1 0x0 PUSH1 0x20 DUP3 ADD SWAP1 POP SWAP2 SWAP1 POP JUMP JUMPDEST PUSH1 0x0 PUSH2 0x2CBF DUP3 PUSH2 0x2C54 JUMP JUMPDEST PUSH2 0x2CC9 DUP2 DUP6 PUSH2 0x2C5F JUMP JUMPDEST SWAP4 POP PUSH2 0x2CD4 DUP4 PUSH2 0x2C70 JUMP JUMPDEST DUP1 PUSH1 0x0 JUMPDEST DUP4 DUP2 LT ISZERO PUSH2 0x2D05 JUMPI DUP2 MLOAD PUSH2 0x2CEC DUP9 DUP3 PUSH2 0x2C8F JUMP JUMPDEST SWAP8 POP PUSH2 0x2CF7 DUP4 PUSH2 0x2CA7 JUMP JUMPDEST SWAP3 POP POP PUSH1 0x1 DUP2 ADD SWAP1 POP PUSH2 0x2CD8 JUMP JUMPDEST POP DUP6 SWAP4 POP POP POP POP SWAP3 SWAP2 POP POP JUMP JUMPDEST PUSH1 0x0 PUSH1 0x20 DUP3 ADD SWAP1 POP DUP2 DUP2 SUB PUSH1 0x0 DUP4 ADD MSTORE PUSH2 0x2D2C DUP2 DUP5 PUSH2 0x2CB4 JUMP JUMPDEST SWAP1 POP SWAP3 SWAP2 POP POP JUMP JUMPDEST PUSH2 0x2D3D DUP2 PUSH2 0x2BD7 JUMP JUMPDEST DUP2 EQ PUSH2 0x2D48 JUMPI PUSH1 0x0 DUP1 REVERT JUMPDEST POP JUMP JUMPDEST PUSH1 0x0 DUP2 CALLDATALOAD SWAP1 POP PUSH2 0x2D5A DUP2 PUSH2 0x2D34 JUMP JUMPDEST SWAP3 SWAP2 POP POP JUMP JUMPDEST PUSH1 0x0 DUP1 PUSH1 0x40 DUP4 DUP6 SUB SLT ISZERO PUSH2 0x2D77 JUMPI PUSH2 0x2D76 PUSH2 0x2754 JUMP JUMPDEST JUMPDEST PUSH1 0x0 PUSH2 0x2D85 DUP6 DUP3 DUP7 ADD PUSH2 0x2835 JUMP JUMPDEST SWAP3 POP POP PUSH1 0x20 PUSH2 0x2D96 DUP6 DUP3 DUP7 ADD PUSH2 0x2D4B JUMP JUMPDEST SWAP2 POP POP SWAP3 POP SWAP3 SWAP1 POP JUMP JUMPDEST PUSH1 0x0 DUP2 MLOAD SWAP1 POP SWAP2 SWAP1 POP JUMP JUMPDEST PUSH1 0x0 DUP3 DUP3 MSTORE PUSH1 0x20 DUP3 ADD SWAP1 POP SWAP3 SWAP2 POP POP JUMP JUMPDEST PUSH1 0x0 DUP2 SWAP1 POP PUSH1 0x20 DUP3 ADD SWAP1 POP SWAP2 SWAP1 POP JUMP JUMPDEST PUSH2 0x2DD5 DUP2 PUSH2 0x27DE JUMP JUMPDEST DUP3 MSTORE POP POP JUMP JUMPDEST PUSH1 0x0 PUSH2 0x2DE7 DUP4 DUP4 PUSH2 0x2DCC JUMP JUMPDEST PUSH1 0x20 DUP4 ADD SWAP1 POP SWAP3 SWAP2 POP POP JUMP JUMPDEST PUSH1 0x0 PUSH1 0x20 DUP3 ADD SWAP1 POP SWAP2 SWAP1 POP JUMP JUMPDEST PUSH1 0x0 PUSH2 0x2E0B DUP3 PUSH2 0x2DA0 JUMP JUMPDEST PUSH2 0x2E15 DUP2 DUP6 PUSH2 0x2DAB JUMP JUMPDEST SWAP4 POP PUSH2 0x2E20 DUP4 PUSH2 0x2DBC JUMP JUMPDEST DUP1 PUSH1 0x0 JUMPDEST DUP4 DUP2 LT ISZERO PUSH2 0x2E51 JUMPI DUP2 MLOAD PUSH2 0x2E38 DUP9 DUP3 PUSH2 0x2DDB JUMP JUMPDEST SWAP8 POP PUSH2 0x2E43 DUP4 PUSH2 0x2DF3 JUMP JUMPDEST SWAP3 POP POP PUSH1 0x1 DUP2 ADD SWAP1 POP PUSH2 0x2E24 JUMP JUMPDEST POP DUP6 SWAP4 POP POP POP POP SWAP3 SWAP2 POP POP JUMP JUMPDEST PUSH1 0x0 PUSH1 0x20 DUP3 ADD SWAP1 POP DUP2 DUP2 SUB PUSH1 0x0 DUP4 ADD MSTORE PUSH2 0x2E78 DUP2 DUP5 PUSH2 0x2E00 JUMP JUMPDEST SWAP1 POP SWAP3 SWAP2 POP POP JUMP JUMPDEST PUSH1 0x0 DUP2 MLOAD SWAP1 POP SWAP2 SWAP1 POP JUMP JUMPDEST PUSH1 0x0 DUP3 DUP3 MSTORE PUSH1 0x20 DUP3 ADD SWAP1 POP SWAP3 SWAP2 POP POP JUMP JUMPDEST PUSH1 0x0 DUP2 SWAP1 POP PUSH1 0x20 DUP3 ADD SWAP1 POP SWAP2 SWAP1 POP JUMP JUMPDEST PUSH1 0x40 DUP3 ADD PUSH1 0x0 DUP3 ADD MLOAD PUSH2 0x2EC2 PUSH1 0x0 DUP6 ADD DUP3 PUSH2 0x29CF JUMP JUMPDEST POP PUSH1 0x20 DUP3 ADD MLOAD PUSH2 0x2ED5 PUSH1 0x20 DUP6 ADD DUP3 PUSH2 0x29CF JUMP JUMPDEST POP POP POP POP JUMP JUMPDEST PUSH1 0x0 PUSH2 0x2EE7 DUP4 DUP4 PUSH2 0x2EAC JUMP JUMPDEST PUSH1 0x40 DUP4 ADD SWAP1 POP SWAP3 SWAP2 POP POP JUMP JUMPDEST PUSH1 0x0 PUSH1 0x20 DUP3 ADD SWAP1 POP SWAP2 SWAP1 POP JUMP JUMPDEST PUSH1 0x0 PUSH2 0x2F0B DUP3 PUSH2 0x2E80 JUMP JUMPDEST PUSH2 0x2F15 DUP2 DUP6 PUSH2 0x2E8B JUMP JUMPDEST SWAP4 POP PUSH2 0x2F20 DUP4 PUSH2 0x2E9C JUMP JUMPDEST DUP1 PUSH1 0x0 JUMPDEST DUP4 DUP2 LT ISZERO PUSH2 0x2F51 JUMPI DUP2 MLOAD PUSH2 0x2F38 DUP9 DUP3 PUSH2 0x2EDB JUMP JUMPDEST SWAP8 POP PUSH2 0x2F43 DUP4 PUSH2 0x2EF3 JUMP JUMPDEST SWAP3 POP POP PUSH1 0x1 DUP2 ADD SWAP1 POP PUSH2 0x2F24 JUMP JUMPDEST POP DUP6 SWAP4 POP POP POP POP SWAP3 SWAP2 POP POP JUMP JUMPDEST PUSH1 0x0 PUSH1 0x20 DUP3 ADD SWAP1 POP DUP2 DUP2 SUB PUSH1 0x0 DUP4 ADD MSTORE PUSH2 0x2F78 DUP2 DUP5 PUSH2 0x2F00 JUMP JUMPDEST SWAP1 POP SWAP3 SWAP2 POP POP JUMP JUMPDEST PUSH1 0x0 DUP2 MLOAD SWAP1 POP SWAP2 SWAP1 POP JUMP JUMPDEST PUSH1 0x0 DUP3 DUP3 MSTORE PUSH1 0x20 DUP3 ADD SWAP1 POP SWAP3 SWAP2 POP POP JUMP JUMPDEST PUSH1 0x0 DUP2 SWAP1 POP PUSH1 0x20 DUP3 ADD SWAP1 POP SWAP2 SWAP1 POP JUMP JUMPDEST PUSH1 0x0 PUSH2 0x2FB8 DUP4 DUP4 PUSH2 0x29CF JUMP JUMPDEST PUSH1 0x20 DUP4 ADD SWAP1 POP SWAP3 SWAP2 POP POP JUMP JUMPDEST PUSH1 0x0 PUSH1 0x20 DUP3 ADD SWAP1 POP SWAP2 SWAP1 POP JUMP JUMPDEST PUSH1 0x0 PUSH2 0x2FDC DUP3 PUSH2 0x2F80 JUMP JUMPDEST PUSH2 0x2FE6 DUP2 DUP6 PUSH2 0x2F8B JUMP JUMPDEST SWAP4 POP PUSH2 0x2FF1 DUP4 PUSH2 0x2F9C JUMP JUMPDEST DUP1 PUSH1 0x0 JUMPDEST DUP4 DUP2 LT ISZERO PUSH2 0x3022 JUMPI DUP2 MLOAD PUSH2 0x3009 DUP9 DUP3 PUSH2 0x2FAC JUMP JUMPDEST SWAP8 POP PUSH2 0x3014 DUP4 PUSH2 0x2FC4 JUMP JUMPDEST SWAP3 POP POP PUSH1 0x1 DUP2 ADD SWAP1 POP PUSH2 0x2FF5 JUMP JUMPDEST POP DUP6 SWAP4 POP POP POP POP SWAP3 SWAP2 POP POP JUMP JUMPDEST PUSH1 0x0 PUSH1 0x20 DUP3 ADD SWAP1 POP DUP2 DUP2 SUB PUSH1 0x0 DUP4 ADD MSTORE PUSH2 0x3049 DUP2 DUP5 PUSH2 0x2FD1 JUMP JUMPDEST SWAP1 POP SWAP3 SWAP2 POP POP JUMP JUMPDEST PUSH1 0x40 DUP3 ADD PUSH1 0x0 DUP3 ADD MLOAD PUSH2 0x3067 PUSH1 0x0 DUP6 ADD DUP3 PUSH2 0x29CF JUMP JUMPDEST POP PUSH1 0x20 DUP3 ADD MLOAD PUSH2 0x307A PUSH1 0x20 DUP6 ADD DUP3 PUSH2 0x29CF JUMP JUMPDEST POP POP POP POP JUMP JUMPDEST PUSH1 0xC0 DUP3 ADD PUSH1 0x0 DUP3 ADD MLOAD PUSH2 0x3096 PUSH1 0x0 DUP6 ADD DUP3 PUSH2 0x2C80 JUMP JUMPDEST POP PUSH1 0x20 DUP3 ADD MLOAD PUSH2 0x30A9 PUSH1 0x20 DUP6 ADD DUP3 PUSH2 0x29CF JUMP JUMPDEST POP PUSH1 0x40 DUP3 ADD MLOAD PUSH2 0x30BC PUSH1 0x40 DUP6 ADD DUP3 PUSH2 0x29CF JUMP JUMPDEST POP PUSH1 0x60 DUP3 ADD MLOAD PUSH2 0x30CF PUSH1 0x60 DUP6 ADD DUP3 PUSH2 0x29CF JUMP JUMPDEST POP PUSH1 0x80 DUP3 ADD MLOAD PUSH2 0x30E2 PUSH1 0x80 DUP6 ADD DUP3 PUSH2 0x29CF JUMP JUMPDEST POP PUSH1 0xA0 DUP3 ADD MLOAD PUSH2 0x30F5 PUSH1 0xA0 DUP6 ADD DUP3 PUSH2 0x29CF JUMP JUMPDEST POP POP POP POP JUMP JUMPDEST PUSH1 0x0 DUP3 DUP3 MSTORE PUSH1 0x20 DUP3 ADD SWAP1 POP SWAP3 SWAP2 POP POP JUMP JUMPDEST PUSH1 0x0 PUSH2 0x3117 DUP3 PUSH2 0x2E80 JUMP JUMPDEST PUSH2 0x3121 DUP2 DUP6 PUSH2 0x30FB JUMP JUMPDEST SWAP4 POP PUSH2 0x312C DUP4 PUSH2 0x2E9C JUMP JUMPDEST DUP1 PUSH1 0x0 JUMPDEST DUP4 DUP2 LT ISZERO PUSH2 0x315D JUMPI DUP2 MLOAD PUSH2 0x3144 DUP9 DUP3 PUSH2 0x2EDB JUMP JUMPDEST SWAP8 POP PUSH2 0x314F DUP4 PUSH2 0x2EF3 JUMP JUMPDEST SWAP3 POP POP PUSH1 0x1 DUP2 ADD SWAP1 POP PUSH2 0x3130 JUMP JUMPDEST POP DUP6 SWAP4 POP POP POP POP SWAP3 SWAP2 POP POP JUMP JUMPDEST PUSH1 0x0 DUP3 DUP3 MSTORE PUSH1 0x20 DUP3 ADD SWAP1 POP SWAP3 SWAP2 POP POP JUMP JUMPDEST PUSH1 0x0 PUSH2 0x3186 DUP3 PUSH2 0x2DA0 JUMP JUMPDEST PUSH2 0x3190 DUP2 DUP6 PUSH2 0x316A JUMP JUMPDEST SWAP4 POP PUSH2 0x319B DUP4 PUSH2 0x2DBC JUMP JUMPDEST DUP1 PUSH1 0x0 JUMPDEST DUP4 DUP2 LT ISZERO PUSH2 0x31CC JUMPI DUP2 MLOAD PUSH2 0x31B3 DUP9 DUP3 PUSH2 0x2DDB JUMP JUMPDEST SWAP8 POP PUSH2 0x31BE DUP4 PUSH2 0x2DF3 JUMP JUMPDEST SWAP3 POP POP PUSH1 0x1 DUP2 ADD SWAP1 POP PUSH2 0x319F JUMP JUMPDEST POP DUP6 SWAP4 POP POP POP POP SWAP3 SWAP2 POP POP JUMP JUMPDEST PUSH1 0x0 DUP3 DUP3 MSTORE PUSH1 0x20 DUP3 ADD SWAP1 POP SWAP3 SWAP2 POP POP JUMP JUMPDEST PUSH1 0x0 PUSH2 0x31F5 DUP3 PUSH2 0x2C54 JUMP JUMPDEST PUSH2 0x31FF DUP2 DUP6 PUSH2 0x31D9 JUMP JUMPDEST SWAP4 POP PUSH2 0x320A DUP4 PUSH2 0x2C70 JUMP JUMPDEST DUP1 PUSH1 0x0 JUMPDEST DUP4 DUP2 LT ISZERO PUSH2 0x323B JUMPI DUP2 MLOAD PUSH2 0x3222 DUP9 DUP3 PUSH2 0x2C8F JUMP JUMPDEST SWAP8 POP PUSH2 0x322D DUP4 PUSH2 0x2CA7 JUMP JUMPDEST SWAP3 POP POP PUSH1 0x1 DUP2 ADD SWAP1 POP PUSH2 0x320E JUMP JUMPDEST POP DUP6 SWAP4 POP POP POP POP SWAP3 SWAP2 POP POP JUMP JUMPDEST PUSH1 0x0 DUP3 DUP3 MSTORE PUSH1 0x20 DUP3 ADD SWAP1 POP SWAP3 SWAP2 POP POP JUMP JUMPDEST PUSH1 0x0 PUSH2 0x3264 DUP3 PUSH2 0x2F80 JUMP JUMPDEST PUSH2 0x326E DUP2 DUP6 PUSH2 0x3248 JUMP JUMPDEST SWAP4 POP PUSH2 0x3279 DUP4 PUSH2 0x2F9C JUMP JUMPDEST DUP1 PUSH1 0x0 JUMPDEST DUP4 DUP2 LT ISZERO PUSH2 0x32AA JUMPI DUP2 MLOAD PUSH2 0x3291 DUP9 DUP3 PUSH2 0x2FAC JUMP JUMPDEST SWAP8 POP PUSH2 0x329C DUP4 PUSH2 0x2FC4 JUMP JUMPDEST SWAP3 POP POP PUSH1 0x1 DUP2 ADD SWAP1 POP PUSH2 0x327D JUMP JUMPDEST POP DUP6 SWAP4 POP POP POP POP SWAP3 SWAP2 POP POP JUMP JUMPDEST PUSH1 0x0 PUSH2 0x280 DUP4 ADD PUSH1 0x0 DUP4 ADD MLOAD PUSH2 0x32D0 PUSH1 0x0 DUP7 ADD DUP3 PUSH2 0x2DCC JUMP JUMPDEST POP PUSH1 0x20 DUP4 ADD MLOAD PUSH2 0x32E3 PUSH1 0x20 DUP7 ADD DUP3 PUSH2 0x29CF JUMP JUMPDEST POP PUSH1 0x40 DUP4 ADD MLOAD PUSH2 0x32F6 PUSH1 0x40 DUP7 ADD DUP3 PUSH2 0x29CF JUMP JUMPDEST POP PUSH1 0x60 DUP4 ADD MLOAD PUSH2 0x3309 PUSH1 0x60 DUP7 ADD DUP3 PUSH2 0x29CF JUMP JUMPDEST POP PUSH1 0x80 DUP4 ADD MLOAD PUSH2 0x331C PUSH1 0x80 DUP7 ADD DUP3 PUSH2 0x29CF JUMP JUMPDEST POP PUSH1 0xA0 DUP4 ADD MLOAD PUSH2 0x332F PUSH1 0xA0 DUP7 ADD DUP3 PUSH2 0x29CF JUMP JUMPDEST POP PUSH1 0xC0 DUP4 ADD MLOAD PUSH2 0x3342 PUSH1 0xC0 DUP7 ADD DUP3 PUSH2 0x29CF JUMP JUMPDEST POP PUSH1 0xE0 DUP4 ADD MLOAD PUSH2 0x3355 PUSH1 0xE0 DUP7 ADD DUP3 PUSH2 0x29CF JUMP JUMPDEST POP PUSH2 0x100 DUP4 ADD MLOAD PUSH2 0x336A PUSH2 0x100 DUP7 ADD DUP3 PUSH2 0x3051 JUMP JUMPDEST POP PUSH2 0x120 DUP4 ADD MLOAD PUSH2 0x337F PUSH2 0x140 DUP7 ADD DUP3 PUSH2 0x3080 JUMP JUMPDEST POP PUSH2 0x140 DUP4 ADD MLOAD DUP5 DUP3 SUB PUSH2 0x200 DUP7 ADD MSTORE PUSH2 0x3399 DUP3 DUP3 PUSH2 0x310C JUMP JUMPDEST SWAP2 POP POP PUSH2 0x160 DUP4 ADD MLOAD DUP5 DUP3 SUB PUSH2 0x220 DUP7 ADD MSTORE PUSH2 0x33B5 DUP3 DUP3 PUSH2 0x317B JUMP JUMPDEST SWAP2 POP POP PUSH2 0x180 DUP4 ADD MLOAD DUP5 DUP3 SUB PUSH2 0x240 DUP7 ADD MSTORE PUSH2 0x33D1 DUP3 DUP3 PUSH2 0x31EA JUMP JUMPDEST SWAP2 POP POP PUSH2 0x1A0 DUP4 ADD MLOAD DUP5 DUP3 SUB PUSH2 0x260 DUP7 ADD MSTORE PUSH2 0x33ED DUP3 DUP3 PUSH2 0x3259 JUMP JUMPDEST SWAP2 POP POP DUP1 SWAP2 POP POP SWAP3 SWAP2 POP POP JUMP JUMPDEST PUSH1 0x0 PUSH1 0x20 DUP3 ADD SWAP1 POP DUP2 DUP2 SUB PUSH1 0x0 DUP4 ADD MSTORE PUSH2 0x3414 DUP2 DUP5 PUSH2 0x32B7 JUMP JUMPDEST SWAP1 POP SWAP3 SWAP2 POP POP JUMP JUMPDEST PUSH1 0x0 PUSH1 0x20 DUP3 DUP5 SUB SLT ISZERO PUSH2 0x3432 JUMPI PUSH2 0x3431 PUSH2 0x2754 JUMP JUMPDEST JUMPDEST PUSH1 0x0 PUSH2 0x3440 DUP5 DUP3 DUP6 ADD PUSH2 0x2D4B JUMP JUMPDEST SWAP2 POP POP SWAP3 SWAP2 POP POP JUMP JUMPDEST PUSH1 0x0 DUP2 SWAP1 POP SWAP2 SWAP1 POP JUMP JUMPDEST PUSH1 0x0 PUSH2 0x346E PUSH2 0x3469 PUSH2 0x3464 DUP5 PUSH2 0x2877 JUMP JUMPDEST PUSH2 0x3449 JUMP JUMPDEST PUSH2 0x2877 JUMP JUMPDEST SWAP1 POP SWAP2 SWAP1 POP JUMP JUMPDEST PUSH1 0x0 PUSH2 0x3480 DUP3 PUSH2 0x3453 JUMP JUMPDEST SWAP1 POP SWAP2 SWAP1 POP JUMP JUMPDEST PUSH1 0x0 PUSH2 0x3492 DUP3 PUSH2 0x3475 JUMP JUMPDEST SWAP1 POP SWAP2 SWAP1 POP JUMP JUMPDEST PUSH2 0x34A2 DUP2 PUSH2 0x3487 JUMP JUMPDEST DUP3 MSTORE POP POP JUMP JUMPDEST PUSH1 0x0 PUSH1 0x20 DUP3 ADD SWAP1 POP PUSH2 0x34BD PUSH1 0x0 DUP4 ADD DUP5 PUSH2 0x3499 JUMP JUMPDEST SWAP3 SWAP2 POP POP JUMP JUMPDEST PUSH1 0x0 DUP1 PUSH1 0x0 PUSH1 0x60 DUP5 DUP7 SUB SLT ISZERO PUSH2 0x34DC JUMPI PUSH2 0x34DB PUSH2 0x2754 JUMP JUMPDEST JUMPDEST PUSH1 0x0 PUSH2 0x34EA DUP7 DUP3 DUP8 ADD PUSH2 0x2835 JUMP JUMPDEST SWAP4 POP POP PUSH1 0x20 PUSH2 0x34FB DUP7 DUP3 DUP8 ADD PUSH2 0x2835 JUMP JUMPDEST SWAP3 POP POP PUSH1 0x40 PUSH2 0x350C DUP7 DUP3 DUP8 ADD PUSH2 0x2835 JUMP JUMPDEST SWAP2 POP POP SWAP3 POP SWAP3 POP SWAP3 JUMP JUMPDEST PUSH32 0x416363657373436F6E74726F6C3A2063616E206F6E6C792072656E6F756E6365 PUSH1 0x0 DUP3 ADD MSTORE PUSH32 0x20726F6C657320666F722073656C660000000000000000000000000000000000 PUSH1 0x20 DUP3 ADD MSTORE POP JUMP JUMPDEST PUSH1 0x0 PUSH2 0x3572 PUSH1 0x2F DUP4 PUSH2 0x2A33 JUMP JUMPDEST SWAP2 POP PUSH2 0x357D DUP3 PUSH2 0x3516 JUMP JUMPDEST PUSH1 0x40 DUP3 ADD SWAP1 POP SWAP2 SWAP1 POP JUMP JUMPDEST PUSH1 0x0 PUSH1 0x20 DUP3 ADD SWAP1 POP DUP2 DUP2 SUB PUSH1 0x0 DUP4 ADD MSTORE PUSH2 0x35A1 DUP2 PUSH2 0x3565 JUMP JUMPDEST SWAP1 POP SWAP2 SWAP1 POP JUMP JUMPDEST PUSH32 0x4E487B7100000000000000000000000000000000000000000000000000000000 PUSH1 0x0 MSTORE PUSH1 0x11 PUSH1 0x4 MSTORE PUSH1 0x24 PUSH1 0x0 REVERT JUMPDEST PUSH1 0x0 PUSH2 0x35E2 DUP3 PUSH2 0x2814 JUMP JUMPDEST SWAP2 POP PUSH2 0x35ED DUP4 PUSH2 0x2814 JUMP JUMPDEST SWAP3 POP DUP3 DUP3 ADD SWAP1 POP DUP1 DUP3 GT ISZERO PUSH2 0x3605 JUMPI PUSH2 0x3604 PUSH2 0x35A8 JUMP JUMPDEST JUMPDEST SWAP3 SWAP2 POP POP JUMP JUMPDEST PUSH1 0x0 PUSH2 0x3616 DUP3 PUSH2 0x2814 JUMP JUMPDEST SWAP2 POP PUSH2 0x3621 DUP4 PUSH2 0x2814 JUMP JUMPDEST SWAP3 POP DUP3 DUP3 SUB SWAP1 POP DUP2 DUP2 GT ISZERO PUSH2 0x3639 JUMPI PUSH2 0x3638 PUSH2 0x35A8 JUMP JUMPDEST JUMPDEST SWAP3 SWAP2 POP POP JUMP JUMPDEST PUSH1 0x0 PUSH1 0x40 DUP3 ADD SWAP1 POP PUSH2 0x3654 PUSH1 0x0 DUP4 ADD DUP6 PUSH2 0x2B6D JUMP JUMPDEST PUSH2 0x3661 PUSH1 0x20 DUP4 ADD DUP5 PUSH2 0x2B6D JUMP JUMPDEST SWAP4 SWAP3 POP POP POP JUMP JUMPDEST PUSH1 0x0 PUSH2 0x3673 DUP3 PUSH2 0x2814 JUMP JUMPDEST SWAP2 POP PUSH2 0x367E DUP4 PUSH2 0x2814 JUMP JUMPDEST SWAP3 POP DUP3 DUP3 MUL PUSH2 0x368C DUP2 PUSH2 0x2814 JUMP JUMPDEST SWAP2 POP DUP3 DUP3 DIV DUP5 EQ DUP4 ISZERO OR PUSH2 0x36A3 JUMPI PUSH2 0x36A2 PUSH2 0x35A8 JUMP JUMPDEST JUMPDEST POP SWAP3 SWAP2 POP POP JUMP JUMPDEST PUSH1 0x0 DUP2 MLOAD SWAP1 POP PUSH2 0x36B9 DUP2 PUSH2 0x28A9 JUMP JUMPDEST SWAP3 SWAP2 POP POP JUMP JUMPDEST PUSH1 0x0 PUSH1 0x20 DUP3 DUP5 SUB SLT ISZERO PUSH2 0x36D5 JUMPI PUSH2 0x36D4 PUSH2 0x2754 JUMP JUMPDEST JUMPDEST PUSH1 0x0 PUSH2 0x36E3 DUP5 DUP3 DUP6 ADD PUSH2 0x36AA JUMP JUMPDEST SWAP2 POP POP SWAP3 SWAP2 POP POP JUMP JUMPDEST PUSH1 0x0 DUP2 SWAP1 POP SWAP3 SWAP2 POP POP JUMP JUMPDEST POP JUMP JUMPDEST PUSH1 0x0 PUSH2 0x3707 PUSH1 0x0 DUP4 PUSH2 0x36EC JUMP JUMPDEST SWAP2 POP PUSH2 0x3712 DUP3 PUSH2 0x36F7 JUMP JUMPDEST PUSH1 0x0 DUP3 ADD SWAP1 POP SWAP2 SWAP1 POP JUMP JUMPDEST PUSH1 0x0 PUSH2 0x3728 DUP3 PUSH2 0x36FA JUMP JUMPDEST SWAP2 POP DUP2 SWAP1 POP SWAP2 SWAP1 POP JUMP JUMPDEST PUSH32 0x4E487B7100000000000000000000000000000000000000000000000000000000 PUSH1 0x0 MSTORE PUSH1 0x41 PUSH1 0x4 MSTORE PUSH1 0x24 PUSH1 0x0 REVERT JUMPDEST PUSH32 0x4E487B7100000000000000000000000000000000000000000000000000000000 PUSH1 0x0 MSTORE PUSH1 0x32 PUSH1 0x4 MSTORE PUSH1 0x24 PUSH1 0x0 REVERT JUMPDEST PUSH1 0x0 PUSH2 0x379B DUP3 PUSH2 0x2814 JUMP JUMPDEST SWAP2 POP PUSH32 0xFFFFFFFFFFFFFFFFFFFFFFFFFFFFFFFFFFFFFFFFFFFFFFFFFFFFFFFFFFFFFFFF DUP3 SUB PUSH2 0x37CD JUMPI PUSH2 0x37CC PUSH2 0x35A8 JUMP JUMPDEST JUMPDEST PUSH1 0x1 DUP3 ADD SWAP1 POP SWAP2 SWAP1 POP JUMP JUMPDEST PUSH2 0x37E1 DUP2 PUSH2 0x2897 JUMP JUMPDEST DUP3 MSTORE POP POP JUMP JUMPDEST PUSH1 0x0 PUSH1 0x60 DUP3 ADD SWAP1 POP PUSH2 0x37FC PUSH1 0x0 DUP4 ADD DUP7 PUSH2 0x37D8 JUMP JUMPDEST PUSH2 0x3809 PUSH1 0x20 DUP4 ADD DUP6 PUSH2 0x2B6D JUMP JUMPDEST PUSH2 0x3816 PUSH1 0x40 DUP4 ADD DUP5 PUSH2 0x2B6D JUMP JUMPDEST SWAP5 SWAP4 POP POP POP POP JUMP JUMPDEST PUSH32 0x4E487B7100000000000000000000000000000000000000000000000000000000 PUSH1 0x0 MSTORE PUSH1 0x12 PUSH1 0x4 MSTORE PUSH1 0x24 PUSH1 0x0 REVERT JUMPDEST PUSH1 0x0 PUSH2 0x3858 DUP3 PUSH2 0x2814 JUMP JUMPDEST SWAP2 POP PUSH2 0x3863 DUP4 PUSH2 0x2814 JUMP JUMPDEST SWAP3 POP DUP3 PUSH2 0x3873 JUMPI PUSH2 0x3872 PUSH2 0x381E JUMP JUMPDEST JUMPDEST DUP3 DUP3 DIV SWAP1 POP SWAP3 SWAP2 POP POP JUMP JUMPDEST PUSH1 0x0 DUP2 SWAP1 POP SWAP3 SWAP2 POP POP JUMP JUMPDEST PUSH32 0x416363657373436F6E74726F6C3A206163636F756E7420000000000000000000 PUSH1 0x0 DUP3 ADD MSTORE POP JUMP JUMPDEST PUSH1 0x0 PUSH2 0x38BF PUSH1 0x17 DUP4 PUSH2 0x387E JUMP JUMPDEST SWAP2 POP PUSH2 0x38CA DUP3 PUSH2 0x3889 JUMP JUMPDEST PUSH1 0x17 DUP3 ADD SWAP1 POP SWAP2 SWAP1 POP JUMP JUMPDEST PUSH1 0x0 PUSH2 0x38E0 DUP3 PUSH2 0x2A28 JUMP JUMPDEST PUSH2 0x38EA DUP2 DUP6 PUSH2 0x387E JUMP JUMPDEST SWAP4 POP PUSH2 0x38FA DUP2 DUP6 PUSH1 0x20 DUP7 ADD PUSH2 0x2A44 JUMP JUMPDEST DUP1 DUP5 ADD SWAP2 POP POP SWAP3 SWAP2 POP POP JUMP JUMPDEST PUSH32 0x206973206D697373696E6720726F6C6520000000000000000000000000000000 PUSH1 0x0 DUP3 ADD MSTORE POP JUMP JUMPDEST PUSH1 0x0 PUSH2 0x393C PUSH1 0x11 DUP4 PUSH2 0x387E JUMP JUMPDEST SWAP2 POP PUSH2 0x3947 DUP3 PUSH2 0x3906 JUMP JUMPDEST PUSH1 0x11 DUP3 ADD SWAP1 POP SWAP2 SWAP1 POP JUMP JUMPDEST PUSH1 0x0 PUSH2 0x395D DUP3 PUSH2 0x38B2 JUMP JUMPDEST SWAP2 POP PUSH2 0x3969 DUP3 DUP6 PUSH2 0x38D5 JUMP JUMPDEST SWAP2 POP PUSH2 0x3974 DUP3 PUSH2 0x392F JUMP JUMPDEST SWAP2 POP PUSH2 0x3980 DUP3 DUP5 PUSH2 0x38D5 JUMP JUMPDEST SWAP2 POP DUP2 SWAP1 POP SWAP4 SWAP3 POP POP POP JUMP JUMPDEST PUSH1 0x0 PUSH2 0x3997 DUP3 PUSH2 0x2814 JUMP JUMPDEST SWAP2 POP PUSH1 0x0 DUP3 SUB PUSH2 0x39AA JUMPI PUSH2 0x39A9 PUSH2 0x35A8 JUMP JUMPDEST JUMPDEST PUSH1 0x1 DUP3 SUB SWAP1 POP SWAP2 SWAP1 POP JUMP JUMPDEST PUSH32 0x537472696E67733A20686578206C656E67746820696E73756666696369656E74 PUSH1 0x0 DUP3 ADD MSTORE POP JUMP JUMPDEST PUSH1 0x0 PUSH2 0x39EB PUSH1 0x20 DUP4 PUSH2 0x2A33 JUMP JUMPDEST SWAP2 POP PUSH2 0x39F6 DUP3 PUSH2 0x39B5 JUMP JUMPDEST PUSH1 0x20 DUP3 ADD SWAP1 POP SWAP2 SWAP1 POP JUMP JUMPDEST PUSH1 0x0 PUSH1 0x20 DUP3 ADD SWAP1 POP DUP2 DUP2 SUB PUSH1 0x0 DUP4 ADD MSTORE PUSH2 0x3A1A DUP2 PUSH2 0x39DE JUMP JUMPDEST SWAP1 POP SWAP2 SWAP1 POP JUMP INVALID LOG2 PUSH5 0x6970667358 0x22 SLT KECCAK256 SWAP8 SWAP6 0xAD 0xF9 JUMP 0x2D DUP14 DELEGATECALL 0x2C 0xAB SWAP1 DUP15 SIGNEXTEND CALLVALUE 0xDD CHAINID RETURNDATACOPY GASPRICE 0xEF 0x5D 0xDF DUP8 EXTCODEHASH PUSH27 0xDAA82F9DF260E3D064736F6C634300081300330000000000000000 "
				},
				"gasEstimates": {
					"creation": {
						"codeDepositCost": "2987000",
						"executionCost": "infinite",
						"totalCost": "infinite"
					},
					"external": {
						"ACTIVE_TRAINER_ERROR()": "infinite",
						"CANT_GET_IT()": "infinite",
						"DEFAULT_ADMIN_ROLE()": "402",
						"EXECUTOR()": "463",
						"MTR_FEE_ERROR()": "infinite",
						"OWNER_ERROR()": "infinite",
						"activationBlock(uint256)": "infinite",
						"buyTrainerImprovement(address,uint256,uint256)": "infinite",
						"canGetItTrainerImprovement(uint256,uint256)": "infinite",
						"collectIDLEPoints(address,uint256)": "infinite",
						"collectTransPoints(address,uint256)": "infinite",
						"config_()": "infinite",
						"getContractData(uint256,uint256)": "infinite",
						"getRoleAdmin(bytes32)": "infinite",
						"getTakedFees()": "2526",
						"getTrainerData(uint256)": "infinite",
						"getTrainerImprovements(uint256,uint256)": "infinite",
						"getTrainersImprovements(uint256)": "infinite",
						"getUserFeesBalance(address)": "2953",
						"getUserRewardsValues(uint256)": "infinite",
						"getUsersRewardsPercentages(uint256)": "infinite",
						"grantRole(bytes32,address)": "infinite",
						"hasEnoughtForTrainerI(uint256,uint256)": "infinite",
						"hasRole(bytes32,address)": "3251",
						"idleBlocks(uint256)": "infinite",
						"injectBalance()": "infinite",
						"isActive(uint256)": "2862",
						"joinWithTrainer(address,uint256)": "infinite",
						"renounceRole(bytes32,address)": "infinite",
						"revokeRole(bytes32,address)": "infinite",
						"sendFeesToExecutor()": "infinite",
						"setExecutor(address)": "infinite",
						"setMTRFee(uint256)": "infinite",
						"setMaxWinners(uint256)": "infinite",
						"setPPerBlock(uint256)": "infinite",
						"setPPerTrans(uint256)": "infinite",
						"setPPercentage(uint8)": "infinite",
						"setRewardsP(uint256,uint8)": "infinite",
						"setTrainerImprovementValue(uint256,uint256,uint256)": "infinite",
						"supportsInterface(bytes4)": "774",
						"trainerHadImprovement(uint256,uint256)": "infinite",
						"trainers_()": "infinite",
						"transactionPoints(uint256)": "infinite",
						"unlockedIdlePoints(uint256)": "infinite"
					},
					"internal": {
						"takeFees(address)": "infinite"
					}
				},
				"methodIdentifiers": {
					"ACTIVE_TRAINER_ERROR()": "fc39d25d",
					"CANT_GET_IT()": "b601860c",
					"DEFAULT_ADMIN_ROLE()": "a217fddf",
					"EXECUTOR()": "630dc7cb",
					"MTR_FEE_ERROR()": "2c7d3c6c",
					"OWNER_ERROR()": "a195777c",
					"activationBlock(uint256)": "3c4141fd",
					"buyTrainerImprovement(address,uint256,uint256)": "38cf6da7",
					"canGetItTrainerImprovement(uint256,uint256)": "ba9a2b13",
					"collectIDLEPoints(address,uint256)": "9db137e7",
					"collectTransPoints(address,uint256)": "5f6846fa",
					"config_()": "82d5a8f0",
					"getContractData(uint256,uint256)": "c802748c",
					"getRoleAdmin(bytes32)": "248a9ca3",
					"getTakedFees()": "ae805057",
					"getTrainerData(uint256)": "2a080a75",
					"getTrainerImprovements(uint256,uint256)": "a036db5c",
					"getTrainersImprovements(uint256)": "b7c7dbf9",
					"getUserFeesBalance(address)": "9e857ad8",
					"getUserRewardsValues(uint256)": "b96f141b",
					"getUsersRewardsPercentages(uint256)": "94410135",
					"grantRole(bytes32,address)": "2f2ff15d",
					"hasEnoughtForTrainerI(uint256,uint256)": "1c8b2f02",
					"hasRole(bytes32,address)": "91d14854",
					"idleBlocks(uint256)": "d014a343",
					"injectBalance()": "95652eba",
					"isActive(uint256)": "82afd23b",
					"joinWithTrainer(address,uint256)": "4bce1b87",
					"renounceRole(bytes32,address)": "36568abe",
					"revokeRole(bytes32,address)": "d547741f",
					"sendFeesToExecutor()": "93710421",
					"setExecutor(address)": "1c3c0ea8",
					"setMTRFee(uint256)": "0f1a4273",
					"setMaxWinners(uint256)": "d17b18c4",
					"setPPerBlock(uint256)": "bc3a274b",
					"setPPerTrans(uint256)": "e6bcf406",
					"setPPercentage(uint8)": "d967895e",
					"setRewardsP(uint256,uint8)": "9bb0b7a3",
					"setTrainerImprovementValue(uint256,uint256,uint256)": "ea130820",
					"supportsInterface(bytes4)": "01ffc9a7",
					"trainerHadImprovement(uint256,uint256)": "1e9b26e3",
					"trainers_()": "e2c579a4",
					"transactionPoints(uint256)": "769cdfa4",
					"unlockedIdlePoints(uint256)": "3d95d225"
				}
			},
			"storageLayout": {
				"storage": [
					{
						"astId": 24,
						"contract": "contracts/TrainersIlde.sol:TrainersIDLE",
						"label": "_roles",
						"offset": 0,
						"slot": "0",
						"type": "t_mapping(t_bytes32,t_struct(RoleData)19_storage)"
					},
					{
						"astId": 1950,
						"contract": "contracts/TrainersIlde.sol:TrainersIDLE",
						"label": "trainers_",
						"offset": 0,
						"slot": "1",
						"type": "t_contract(IERC721)582"
					},
					{
						"astId": 1953,
						"contract": "contracts/TrainersIlde.sol:TrainersIDLE",
						"label": "config_",
						"offset": 0,
						"slot": "2",
						"type": "t_struct(IDLEConfiguration)1901_storage"
					},
					{
						"astId": 1969,
						"contract": "contracts/TrainersIlde.sol:TrainersIDLE",
						"label": "blockStartTracker_",
						"offset": 0,
						"slot": "8",
						"type": "t_mapping(t_uint256,t_uint256)"
					},
					{
						"astId": 1974,
						"contract": "contracts/TrainersIlde.sol:TrainersIDLE",
						"label": "tImprovements_",
						"offset": 0,
						"slot": "9",
						"type": "t_mapping(t_uint256,t_struct(Improvement)1906_storage)"
					},
					{
						"astId": 1979,
						"contract": "contracts/TrainersIlde.sol:TrainersIDLE",
						"label": "trainersData_",
						"offset": 0,
						"slot": "10",
						"type": "t_mapping(t_uint256,t_struct(EntityData)1911_storage)"
					},
					{
						"astId": 1985,
						"contract": "contracts/TrainersIlde.sol:TrainersIDLE",
						"label": "bTrainerImprovements_",
						"offset": 0,
						"slot": "11",
						"type": "t_mapping(t_uint256,t_mapping(t_uint256,t_bool))"
					},
					{
						"astId": 1989,
						"contract": "contracts/TrainersIlde.sol:TrainersIDLE",
						"label": "rewardsP_",
						"offset": 0,
						"slot": "12",
						"type": "t_mapping(t_uint256,t_uint8)"
					},
					{
						"astId": 1993,
						"contract": "contracts/TrainersIlde.sol:TrainersIDLE",
						"label": "feeBalance_",
						"offset": 0,
						"slot": "13",
						"type": "t_mapping(t_address,t_uint256)"
					},
					{
						"astId": 1995,
						"contract": "contracts/TrainersIlde.sol:TrainersIDLE",
						"label": "gameRewards_",
						"offset": 0,
						"slot": "14",
						"type": "t_uint256"
					},
					{
						"astId": 1997,
						"contract": "contracts/TrainersIlde.sol:TrainersIDLE",
						"label": "takedFees_",
						"offset": 0,
						"slot": "15",
						"type": "t_uint256"
					},
					{
						"astId": 1999,
						"contract": "contracts/TrainersIlde.sol:TrainersIDLE",
						"label": "executor_",
						"offset": 0,
						"slot": "16",
						"type": "t_address"
					}
				],
				"types": {
					"t_address": {
						"encoding": "inplace",
						"label": "address",
						"numberOfBytes": "20"
					},
					"t_bool": {
						"encoding": "inplace",
						"label": "bool",
						"numberOfBytes": "1"
					},
					"t_bytes32": {
						"encoding": "inplace",
						"label": "bytes32",
						"numberOfBytes": "32"
					},
					"t_contract(IERC721)582": {
						"encoding": "inplace",
						"label": "contract IERC721",
						"numberOfBytes": "20"
					},
					"t_mapping(t_address,t_bool)": {
						"encoding": "mapping",
						"key": "t_address",
						"label": "mapping(address => bool)",
						"numberOfBytes": "32",
						"value": "t_bool"
					},
					"t_mapping(t_address,t_uint256)": {
						"encoding": "mapping",
						"key": "t_address",
						"label": "mapping(address => uint256)",
						"numberOfBytes": "32",
						"value": "t_uint256"
					},
					"t_mapping(t_bytes32,t_struct(RoleData)19_storage)": {
						"encoding": "mapping",
						"key": "t_bytes32",
						"label": "mapping(bytes32 => struct AccessControl.RoleData)",
						"numberOfBytes": "32",
						"value": "t_struct(RoleData)19_storage"
					},
					"t_mapping(t_uint256,t_bool)": {
						"encoding": "mapping",
						"key": "t_uint256",
						"label": "mapping(uint256 => bool)",
						"numberOfBytes": "32",
						"value": "t_bool"
					},
					"t_mapping(t_uint256,t_mapping(t_uint256,t_bool))": {
						"encoding": "mapping",
						"key": "t_uint256",
						"label": "mapping(uint256 => mapping(uint256 => bool))",
						"numberOfBytes": "32",
						"value": "t_mapping(t_uint256,t_bool)"
					},
					"t_mapping(t_uint256,t_struct(EntityData)1911_storage)": {
						"encoding": "mapping",
						"key": "t_uint256",
						"label": "mapping(uint256 => struct TrainersIDLE.EntityData)",
						"numberOfBytes": "32",
						"value": "t_struct(EntityData)1911_storage"
					},
					"t_mapping(t_uint256,t_struct(Improvement)1906_storage)": {
						"encoding": "mapping",
						"key": "t_uint256",
						"label": "mapping(uint256 => struct TrainersIDLE.Improvement)",
						"numberOfBytes": "32",
						"value": "t_struct(Improvement)1906_storage"
					},
					"t_mapping(t_uint256,t_uint256)": {
						"encoding": "mapping",
						"key": "t_uint256",
						"label": "mapping(uint256 => uint256)",
						"numberOfBytes": "32",
						"value": "t_uint256"
					},
					"t_mapping(t_uint256,t_uint8)": {
						"encoding": "mapping",
						"key": "t_uint256",
						"label": "mapping(uint256 => uint8)",
						"numberOfBytes": "32",
						"value": "t_uint8"
					},
					"t_struct(EntityData)1911_storage": {
						"encoding": "inplace",
						"label": "struct TrainersIDLE.EntityData",
						"members": [
							{
								"astId": 1908,
								"contract": "contracts/TrainersIlde.sol:TrainersIDLE",
								"label": "mult",
								"offset": 0,
								"slot": "0",
								"type": "t_uint256"
							},
							{
								"astId": 1910,
								"contract": "contracts/TrainersIlde.sol:TrainersIDLE",
								"label": "points",
								"offset": 0,
								"slot": "1",
								"type": "t_uint256"
							}
						],
						"numberOfBytes": "64"
					},
					"t_struct(IDLEConfiguration)1901_storage": {
						"encoding": "inplace",
						"label": "struct TrainersIDLE.IDLEConfiguration",
						"members": [
							{
								"astId": 1890,
								"contract": "contracts/TrainersIlde.sol:TrainersIDLE",
								"label": "projectPercentage",
								"offset": 0,
								"slot": "0",
								"type": "t_uint8"
							},
							{
								"astId": 1892,
								"contract": "contracts/TrainersIlde.sol:TrainersIDLE",
								"label": "pPerBlock",
								"offset": 0,
								"slot": "1",
								"type": "t_uint256"
							},
							{
								"astId": 1894,
								"contract": "contracts/TrainersIlde.sol:TrainersIDLE",
								"label": "pPerTrans",
								"offset": 0,
								"slot": "2",
								"type": "t_uint256"
							},
							{
								"astId": 1896,
								"contract": "contracts/TrainersIlde.sol:TrainersIDLE",
								"label": "feeMTR",
								"offset": 0,
								"slot": "3",
								"type": "t_uint256"
							},
							{
								"astId": 1898,
								"contract": "contracts/TrainersIlde.sol:TrainersIDLE",
								"label": "startBlock",
								"offset": 0,
								"slot": "4",
								"type": "t_uint256"
							},
							{
								"astId": 1900,
								"contract": "contracts/TrainersIlde.sol:TrainersIDLE",
								"label": "maxWinners",
								"offset": 0,
								"slot": "5",
								"type": "t_uint256"
							}
						],
						"numberOfBytes": "192"
					},
					"t_struct(Improvement)1906_storage": {
						"encoding": "inplace",
						"label": "struct TrainersIDLE.Improvement",
						"members": [
							{
								"astId": 1903,
								"contract": "contracts/TrainersIlde.sol:TrainersIDLE",
								"label": "value",
								"offset": 0,
								"slot": "0",
								"type": "t_uint256"
							},
							{
								"astId": 1905,
								"contract": "contracts/TrainersIlde.sol:TrainersIDLE",
								"label": "mult",
								"offset": 0,
								"slot": "1",
								"type": "t_uint256"
							}
						],
						"numberOfBytes": "64"
					},
					"t_struct(RoleData)19_storage": {
						"encoding": "inplace",
						"label": "struct AccessControl.RoleData",
						"members": [
							{
								"astId": 16,
								"contract": "contracts/TrainersIlde.sol:TrainersIDLE",
								"label": "members",
								"offset": 0,
								"slot": "0",
								"type": "t_mapping(t_address,t_bool)"
							},
							{
								"astId": 18,
								"contract": "contracts/TrainersIlde.sol:TrainersIDLE",
								"label": "adminRole",
								"offset": 0,
								"slot": "1",
								"type": "t_bytes32"
							}
						],
						"numberOfBytes": "64"
					},
					"t_uint256": {
						"encoding": "inplace",
						"label": "uint256",
						"numberOfBytes": "32"
					},
					"t_uint8": {
						"encoding": "inplace",
						"label": "uint8",
						"numberOfBytes": "1"
					}
				}
			},
			"userdoc": {
				"kind": "user",
				"methods": {},
				"version": 1
			}
		}
	}
}